:020000040800F2
:1000000000060020F5050008753600082D360008AA
:10001000553600082D3600084D360008F705000853
:10002000F7050008F7050008F7050008594600081D
:10003000F7050008F7050008F7050008F7050008B0
:10004000F7050008F7050008F7050008F7050008A0
:10005000F7050008F70500084D5E0008795E000806
:10006000A55E0008D15E0008FD5E0008F7050008E7
:10007000F7050008F7050008F7050008F705000870
:10008000F7050008F7050008F7050008DD3500084A
:1000900005360008F135000819360008295F000808
:1000A000F7050008F7050008F7050008F705000840
:1000B000F7050008F7050008F7050008F705000830
:1000C000F7050008F7050008F7050008F705000820
:1000D000F705000801600008F7050008F7050008AB
:1000E0008D5F0008F7050008F7050008F705000810
:1000F000F7050008F7050008F7050008F7050008F0
:10010000F7050008F705000829600008F705000852
:10011000F7050008F7050008F7050008F7050008CF
:10012000F7050008F7050008F7050008F7050008BF
:10013000F7050008F7050008F7050008F7050008AF
:10014000F7050008F7050008F7050008F70500089F
:10015000F7050008F7050008F7050008F70500088F
:10016000F7050008F7050008F7050008F70500087F
:10017000F7050008F7050008F7050008F70500086F
:10018000F7050008F7050008F705000815600008E6
:10019000F7050008F7050008F7050008F70500084F
:1001A000F7050008F7050008F7050008F70500083F
:1001B000F7050008F7050008F7050008F70500082F
:1001C000F7050008F7050008F7050008F70500081F
:1001D000F7050008F7050008F7050008F70500080F
:1001E000F7050008F7050008F7050008F7050008FF
:1001F000F7050008F7050008F7050008F7050008EF
:10020000F7050008F7050008F7050008F7050008DE
:10021000F7050008F7050008F7050008F7050008CE
:10022000F7050008F7050008F7050008F7050008BE
:10023000F7050008F7050008F7050008F7050008AE
:10024000F7050008F7050008F7050008F70500089E
:10025000F7050008F7050008F7050008F70500088E
:10026000F7050008F7050008F7050008F70500087E
:10027000F7050008F7050008F7050008F70500086E
:10028000F7050008F7050008F7050008F70500085E
:10029000F7050008F7050008F7050008F70500084E
:1002A000F7050008F7050008F7050008F70500083E
:1002B000F7050008F7050008F7050008F70500082E
:1002C000F7050008F7050008F7050008F70500081E
:1002D000F7050008F7050008F7050008F70500080E
:1002E000751B000800000000000000000000000076
:1002F00053B94AB9002908BF00281CBF4FF0FF318D
:100300004FF0FF3000F074B9ADF1080C6DE904CE88
:1003100000F006F8DDF804E0DDE9022304B07047E0
:100320002DE9F047089D04468E46002B4DD18A42A8
:10033000944669D9B2FA82F252B101FA02F3C2F1DB
:10034000200120FA01F10CFA02FC41EA030E94406C
:100350004FEA1C48210CBEFBF8F61FFA8CF708FB8D
:1003600016E341EA034306FB07F199420AD91CEB65
:10037000030306F1FF3080F01F81994240F21C8197
:10038000023E63445B1AA4B2B3FBF8F008FB1033DF
:1003900044EA034400FB07F7A7420AD91CEB040414
:1003A00000F1FF3380F00A81A74240F207816444E4
:1003B000023840EA0640E41B00261DB1D440002369
:1003C000C5E900433146BDE8F0878B4209D9002DCD
:1003D00000F0EF800026C5E9000130463146BDE857
:1003E000F087B3FA83F6002E4AD18B4202D38242C1
:1003F00000F2F980841A61EB030301209E46002D70
:10040000E0D0C5E9004EDDE702B9FFDEB2FA82F2C4
:10041000002A40F09280A1EB0C014FEA1C471FFA22
:100420008CFE0126200CB1FBF7F307FB131140EA09
:1004300001410EFB03F0884208D91CEB010103F1D6
:10044000FF3802D2884200F2CB804346091AA4B298
:10045000B1FBF7F007FB101144EA01440EFB00FE6C
:10046000A64508D91CEB040400F1FF3102D2A645D1
:1004700000F2BB800846A4EB0E0440EA03409CE770
:10048000C6F12007B34022FA07FC4CEA030C20FA1D
:1004900007F401FA06F31C43F9404FEA1C4900FA3D
:1004A00006F3B1FBF9F8200C1FFA8CFE09FB1811BA
:1004B00040EA014108FB0EF0884202FA06F20BD92D
:1004C0001CEB010108F1FF3A80F08880884240F27D
:1004D0008580A8F102086144091AA4B2B1FBF9F0C1
:1004E00009FB101144EA014100FB0EFE8E4508D9BC
:1004F0001CEB010100F1FF346CD28E456AD9023841
:10050000614440EA0840A0FB0294A1EB0E01A14225
:10051000C846A64656D353D05DB1B3EB080261EB93
:100520000E0101FA07F722FA06F3F1401F43C5E96D
:10053000007100263146BDE8F087C2F12003D840A3
:100540000CFA02FC21FA03F3914001434FEA1C47E5
:100550001FFA8CFEB3FBF7F007FB10360B0C43EAD7
:10056000064300FB0EF69E4204FA02F408D91CEB87
:10057000030300F1FF382FD29E422DD90238634485
:100580009B1B89B2B3FBF7F607FB163341EA034125
:1005900006FB0EF38B4208D91CEB010106F1FF3874
:1005A00016D28B4214D9023E6144C91A46EA00466B
:1005B00038E72E46284605E70646E3E61846F8E6FD
:1005C0004B45A9D2B9EB020864EB0C0E0138A3E746
:1005D0004646EAE7204694E74046D1E7D0467BE727
:1005E000023B614432E7304609E76444023842E79F
:1005F000704700BF02E000F000F8FEE772B637482F
:1006000080F30888364880F3098836483649086000
:1006100040F20000CCF200004EF63471CEF2000140
:100620000860BFF34F8FBFF36F8F40F20000C0F23E
:10063000F0004EF68851CEF200010860BFF34F8FF4
:10064000BFF36F8F4FF00000E1EE100A4EF63C71E1
:10065000CEF200010860062080F31488BFF36F8F8C
:1006600005F0C6F805F0C8F94FF055301F491B4A90
:1006700091423CBF41F8040BFAE71D49184A9142E8
:100680003CBF41F8040BFAE71A491B4A1B4B9A423C
:100690003EBF51F8040B42F8040BF8E7002018495C
:1006A000184A91423CBF41F8040BFAE705F0DEF826
:1006B00005F024FA144C154DAC4203DA54F8041B2F
:1006C0008847F9E700F042F8114C124DAC4203DACA
:1006D00054F8041B8847F9E705F0C6B80006002067
:1006E000002200200000000808ED00E000000020CB
:1006F0000006002030640008002200209C22002018
:10070000A0220020406F0020E0020008E402000860
:10071000E4020008E40200082DE9F04F2DED108AF4
:10072000C1F80CD0D0F80CD0BDEC108ABDE8F08F29
:10073000002383F311882846A047002004F09CFC86
:10074000FEE704F0FFFB00DFFEE70000F8B50B2535
:10075000013D07D0042001F03BF842F2107004F094
:1007600091FCF5E704F0C8FF064605F037F80746A8
:10077000A0BB1F4B9E4233D001339E4232D026F0A5
:10078000FF021C4B9A422FD12C4642F21075F0B258
:1007900000F072FF00F076FF08B100252C4601F052
:1007A000A5FD08B100252C4637B1134B9E4203D05E
:1007B000002505F00BF82C46002004F0A7FF0CB133
:1007C00000F062F801F072FB00F0AEFF01F052FAA7
:1007D000284600F0E1F800F057F8F9E70446D9E7B9
:1007E0002C46D7E70124D5E72C4641F28835D1E7DE
:1007F000010007B0000008B0263A09B008B501F0C2
:1008000005FAA0F120035842584108BD07B541F24E
:100810001203022101A8ADF8043001F015FA03B06B
:100820005DF804FB302310B583F311881248036888
:100830000BB104F0DFFC0023104A4FF47A710E482C
:1008400004F0CEFC002383F311880D4C236813B110
:100850002368013B2360636813B16368013B6360F5
:10086000084B1B7833B9636823B9022001F0B4FA4E
:100870003223636010BD00BFA022002025080008BD
:10088000C0230020B8220020F8B53C4B3C4A1C464F
:100890001968013171D004339342F9D16268394B40
:1008A0009A426AD9384B9B6803F1006303F58023B1
:1008B0009A4262D204F05EFF04F070FF002001F063
:1008C000FFF90220314B187001F084FA304B0021FF
:1008D0009A6C99641A6F19671A6FDA6CD9645A6F37
:1008E00059675A6F1A6D19659A6F99679B6F72B63F
:1008F0004FF0E023C3F8084DD4E90004BFF34F8F55
:10090000BFF36F8F234AC2F88410BFF34F8F536930
:1009100023F480335361BFF34F8FD2F8803043F616
:10092000E076C3F3C905C3F34E335B0103EA060C5B
:1009300029464CEA81770139C2F87472F9D2203B1A
:1009400013F1200FF2D1BFF34F8FBFF36F8FBFF3BF
:100950004F8FBFF36F8F536923F40033536100232C
:10096000C2F85032BFF34F8FBFF36F8F302383F342
:100970001188854680F308882047F8BD00000408E8
:1009800020000408FFFF030800220020B8220020F6
:100990000045025800ED00E02DE9F04F93B0AD4B5B
:1009A0002022FF2100900AA89D6801F029FAAA4A96
:1009B0001378A3B90121A94811700360302383F390
:1009C000118803680BB104F015FC0023A44A4FF40E
:1009D0007A71A24804F004FC002383F31188009B81
:1009E000A04A03B1136000239F49009C98469B4690
:1009F0001E469A460B705360012001F0EBF924B1BA
:100A0000984B1B68002B00F01E82002001F0FEF8BE
:100A10000390039B002B01DA00F024FF039B002BC3
:100A2000EDDB012001F0D4F9039B213B162BE3D829
:100A300001A252F823F000BF950A0008BD0A000881
:100A4000510B0008F9090008F9090008F909000824
:100A5000E70B0008BB0D0008D50C0008370D000897
:100A60005F0D0008850D0008F9090008970D0008C2
:100A7000F9090008090E0008350B0008F9090008FB
:100A80004D0E0008A10A0008350B0008F9090008FE
:100A9000370D00080220FFF7B1FE002840F0FD816D
:100AA000009B022105A8B8F1000F08BF1C4641F2C7
:100AB0001233ADF8143001F0C7F89DE74FF47A70A7
:100AC00001F0A4F8071EEBDB0220FFF797FE0028D9
:100AD000E6D0013F052F00F2E281DFE807F0030ACC
:100AE0000D1013360523042105A8059301F0ACF879
:100AF00017E004215748F9E704215C48F6E7042190
:100B00005B48F3E74FF01C09484609F1040901F07E
:100B1000D9F80421059005A801F096F8B9F12C0F39
:100B2000F2D101204FF0000A00FA07F747EA0B0B59
:100B30005FFA8BFB01F0B0F926B10BF00B030B2B26
:100B400008BF0024FFF762FE56E704214948CDE7BD
:100B5000002EA5D00BF00B030B2BA1D10220FFF729
:100B60004DFE074600289BD001203F4E01F0A8F81B
:100B70004FF000080220307001F02CF95FFA88F97C
:100B8000484601F0ADF8044698B10021484608F106
:100B9000010801F0BDF80028F0D1B846044641F242
:100BA0001213022105A83E46ADF8143001F04CF8AE
:100BB00022E7012325460220337001F009F9254B75
:100BC0009B68AB4207D9284601F07CF8013040F021
:100BD00069810435F3E70025234BB8463E461D7076
:100BE000204B5D60A6E7002E3FF45AAF0BF00B03DD
:100BF0000B2B7FF455AF02201B4B187001F0EAF865
:100C0000322001F003F8B0F10009FFF649AF19F006
:100C100003077FF445AF0F4A09EB0503926893423F
:100C20003FF63EAFB9F5807F3FF73AAF124BB9457B
:100C3000019323DD4FF47A7000F0E8FF0390039AEC
:100C4000002AFFF62DAF039A0137019B03F8012B11
:100C5000EDE700BF00220020BC230020A0220020DE
:100C600025080008C0230020B8220020042200200C
:100C7000082200200C220020BC220020C820FFF700
:100C8000BDFD074600283FF40BAF1F2D11D8C5F15D
:100C900020020AAB25F0030084494A45184428BFC6
:100CA0004A46019201F09AF8019AFF217F4801F02B
:100CB000A7F84FEAA903C9F387027C4928460193A4
:100CC00001F0A6F8064600283FF469AF019B05EB4A
:100CD00083052FE70220FFF791FD00283FF4E0AEE7
:100CE00001F028F800283FF4DBAE0027B946704B2E
:100CF0009B68BB4218D91F2F11D80A9B01330ED015
:100D000027F0030312AA134453F8203C05934846E6
:100D1000042205A9043701F0D3FA8146E7E73846F3
:100D200000F0D0FF0590F2E7CDF81490042105A85B
:100D300000F08AFFFEE60023642104A8049300F07B
:100D400079FF00287FF4ACAE0220FFF757FD0028A2
:100D50003FF4A6AE049800F0E3FF0590E6E7002319
:100D6000642104A8049300F065FF00287FF498AE86
:100D70000220FFF743FD00283FF492AE049800F0F4
:100D8000D1FFEAE70220FFF739FD00283FF488AEE3
:100D900000F0E0FFE1E70220FFF730FD00283FF41C
:100DA0007FAE05A9142000F0DBFF07460421049064
:100DB00004A800F049FF3946B9E7322000F026FFC9
:100DC000071EFFF66DAEBB077FF46AAE384A07EB2D
:100DD0000A03926893423FF663AE0220FFF70EFDCE
:100DE00000283FF45DAE27F003075744BA453FF4AF
:100DF000A1AE50460AF1040A00F064FF04210590F8
:100E000005A800F021FFF1E74FF47A70FFF7F6FC38
:100E100000283FF445AE00F08DFF002844D00A9B27
:100E200001330BD008220AA9002000F0F1FF0028AE
:100E30003AD02022FF210AA800F0E2FFFFF7E6FCEB
:100E40001C4804F01FF913B0BDE8F08F002E3FF4EA
:100E500027AE0BF00B030B2B7FF422AE0023642193
:100E600005A8059300F0E6FE074600287FF418AEBB
:100E70000220FFF7C3FC814600283FF411AEFFF7C4
:100E8000C5FC41F2883004F0FDF8059801F022F825
:100E90004E463C4601F000F8AEE506464AE64FF005
:100EA000000AFDE5B8467AE6374678E6BC2200201F
:100EB00000220020A0860100094A49F26900136857
:100EC00099B21B0C00FB013344F250611360054BD7
:100ED000186882B2000C01FB0200186080B27047F3
:100EE00018220020142200200021102210B50446F0
:100EF00000F086FF034B03CB206061601868A060A0
:100F000010BD00BF00E8F11F2DE9F041ADF54C7DAB
:100F10000D46002140F275126AAC07460CA80B91F1
:100F200000F06EFF4FF4C4720021204600F068FF0D
:100F30000DF12C0802F0A6FB4FF47A72264BB0FBA1
:100F4000F2F0186093E80700022384E807000DF52B
:100F5000E5702382FFF7C8FF41F204331F4906A85A
:100F6000238405F0F7F813230DF2DB220DF1280C92
:100F700084F8323106AB1E46083203CE664542F88D
:100F8000080C42F8041C3346F5D131882046B3786A
:100F9000118041469370012200F0B6FF002380B219
:100FA000E97E0393AB7E029305F1190301930123BC
:100FB000009307A3D3E90023CDE90480384602F06B
:100FC0001FFF0DF54C7DBDE8F08100BFAFF3008041
:100FD0009E6AC421818A46EEC8230020646100080D
:100FE0002DE9F0412C4CDAB080460D46237A5BBBEC
:100FF00027A9284601F096F80746002842D19DF817
:101000009D60C82E3ED801464FF4A662204600F0EF
:10101000F7FE4FF4807332460DF19E01C4F8F831AB
:101020004FF4007304F109002644C4F80C334FF464
:101030004073C4F8203400F0D1FE9DF89C307772E4
:1010400023720BB9EB7E237206AC8122002127A804
:1010500000F0D6FE0122214627A801F09FF80023C8
:1010600080B2E97E0393AB7E029305F119030193ED
:101070002823CDE904400093404605A3D3E900238B
:1010800002F0BEFE5AB0BDE8F08100BFAFF30080B1
:1010900026417272DF25D7B7C05D0020F0B5254E1E
:1010A0004FF48A75F1B0002405FB006596F8D8303E
:1010B000D822214685F8DC303AA885F8E84006AF0A
:1010C00000F09EFE06F1090000F092FED5F8E43033
:1010D000C2B206F109018DF8F0000DF1F100CDE981
:1010E0003A3400F07BFE394601223AA801F082F83A
:1010F000082380B2317ACDE9047001270E48CDE98A
:10110000023706F1D80301933023009307A3D3E9F4
:10111000002302F075FEA04206DD02F0B3FAC5F826
:10112000E000384671B0F0BD2046FBE778F6339F0B
:1011300093CACD8DC05D0020E03300202DE9F04F33
:10114000274F87B0DFF8A480264E384602F084FE91
:10115000034600283CD00024234DADF81440A1469E
:101160000294A246CDE90344027B8DF8142003AA21
:101170009968406803C21B6843F0004302932B68E0
:1011800004F23654D3F810B002F07EFA10EB0802E5
:10119000CDF800A0284605F5A65541F1000302A9A7
:1011A000D84740F66C230028C8BF49F0010918351C
:1011B0009C42E4D1B9F1000F05D0384602F050FE50
:1011C00086F800A0C1E73378072B04D801333370C9
:1011D00007B0BDE8F08F024802F042FEF8E700BF1A
:1011E000E0330020FF6200201034002040420F0056
:1011F00070B50D4614461E4602F05EFD50B9022E33
:1012000010D1012C0ED112A3D3E900230120C5E98E
:10121000002307E0282C10D005D8012C09D0052C7C
:101220000FD0002070BD302CFBD10BA3D3E90023DD
:10123000ECE70BA3D3E90023E8E70BA3D3E90023F2
:10124000E4E70BA3D3E90023E0E700BFAFF300809E
:10125000401DA12026812A0B78F6339F93CACD8D9D
:101260009E6AC421818A46EE26417272DF25D7B775
:10127000F017304A39059E5638B505460E4C002108
:10128000013500F045FDA4F82C55B4F82C0500F00C
:1012900027FD78B1B4F82C0500F032FD014648B9BD
:1012A000B4F82C0500F034FDB4F82C350133A4F863
:1012B0002C35EAE738BD00BFC05D002013B502F051
:1012C000E1F919490B68C31A642B184B08D9184A5D
:1012D0001C8892F900200860C2EB021222441A8096
:1012E000B3F90020002A1BDA00221A8011490A688B
:1012F000821AB2F57A7F04D90D4C086022785242E6
:101300002270B3F900300322002093FBF2F3DBB22A
:1013100063F3070063F30F2063F3174002B010BDBF
:10132000962AE3DD9622E0E7F4620020FC620020CA
:1013300010220020F8620020F8B50E4C02260E4F55
:10134000A4F5805343F8307C237E3BB965692DB109
:10135000284601F049F8284604F0B2FE2046A4F5DC
:10136000A65401F041F8012EA4F1180400D1F8BDF3
:101370000126E5E718590020086200082DE9F04F22
:101380008FB005460C4600AF02F096FC002849D10C
:10139000237E022B1BD1E38A012B18D102F072F9B4
:1013A0000646FFF789FD03464FF4C87006F516762A
:1013B000DFF8C082B3FBF0F202FB103316FA83F3BE
:1013C000C8F80030E37E33B9A34B00221A703C37D3
:1013D000BD46BDE8F08F07F12401204600F060FE15
:1013E0000028F4D107F11400FFF77EFD97F826409E
:1013F00007F1140107F12700224604F079FE0028C6
:10140000E2D10F2C08D8944B1C70D8F80030A3F50B
:101410001673C8F80030DAE797F82410284602F06F
:1014200043FCD4E7E38A282B2BD010D8012B23D000
:10143000052BCCD1BFF34F8F8849894BCA6802F482
:10144000E0621343CB60BFF34F8F00BFFDE7302B4B
:10145000BDD1844EE17E327A9142B8D1607E314670
:10146000002291F8DC50854200F0A580013201F5A0
:101470008A71042AF5D1AAE721462846FFF744FDE0
:10148000A5E721462846FFF7ABFDA0E7B2F8EC50F0
:101490007B6005F103094FEA99094FEA8902D11DE2
:1014A000C908A8EBC10300219D46EB46584600F051
:1014B000A7FC04F1EE012A465846314400F08EFCA8
:1014C0007B6813B9012000F0FBFB96F8D20000F016
:1014D00007FC044630B9307200F02CFC204600F0C6
:1014E000EFFBB1E0D6F8D4203AB996F8D200B6F8BE
:1014F0002C25824201D8FFF7BFFED6F8D4202A441B
:10150000944208D296F8D200B6F82C2501308242D7
:1015100001D8FFF7B1FE5FFA89F25946706800F012
:1015200077FC08B9C54679E0726896F8D2002A447B
:101530007260D6F8D42005EB0209C6F8D49000F00A
:10154000CFFB814509D396F8D220D6F8D4000132DA
:10155000001B86F8D220C6F8D400FF2D0FD8002437
:10156000347200F0E7FB204600F0AAFB00F0BEFE5C
:101570003D4B188108B9FFF787F9C54627E7BB68D7
:1015800096F8D9000AFB0362FB68D2F8E41082F8EF
:10159000E83001F58061C2F8E030C2F8E410FFF7EE
:1015A0007DFDFFF7CBFD96F8D920013202F0030252
:1015B00086F8D920B6E74FF48A7A20460AFB02F56E
:1015C00005F1EA01314400F041FEF86000287FF4A3
:1015D000FEAE0122354485F8E82002F053F8D5F834
:1015E000E020D6ED007A801A40F6B832B8EE677A7D
:1015F000DFED1E6A192838BF1920904228BF104617
:1016000007EE900AF8EEE77A67EEA67ADFED186A41
:10161000E7EE267AFCEEE77AC6ED007A96F8D93046
:10162000BB60BA6873680AFB02F4321992F8E810DA
:1016300059B1D2F8E410E8468B423FF427AF0021BD
:1016400082F8E810C2F8E010C5467368064A9B0AA3
:1016500001331381BBE600BFD933002000ED00E069
:101660000400FA05C05D0020C8230020CDCCCC3D8D
:101670006666663FDC330020014B1870704700BF80
:10168000D423002038B5BFF34F8F214B4FF0405487
:10169000204AC3F87042C3F870222032C3F8702287
:1016A0002032C3F870222032C3F870222032C3F8EF
:1016B00070222032C3F87022BFF34F8FBFF36F8FB9
:1016C000154B22689A4221D1627D0025134B1448A4
:1016D0001A70C922237D0930124900F8013C4FF4E9
:1016E0008073C0F8DB50C0F8EF314FF40073C0F8DE
:1016F00003334FF44073C0F8173400F06FFBE0225F
:101700002946204600F07CFB012038BD0020FCE784
:1017100000ED00E0200000309AAD44C5D423002045
:10172000C05D00201600003037B500F0DFFD1F4C13
:101730001F4D022301221F496B7123682881204617
:1017400004F580545B6898470122D4F8D83404F536
:101750009B6018495B689847002317494FF48052F3
:101760000193164B16480093164B02F075FA164B70
:10177000197811B1124802F097FA01F083FF04467C
:10178000FFF79AFB4FF4C873B0FBF3F202FB1303AD
:1017900004F5167010FA83F00C4B186004F01EF874
:1017A00008B10F232B8103B030BD00BF10340020DF
:1017B000C823002040420F00D8230020F111000868
:1017C000E03300207D130008D4230020DC33002008
:1017D0002DE9F041192501224FF400714FF4807674
:1017E00045431F4802F0A8FF4FF4807105F1320411
:1017F00039351B48012204F0070402F09DFF25F053
:1018000007056520C4F13A041549E4B2013824D033
:1018100000231927AB42F9D0B04603F1080E9C42D1
:1018200005D94FF0000C4E834FF000720CE01A1BEC
:101830004E83B2FBF7FC07FB1C22002A0CBF4FF0C3
:10184000010C4FF0000CEFD1013342EA4C227345FA
:101850008A61A1F81880E2D1DCE7BDE8F08100BF21
:10186000000402582DE9F04F00252DED028B93B0B6
:101870000DF12C084FF0010ADFF8D4B2FFF75EFC3F
:101880000A95ADF834500B95C8F804509FEDA98B1C
:101890000026AE4C374623680DF11D0207A92046ED
:1018A0008DF81CA08DF81D508DED008BD3F808909D
:1018B0000023C8479DF81C90B9F1000F1ED01022DC
:1018C00000210EA800F09CFA236808AA0AA95F6903
:1018D00020460DF11E03B8470FAB4F4698E80300B2
:1018E00083E803009DF834300EA958468DF8443043
:1018F0000A9B0E93DDE9082302F090FC06F23656AF
:1019000040F66C2304F5A6549E4204F11804C2D19B
:10191000002FBDD18E4802F0CFF900283FD18D4E67
:1019200001F0B0FE3368984239D301F0ABFE0446B3
:10193000FFF7C2FA4FF4C8738DF82870B0FBF3F2CA
:1019400002FB130304F5167010FA83F03060824E28
:10195000377817B901238DF82830C7F110040EA885
:10196000FFF7C2FA0EABE4B20DF12900D919062C2B
:1019700028BF06242246013400F030FA0AABE4B254
:1019800073480393182304940293744B0193012327
:1019900000936AA3D3E9002302F0D4F9357001F073
:1019A00071FE6F4A1368C31AB3F57A7F30D31060A3
:1019B00001F06AFE02460B46654802F05BFA644895
:1019C00002F07AF920B3674B0EAE674C1B7A002BFE
:1019D00014BF03230223637101F054FE4FF47A73A2
:1019E00001223146B0FBF3F02060204600F030FBCE
:1019F000182380B202935D4B019340F25513CDE959
:101A00000360009352484FA3D3E9002302F09AF9F0
:101A1000FFF754FC0826C0F307238DF83800002296
:101A2000C0F30740DFF848914FF4807A8DF83930E1
:101A30008DF83A00A6F10807332F51D9A7F13404E5
:101A40001923B4FBF3F103FB1143002B4AD0641AB2
:101A50004FF01808B4FBF8F890450BD0FFF72EFCB8
:101A6000C0F307238DF83800C0F307408DF83930F4
:101A70008DF83A001822B4FBF2F302FB134312AACA
:101A800004F0070402EBD3034246C4F1080413F840
:101A9000103C43FA04F404F00104002C07F10107A0
:101AA000A9F81AA00CBF4FF000730023BE4243EA0E
:101AB0004424C9F81840A9F818A0BDD10836A02EB2
:101AC000B8D1284C237A7BB9C82003F0DBFA237AFB
:101AD000002B7FF4CDAE13B0BDEC028BBDE8F08FD0
:101AE0000024DAE70124D8E701F0CCFD0026074600
:101AF0004FF48A7894F8D900304400F0030008FBD2
:101B0000004393F8E8201AB10136042EF2D1DBE746
:101B1000D3F8E02042B12368BA1AFA2B38BFFA236F
:101B20000533B2EB430FEFD3FFF7B8FA0028EBD140
:101B3000CAE700BF0000000000000000401DA12017
:101B400026812A0BF1C6A7C1D068080F10340020E7
:101B5000E0330020DC330020D9330020D8330020CC
:101B6000F0620020C05D0020C8230020FE6200203B
:101B70000004025808B5064801F078F8054801F05D
:101B800075F8054A05490020BDE8084004F092BAFE
:101B900010340020E8480020586300203913000862
:101BA0002DE9F84F4FF47A7306460D46002402FBE8
:101BB00003F7DFF85080DFF8509098F900305FFAB3
:101BC00084FA5A1C01D0A34212D159F824002A46A3
:101BD00031460368D3F820B03B46D847854207D149
:101BE000074B012083F800A0BDE8F88F0124E4E74B
:101BF000002CFBD04FF4FA7003F044FA0020F3E716
:101C0000446300201C22002020220020002307B56E
:101C1000024601210DF107008DF80730FFF7C0FFE4
:101C200020B19DF8070003B05DF804FB4FF0FF30D2
:101C3000F9E700000A46042108B5FFF7B1FF80F07C
:101C40000100C0B2404208BD074B0A4630B41978C3
:101C5000064B53F82140014623682046DD69044BBA
:101C6000AC4630BC604700BF446300202022002007
:101C7000A086010070B5104C0025104E03F0C2FB89
:101C800020803068238883420CD8002520880138C2
:101C900003F0B4FB23880544013BB5F5802F238076
:101CA000F4D370BD03F0AAFB336805440133B5F5E6
:101CB000802F3360E5D3E8E746630020006300200F
:101CC00003F06EBC00F1006000F5802000687047F2
:101CD00000F10060920000F5802003F0EFBB0000EF
:101CE000054B1A68054B1B889B1A834202D9104486
:101CF00003F084BB0020704700630020466300208F
:101D0000024B1B68184403F07FBB00BF0063002038
:101D1000024B1B68184403F089BB00BF006300201E
:101D20000020704700F1FF5000F58F10D0F8000838
:101D300070470000064991F8243033B1002308228F
:101D4000086A81F82430FFF7C3BF0120704700BF45
:101D500004630020014B1868704700BF0010005C4E
:101D6000184B013870B51D680844174BC5F30B02BA
:101D70002D0C1C88A24203D01C89A2420CD108332E
:101D80005C680A46013C824213460BD214F9016F8B
:101D90002EB102F8016BF6E781420B4602D22C22EB
:101DA00003F8012B0424094A1688AE4204D1984254
:101DB00084BF967803F8016B013C02F10402F3D171
:101DC000581A70BD0010005C2822002094610008A1
:101DD000704700007047000070470000002310B5F6
:101DE000934203D0CC5CC4540133F9E710BD00002A
:101DF00003460246D01A12F9011B0029FAD1704796
:101E000002440346934202D003F8011BFAE77047ED
:101E10002DE9F8431F4D14460746884695F82420BF
:101E200052BBDFF870909CB395F824302BB9202278
:101E3000FF2148462F62FFF7E3FF95F82400414653
:101E4000C0F1080205EB8000A24228BF2246D6B2AC
:101E50009200FFF7C3FF95F82430A41B17441E44DB
:101E60009044E4B2F6B2082E85F82460DBD1FFF787
:101E700061FF0028D7D108E02B6A03EB820383427D
:101E8000CFD0FFF757FF0028CBD10020BDE8F88363
:101E90000120FBE704630020024B1A78024B1A7002
:101EA000704700BF446300201C22002010B5074C7F
:101EB0004FF4E133064920680B6002F0A9FF606827
:101EC0000349BDE8104002F0A3BF00BF202200205C
:101ED0002C630020094B1822002110B50446184637
:101EE000FFF78EFF064A074B01461278046053F84D
:101EF0002200BDE8104002F08BBF00BF2C63002021
:101F000044630020202200202DE9F0470D460446BE
:101F100000219046284640F27912FFF771FF2346D0
:101F200020220021284604F1220702F019F9231D7E
:101F3000022220212846C02602F012F9631D032246
:101F40002221284602F00CF9A31D03222521284650
:101F500002F006F904F1080310222821284602F0B5
:101F6000FFF804F1100308223821284602F0F8F89F
:101F700004F1110308224021284602F0F1F804F18F
:101F8000120308224821284602F0EAF804F114035B
:101F900020225021284602F0E3F804F118034022E1
:101FA0007021284602F0DCF804F120030822B02159
:101FB000284602F0D5F804F121030822B82128466A
:101FC00002F0CEF8314608363B4608222846013753
:101FD00002F0C6F8B6F5A07FF4D1002704F1330A69
:101FE00004F1320308223146284602F0B9F894F889
:101FF00032304FEAC7099F4209F5A47615D3B8F1EC
:10200000000F08D1314609F24F1604F599730722E3
:10201000284602F0A5F827463B1B94F8322193424C
:102020000CD3F01DC008BDE8F0870AEB07030822B7
:1020300031462846013702F093F8D8E707F2331308
:102040003146082228460836013702F089F8E3E7CE
:1020500013B5044608460021202223460190016062
:10206000C0F8031002F07CF8231D01980222202101
:1020700002F076F8631D01980322222102F070F825
:10208000A31D01980322252102F06AF8019804F1AA
:1020900008031022282102F063F8072002B010BDC7
:1020A0000023F7B50E46047F072200911946054626
:1020B00001F01AFF731C0122072100932846002318
:1020C00001F012FFC4B9B31C052208212846009371
:1020D00023460D2401F008FF3746BB1BB27893421C
:1020E00011D307342B7FA88AE408BBB9844294BF7C
:1020F0000020012003B0F0BDAB8A0824DB00083BC0
:10210000DB08B370E8E7FB1C214608222846009351
:1021100000230834013701F0E7FEDEE7201A18BF7C
:102120000120E7E70023F7B50E46047F082200915F
:102130001946054601F0D8FE731CC4B90822009365
:10214000234610241146284601F0CEFE01235F1CD1
:102150007278013B934211D307342B7FA88AE4089D
:10216000BBB9844294BF0020012003B0F0BDAB8A0C
:102170000824DB00083BDB087370E7E7F31921460E
:10218000082228460093002301F0AEFE08343B46A7
:10219000DDE7201A18BF0120E7E70000F8B50E467A
:1021A00005461446002181223046FFF729FE2B46C2
:1021B00008220021304601F0D3FF7CB90F246B1CAC
:1021C00007220821304601F0CBFF01235F1C6A780B
:1021D000013B934204D3E01DC008F8BD0824F4E796
:1021E000EB1921460822304601F0BAFF08343B467D
:1021F000ECE70000F8B50E46054614460021CE2255
:102200003046FFF7FDFD2B4628220021304601F025
:10221000A7FF7CB9302405F10803082228213046A5
:1022200001F09EFF2F467B1B2A7A934204D3E01DC8
:10223000C008F8BD2824F5E707F109032146082264
:1022400030460834013701F08BFFECE7F7B5047F27
:102250000E460091012310220021054601F044FEA4
:10226000C4B9B31C0922102128460093234619241F
:1022700001F03AFE37467288BB1B9A4211D80734E8
:102280002B7FA88AE408BBB9844294BF00200120B8
:1022900003B0F0BDAB8A1024DB00103BDB08738079
:1022A000E8E73B1D21460822284600930023083416
:1022B000013701F019FEDEE7201A18BF0120E7E719
:1022C00030B50A44084D91420DD011F8013B5840F9
:1022D000082340F30004013B2C4013F0FF0384EA81
:1022E0005000F6D1EFE730BD2083B8EDF7B5384A9E
:1022F0006B46106851686A4603C30823354936485F
:1023000003F006FF0446002833D10A25334A6B4602
:10231000106851686A4603C3082331492E4803F008
:10232000F7FE0446002849D00369B3F5E01F45D8FD
:10233000B0F8661040F2134291423FD1294A02445C
:1023400002F15C018B4239D35C3B234900209E1A89
:10235000FFF7B6FF04F16401074632460020FFF79D
:10236000AFFFA3689F4229D1E368984208BF0025C8
:1023700024E00369B3F5E01F27D8418B40F21342F4
:10238000914220D1174A024402F110018B4218D326
:10239000103B114900209D1AFFF792FF04F118012C
:1023A00006462A460020FFF78BFFA3689E4202D113
:1023B000E368984201D00D25A8E70025284603B020
:1023C000F0BD1025A2E70C25A0E70B259EE700BF76
:1023D000A4610008DCFF1B0000000408AD610008D8
:1023E00090FF1B000800FCF710B5037C044613B9EE
:1023F000006803F075FE204610BD00000023BFF307
:102400005B8FC360BFF35B8FBFF35B8F8360BFF3F2
:102410005B8F7047BFF35B8F0068BFF35B8F7047C4
:1024200070B505460C30FFF7F5FF044605F10806C8
:102430003046FFF7EFFFA04206D96D683046FFF740
:10244000E9FF2544281A70BD3046FFF7E3FF201A44
:10245000F9E7000070B505464068A0B105F10C062B
:1024600005F10800FFF7D6FF04463046FFF7D2FF1C
:10247000844204F1FF34304694BF6D680025FFF7B5
:10248000C9FF2C44201A70BD38B50C460546FFF72D
:10249000C7FFA04210D305F10800FFF7BBFF0444BB
:1024A0006868BFF35B8FB4FBF0F100FB11440120BF
:1024B000AC60BFF35B8F38BD0020FCE72DE9F04135
:1024C000144607460D46FFF7C5FF844228BF044661
:1024D000D4B1B84658F80C6B4046FFF79BFF304428
:1024E000286040467E68FFF795FF331A9C4203D868
:1024F00001206C60BDE8F081A41B6B603B68204448
:10250000AB60E8600220F5E72046F3E738B50C46FB
:102510000546FFF79FFFA04210D305F10C00FFF71F
:1025200079FF04446868BFF35B8FB4FBF0F100FBF4
:1025300011440120EC60BFF35B8F38BD0020FCE745
:102540002DE9FF418846694607466C46FFF7B6FF0E
:10255000002506B204EBC606B4420AD0626808EB56
:10256000050120680834FFF739FC54F8043C1D4489
:10257000F2E729463846FFF7C9FF284604B0BDE810
:10258000F0810000F8B505460C300F46FFF742FF1A
:1025900005F1080604463046FFF73CFFA0423046EE
:1025A00088BF6C68FFF736FF201A386020B12C68AE
:1025B0003046FFF72FFF2044F8BD000073B51446E6
:1025C00006460D46FFF72CFF8442019028BF0446C3
:1025D000DCB101A93046FFF7D5FF019B33B9326862
:1025E000C5E90233C5E9002401200CE09C422860C3
:1025F00038BF0194019884426860F5D93368241A81
:102600000220AB60EC6002B070BD2046FBE700002A
:102610002DE9FF410F4669466C46FFF7CFFF00B238
:10262000002604EBC005AC4209D0D4F80480B819E8
:1026300054F8081B42464644FFF7D0FBF3E7304608
:1026400004B0BDE8F081000038B50546FFF7E0FFB3
:10265000044601462846FFF717FF204638BD000014
:10266000302383F3118862B670470000002383F3A0
:10267000118862B670470000012070477047000063
:1026800010B41346026814680022A4465DF8044B97
:102690006047000000F5805090F87004704700001B
:1026A00000F5805090F852047047000000F580500B
:1026B000C0F85C14C0F860247047000000F5A35017
:1026C000103050E90201704700F5805090F958042D
:1026D000704700004E20704700F5805208B5FFF7A4
:1026E000BFFFD2F8B434D2F8B0041844D2F8AC34F6
:1026F0001844D2F894341844D2F8A4341844D2F8C8
:10270000A0341844FFF7B2FF08BD00002DE9F04FD8
:102710000C4600F5805185B01F4691F852340546AD
:102720009046BDF838909BB1D1F890340133C1F890
:10273000903423689A0006D4237B082B0BD9627B44
:102740000AB10F2B07D9D1F894340133C1F894346E
:102750004FF0FF300FE0FFF783FFEB6AD3F8C420A0
:1027600012F4001A0AD0D1F8983400200133C1F8CD
:102770009834FFF77BFF05B0BDE8F08F22684FF07B
:10278000480BD3F8C460002A6B6AC6F30446B4BF92
:1027900042F0804292041BFB063BCBF800202368EA
:1027A0005B004FEA066344BF42F00052CBF80020C2
:1027B000227B43EA02437201CBF80430607B18B3FA
:1027C00043F44013CBF80430D1F8C8340133C1F8D6
:1027D000C834AB1803F58353197B41F020011973FA
:1027E000207B039200F0AAFF0330039A80105FFA67
:1027F0008AF30AF1010A83420DDA04EB83010BEB41
:10280000830349689960F2E7AB1803F58353197B9A
:1028100060F34511E3E70121EB6A04F10C00B140DC
:10282000C3F8D010AB18214603F58253C3E90487DF
:1028300005EB461303F58253183351F804CB81425C
:1028400043F804CBF9D109882A442846198041F27B
:102850006803D65002F5805209F0030392F86C1019
:1028600043F0100321F01F010B43214682F86C3026
:102870004246FFF7FBFE3B46CDF8009000F024FFF8
:10288000012078E72DE9F04700F58056044696F8D8
:102890005254002D40F00181037C032B40F09280C4
:1028A0002B4628462F465FFA83FC944510DA01EB4D
:1028B000CC0E51F83CC0BCF1000F04DBDEF804C0C4
:1028C000BCF1000F02DB01370133ECE70130FBE71D
:1028D000FFF7C6FEE36AF0B9D3F8800040F00200CB
:1028E000C3F880004E23E06A002F6ED1D0F880300C
:1028F00043F00103C0F88030694B6A4A1B6803F15A
:10290000805303F52C539B009342A36240F2AF80A7
:10291000654800F0B1FE4D2842D8DFF884814FEAC7
:10292000004EDFF88891D8F800C04EEA8C0EC3F84C
:1029300084E00CF1805303F52C539B00636100EBA2
:102940000C03D4F82CC0C8F80030C0F14E03DCF8FA
:10295000800040F03000CCF880004FF0000CD4F83C
:102960001480E6465FFA8CF08242BCDD01EBC00ABF
:1029700051F83000002810DBDAF804A0BAF1000F9B
:102980000BDA09EA00400AF07F0A40EA0A0040F048
:10299000084048F82E000EF1010E0CF1010CE1E7A1
:1029A0009A6922F001029A6100F06CFE0646E36A21
:1029B0009B69D90704D500F065FE831BFA2BF6D975
:1029C000FFF754FE2846BDE8F087B7EB530F3DD222
:1029D000DFF8CCE04FEA074CDEF800304CEA830C1D
:1029E000C0F888C003F1805003EB4703002700F5CF
:1029F0002C50CEF80030BC468000A061E06AD0F8D0
:102A0000803043F00C03C0F88030D4F818E0FBB2FB
:102A10009A427FF771AF51F8330001EBC3080028E9
:102A2000D8F8043001DB002B0EDB20F0604023F0EF
:102A3000604340F0005043F000434EF83C000EEB82
:102A4000CC000CF1010C43600137E0E7836923F00F
:102A50000103836100F016FE0646E36A9B69DA070C
:102A6000AED500F00FFE831BFA2BF6D9A8E7E26A79
:102A7000936923F00103936100F004FE0746E36AC3
:102A80009B69DB0705D500F0FDFDC31BFA2BF6D9CA
:102A900096E7012586F8525492E7002592E700BF99
:102AA00054630020FCB50040B86100080000FF0737
:102AB00013B500F580540191606CFFF7CBFC1F2823
:102AC0000AD920220199606CFFF73AFDA0F120039A
:102AD0005842584102B010BD0020FBE700F580507D
:102AE00008B5FFF7BDFD406CFFF788FCBDE8084066
:102AF000FFF7BCBD002202608281426082607047A5
:102B00000022002310B5C0E90023002304460C3046
:102B100020F8043CFFF7EEFF204610BD2DE9F047FA
:102B2000074688B09A46884607F58054684691461D
:102B3000FFF796FDFFF7E4FF606CFFF771FC1F28BD
:102B40002DD920226946606CFFF77EFD202826D112
:102B500094F852341BB303AD444605AB2E460834FB
:102B600003CE9E4244F8080C44F8041C3546F5D1C7
:102B70003068414620603846B388A380DDE90023F1
:102B8000C9E90023BDF808304A46AAF80030FFF72B
:102B90006DFD534608B0BDE8F04700F083BD00204E
:102BA000FFF764FD08B0BDE8F08700002DE9F84F9D
:102BB0000023064600F58154054688461034C0E9D6
:102BC0000133274B46F8303B374638462037FFF76E
:102BD00097FFA742F9D105F580544FF4805305F5CE
:102BE000A3594FF0000A26630026676405F5835752
:102BF00009F110094FF0000B1037E663C4E90D36F8
:102C0000012384F8403084F84830A7F118002037B9
:102C100047E910ABFFF76EFF47F8286C4F45F4D13A
:102C2000B8F1010F84F85884A4F87264A4F87464AD
:102C3000A4F8766484F87864A4F87A64A4F87C64D0
:102C4000A4F87E6484F8806402D9064800F014FD7C
:102C5000054B284653F82830EB62BDE8F88F00BFDB
:102C600008620008DC610008F8610008044B10B538
:102C7000197804464A1C1A70FFF798FF204610BDC9
:102C8000516300202DE9F04700295FD0304F3148D3
:102C9000B7FBF1F581428CBF0A201120431EB5FB22
:102CA000F0FC00FB1C50DCB220B1022B1846F5D81A
:102CB000002037E00CF1FF35B5F5806F32D2C4EB60
:102CC000C4094FF47A7009F103034FEAE308C3F330
:102CD000C70308F1010AA4EB030E08FB00085FFA22
:102CE0008EF65AFA8EFEB8FBFEFEBEF5617F1BDC47
:102CF0001FFA8EF4581C56FA80F00CFB00FCB7FB50
:102D0000FCFC6145D4D1013BDBB20F2BD0D8711E46
:102D10000020C9B2072905D8107101201480558000
:102D200053719171BDE8F08709F1FF334FEAE30E6B
:102D3000C3F3C7030EF10108E41A0EFB0000E6B26C
:102D400058FA84F4B0FBF4F4A4B2D3E70846E9E7F8
:102D500000B4C4043F420F0038B540F27772C36A32
:102D6000154CC3F8BC200722C36AC3F8C8202268E8
:102D7000C16A930043F4C023C1F8A03002F180532C
:102D800002F16C01C56A03F52C53EA3289009B00FD
:102D9000226041F0E061094AC361C5F8C01003F543
:102DA000D87103F56A7341629342836202D9044881
:102DB00000F062FC38BD00BF54630020FCB5004049
:102DC000B86100082DE9F04F00F58055994689B0AB
:102DD000044695F858348A469046022B04D90027B9
:102DE000384609B0BDE8F08F9B4A52F8231009B964
:102DF00042F823009949C4F80CA00B7884F810908D
:102E0000C3B9FFF72DFC964BD3F8EC2042F4807247
:102E1000C3F8EC20D3F8942042F48072C3F89420D5
:102E2000D3F8942022F48072C3F8942001230B700D
:102E3000FFF71CFC95F851346BB9FFF711FC894A78
:102E400095F85834D35CEBB1012B24D0012385F8DD
:102E50005134FFF70BFCFFF703FCE26A936923F0A0
:102E60001003936100F00EFC0746E36A9E6916F0BA
:102E7000080617D000F006FCC31BFA2BF5D9FFF7A4
:102E8000F5FBACE70321132001F00CFE0321152014
:102E900001F008FEDAE70321142001F003FE03210C
:102EA0001620F5E79A6942F001029A6100F0EAFB08
:102EB0000746E36A9A69D00705D400F0E3FBC31B19
:102EC000FA2BF6D9DBE79A69002704F5825B42F01A
:102ED00002020BF1100B9A61E36A5F65FFF7C6FB14
:102EE000686CFFF78BFA202200216846FEF788FF06
:102EF00002A8FFF7FFFD6A460BEB06030DF1180E63
:102F0000069794460833BCE80300F44543F8080CE0
:102F100043F8041C6246F4D1DCF800002036186047
:102F2000B6F5806F9CF804201A71DCD1002304F5FB
:102F3000A35251462046123285F8503485F8533456
:102F4000FFF7A0FE074690B9E26A936923F00103F8
:102F5000936100F097FB0546E36A9B69D9077FF50B
:102F60003EAF00F08FFB431BFA2BF5D937E795F8FE
:102F7000776495F876243602C5F884A4E36A46EAB5
:102F8000426695F878241643B5F8742446EA02465A
:102F9000DE61B8F1000F29D004F5A3524146204666
:102FA0001A32FFF76FFE90B9E26A936923F00103CA
:102FB000936100F067FB0546E36A9B69DA077FF5DA
:102FC0000EAF00F05FFB431BFA2BF5D907E795F82E
:102FD000803495F87F141B01C5F88884E26A43EABF
:102FE0000123B5F87C1443EA0143D360E36A002669
:102FF0002046C3F8BC60FFF7AFFE85F870646FF041
:103000004042E36A1A65184AE36A5A654FF00222A1
:10301000E36A9A654FF0FF32E36AC3F8E0200322C7
:10302000E36A9145DA653FF4DBAEE26A936923F027
:103030000103936100F026FB0646E36A9B69DB0708
:1030400005D500F01FFB831BFA2BF6D9C7E6012339
:1030500085F85234C4E600BF486300205063002066
:1030600000440258F0610008550200022DE9F04FBB
:1030700000F5825689B0044691469A4618364FF0BC
:10308000000841F2680B00F58055E36AD3F8D830A8
:1030900023FA08F3DF0758D504EB48124FEA48112A
:1030A0005A441379180750D4D5F89C340133C5F825
:1030B0009C3404F5A65343E9029A13799A0642BF59
:1030C000D5F8CC340133C5F8CC34631821445B44C3
:1030D00059441A7942F008021A713368D5F85C2411
:1030E000D5F860041340834204BF04F5A353C3E939
:1030F000029A0B79DB0720D595F85334EBB168467B
:103100003746FFF7FDFC03AB06F1080C38680837BB
:1031100057F8041C1A46674503C21346F6D13868AF
:10312000694610602046BA889A800123ADF80830BD
:103130002368CDE9009A5B6C9847D5F8543423B1E5
:10314000D5F8C0340133C5F8C03408F10108203681
:10315000B8F1200F99D109B0BDE8F08F2DE9F04FFB
:103160000F468DB0044600F08FFA82468946002F44
:103170005BD1E36AD3F8A02012F4FE0F03D1002044
:103180000DB0BDE8F08FD3F8A420920141BF04F543
:103190008051D1F8B0240132C1F8B024D3F8A42072
:1031A0005606ECD0D3F8A450E669C5F305254823AC
:1031B000E8464FF0000B03FB05664046FFF79AFC1C
:1031C000326851004ABF22F06043C2F38A4343F0A1
:1031D0000043920048BF43F080430093736813F4A8
:1031E00000131BBF012304F580528DF80D308DF8BC
:1031F0000D301EBFD2F8D0340133C2F8D034F3887A
:1032000003F00F038DF80C309DF80C0000F096FAD7
:103210005FFA8BF3984225D9F2180CA90BF1010B38
:10322000127A0B4403F82C2CEEE7012FA7D1E36AA6
:10323000D3F8B02012F4FE0FA1D0D3F8B42095013A
:1032400041BF04F58051D1F8B0240132C1F8B02457
:10325000D3F8B420500692D0D3F8B450266AC5F300
:103260000525A4E7EFB9E36AC3F8A85004A807ADA1
:10327000FFF746FC98E80F0007C52B800023204687
:1032800004A9ADF81830236804F580545B6CCDE9CF
:1032900004A9984758B1D4F8A8340133C4F8A83425
:1032A0006EE7012FE2D1E36AC3F8B850DEE7D4F845
:1032B000AC3401200133C4F8AC3461E7F8B50546FD
:1032C0000F4600F58054012639462846FFF746FF91
:1032D00010B184F85364F7E7D4F8543423B1D4F828
:1032E000C0340133C4F8C034F8BD0000C36AF0B57F
:1032F0001A6C12F47F0F2BD01B6C00F5805441F236
:1033000068054FF0010CC4F8C4340023471900EBE2
:1033100043125E012A44117911F0020F15D04907BA
:1033200013D4B959C66A0CFA01F1D6F8CCE011EA07
:103330000E0F0AD0C6F8D410117941F004011171B2
:10334000D4F8A4240132C4F8A4240133202BDED104
:10335000F0BD00002B4B70B51E561B5C012B30D806
:10336000294D2A4A55F8233052F8264013B349B361
:10337000236D9A0510D54FF40073236500F084F98E
:1033800050EA01020B4602D0013861F10003024607
:1033900055F82600FFF76AFE236D9B012CD54FF0F0
:1033A000007255F82630226503F58053012283F818
:1033B000702421E001232365102323654FF48053FB
:1033C000236570BD236DDA0702D4236D5B0706D534
:1033D0000523002155F826002365FFF76FFF236DB5
:1033E000D80602D4236D590606D55023012155F87D
:1033F00026002365FFF762FF55F82600BDE8704000
:10340000FFF774BFF461000848630020F86100080A
:1034100008B5FFF725F9FFF769FFBDE80840FFF79A
:1034200025B90000C36AD3F8C00010F07C5005D065
:10343000D3F8C40080F40010C0F34050704700007F
:1034400000F5805008B5FFF70BF9406CFEF7E8FF78
:10345000FFF70CF943090CBF0120002008BD000054
:1034600000F5805393F8702462B1C16A8A6922F032
:1034700001028A61D3F8B4240132C3F8B4240022D3
:1034800083F87024704700002DE9F74300F582515E
:1034900098460025FFF7E4F8103141F2680E4FF02E
:1034A000010900F5805C00EB4514744423795E0744
:1034B0001CD4DB061AD58E69C36A09FA06F6D3F85E
:1034C000CC703E4212D04F6801970F689742019F1F
:1034D00077EB08070AD2C3F8D460237943F00403DA
:1034E0002371DCF8A0340133CCF8A034013520314D
:1034F000202DD8D103B0BDE8F043FFF7B7B80000E6
:10350000F8B51E4600230F46054613701446FFF714
:1035100097FF80F0010038701EB12846FFF782FF48
:103520002070F8BD2DE9F04F85B099460D468046D4
:10353000164691F800B0DDE90EA3029313780193CB
:1035400000F0A2F82B7804460F4613B93378002B0D
:1035500042D022463B464046FFF796FFFFF758FF12
:10356000FFF77EFF4B4632462946FFF7C9FF2B780F
:1035700033B1BBF1000F03D0012005B0BDE8F08FDF
:10358000337813B1019B002BF6D108F580530393D8
:103590005445029B77EB03031ED2039BD3F85404DC
:1035A000D0B10368AAEB0401DB6889B298474B46A7
:1035B000324629464046FFF7A3FF2B7813B1BBF1F3
:1035C000000FD9D1337813B1019B002BD4D100F077
:1035D0005BF804460F46DBE70020CEE7002108B584
:1035E0000846FFF7B7FEBDE8084001F06DB80000DF
:1035F00008B501210020FFF7ADFEBDE8084001F04D
:1036000063B8000008B500210120FFF7A3FEBDE864
:10361000084001F059B80000012108B50846FFF73D
:1036200099FEBDE8084001F04FB8000000B59BB01E
:10363000EFF3098168226846FEF7D0FBEFF30583BC
:10364000014B9B6BFEE700BF00ED00E008B5FFF704
:10365000EDFF000000B59BB0EFF3098168226846DA
:10366000FEF7BCFBEFF30583014B5B6BFEE700BF8E
:1036700000ED00E0FEE700000FB408B5029801F08D
:1036800097FCFEE701F0D8BF01F0B0BF13B56C4660
:10369000031D84E8060094E8030083E80500012088
:1036A00002B010BD73B58568019155B11B885B07E9
:1036B00007D4D0E900361B6C9847019AC1B2304656
:1036C000A847012002B070BDF0B5866889B00546F4
:1036D0000C465EB1BDF838305B070AD4D0E900373C
:1036E0001B6C98472246C1B23846B047012009B04A
:1036F000F0BD0022002301F10806CDE900230023DC
:103700000A46ADF8083003AB1068083252F8041CC2
:103710001C46B24203C42346F6D11068206092884A
:10372000A280FFF7B1FF0423ADF808302B68CDE984
:1037300000015B6C694628469847D7E7082817D9E7
:1037400009280CD00A280CD00B280CD00C280CD03F
:103750000D280CD00E2814BF4020302070470C20BC
:1037600070471020704714207047182070472020A1
:10377000704700002DE9F041456A15B94162BDE886
:10378000F0814B68AC4623F06047C3F38A464FEAAA
:10379000D37EC3F3807816EA230638BF3E462B4615
:1037A0005A68BEEBD27F22F060440AD0002A18DAB1
:1037B000A40CB44217D19D420FD10D60DEE7134631
:1037C000EEE7A74207D102F08044C2F3807242457F
:1037D0000BD054B1EFE708D2EDE7CCF800100B6046
:1037E000CDE7B44201D0B442E5D81A689C46002A1D
:1037F000E5D11960C3E700002DE9F047089D01F00D
:10380000070400EBD1004FF47F494FEAD50822446A
:1038100005F00705944201D1BDE8F08704F00707E1
:1038200005F0070A111B08EBD50E57453E4613F865
:103830000EC038BF5646C6F108068E4228BF0E4657
:10384000E108415C34443544B94029FA06F721FACD
:103850000AF1FFB28CEA010147FA0AF739408CEA13
:10386000010C03F80EC0D5E780EA0120082341F2DD
:10387000210201B2013B4000002980B2B8BF504094
:1038800013F0FF03F5D1704738B50C468D18A542EB
:1038900000D138BD14F8011BFFF7E6FFF7E7000081
:1038A00042684AB1136881894360438901339BB2FE
:1038B0009942438138BF83811046704770B588B004
:1038C000044620220D4668460021FEF799FA20465C
:1038D0000495FFF7E5FF024660B16B46054608AE6A
:1038E0001C46083503CCB44245F8080C45F8041CC6
:1038F0002346F5D1104608B070BD0000082817D93E
:1039000009280CD00A280CD00B280CD00C280CD07D
:103910000D280CD00E2814BF4020302070470C20FA
:1039200070471020704714207047182070472020DF
:1039300070470000082817D90C280CD910280CD97A
:1039400014280CD918280CD920280CD930288CBF61
:103950000F200E207047092070470A2070470B2067
:1039600070470C2070470D20704700002DE9F84388
:10397000078C0446072F1ED900254FF6FF73D0E9A8
:103980000298C5F12006A5F1200029FA05F10835B5
:1039900008FA06F628FA00F0314301431846C9B286
:1039A000FFF762FF402D0346EBD13A46E169BDE8DF
:1039B000F843FFF769BF4FF6FF70BDE8F8830000DA
:1039C00010B54B6823B9CA8A63F30902CA8210BDD5
:1039D00004691A681C600361C38A013BC3824A60A0
:1039E000EFE700002DE9F84F1D46CB8A0F468146D0
:1039F000C3F30901924605290B4630D00020AAB234
:103A000007F11A049EB21FFA80F8042E0FD89045D1
:103A100003F1010306D30A44FB8A62F30903012080
:103A2000FB821AE01AF800600130E654EAE790459C
:103A3000F1D2A1F1050B1C237C68BBFBF3F203FB65
:103A400012BB1FFA8BF6002C45D14846FFF728FF22
:103A5000044638B978606FF00200BDE8F88F4FF087
:103A60000008E6E7002606607860ADB24FF0000B74
:103A7000454510D90AEB0803221D13F8011B08F174
:103A800001089155B1B21FFA88F81B292BD0454582
:103A900006F10106F1D8FB8AC3F30902154465F368
:103AA0000903BCE701321C4692B22368002BF9D10E
:103AB0006B1F0B441C21B3FBF1F301339BB29A4201
:103AC000D3D2BBF1000FD0D14846FFF7E9FE20B9B1
:103AD000C4F800B0BFE70122E7E7C0F800B05E46D7
:103AE00020600446C1E74545D5D94846FFF7D8FED2
:103AF00008B92060AFE7C0F800B000262060044697
:103B0000B6E700002DE9F04F1C46074688462DED2C
:103B1000028B83B05B690192002B00F09A80238CAA
:103B20002BB1E269002A00F09480072B35D807F109
:103B30000C00FFF7B5FE054638B96FF002052846C0
:103B400003B0BDEC028BBDE8F08F14220021FEF71C
:103B500057F9228CE16905F10800FEF73FF9208C46
:103B600048F00041013080B2FFF7E4FEFFF7C6FEE7
:103B7000013880B220840130287438466369228C71
:103B80001B782A4403F01F0363F03F03137269603C
:103B90002946FFF7EFFD0125D1E74FF0000900F1BD
:103BA0000C034FF0800A4E464D4608EE103A18EED0
:103BB000100AFFF775FE83460028BED014220021AC
:103BC000FEF71EF9002E3AD1019B0222ABF8083015
:103BD0000BF1080E1FFA82FC218C0CF10100BCF1E4
:103BE000060F80B201D88E422BD3FFF7A3FE8E4280
:103BF00008BF4FF0400AFFF781FE626901380135C6
:103C000012781BFA80F1013002F01F022DB242EA55
:103C1000491289F001094AEA020A48F0004281F893
:103C200008A059468BF810003846CBF804204FF016
:103C3000000AFFF79FFD238CB342B8D17FE7002233
:103C4000C6E7E169895D01360EF80210B6B20132AD
:103C5000C0E76FF0010572E7F8B515460E46302251
:103C6000002104461F46FEF7CBF8069BB5F5001F62
:103C7000A760636004F11000079B34BF6A094FF628
:103C8000FF72E661A362002397B29A4206D800232E
:103C90000360A782E3822383E360F8BD06600133FB
:103CA00030462036F1E7000003781BB94BB2002BF9
:103CB000C8BF01707047000000787047F8B50C4627
:103CC000C969074611B9238C002B37D1257E1F2DDA
:103CD00034D8387828BB228C072A2CD8268A36F08C
:103CE00003032BD14FF6FF70FFF7CEFD20F001004C
:103CF00031024FF6FF72400441EA0561400C41EA8F
:103D00004025234629463846FFF7FCFE002807DDFC
:103D1000626913780133DBB21F2B88BF0023137055
:103D2000F8BD218A2D0645EA012505432046FFF707
:103D30001DFE0246E5E76FF00300F1E76FF00100BA
:103D4000EEE7000070B58AB004461646002128222E
:103D500068461D46FEF754F8BDF8383069462046DF
:103D6000ADF810300F9B05939DF840308DF818305A
:103D7000119B0793BDF84830CDE90265ADF82030BE
:103D8000FFF79CFF0AB070BD2DE9F041D3690546ED
:103D90000C4616460BB9138C5BBB377E1F2F28D8F9
:103DA00095F80080B8F1000F26D03046FFF7DEFD11
:103DB000337821020246284641EAC331338A41EA78
:103DC000080141EA076141EA0341334641F08001BD
:103DD000FFF798FE00280ADD3378012B07D17269BE
:103DE00013780133DBB21F2B88BF00231370BDE8AB
:103DF000F0816FF00100FAE76FF00300F7E70000D1
:103E0000F0B58BB004460D461746002128226846BF
:103E10001E46FDF7F5FF9DF84C30294620465A1EF8
:103E2000534253416A468DF800309DF84030ADF85A
:103E30001030119B05939DF848308DF81830149B75
:103E40000793BDF85430CDE90276ADF82030FFF786
:103E50009BFF0BB0F0BD0000406A00B1043070471A
:103E6000436A1A68426202691A600361C38A013BAD
:103E7000C38270472DE9F041D0F8208014461D46DA
:103E8000184E4146002709B9BDE8F081D1E9022367
:103E9000A21A65EB0303964277EB03031ED2036A73
:103EA0008B420DD1FFF78CFD036A1B680362036927
:103EB0000B60C38A0161013B016AC3828846E2E765
:103EC000FFF77EFD0B68C8F8003003690B60C38AFA
:103ED0000161013BC382D8F80010D4E78846096825
:103EE000D1E700BF80841E002DE9F04F8BB00D4656
:103EF00014469B46DDF850908046002800F018815B
:103F0000B9F1000F00F01481531E3F2B00F2108115
:103F1000012A03D1BBF1000F40F00A810023CDE953
:103F20000833B8F81430B5EBC30F4FEAC30703D317
:103F300000200BB0BDE8F08F2B199F42D8F80C3051
:103F400036BF7F1B2746FFB21BB9D8F81030002BB5
:103F50007AD0272D4DD8C5F1280600232946B7422F
:103F6000009308ABD8F808002CBFF6B23E46A7EB8A
:103F7000060A354432465FFA8AFAFFF73DFCB8F884
:103F80001430282103F10053053BDB000493D8F8DB
:103F90000C300393039B13B1BAF1000F2CD1D8F866
:103FA000100040B1BAF1000F05D008AB5246691AB3
:103FB0000096FFF721FC38B2002FB9D066070AD06F
:103FC0000AAB624203EBD40102F0070211F8083C8D
:103FD000134101F8083C082C3DD9102C40F2B58063
:103FE000202C40F2B780BBF1000F00F09C8008232A
:103FF00035E0BA460026C2E7049BE02B28BFE02349
:1040000006930B44AB42059315D95A1B0398691AC2
:104010000096924508AB00F1040034BF5246D2B27C
:104020000792FFF7E9FB079A1644AAEB020A154428
:10403000F6B25FFA8AFA049B069A05999B1A0493D2
:10404000039B1B680393A5E700933A4608AB2946F8
:10405000D8F80800ADE7BBF1000F13D00123B4EB93
:10406000C30F6BD0082C12D89DF82030621E23FAA3
:1040700002F2D50706D54FF0FF3202FA04F42343CB
:104080008DF820309DF8203089F8003051E7102C51
:1040900012D8BDF82030621E23FA02F2D10706D5ED
:1040A0004FF0FF3202FA04F42343ADF82030BDF89C
:1040B0002030A9F800303CE7202C0FD80899631E67
:1040C00021FA03F3DA0705D54FF0FF3202FA04F4C0
:1040D0000C430894089BC9F800302AE7402C2AD0EA
:1040E000611EC4F12102A4F12103DDE9086526FA6D
:1040F00001F105FA02F225FA03F311431943CB0744
:1041000011D50122A4F12003C4F1200102FA03F326
:1041100022FA01F1A2400B43524263EB43033243C4
:104120002B43CDE90823DDE90823C9E9002300E793
:104130006FF00100FDE66FF00800FAE6082CA1D947
:10414000102CB4D9202CEED8C4E7BBF1000FAED0B0
:10415000022384E7BBF1000FBCD004237FE70000FB
:10416000012A30B5144638BF012485B00025402C03
:1041700028BF4024012ACDE9025518D81B788DF8B4
:10418000083063070AD004AB624203EBD40502F0A7
:10419000070215F8083C934005F8083C03460091D7
:1041A0002246002102A8FFF727FB05B030BD082AF0
:1041B000E4D9102A03D81B88ADF80830E1E7202A9B
:1041C00095BF1B68D3E900230293CDE90223D8E70A
:1041D00010B5CB681BB98B600B618B8210BD046975
:1041E0001A681C600361C38A013BC382CA60F0E79E
:1041F00003064CBFC0F3C0300220704708B502462A
:10420000FFF7F6FF022806D15306C2F30F2001D1B3
:1042100000F0030008BDC2F30740FBE72DE9F04FB3
:1042200093B004460D46CDE903230A681046FFF714
:10423000DFFF0228824614BFC2F306260026002AAA
:1042400080F2F38112F0C04940F0EF81097B002930
:1042500000F0EB81022803D02378B34240F0E881DC
:10426000C2F3046310462944069302F07F030593CA
:10427000FFF7C4FF059B002283464FEA83480023D3
:1042800048EA0A4848EA4668CE78CDE90823F309A7
:1042900048EA0008029368D0059B024608A9204618
:1042A000009353466768B847002800F0C481276A26
:1042B0004FB9414604F10C00FFF700FB074690B9E7
:1042C0006FF0020055E03B6998450DD03F68002F24
:1042D000F9D1414604F10C00FFF7F0FA0746002837
:1042E000EED0236A3B60276297F817C006F01F08DC
:1042F000CCF3840CACEB0800A8EB0C031FFA80FE97
:104300000028B8BF0EF120001FFA83FEB8BF00B22C
:10431000002B0793B8BF0EF12003D7E90221BCBFE1
:104320001BB2079352EA010338D0039B4FF0000CF5
:10433000DFF820E39A1A049B63EB010196457CEBBE
:1043400001032BD36B7B97F81AE0734519D1029BBD
:10435000002B78D0012821DC7868F8B9DFF8F0C2AA
:10436000944570EB010316D337E0276A27B96FF045
:104370000C0013B0BDE8F08F3B699845B4D03F689E
:10438000F4E7B34890427CEB010301D30020F0E74F
:10439000029B002BFAD0079B0F2B17DCFA7DB30092
:1043A0003946204602F0030203F07C031343FB75F9
:1043B000FFF706FB6B7BBB76029B3BB9FB7DC3F330
:1043C0008402013262F38603FB75D0E76A7BBB7E11
:1043D0009A42DBD1029B002B35D0B309022B32D09D
:1043E000039B142200210DA8BB60049BFB60FDF71A
:1043F00007FD039B0AA920460A93049BADF83EB033
:104400000B932B1D8DF840A00C932B7B8DF84180D6
:10441000013BDBB2ADF83C30069B8DF84230059B8A
:104420008DF8433094F82C3083F001038DF844303C
:10443000A3689847FB7DC3F38403013303F01F0394
:104440009B02FB82A2E7FB7DC6F34012B2EBD31FB7
:1044500040F0F480C3F38403434540F0F280029AB5
:10446000B6092B7B002A4DD0F2075DD4032B40F216
:10447000EB80039BAE1D394604F10C00BB60324655
:10448000049BFB602B7B033BDBB2FFF7ABFA0028FE
:104490000CDA39462046FFF793FAFB7DC3F3840319
:1044A000013303F01F039B02FB8209E7AB88DDE9C0
:1044B00008843B834FF6FF73C9F12000A9F1200265
:1044C00028FA09F109F1080904FA00F024FA02F2C5
:1044D000014318461143C9B2FFF7C6F9B9F1400FBD
:1044E0000346E9D1B88231462A7B033AD2B2FFF7BC
:1044F000CBF9FB7DB882DA43C2F3C01262F3C71373
:10450000FB7543E786B92E1D013B394604F10C00CB
:10451000DBB23246FFF766FA0028BADB2A7B314667
:10452000B88A013AD2B2E2E7F98A013BC1F3090144
:10453000DAB204295BD8281D002307F11B069A4232
:1045400008D910F801CB013306F801C00131DBB204
:104550000529F4D1039993420A9138BF0433049991
:104560002CBF002355FA83F30B9107F11B010C912B
:1045700079680E930D91291DFB8AADF83EB0C3F307
:1045800009038DF840A08DF841801A44069B8DF8F0
:104590004230059BADF83C208DF8433094F82C3028
:1045A00083F001038DF844300023B88A7B602A7BB6
:1045B000013AFFF769F93B8BB882834203D1A368C4
:1045C0000AA92046984720460AA9FFF701FEFB7D6D
:1045D000BA8AC3F38403013303F01F039B02FB82F7
:1045E0003B8B9A420CBF00206FF01000C1E67B6845
:1045F000002BAFD0052001E01C3033461E68002E92
:10460000FAD1091A2E1D081D184401EB090C5FFA96
:1046100089F3BCF11B0F9DD89A429BD916F8013B38
:1046200009F1010900F8013BEFE76FF00900A0E68E
:104630006FF00A009DE66FF00B009AE66FF00D0038
:1046400097E66FF00E0094E66FF00F0091E600BF62
:1046500040420F0080841E00EFF309830549683350
:104660004A6B22F001024A6383F30988002383F333
:104670001188704700EF00E0302080F3118862B6A7
:104680000D4B0E4AD96821F4E0610904090C0A4374
:104690000B49DA60D3F8FC2042F08072C3F8FC20AA
:1046A000084AC2F8B01F116841F0010111602022D0
:1046B000DA7783F82200704700ED00E00003FA0586
:1046C00055CEACC5001000E0302310B583F311883F
:1046D0000E4B5B6813F4006314D0F1EE103AEFF365
:1046E00009844FF08073683CE361094BDB6B236600
:1046F00084F3098800F01AFC10B1064BA36110BDC9
:10470000054BFBE783F31188F9E700BF00ED00E0FC
:1047100000EF00E043070008460700080023054AB1
:1047200019460133102BC2E9001102F10802F8D139
:10473000704700BF5C6300202DE9F74F02F0030AC9
:10474000C2F3C313C2F38009C2F3C108C2F3411E0E
:10475000574600224FF00F0B0193CB0733D502F0E1
:104760000703019C012556009B00BAF1020F05FAD0
:1047700002F504FA03FC44680BFA03F324EA050487
:104780006FEA030344EA090444604FF003048568B8
:1047900004FA06F625EA06056FEA060445EA080566
:1047A0008560C56825EA060545EA0E05C5601BD18A
:1047B000072A13D8056A2B4043EA0C0303620368F7
:1047C0001C403C430460490822D04FEA49090132A9
:1047D0004FEA88084FEA8E0EBF00BEE7456A2B40BD
:1047E00043EA0C034362EAE70568072A04EA050482
:1047F00044EA0704046005D8046A234043EA0C0332
:104800000362E0E7446A234043EA0C034362DAE7C9
:1048100003B0BDE8F08F00000268436811430160F7
:1048200003B1184770470000024A136843F0C00301
:104830001360704700100140024A136843F0C00340
:1048400013607047007C004037B51A4C1A4D204663
:1048500000F0D2FA04F11400009400234FF4007227
:10486000164900F08FF94FF40072154904F1380031
:104870000094144B00F008FA134BC4E91735134C9D
:10488000204600F0B9FA04F1140000234FF400723E
:104890000F49009400F076F90E4B4FF400720E4968
:1048A00004F13800009400F0EFF90C4BC4E917351F
:1048B00003B030BDDC63002000E1F505B4640020E6
:1048C000B468002029480008001001404864002016
:1048D000B466002039480008B46A0020007C00401B
:1048E000037C30B5284C002918BF0C46012B0CD195
:1048F000264B984236D1264B1A6D42F010021A65AB
:104900009A6F42F010029A679B6F2268036EC16D26
:1049100003EB52038466B3FBF2F36268150442BFF3
:1049200023F0070503F0070343EA4503CB60A368C0
:1049300043F040034B60E36843F001038B6042F4B3
:10494000967343F001030B604FF0FF330B62510588
:1049500005D512F0102213D0B2F1805F12D080F88A
:10496000643030BD0B4B9842CFD1094B9A6C42F06A
:1049700000429A641A6F42F000421A671B6FC4E744
:104980007F23ECE73F23EAE750620008DC63002066
:1049900000450258486400202DE9F047C66D0546E1
:1049A0003768F469210734621AD014F0080118BF7F
:1049B0004FF48071E20748BF41F02001A3074FF098
:1049C000300348BF41F04001600748BF41F080011B
:1049D00083F31188281DFFF71FFF002383F311883D
:1049E000E2050AD5302383F311884FF48061281D36
:1049F000FFF712FF002383F311884FF030094FF0C7
:104A0000000A14F0200838D13B0616D54FF03009C3
:104A100005F1380A200610D589F31188504600F0B8
:104A200067F9002836DA0821281DFFF7F5FE27F080
:104A300080033360002383F31188790614D562065E
:104A400012D5302383F31188D5E913239A4208D174
:104A50002B6C33B127F040071021281DFFF7DCFE37
:104A60003760002383F31188E30618D5AA6E136913
:104A7000ABB15069BDE8F047184789F31188736AF4
:104A8000284695F86410194000F0D0F98AF311888F
:104A9000F469B6E7B06288F31188F469BAE7BDE853
:104AA000F0870000090100F16043012203F5614332
:104AB000C9B283F8001300F01F039A4043099B001A
:104AC00003F1604303F56143C3F880211A60704726
:104AD000F8B51546826804460B46AA4200D285689E
:104AE000A1692669761AB5420BD218462A46FDF707
:104AF00075F9A3692B44A3612846A3685B1BA360D7
:104B0000F8BD0CD9AF1B18463246FDF767F93A4697
:104B1000E1683044FDF762F9E3683B44EBE718468F
:104B20002A46FDF75BF9E368E5E7000083689342F6
:104B3000F7B50446154600D28568D4E90460361AF4
:104B4000B5420BD22A46FDF749F963692B446361EC
:104B50002846A3685B1BA36003B0F0BD0DD93246A5
:104B6000AF1B0191FDF73AF901993A46E0683144EB
:104B7000FDF734F9E3683B44E9E72A46FDF72EF9EF
:104B8000E368E4E710B50A440024C361029B846033
:104B9000C16002610362C0E90000C0E9051110BDF7
:104BA00008B5D0E90532934201D1826882B98268A2
:104BB000013282605A1C426119700021D0E904322E
:104BC0009A4224BFC368436100F078FA002008BD10
:104BD0004FF0FF30FBE7000070B5302304460E466F
:104BE00083F31188A568A5B1A368A269013BA360FE
:104BF000531CA36115782269934224BFE368A36123
:104C0000E3690BB120469847002383F311882846B7
:104C100007E03146204600F041FA0028E2DA85F349
:104C2000118870BD2DE9F74F04460E461746984689
:104C3000D0F81C904FF0300A8AF311884FF0000B27
:104C4000154665B12A4631462046FFF741FF034627
:104C500060B94146204600F021FA0028F1D0002337
:104C600083F31188781B03B0BDE8F08FB9F1000F12
:104C700003D001902046C847019B8BF31188ED1AA1
:104C80001E448AF31188DCE7C160C361009B826027
:104C90000362C0E905111144C0E9000001617047D9
:104CA000F8B504460D461646302383F31188A768ED
:104CB000A7B1A368013BA36063695A1C62611D70C0
:104CC000D4E904329A4224BFE3686361E3690BB11B
:104CD00020469847002080F3118807E0314620469F
:104CE00000F0DCF90028E2DA87F31188F8BD000053
:104CF000D0E9052310B59A4201D182687AB9826859
:104D00000021013282605A1C82611C7803699A4238
:104D100024BFC368836100F0D1F9204610BD4FF075
:104D2000FF30FBE72DE9F74F04460E46174698463D
:104D3000D0F81C904FF0300A8AF311884FF0000B26
:104D4000154665B12A4631462046FFF7EFFE034679
:104D500060B94146204600F0A1F90028F1D00023B7
:104D600083F31188781B03B0BDE8F08FB9F1000F11
:104D700003D001902046C847019B8BF31188ED1AA0
:104D80001E448AF31188DCE702684368114301601E
:104D900003B11847704700001430FFF743BF00000D
:104DA0004FF0FF331430FFF73DBF00003830FFF7FE
:104DB000B9BF00004FF0FF333830FFF7B3BF00003A
:104DC0001430FFF709BF00004FF0FF311430FFF738
:104DD00003BF00003830FFF763BF00004FF0FF3221
:104DE0003830FFF75DBF0000012914BF6FF01300DA
:104DF00000207047FFF728BD044B03600023436089
:104E0000C0E9023301230374704700BF68620008E1
:104E100010B53023044683F31188FFF761FD0223A8
:104E20000020237480F3118810BD000038B5C369D9
:104E300004460D461BB904210844FFF7A5FF294687
:104E400004F11400FFF7ACFE002806DA201D4FF431
:104E50000061BDE83840FFF797BF38BD0023826886
:104E6000037503691B6899689142FBD25A68036015
:104E700042601060586070470023826803750369C0
:104E80001B6899689142FBD85A68036042601060C1
:104E90005860704708B50846302383F311880B7DAE
:104EA000032B05D0042B0DD02BB983F3118808BD3B
:104EB0008B6900221A604FF0FF338361FFF7CEFF4A
:104EC0000023F2E7D1E9003213605A60F3E70000F3
:104ED000FFF7C4BF054BD9680875186802685360AE
:104EE0001A600122D8600275FBF716BCB86C00206E
:104EF0000C4B30B5DD684B1C87B004460FD02B46F9
:104F0000094A684600F06CF92046FFF7E3FF009B72
:104F100013B1684600F06EF9A86907B030BDFFF71D
:104F2000D9FFF9E7B86C0020954E0008044B1A68C9
:104F3000DB6890689B68984294BF0020012070470E
:104F4000B86C0020084B10B51C68D8682268536004
:104F50001A600122DC602275FFF78EFF01462046B1
:104F6000BDE81040FBF7D8BBB86C0020044B1A68B2
:104F7000DB6892689B689A4201D9FFF7E3BF7047EC
:104F8000B86C002038B5074C0123002506490748B6
:104F90002370656000F0D8FC0223237085F311882C
:104FA00038BD00BF206F002094620008B86C00205C
:104FB00008B572B6044B186500F006FB00F0D8FB8C
:104FC000024B03221A70FEE7B86C0020206F00200D
:104FD00000F046B9EFF3118020B9EFF305833022DA
:104FE00082F311887047000010B530B9EFF30584E3
:104FF000C4F3080414B180F3118810BDFFF7B6FFA5
:1050000084F31188F9E700008B60022308610846E9
:105010008B8270478368A3F1840243F8142C0269E1
:1050200043F8442C426943F8402C094A43F8242CA5
:10503000C268A3F1200043F8182C022203F80C2CBC
:10504000002203F80B2C034A43F8102C704700BFD2
:1050500031070008B86C002008B5FFF7DBFFBDE89A
:105060000840FFF735BF0000024BDB6898610F2056
:10507000FFF730BFB86C0020302383F31188FFF7AF
:10508000F3BF000008B50146302383F311880820E0
:10509000FFF72EFF002383F3118808BD064BDB6862
:1050A00039B1426818605A60136043600420FFF70A
:1050B0001FBF4FF0FF307047B86C00200368984264
:1050C00006D01A680260506018469961FFF700BF69
:1050D00070470000036810B59C68A2420CD85C6859
:1050E0008A600B604C602160596099688A1A9A60E6
:1050F0004FF0FF33836010BD121B1B68ECE700000C
:105100000A2938BF0A2170B504460D460A266019DF
:1051100000F012FC00F0FAFB041BA54203D8751C3A
:1051200004462E46F3E70A2E04D90120BDE870405C
:1051300000F04ABC70BD0000F8B5144B0D460A2AB9
:105140004FF00A07D96103F11001826038BF0A22CB
:10515000416019691446016048601861A81800F0A0
:10516000DBFB00F0D3FB431B0646A34206D37C1CAB
:1051700028192746354600F0DFFBF2E70A2F04D94D
:105180000120BDE8F84000F01FBCF8BDB86C00205D
:10519000F8B506460D4600F0B9FB0F4A134653F822
:1051A000107F9F4206D12A4601463046BDE8F840AE
:1051B000FFF7C2BFD169BB68441A2C1928BF2C461F
:1051C000A34202D92946FFF79BFF224631460348F6
:1051D000BDE8F840FFF77EBFB86C0020C86C002027
:1051E000C0E90323002310B45DF8044B4361FFF7CB
:1051F000CFBF000010B5194C236998420DD08168CB
:10520000D0E9003213605A609A680A449A60002319
:1052100003604FF0FF33A36110BD0268234643F8DB
:10522000102F53600022026022699A4203D1BDE828
:10523000104000F07BBB936881680B44936000F0E2
:1052400065FB2269E1699268441AA242E4D91144DB
:10525000BDE81040091AFFF753BF00BFB86C00202B
:105260002DE9F047DFF8BC8008F110072C4ED8F884
:10527000105000F04BFBD8F81C40AA68031B9A4260
:105280003ED814444FF00009D5E90032C8F81C405C
:1052900013605A60C5F80090D8F81030B34201D1BD
:1052A00000F044FB89F31188D5E90331284698477B
:1052B000302383F311886B69002BD8D000F026FBD4
:1052C0006A69A0EB040982464A450DD2022000F02B
:1052D0007BFB0022D8F81030B34208D15146284653
:1052E000BDE8F047FFF728BF121A2244F2E712EB9D
:1052F00009092946384638BF4A46FFF7EBFEB5E7AD
:10530000D8F81030B34208D01444C8F81C00211A51
:10531000A960BDE8F047FFF7F3BEBDE8F08700BF26
:10532000C86C0020B86C002000207047FEE7000029
:10533000704700004FF0FF3070470000BFF34F8F01
:10534000044B1A695107FCD1D3F810215207F8D148
:10535000704700BF0020005208B50D4B1B78ABB959
:10536000FFF7ECFF0B4BDA68D10704D50A4A5A6005
:1053700002F188325A60D3F80C21D20706D5064ACA
:10538000C3F8042102F18832C3F8042108BD00BF2C
:10539000286F0020002000522301674508B5114BFB
:1053A0001B78F3B9104B1A69510703D5DA6842F03C
:1053B0004002DA60D3F81021520705D5D3F80C214A
:1053C00042F04002C3F80C21FFF7B8FF064BDA6841
:1053D00042F00102DA60D3F80C2142F00102C3F876
:1053E0000C2108BD286F0020002000520F289ABF12
:1053F00000F5806040040020704700004FF400304A
:1054000070470000102070470F2808B50BD8FFF731
:10541000EDFF00F500330268013204D1043083420D
:10542000F9D1012008BD0020FCE700000F2838B5A5
:1054300005463FD8FFF782FF1F4CFFF78DFF4FF067
:10544000FF3307286361C4F814311DD82361FFF7C7
:1054500075FF030243F02403E360E36843F0800335
:10546000E36023695A07FCD42846FFF767FFFFF77C
:10547000BDFF4FF4003100F057F92846FFF78EFFCB
:10548000BDE83840FFF7C0BFC4F81031FFF756FF42
:10549000A0F108031B0243F02403C4F80C31D4F834
:1054A0000C3143F08003C4F80C31D4F810315B07A1
:1054B000FBD4D9E7002038BD002000522DE9F84F79
:1054C00005460C46104645EA0203DE0602D00020DF
:1054D000BDE8F88F20F01F00DFF8BCB0DFF8BCA0FB
:1054E000FFF73AFF04EB0008444503D10120FFF722
:1054F00055FFEDE720222946204600F0F9FD10B9BE
:1055000020352034F0E72B4605F120021F68791C76
:10551000DDD104339A42F9D105F178431B481C4E82
:10552000B3F5801F1B4B38BF184603F1F80332BF99
:10553000D946D1461E46FFF701FF0760A5EB040CD4
:10554000336804F11C0143F002033360231FD9F8D0
:10555000007017F00507FAD153F8042F8B424CF86E
:105560000320F4D1BFF34F8FFFF7E8FE4FF0FF3376
:105570002022214603602846336823F0020333606B
:1055800000F0B6FD0028BBD03846B0E71421005229
:105590000C20005214200052102000521021005202
:1055A00010B5084C237828B11BB9FFF7D5FE0123AD
:1055B000237010BD002BFCD02070BDE81040FFF719
:1055C000EDBE00BF286F002038B5054D0024033420
:1055D000696855F80C0B00F0B9F8122CF7D138BDFA
:1055E000A0620008084600F07BBD000070B5104EB8
:1055F00082B0FFF7EFFC054600F088F932680346F9
:105600009042336037BF0B4A0A495168146836BF6D
:105610000131D1E9004151600419284641F10001EE
:105620000191FFF7E1FC2046019902B070BD00BF77
:105630002C6F0020306F002070B5124E82B0FFF743
:10564000C9FC054600F062F93268034690423360B7
:1056500037BF0D4A0C495168146836BF0131D1E992
:10566000004151600419284641F100010191FFF702
:10567000BBFC4FF47A72002320460199FAF738FEFA
:1056800002B070BD2C6F0020306F00200244074B29
:10569000D2B210B5904200D110BD441C00B253F8F4
:1056A000200041F8040BE0B2F4E700BF504000587E
:1056B0000E4B30B51C6F240405D41C6F1C671C6F87
:1056C00044F400441C670A4C02442368D2B243F4F9
:1056D00080732360074B904200D130BD441C51F8C9
:1056E000045B00B243F82050E0B2F4E700440258F3
:1056F000004802585040005807B5012201A9002077
:10570000FFF7C4FF019803B05DF804FB13B504462E
:10571000FFF7F2FFA04205D0012201A90020019469
:10572000FFF7C6FF02B010BD0144BFF34F8F064B19
:10573000884204D3BFF34F8FBFF36F8F7047C3F816
:105740005C022030F4E700BF00ED00E00144BFF34D
:105750004F8F064B884204D3BFF34F8FBFF36F8F39
:105760007047C3F870022030F4E700BF00ED00E09E
:1057700070470000074B45F255521A6002225A60EA
:1057800040F6FF729A604CF6CC421A600122024B3E
:105790001A707047004800583C6F0020034B1B787C
:1057A0001BB1034B4AF6AA221A6070473C6F0020D7
:1057B00000480058034B1A681AB9034AD2F8D0249B
:1057C0001A607047386F002000400258024B4FF4B7
:1057D0008032C3F8D02470470040025808B5FFF764
:1057E000E9FF024B1868C0F3806008BD386F0020E5
:1057F00070B5BFF34F8FBFF36F8F1A4A0021C2F805
:105800005012BFF34F8FBFF36F8F536943F40033D0
:105810005361BFF34F8FBFF36F8FC2F88410BFF394
:105820004F8FD2F8803043F6E074C3F3C900C3F35E
:105830004E335B0103EA0406014646EA81750139ED
:10584000C2F86052F9D2203B13F1200FF2D1BFF31E
:105850004F8F536943F480335361BFF34F8FBFF3CE
:105860006F8F70BD00ED00E0FEE70000214B224885
:10587000224A70B5904237D3214BC11EDA1C121A4E
:1058800022F003028B4238BF00220021FCF7B8FA55
:105890001C4A0023C2F88430BFF34F8FD2F8803007
:1058A00043F6E074C3F3C900C3F34E335B0103EA6C
:1058B0000406014646EA81750139C2F86C52F9D2F4
:1058C000203B13F1200FF2D1BFF34F8FBFF36F8F47
:1058D000BFF34F8FBFF36F8F0023C2F85032BFF377
:1058E0004F8FBFF36F8F70BD53F8041B40F8041B3C
:1058F000C0E700BFCC640008406F0020406F00206C
:10590000406F002000ED00E000F01CB9014B586A28
:10591000704700BF000C0040034B002258631A611F
:105920000222DA60704700BF000C0040014B0022E9
:10593000DA607047000C0040014B5863704700BFAD
:10594000000C0040FEE7000070B51B4B002504462C
:1059500086B058600E4685620163FEF78DFE04F145
:105960001003A560E562C4E904334FF0FF33C4E9D6
:105970000044C4E90635FFF7C9FF2B46024604F18F
:1059800034012046C4E9082380230C4A2565FFF72B
:105990003BFB01230A4AE060009203756846726887
:1059A0000192B268CDE90223064BCDE90435FFF739
:1059B00053FB06B070BD00BF206F0020E8620008F6
:1059C000ED62000845590008024AD36A1843D062C4
:1059D000704700BFB86C00204B6843608B688360E1
:1059E000CB68C3600B6943614B6903628B69436297
:1059F0000B6803607047000008B53A4B40F2FF7136
:105A00003948D3F888200A43C3F88820D3F888207F
:105A100022F4FF6222F00702C3F88820D3F888300E
:105A2000324B1A6C0A431A649A6E0A439A66304AD9
:105A30009B6E1146FFF7D0FF00F5806002F11C015C
:105A4000FFF7CAFF00F5806002F13801FFF7C4FFDD
:105A500000F5806002F15401FFF7BEFF00F58060A1
:105A600002F17001FFF7B8FF00F5806002F18C01D0
:105A7000FFF7B2FF00F5806002F1A801FFF7ACFF6D
:105A800000F5806002F1C401FFF7A6FF00F5806019
:105A900002F1E001FFF7A0FF00F5806002F1FC01D8
:105AA000FFF79AFF02F58C7100F58060FFF794FF15
:105AB00000F006F90F4BD3F8902242F00102C3F830
:105AC0009022D3F8942242F00102C3F894220522D6
:105AD000C3F898204FF06052C3F89C20064AC3F8E0
