:020000040800F2
:1000000000070020F102000829350008E13400084B
:1000100009350008E134000801350008F302000842
:10002000F3020008F3020008F30200081545000877
:10003000F3020008F3020008F3020008F3020008CC
:10004000F3020008F3020008F3020008F3020008BC
:10005000F3020008F302000875650008A1650008B6
:10006000CD650008F965000825660008D945000837
:10007000014600082D46000859460008854600083C
:10008000AD460008D9460008F30200089134000884
:10009000B9340008A5340008CD34000851660008C2
:1000A000F3020008F3020008F3020008F30200085C
:1000B000F3020008F3020008F3020008F30200084C
:1000C000F3020008F3020008F3020008F30200083C
:1000D000F302000829670008F3020008F302000891
:1000E000B5660008F3020008F3020008F3020008F6
:1000F000F3020008F3020008F302000805470008B5
:10010000F3020008F302000851670008F302000838
:10011000F3020008F3020008F3020008F3020008EB
:10012000314700085947000885470008B1470008D3
:10013000DD470008F3020008F3020008F30200089C
:10014000F3020008F3020008F3020008F3020008BB
:1001500005480008314800085D480008F30200081F
:10016000F3020008F3020008F3020008F30200089B
:10017000F3020008F3020008F3020008F30200088B
:10018000F3020008F3020008F30200083D670008CC
:10019000F3020008F3020008F3020008F30200086B
:1001A000F3020008F3020008F3020008F30200085B
:1001B000F3020008F3020008F3020008F30200084B
:1001C000F3020008F3020008F3020008F30200083B
:1001D000F3020008F3020008F3020008F30200082B
:1001E000F3020008F3020008F3020008F30200081B
:1001F000F3020008F3020008F3020008F30200080B
:10020000F3020008F3020008F3020008F3020008FA
:10021000F3020008F3020008F3020008F3020008EA
:10022000F3020008F3020008F3020008F3020008DA
:10023000F3020008F3020008F3020008F3020008CA
:10024000F3020008F3020008F3020008F3020008BA
:10025000F3020008F3020008F3020008F3020008AA
:10026000F3020008F3020008F3020008F30200089A
:10027000F3020008F3020008F3020008F30200088A
:10028000F3020008F3020008F3020008F30200087A
:10029000F3020008F3020008F3020008F30200086A
:1002A000F3020008F3020008F3020008F30200085A
:1002B000F3020008F3020008F3020008F30200084A
:1002C000F3020008F3020008F3020008F30200083A
:1002D000F3020008F3020008F3020008F30200082A
:1002E0007D18000800000000000000000000000071
:1002F00002E000F000F8FEE772B6374880F30888A5
:10030000364880F3098836483649086040F20000D4
:10031000CCF200004EF63471CEF200010860BFF35B
:100320004F8FBFF36F8F40F20000C0F2F0004EF627
:100330008851CEF200010860BFF34F8FBFF36F8F7B
:100340004FF00000E1EE100A4EF63C71CEF20001D3
:100350000860062080F31488BFF36F8F05F09CFCC3
:1003600005F0D8FE4FF055301F491B4A91423CBF63
:1003700041F8040BFAE71D49184A91423CBF41F885
:10038000040BFAE71A491B4A1B4B9A423EBF51F82D
:10039000040B42F8040BF8E700201849184A914270
:1003A0003CBF41F8040BFAE705F0B4FC05F034FF5C
:1003B000144C154DAC4203DA54F8041B8847F9E796
:1003C00000F042F8114C124DAC4203DA54F8041B11
:1003D0008847F9E705F09CBC0007002000230020B7
:1003E0000000000808ED00E00001002000070020E8
:1003F000606C0008002300203823002038230020F0
:1004000014710020E0020008E4020008E402000881
:10041000E40200082DE9F04F2DED108AC1F80CD050
:10042000D0F80CD0BDEC108ABDE8F08F002383F328
:1004300011882846A047002004F0B0FFFEE704F032
:1004400035FF00DFFEE70000F8B50B25013D07D0C2
:10045000042001F041F842F2107004F0A5FFF5E726
:1004600001F08CFA01F0D4FB05F09AFB064605F08A
:1004700009FC074690BB1E4B9E4231D001339E4281
:1004800030D026F0FF021B4B9A422DD12C4642F26F
:100490001075F0B200F074FF00F078FF08B100258D
:1004A0002C4601F03DFE08B100252C4637B1124B19
:1004B0009E4203D0002505F0DDFB2C46002005F010
:1004C00079FB0CB100F060F801F074FB00F0B0FFB4
:1004D000284600F0E5F800F057F8F9E70446DBE7B6
:1004E0002C46D9E70124D7E72C4641F28835D3E7DB
:1004F000010007B0000008B0263A09B008B501F0C5
:1005000009FAA0F120035842584108BD07B541F24D
:100510001203022101A8ADF8043001F019FA03B06A
:100520005DF804FB302310B583F31188124803688B
:100530000BB104F0F1FF0023104A4FF47A710E481A
:1005400004F0E0FF002383F311880D4C236813B1FE
:100550002368013B2360636813B16368013B6360F8
:10056000084B1B7833B9636823B9022001F0B8FA4D
:100570003223636010BD00BF38230020250500082A
:100580005824002050230020F8B5042000F0A4FFD8
:100590003C4B3D4A1C461968013171D004339342EB
:1005A000F9D16268394B9A426AD9394B9B6803F199
:1005B000006303F580239A4262D205F02FFB05F019
:1005C00041FB002001F000FA0220324B187001F0CC
:1005D00085FA314B00219A6C99641A6F19671A6F6A
:1005E000DA6CD9645A6F59675A6F1A6D19659A6F28
:1005F00099679B6F72B64FF0E023C3F8084DD4E9BA
:100600000004BFF34F8FBFF36F8F244AC2F88410EA
:10061000BFF34F8F536923F480335361BFF34F8F80
:10062000D2F8803043F6E076C3F3C905C3F34E3306
:100630005B0103EA060C29464CEA81770139C2F8CE
:100640007472F9D2203B13F1200FF2D1BFF34F8F18
:10065000BFF36F8FBFF34F8FBFF36F8F536923F4D7
:10066000003353610023C2F85032BFF34F8FBFF302
:100670006F8F302383F31188854680F308882047E5
:10068000F8BD00BF0000040820000408FFFF0308B5
:1006900000230020502300200045025800ED00E018
:1006A0002DE9F04F93B0AD4B2022FF2100900AA816
:1006B0009D6801F029FAAA4A1378A3B90121A94833
:1006C00011700360302383F3118803680BB104F0C9
:1006D00023FF0023A44A4FF47A71A24804F012FFCA
:1006E000002383F31188009BA04A03B11360002309
:1006F0009F49009C98469B461E469A460B70536045
:10070000012001F0EBF924B1984B1B68002B00F09D
:100710001E82002001F0FEF80390039B002B01DAFB
:1007200000F024FF039B002BEDDB012001F0D4F946
:10073000039B213B162BE3D801A252F823F000BF04
:100740009D070008C50700085908000801070008B0
:100750000107000801070008EF080008C30A0008A5
:10076000DD0900083F0A0008670A00088D0A000832
:10077000010700089F0A000801070008110B000884
:100780003D08000801070008550B0008A9070008EC
:100790003D080008010700083F0A00080220FFF793
:1007A000ADFE002840F0FD81009B022105A8B8F1B4
:1007B000000F08BF1C4641F21233ADF8143001F0AF
:1007C000C7F89DE74FF47A7001F0A4F8071EEBDB41
:1007D0000220FFF793FE0028E6D0013F052F00F22C
:1007E000E281DFE807F0030A0D1013360523042128
:1007F00005A8059301F0ACF817E004215748F9E784
:1008000004215C48F6E704215B48F3E74FF01C093C
:10081000484609F1040901F0D9F80421059005A81A
:1008200001F096F8B9F12C0FF2D101204FF0000A37
:1008300000FA07F747EA0B0B5FFA8BFB01F0B0F900
:1008400026B10BF00B030B2B08BF0024FFF75EFE55
:1008500056E704214948CDE7002EA5D00BF00B0345
:100860000B2BA1D10220FFF749FE074600289BD0A1
:1008700001203F4E01F0A8F84FF000080220307030
:1008800001F02CF95FFA88F9484601F0ADF804460A
:1008900098B10021484608F1010801F0BDF8002890
:1008A000F0D1B846044641F21213022105A83E4693
:1008B000ADF8143001F04CF822E701232546022060
:1008C000337001F009F9254B9B68AB4207D92846E4
:1008D00001F07CF8013040F069810435F3E7002530
:1008E000234BB8463E461D70204B5D60A6E7002EA8
:1008F0003FF45AAF0BF00B030B2B7FF455AF0220E4
:100900001B4B187001F0EAF8322001F003F8B0F147
:100910000009FFF649AF19F003077FF445AF0F4A0E
:1009200009EB0503926893423FF63EAFB9F5807F2D
:100930003FF73AAF124BB945019323DD4FF47A707C
:1009400000F0E8FF0390039A002AFFF62DAF039A08
:100950000137019B03F8012BEDE700BF00230020C6
:1009600054240020382300202505000858240020A6
:100970005023002004230020082300200C23002003
:1009800054230020C820FFF7B9FD074600283FF494
:100990000BAF1F2D11D8C5F120020AAB25F00300C3
:1009A00084494A45184428BF4A46019201F09AF802
:1009B000019AFF217F4801F0A7F84FEAA903C9F384
:1009C00087027C492846019301F0A6F806460028D4
:1009D0003FF469AF019B05EB83052FE70220FFF78A
:1009E0008DFD00283FF4E0AE01F028F800283FF428
:1009F000DBAE0027B946704B9B68BB4218D91F2F4E
:100A000011D80A9B01330ED027F0030312AA134416
:100A100053F8203C05934846042205A9043701F009
:100A200069FB8146E7E7384600F0D0FF0590F2E722
:100A3000CDF81490042105A800F08AFFFEE60023FB
:100A4000642104A8049300F079FF00287FF4ACAE81
:100A50000220FFF753FD00283FF4A6AE049800F0F3
:100A6000E3FF0590E6E70023642104A8049300F067
:100A700065FF00287FF498AE0220FFF73FFD0028B5
:100A80003FF492AE049800F0D1FFEAE70220FFF7AE
:100A900035FD00283FF488AE00F0E0FFE1E70220DA
:100AA000FFF72CFD00283FF47FAE05A9142000F0CD
:100AB000DBFF07460421049004A800F049FF3946F3
:100AC000B9E7322000F026FF071EFFF66DAEBB0728
:100AD0007FF46AAE384A07EB0A03926893423FF606
:100AE00063AE0220FFF70AFD00283FF45DAE27F059
:100AF00003075744BA453FF4A1AE50460AF1040A31
:100B000000F064FF0421059005A800F021FFF1E743
:100B10004FF47A70FFF7F2FC00283FF445AE00F086
:100B20008DFF002844D00A9B01330BD008220AA96C
:100B3000002000F0F1FF00283AD02022FF210AA86F
:100B400000F0E2FFFFF7E2FC1C4804F02DFC13B0BC
:100B5000BDE8F08F002E3FF427AE0BF00B030B2BFC
:100B60007FF422AE0023642105A8059300F0E6FE81
:100B7000074600287FF418AE0220FFF7BFFC81462D
:100B800000283FF411AEFFF7C1FC41F2883004F0B9
:100B90000BFC059801F022F84E463C4601F000F8A7
:100BA000AEE506464AE64FF0000AFDE5B8467AE6AD
:100BB000374678E65423002000230020A086010059
:100BC000094A49F26900136899B21B0C00FB013312
:100BD00044F250611360054B186882B2000C01FBAF
:100BE0000200186080B270471823002014230020F0
:100BF0000021102210B5044600F086FF034B03CB02
:100C0000206061601868A06010BD00BF00E8F11F9F
:100C10002DE9F041ADF54C7D0D46002140F27512F5
:100C20006AAC07460CA80B9100F06EFF4FF4C4723B
:100C30000021204600F068FF0DF12C0802F07CFC3A
:100C40004FF47A72264BB0FBF2F0186093E807007D
:100C5000022384E807000DF5E5702382FFF7C8FF43
:100C600041F204331F4906A8238405F0FFFD132336
:100C70000DF2DB220DF1280C84F8323106AB1E4652
:100C8000083203CE664542F8080C42F8041C33468D
:100C9000F5D131882046B378118041469370012206
:100CA00001F012F8002380B2E97E0393AB7E029339
:100CB00005F1190301930123009307A3D3E900234E
:100CC000CDE90480384602F0F5FF0DF54C7DBDE816
:100CD000F08100BFAFF300809E6AC421818A46EE96
:100CE000602400207C6800082DE9F0412C4CDAB02B
:100CF00080460D46237A5BBB27A9284601F006F9FA
:100D00000746002842D19DF89D60C82E3ED8014676
:100D10004FF4A662204600F0F7FE4FF4807332468F
:100D20000DF19E01C4F8F8314FF4007304F109008D
:100D30002644C4F80C334FF44073C4F8203400F058
:100D4000D1FE9DF89C30777223720BB9EB7E237233
:100D500006AC8122002127A800F0D6FE0122214600
:100D600027A801F019F9002380B2E97E0393AB7E36
:100D7000029305F1190301932823CDE90440009360
:100D8000404605A3D3E9002302F094FF5AB0BDE822
:100D9000F08100BFAFF3008026417272DF25D7B724
:100DA000585E0020F0B5254E4FF48A75F1B000244E
:100DB00005FB006596F8D830D822214685F8DC304E
:100DC0003AA885F8E84006AF00F09EFE06F109005B
:100DD00000F092FED5F8E430C2B206F109018DF8B8
:100DE000F0000DF1F100CDE93A3400F07BFE394618
:100DF00001223AA801F006F9082380B2317ACDE940
:100E0000047001270E48CDE9023706F1D80301939B
:100E10003023009307A3D3E9002302F04BFFA04245
:100E200006DD02F089FBC5F8E000384671B0F0BD80
:100E30002046FBE778F6339F93CACD8D585E00209D
:100E4000783400202DE9F04F274F87B0DFF8A480D9
:100E5000264E384602F05AFF034600283CD00024B4
:100E6000234DADF81440A1460294A246CDE90344B7
:100E7000027B8DF8142003AA9968406803C21B689E
:100E800043F0004302932B6804F23654D3F810B0B9
:100E900002F054FB10EB0802CDF800A0284605F53F
:100EA000A65541F1000302A9D84740F66C2300285B
:100EB000C8BF49F0010918359C42E4D1B9F1000FCF
:100EC00005D0384602F026FF86F800A0C1E7337847
:100ED000072B04D80133337007B0BDE8F08F024808
:100EE00002F018FFF8E700BF783400209763002075
:100EF000A834002040420F0070B50D4614461E462F
:100F000002F034FE50B9022E10D1012C0ED112A3E2
:100F1000D3E900230120C5E9002307E0282C10D0E5
:100F200005D8012C09D0052C0FD0002070BD302C25
:100F3000FBD10BA3D3E90023ECE70BA3D3E90023F8
:100F4000E8E70BA3D3E90023E4E70BA3D3E90023ED
:100F5000E0E700BFAFF30080401DA12026812A0BEF
:100F600078F6339F93CACD8D9E6AC421818A46EE5E
:100F700026417272DF25D7B7F017304A39059E56E1
:100F800038B505460E4C0021013500F045FDA4F8AA
:100F90002C55B4F82C0500F027FD78B1B4F82C05D9
:100FA00000F032FD014648B9B4F82C0500F034FDDC
:100FB000B4F82C350133A4F82C35EAE738BD00BF6E
:100FC000585E002013B502F0B7FA19490B68C31A2E
:100FD000642B184B08D9184A1C8892F90020086025
:100FE000C2EB021222441A80B3F90020002A1BDA55
:100FF00000221A8011490A68821AB2F57A7F04D950
:101000000D4C0860227852422270B3F9003003225E
:10101000002093FBF2F3DBB263F3070063F30F20CE
:1010200063F3174002B010BD962AE3DD9622E0E795
:101030008C63002094630020102300209063002024
:10104000F8B50E4C02260E4FA4F5805343F8307CC1
:10105000237E3BB965692DB1284601F0DFF82846AB
:1010600005F0C2FB2046A4F5A65401F0D7F8012EE6
:10107000A4F1180400D1F8BD0126E5E7B05900201D
:10108000206900082DE9F04F8FB005460C4600AFEF
:1010900002F06CFD002849D1237E022B1BD1E38A8C
:1010A000012B18D102F048FA0646FFF789FD0346E6
:1010B0004FF4C87006F51676DFF8C082B3FBF0F285
:1010C00002FB103316FA83F3C8F80030E37E33B91D
:1010D000A34B00221A703C37BD46BDE8F08F07F1E4
:1010E0002401204600F0C6FE0028F4D107F11400C8
:1010F000FFF77EFD97F8264007F1140107F127005E
:10110000224605F081FB0028E2D10F2C08D8944B31
:101110001C70D8F80030A3F51673C8F80030DAE771
:1011200097F82410284602F019FDD4E7E38A282B0B
:101130002BD010D8012B23D0052BCCD1BFF34F8F50
:101140008849894BCA6802F4E0621343CB60BFF35D
:101150004F8F00BFFDE7302BBDD1844EE17E327A48
:101160009142B8D1607E3146002291F8DC50854230
:1011700000F0A580013201F58A71042AF5D1AAE7B1
:1011800021462846FFF744FDA5E721462846FFF7FC
:10119000ABFDA0E7B2F8EC507B6005F103094FEA24
:1011A00099094FEA8902D11DC908A8EBC1030021A2
:1011B0009D46EB46584600F0A7FC04F1EE012A4696
:1011C0005846314400F08EFC7B6813B9012000F0D2
:1011D000FBFB96F8D20000F007FC044630B93072F1
:1011E00000F02CFC204600F0EFFBB1E0D6F8D42054
:1011F0003AB996F8D200B6F82C25824201D8FFF70A
:10120000BFFED6F8D4202A44944208D296F8D200E1
:10121000B6F82C250130824201D8FFF7B1FE5FFA03
:1012200089F25946706800F077FC08B9C54679E044
:10123000726896F8D2002A447260D6F8D42005EB82
:101240000209C6F8D49000F0CFFB814509D396F887
:10125000D220D6F8D4000132001B86F8D220C6F87E
:10126000D400FF2D0FD80024347200F0E7FB204695
:1012700000F0AAFB00F054FF3D4B188108B9FFF7BE
:1012800083F9C54627E7BB6896F8D9000AFB0362D5
:10129000FB68D2F8E41082F8E83001F58061C2F80A
:1012A000E030C2F8E410FFF77DFDFFF7CBFD96F8C4
:1012B000D920013202F0030286F8D920B6E74FF4B4
:1012C0008A7A20460AFB02F505F1EA01314400F072
:1012D000CBFEF86000287FF4FEAE0122354485F88D
:1012E000E82002F029F9D5F8E020D6ED007A801A3E
:1012F00040F6B832B8EE677ADFED1E6A192838BFBB
:101300001920904228BF104607EE900AF8EEE77ABF
:1013100067EEA67ADFED186AE7EE267AFCEEE77A4A
:10132000C6ED007A96F8D930BB60BA6873680AFBDC
:1013300002F4321992F8E81059B1D2F8E410E846F4
:101340008B423FF427AF002182F8E810C2F8E0108A
:10135000C5467368064A9B0A01331381BBE600BF8A
:101360007134002000ED00E00400FA05585E002012
:1013700060240020CDCCCC3D6666663F74340020EE
:10138000014B1870704700BF6C24002038B5BFF3C4
:101390004F8F214B4FF00054204AC3F87042C3F8DE
:1013A00070222032C3F870222032C3F8702220321B
:1013B000C3F870222032C3F870222032C3F87022A2
:1013C000BFF34F8FBFF36F8F154B22689A4221D125
:1013D000627D0025134B14481A70C922237D093001
:1013E000124900F8013C4FF48073C0F8DB50C0F89C
:1013F000EF314FF40073C0F803334FF44073C0F87B
:10140000173400F06FFBE0222946204600F07CFBF9
:10141000012038BD0020FCE700ED00E020000020A6
:101420009AAD44C56C240020585E002016000020B0
:1014300037B500F075FE1F4C1F4D022301221F49D6
:101440006B7123682881204604F580545B689847B7
:101450000122D4F8D83404F59B6018495B6898479A
:10146000002317494FF480520193164B16480093FE
:10147000164B02F04BFB164B197811B1124802F0D3
:101480006DFB02F059F80446FFF79AFB4FF4C8735E
:10149000B0FBF3F202FB130304F5167010FA83F0AD
:1014A0000C4B186004F0EEFB08B10F232B8103B046
:1014B00030BD00BFA83400206024002040420F004F
:1014C00070240020F90E00087834002085100008F0
:1014D0006C240020743400202DE9F04119250122EC
:1014E0004FF400714FF4807645431F4803F0A2FA91
:1014F0004FF4807105F1320439351B48012204F0A4
:10150000070403F097FA25F007056520C4F13A04B3
:101510001549E4B2013824D000231927AB42F9D091
:10152000B04603F1080E9C4205D94FF0000C4E83E3
:101530004FF000720CE01A1B4E83B2FBF7FC07FB66
:101540001C22002A0CBF4FF0010C4FF0000CEFD111
:10155000013342EA4C2273458A61A1F81880E2D136
:10156000DCE7BDE8F08100BF000402582DE9F04F30
:1015700000252DED028B93B00DF12C084FF0010AE0
:10158000DFF8D4B2FFF75EFC0A95ADF834500B9546
:10159000C8F804509FEDA98B0026AE4C374623684F
:1015A0000DF11D0207A920468DF81CA08DF81D50D5
:1015B0008DED008BD3F808900023C8479DF81C9050
:1015C000B9F1000F1ED0102200210EA800F09CFAE5
:1015D000236808AA0AA95F6920460DF11E03B847CF
:1015E0000FAB4F4698E8030083E803009DF83430C2
:1015F0000EA958468DF844300A9B0E93DDE9082366
:1016000002F066FD06F2365640F66C2304F5A65449
:101610009E4204F11804C2D1002FBDD18E4802F0C1
:10162000A5FA00283FD18D4E01F086FF336898421D
:1016300039D301F081FF0446FFF7C2FA4FF4C873B3
:101640008DF82870B0FBF3F202FB130304F516705B
:1016500010FA83F03060824E377817B901238DF885
:101660002830C7F110040EA8FFF7C2FA0EABE4B29F
:101670000DF12900D919062C28BF06242246013471
:1016800000F030FA0AABE4B27348039318230494D1
:101690000293744B0193012300936AA3D3E90023BF
:1016A00002F0AAFA357001F047FF6F4A1368C31AB7
:1016B000B3F57A7F30D3106001F040FF02460B464D
:1016C000654802F031FB644802F050FA20B3674BE2
:1016D0000EAE674C1B7A002B14BF032302236371E9
:1016E00001F02AFF4FF47A7301223146B0FBF3F088
:1016F0002060204600F096FB182380B202935D4BD9
:10170000019340F25513CDE90360009352484FA373
:10171000D3E9002302F070FAFFF754FC0826C0F367
:1017200007238DF838000022C0F30740DFF8489106
:101730004FF4807A8DF839308DF83A00A6F1080719
:10174000332F51D9A7F134041923B4FBF3F103FB70
:101750001143002B4AD0641A4FF01808B4FBF8F874
:1017600090450BD0FFF72EFCC0F307238DF838000F
:10177000C0F307408DF839308DF83A001822B4FBD9
:10178000F2F302FB134312AA04F0070402EBD303A3
:101790004246C4F1080413F8103C43FA04F404F080
:1017A0000104002C07F10107A9F81AA00CBF4FF0A3
:1017B00000730023BE4243EA4424C9F81840A9F844
:1017C00018A0BDD10836A02EB8D1284C237A7BB9F9
:1017D000C82003F0E9FD237A002B7FF4CDAE13B0CF
:1017E000BDEC028BBDE8F08F0024DAE70124D8E7D6
:1017F00001F0A2FE002607464FF48A7894F8D9003B
:10180000304400F0030008FB004393F8E8201AB1CD
:101810000136042EF2D1DBE7D3F8E02042B1236891
:10182000BA1AFA2B38BFFA230533B2EB430FEFD3C2
:10183000FFF7B8FA0028EBD1CAE700BF00000000AC
:1018400000000000401DA12026812A0BF1C6A7C17F
:10185000D068080FA83400207834002074340020A9
:10186000713400207034002088630020585E00200E
:1018700060240020966300200004025808B5064842
:1018800001F00CF9054801F009F9054A0549002065
:10189000BDE8084004F0A2BFA83400208049002021
:1018A000F0630020411000082DE9F84F4FF47A73DF
:1018B00006460D46002402FB03F7DFF85080DFF8F0
:1018C000509098F900305FFA84FA5A1C01D0A34274
:1018D00012D159F824002A4631460368D3F820B0C3
:1018E0003B46D847854207D1074B012083F800A02B
:1018F000BDE8F88F0124E4E7002CFBD04FF4FA7028
:1019000003F052FD0020F3E7DC6300201C230020DD
:1019100020230020002307B5024601210DF1070016
:101920008DF80730FFF7C0FF20B19DF8070003B026
:101930005DF804FB4FF0FF30F9E700000A46042190
:1019400008B5FFF7B1FF80F00100C0B2404208BD0A
:10195000074B0A4630B41978064B53F8214001462C
:1019600023682046DD69044BAC4630BC604700BFAD
:10197000DC63002020230020A086010070B5104CFD
:101980000025104E03F0E0FE20803068238883425B
:101990000CD800252088013803F0D2FE23880544A6
:1019A000013BB5F5802F2380F4D370BD03F0C8FE52
:1019B000336805440133B5F5802F3360E5D3E8E79C
:1019C000DE6300209863002003F08CBF00F100600C
:1019D00000F580200068704700F10060920000F57B
:1019E000802003F00DBF0000054B1A68054B1B88D3
:1019F0009B1A834202D9104403F0A2BE0020704714
:101A000098630020DE630020024B1B68184403F03B
:101A10009DBE00BF98630020024B1B68184403F072
:101A2000A7BE00BF986300200020704700F1FF5060
:101A300000F58F10D0F8000870470000064991F8B3
:101A4000243033B100230822086A81F82430FFF7DC
:101A5000C3BF0120704700BF9C630020014B186882
:101A6000704700BF0010005C184B013870B51D684E
:101A70000844174BC5F30B022D0C1C88A24203D05F
:101A80001C89A2420CD108335C680A46013C8242A0
:101A900013460BD214F9016F2EB102F8016BF6E771
:101AA00081420B4602D22C2203F8012B0424094A5E
:101AB0001688AE4204D1984284BF967803F8016B31
:101AC000013C02F10402F3D1581A70BD0010005C11
:101AD00028230020AC680008704700007047000011
:101AE00070470000002310B5934203D0CC5CC4546F
:101AF0000133F9E710BD000003460246D01A12F97F
:101B0000011B0029FAD1704702440346934202D0D8
:101B100003F8011BFAE770472DE9F8431F4D1446FF
:101B20000746884695F8242052BBDFF870909CB396
:101B300095F824302BB92022FF2148462F62FFF769
:101B4000E3FF95F824004146C0F1080205EB800050
:101B5000A24228BF2246D6B29200FFF7C3FF95F8F3
:101B60002430A41B17441E449044E4B2F6B2082E5D
:101B700085F82460DBD1FFF761FF0028D7D108E0AA
:101B80002B6A03EB82038342CFD0FFF757FF002875
:101B9000CBD10020BDE8F8830120FBE79C63002047
:101BA000024B1A78024B1A70704700BFDC630020AA
:101BB0001C23002010B5074C4FF4E1330649206880
:101BC0000B6003F0B9FA60680349BDE8104003F008
:101BD000B3BA00BF20230020C4630020094B1822A1
:101BE000002110B504461846FFF78EFF064A074B42
:101BF00001461278046053F82200BDE8104003F05B
:101C00009BBA00BFC4630020DC63002020230020B7
:101C1000F8B571B6002301201A46194602F0BCFE41
:101C20000446202003F0FCFE002845D00025234A6E
:101C300004274FF4D06C3D26136923BBD2F8103132
:101C40000BBB236805F1006199602368D8602368A5
:101C50005F602368C3F800C021680B6843F001038C
:101C60000B6021680B6823F01E030B6021680B6872
:101C7000DB07FCD4237B0435616806FA03F3B5F572
:101C8000001F0B60D8D1204602F0BCFEB5F5001F46
:101C900011D000240A4E0B4D012003F023FE33889F
:101CA000A34205D928682044013403F061FDF6E71A
:101CB000002003F017FE61B6F8BD00BF00200052FF
:101CC000DE630020986300202DE9F8430D460446AA
:101CD00000219046284640F27912FFF715FF23466F
:101CE00020220021284604F1220702F093F9231D47
:101CF000022220212846C02602F08CF9631D03220F
:101D00002221284602F086F9A31D03222521284618
:101D100002F080F904F1080310222821284602F07D
:101D200079F904F1100308223821284602F072F9EB
:101D300004F1110308224021284602F06BF904F156
:101D4000120308224821284602F064F904F1140322
:101D500020225021284602F05DF904F118034022A8
:101D60007021284602F056F904F120030822B02120
:101D7000284602F04FF904F121030822B821284631
:101D800002F048F9314608363B460822284601371A
:101D900002F040F9B6F5A07FF4D1314604F13203E8
:101DA0000822284602F036F9002794F8326004F140
:101DB0003309F900BE4201F5A4711FD8F70007F5F9
:101DC000A476B8F1000F08D1314607F24F1604F59A
:101DD00099730722284602F01DF994F83201B046A3
:101DE000502828BF5020074604EB0009A1450DD11B
:101DF00006EBC7000730C008BDE8F88309EB07030E
:101E000008222846013702F005F9D2E704F233131D
:101E100041460822284608F10808013402F0FAF881
:101E2000E4E7000013B504460846002120222346BB
:101E300001900160C0F8031002F0ECF8231D019836
:101E40000222202102F0E6F8631D019803222221DC
:101E500002F0E0F8A31D01980322252102F0DAF830
:101E6000019804F108031022282102F0D3F807207A
:101E700002B010BDF7B5047F05460E462CB1838A2B
:101E8000122B02D9012003B0F0BD002307222846FF
:101E90000096194601F082FF731C0122072100936E
:101EA0002846002301F07AFFD4B9B31C052208218B
:101EB0002846009323460D2401F070FFB378102BC1
:101EC000E0D83746BB1BB278934210D307342B7F40
:101ED000A88AE408B3B9844294BF00200120D2E765
:101EE000AB8A0824DB00083BDB08B370E6E7FB1C89
:101EF000214608222846009300230834013701F0C8
:101F00004DFFDFE7201A18BF0120BCE7F7B5047FBB
:101F100005460E462CB1838ACA2B02D9012003B094
:101F2000F0BD0023082228460096194601F036FF2E
:101F3000731CD4B908220093234610241146284666
:101F400001F02CFF7378C82BE8D801235F1C72784E
:101F5000013B934210D307342B7FA88AE408B3B91E
:101F6000844294BF00200120D9E7AB8A0824DB001B
:101F7000083BDB087370E5E7F31921460822284681
:101F80000093002301F00AFF08343B46DEE7201AE5
:101F900018BF0120C3E700002DE9F8430D460446B1
:101FA0001646002181222846FFF7AEFD234608226F
:101FB0000021284602F02EF8C6B90F26631C07221E
:101FC0000821284602F026F894F90130B0466778D7
:101FD000002BB8BF7F2704EB07094C4508D1073613
:101FE000082010FB0760C008BDE8F8830826EBE76F
:101FF000A31C41460822284608F10808013402F0D3
:1020000009F8EAE72DE9F0410D460446164600219D
:10201000CE222846FFF778FD2346282200212846B5
:1020200001F0F8FFBEB9302604F108030822282188
:10203000284601F0EFFF14F8080F0027C82828BF32
:10204000C8208046B84506EBC70106D806EBC80095
:10205000C008BDE8F0812826EDE7013708222846B0
:10206000E31901F0D7FFEDE7F7B5047F05460E460B
:1020700034B1838AB3F5827F02D9012003B0F0BD69
:102080000123102200212846009601F087FEDCB9CA
:10209000B31C09221021284600932346192401F07D
:1020A0007DFE7388B3F5807FE7D83746BB1B728807
:1020B000934210D307342B7FA88AE408B3B9844233
:1020C00094BF00200120D9E7AB8A1024DB00103B2D
:1020D000DB087380E5E73B1D214608222846009374
:1020E00000230834013701F059FEDFE7201A18BF3A
:1020F0000120C3E730B50A44084D91420DD011F8D4
:10210000013B5840082340F30004013B2C4013F0EE
:10211000FF0384EA5000F6D1EFE730BD2083B8ED2D
:10212000F7B5384A6B46106851686A4603C30823FE
:102130003549364804F078FB0446002833D10A2597
:10214000334A6B46106851686A4603C30823314915
:102150002E4804F069FB0446002849D00369B3F512
:10216000E01F45D8B0F8661040F2134291423FD1CB
:10217000294A024402F15C018B4239D35C3B23497A
:1021800000209E1AFFF7B6FF04F1640107463246AD
:102190000020FFF7AFFFA3689F4229D1E368984270
:1021A00008BF002524E00369B3F5E01F27D8418B61
:1021B00040F21342914220D1174A024402F1100129
:1021C0008B4218D3103B114900209D1AFFF792FF54
:1021D00004F1180106462A460020FFF78BFFA3688A
:1021E0009E4202D1E368984201D00D25A8E7002560
:1021F000284603B0F0BD1025A2E70C25A0E70B256B
:102200009EE700BFBC680008DCFF1B00000004085C
:10221000C568000890FF1B000800FCF710B5037CA0
:10222000044613B9006803F02FFC204610BD0000DF
:102230000023BFF35B8FC360BFF35B8FBFF35B8F84
:102240008360BFF35B8F7047BFF35B8F0068BFF3A2
:102250005B8F704770B505460C30FFF7F5FF0446FD
:1022600005F108063046FFF7EFFFA04206D96D687A
:102270003046FFF7E9FF2544281A70BD3046FFF7C6
:10228000E3FF201AF9E7000070B505464068A0B1E9
:1022900005F10C0605F10800FFF7D6FF04463046AD
:1022A000FFF7D2FF844204F1FF34304694BF6D68DB
:1022B0000025FFF7C9FF2C44201A70BD38B50C4625
:1022C0000546FFF7C7FFA04210D305F10800FFF74E
:1022D000BBFF04446868BFF35B8FB4FBF0F100FB05
:1022E00011440120AC60BFF35B8F38BD0020FCE7D8
:1022F0002DE9F041144607460D46FFF7C5FF84421D
:1023000028BF0446D4B1B84658F80C6B4046FFF7D6
:102310009BFF3044286040467E68FFF795FF331AE4
:102320009C4203D801206C60BDE8F081A41B6B6067
:102330003B682044AB60E8600220F5E72046F3E705
:1023400038B50C460546FFF79FFFA04210D305F1B4
:102350000C00FFF779FF04446868BFF35B8FB4FBA0
:10236000F0F100FB11440120EC60BFF35B8F38BD3E
:102370000020FCE72DE9FF418846694607466C4688
:10238000FFF7B6FF002506B204EBC606B4420AD03A
:10239000626808EB050120680834FFF7A3FB54F8D6
:1023A000043C1D44F2E729463846FFF7C9FF28469A
:1023B00004B0BDE8F0810000F8B505460C300F46CA
:1023C000FFF742FF05F1080604463046FFF73CFFE1
:1023D000A042304688BF6C68FFF736FF201A38608D
:1023E00020B12C683046FFF72FFF2044F8BD0000D5
:1023F00073B5144606460D46FFF72CFF8442019044
:1024000028BF0446DCB101A93046FFF7D5FF019B88
:1024100033B93268C5E90233C5E9002401200CE074
:102420009C42286038BF0194019884426860F5D9C5
:102430003368241A0220AB60EC6002B070BD204605
:10244000FBE700002DE9FF410F4669466C46FFF7A8
:10245000CFFF00B2002604EBC005AC4209D0D4F88F
:102460000480B81954F8081B42464644FFF73AFB6B
:10247000F3E7304604B0BDE8F081000038B505460A
:10248000FFF7E0FF044601462846FFF717FF204606
:1024900038BD00007047000010B41346026814688D
:1024A0000022A4465DF8044B6047000000F5805010
:1024B00090F870047047000000F5805090F85204C6
:1024C0007047000000F58050C0F85C14C0F860242C
:1024D0007047000000F5A350103050E9020170472A
:1024E00000F5805090F95804704700004E20704766
:1024F000302383F3118800F58052D2F8B434D2F837
:10250000B0041844D2F8AC341844D2F894341844C7
:10251000D2F8A4341844D2F8A0341844002383F32A
:102520001188704700F58050C0F85414012070479E
:102530002DE9F04F0C4600F5805185B01F4691F80B
:10254000523405469046BDF838909BB1D1F890348E
:102550000133C1F890342368980006D4237B082BFC
:102560000BD9627B0AB10F2B07D9D1F89434013310
:10257000C1F894344FF0FF3010E0302383F311881A
:10258000EB6AD3F8C42012F4001B0AD0D1F89834B7
:1025900000200133C1F8983480F3118805B0BDE8FC
:1025A000F08F20684822D3F8C4300028C3F3044ACF
:1025B0006B6AB4BF40F08040800412FB0A334FEADC
:1025C0004A161860226852004FEA0A6244BF40F07F
:1025D00000501860207B42EA00425A60607B10B3D2
:1025E00042F440125A60D1F8C8240132C1F8C8241C
:1025F000AA1902F58352117B41F020011173207B4F
:10260000039300F0F5FF0330039B80105FFA8BF219
:102610000BF1010B82420DDA04EB820103EB820223
:1026200049689160F2E7AA1902F58352117B60F3C1
:102630004511E3E70122EB6A05EB4A1102FA0AF2BF
:1026400001F58251C3F8D020AB19183104F10C0206
:1026500003F58253C3E90487234653F8040B9342DE
:1026600041F8040BF9D11B882E440B8041F268031A
:1026700046F803A006F5805609F0030396F86C208F
:1026800043F0100322F01F02134386F86C3000233E
:1026900083F3118842463B4621462846CDF80090F8
:1026A00000F06CFF012079E72DE9F04700F5805636
:1026B000044696F85254002D40F00381037C032B0E
:1026C00040F0948028462B462F465FFA80FC9445C4
:1026D00010DA01EBCC0E51F83CC0BCF1000F04DB6A
:1026E000DEF804C0BCF1000F02DB01370130ECE77B
:1026F0000133FBE7302080F31188E06AF3B9D0F8AA
:10270000803043F00203C0F880304E23E06A002F8F
:102710006FD1D0F8803043F00103C0F880306A4BAD
:102720006A4A1B6803F1805303F52C539B009342C4
:10273000A36240F2B080664800F0F8FE4D2B42D80C
:10274000DFF884814FEA034EDFF88891D8F800C0A3
:102750004EEA8C0EC0F884E00CF1805000F52C504D
:102760008000606103EB0C00D4F82CC0C3F14E0371
:10277000C8F80000DCF8800040F03000CCF88000A1
:102780004FF0000CD4F81480E6465FFA8CF08242D9
:10279000BCDD01EBC00A51F83000002810DBDAF88C
:1027A00004A0BAF1000F0BDA09EA00400AF07F0A30
:1027B00040EA0A0040F0084048F82E000EF1010EF1
:1027C0000CF1010CE1E7836923F00103836100F060
:1027D000B3FE0646E36A9B69D90704D500F0ACFE58
:1027E000831BFA2BF6D9002383F311882846BDE812
:1027F000F087B7EB530F3DD2DFF8CCE04FEA074C40
:10280000DEF800304CEA830CC0F888C003F1805039
:1028100003EB4703002700F52C50CEF80030BC46F0
:102820008000A061E06AD0F8803043F00C03C0F86B
:102830008030D4F818E0FBB29A427FF770AF51F8BD
:10284000330001EBC3080028D8F8043001DB002B6B
:102850000EDB20F0604023F0604340F0005043F076
:1028600000434EF83C000EEBCC000CF1010C436031
:102870000137E0E7836923F00103836100F05CFE28
:102880000646E36A9B69DA07ADD500F055FE831B67
:10289000FA2BF6D9A7E7E26A936923F00103936163
:1028A00000F04AFE0746E36A9B69DB0705D500F0A6
:1028B00043FEC31BFA2BF6D995E7012586F852543F
:1028C00091E7002592E700BFEC630020FCB50040D3
:1028D000D06800080000FF0713B500F5805401918F
:1028E000606CFFF7D1FC1F280AD920220199606C87
:1028F000FFF740FDA0F120035842584102B010BD3F
:102900000020FBE708B5302383F3118800F58050E1
:10291000406CFFF78DFC002383F3118808BD000095
:1029200000220260828142608260704700220023A0
:1029300010B5C0E90023002304460C3020F8043C05
:10294000FFF7EEFF204610BD2DE9F0479A4688B00C
:10295000074688469146302383F3118807F5805453
:102960006846FFF7E3FF606CFFF774FC1F282ED961
:1029700020226946606CFFF781FD202827D194F85A
:10298000523423B303AD444605AB2E46083403CE80
:102990009E4244F8080C44F8041C3546F5D13068D2
:1029A0002060B388A380DDE90023C9E90023BDF8D6
:1029B0000830AAF80030002383F3118853464A46B2
:1029C0004146384608B0BDE8F04700F0C5BD0020DC
:1029D00080F3118808B0BDE8F08700002DE9F84FBA
:1029E0000023064600F58154054688461034C0E9A8
:1029F0000133274B46F8303B374638462037FFF740
:102A000095FFA742F9D105F580544FF4805305F5A1
:102A1000A3594FF0000A26630026676405F5835723
:102A200009F110094FF0000B1037E663C4E90D36C9
:102A3000012384F8403084F84830A7F1180020378B
:102A400047E910ABFFF76CFF47F8286C4F45F4D10E
:102A5000B8F1010F84F85884A4F87264A4F874647F
:102A6000A4F8766484F87864A4F87A64A4F87C64A2
:102A7000A4F87E6484F8806402D9064800F056FD0C
:102A8000054B284653F82830EB62BDE8F88F00BFAD
:102A900020690008F468000810690008044B10B5AC
:102AA000197804464A1C1A70FFF798FF204610BD9B
:102AB000E96300202DE9F04300295AD02E4E2F481B
:102AC000B6FBF1F481428CBF0A201120431EB4FBF7
:102AD000F0F700FB1740DDB220B1022B1846F5D805
:102AE000002032E07B1EB3F5806F2ED2C5EBC50807
:102AF0004FF47A7308F103044FEAE40EC4F3C704F9
:102B00000EF10109281B0EFB033E5FFA80FC59FA07
:102B100080F0BEFBF0F0B0F5617F18DC83B2601C82
:102B20005CFA80F07843B6FBF0F08142D8D1611EA8
:102B30000F29D5D80CF1FF310729D1D801201380F6
:102B400057801071547182F806C0BDE8F08308F117
:102B5000FF34E010C4F3C70400F1010E2D1B00FB8D
:102B600003335FFA85FC5EFA85F5B3FBF5F39BB2A0
:102B7000D5E70846E9E700BF00B4C4043F420F00B0
:102B800030B50D4B05200D4D1C786C438C420ED199
:102B900059780120518099785171D97891711979BA
:102BA00011715B7903EB83035B00138030BD013847
:102BB00003F10603E8D1F9E76869000840420F0015
:102BC00038B540F27772C36A154CC3F8BC200722AF
:102BD000C36AC3F8C8202268C16A930043F4C023C3
:102BE000C1F8A03002F1805302F16C01C56A03F50F
:102BF0002C53EA3289009B00226041F0E061094ACF
:102C0000C361C5F8C01003F5D87103F56A7341625A
:102C10009342836202D9044800F088FC38BD00BFAB
:102C2000EC630020FCB50040D06800082DE9F04FAF
:102C300000F580551F4689B0044695F858348946FA
:102C40009046022B04D90026304609B0BDE8F08F2B
:102C5000A84A52F8231009B942F82300A648C4F83C
:102C60000C9001782774C9B9302383F31188A34BE2
:102C7000D3F8EC2042F48072C3F8EC20D3F894200F
:102C800042F48072C3F89420D3F8942022F4807226
:102C9000C3F894200123037081F3118895F851340F
:102CA0007BB9302383F31188954A95F85834D35C67
:102CB0000BB3012B28D0012385F85134002383F373
:102CC0001188302383F31188E26A936923F010039B
:102CD000936100F031FC8246E36A9E6916F00806B3
:102CE00019D000F029FCA0EB0A03FA2BF4D9002636
:102CF00086F31188A8E70321132002F051F803217D
:102D0000152002F04DF8D6E70321142002F048F810
:102D100003211620F5E79A6942F001029A6100F05A
:102D20000BFC8246E36A9A69D00706D400F004FCE3
:102D3000A0EB0A03FA2BF5D9D9E79A694FF0000AFC
:102D400042F002029A61E36AC3F854A08AF3118840
:102D500004F5825B686CFFF76BFA0BF1100B202215
:102D600000216846FEF7D0FE02A8FFF7D9FD6A46AB
:102D70000BEB06030DF1180ECDF818A0944608339E
:102D8000BCE80300F44543F8080C43F8041C624611
:102D9000F4D1DCF8000020361860B6F5806F9CF89E
:102DA00004201A71DBD1002304F5A35249462046C2
:102DB000123285F8503485F85334FFF77BFE06460F
:102DC00090B9E26A936923F00103936100F0B4FBC8
:102DD0000546E36A9B69D9077FF535AF00F0ACFB88
:102DE000431BFA2BF5D92EE795F87634C5F8849471
:102DF000591E95F87734E26A013B1B0243EA4163AE
:102E000095F8781401390B43B5F87414013943EA85
:102E10000143D361B8F1000F36D004F5A352414607
:102E200020461A32FFF7ACFE90B9E26A936923F0AC
:102E30000103936100F080FB0546E36A9B69DA07B2
:102E40007FF501AF00F078FB431BFA2BF5D9FAE6CA
:102E500095F87F24C5F88884511E95F88024E36A8C
:102E6000013A120142EA012295F87E1401390A431F
:102E7000B5F87C14013942EA014242F40002DA60FA
:102E80004FF42062E36A9A64E36A4FF00008204638
:102E9000C3F8BC80FFF794FE85F870846FF0404261
:102EA000E36A1A65174AE36A5A654FF00222E36A39
:102EB0009A654FF0FF32E36AC3F8E0200322E36A29
:102EC0009742DA653FF4C0AEE26A936923F00103EA
:102ED000936100F031FB0746E36A9B69DB0705D588
:102EE00000F02AFBC31BFA2BF6D9ACE6012385F8C8
:102EF0005234A9E6E0630020E86300200044025851
:102F000008690008550200022DE9F04F00F58256CD
:102F100089B0044691469A4618364FF0000841F2AF
:102F2000680B00F58055E36AD3F8D83023FA08F32C
:102F3000DF075BD504EB48124FEA48115A44137976
:102F4000180753D4D5F89C340133C5F89C3404F5E4
:102F5000A65343E9029A13799A0642BFD5F8CC34B6
:102F60000133C5F8CC34631821445B4459441A79C1
:102F700042F008021A713368D5F85C24D5F8600471
:102F80001340834204BF04F5A353C3E9029A0B79AB
:102F9000DB0720D595F85334EBB168463746FFF789
:102FA000C5FC03AB06F1080C3868083757F8041C59
:102FB0001A46674503C21346F6D138686946106061
:102FC0002046BA889A800123ADF808302368CDE9FD
:102FD000009A5B6C9847D5F8C034D5F85404013397
:102FE000C5F8C03410B103681B69984708F101089F
:102FF0002036B8F1200F96D109B0BDE8F08F00005F
:103000002DE9F04F0F468DB0044600F097FA824646
:103010008946002F5BD1E36AD3F8A02012F4FE0F9B
:1030200003D100200DB0BDE8F08FD3F8A4209201A9
:1030300041BF04F58051D1F8B0240132C1F8B02469
:10304000D3F8A4205606ECD0D3F8A450E669C5F313
:1030500005254823E8464FF0000B03FB0566404674
:10306000FFF75EFC326851004ABF22F06043C2F3B2
:103070008A4343F00043920048BF43F080430093EB
:10308000736813F400131BBF012304F580528DF8FD
:103090000D308DF80D301EBFD2F8D0340133C2F898
:1030A000D034F38803F00F038DF80C309DF80C003A
:1030B00000F09EFA5FFA8BF3984225D9F2180CA91A
:1030C0000BF1010B127A0B4403F82C2CEEE7012FC5
:1030D000A7D1E36AD3F8B02012F4FE0FA1D0D3F841
:1030E000B420950141BF04F58051D1F8B0240132DC
:1030F000C1F8B024D3F8B420500692D0D3F8B4501D
:10310000266AC5F30525A4E7EFB9E36AC3F8A8501A
:1031100004A807ADFFF70AFC98E80F0007C52B804D
:103120000023204604A9ADF81830236804F5805424
:103130005B6CCDE904A9984758B1D4F8A8340133A1
:10314000C4F8A8346EE7012FE2D1E36AC3F8B8509F
:10315000DEE7D4F8AC3401200133C4F8AC3461E7C5
:103160002DE9F04105460F4600F580540126394609
:103170002846FFF745FF10B184F85364F7E7D4F809
:10318000C034D4F854040133C4F8C03420B1036807
:10319000BDE8F0411B691847BDE8F081C36AF0B58E
:1031A0001A6C12F47F0F2BD01B6C00F5805441F287
:1031B00068054FF0010CC4F8C4340023471900EB34
:1031C00043125E012A44117911F0020F15D049070C
:1031D00013D4B959C66A0CFA01F1D6F8CCE011EA59
:1031E0000E0F0AD0C6F8D410117941F00401117104
:1031F000D4F8A4240132C4F8A4240133202BDED156
:10320000F0BD00002B4B70B51E561B5C012B30D857
:10321000294D2A4A55F8233052F8264013B349B3B2
:10322000236D9A0510D54FF40073236500F086F9DD
:1032300050EA01020B4602D0013861F10003024658
:1032400055F82600FFF760FE236D9B012CD54FF04B
:10325000007255F82630226503F58053012283F869
:10326000702421E001232365102323654FF480534C
:10327000236570BD236DDA0702D4236D5B0706D585
:103280000523002155F826002365FFF769FF236D0C
:10329000D80602D4236D590606D55023012155F8CE
:1032A00026002365FFF75CFF55F82600BDE8704057
:1032B000FFF774BF0C690008E06300201069000884
:1032C00008B5302383F31188FFF768FF002383F3E9
:1032D000118808BDC36AD3F8C00010F07C5005D037
:1032E000D3F8C40080F40010C0F3405070470000D1
:1032F00008B5302383F3118800F58050406CFEF749
:10330000A9FF002383F3118843090CBF012000208B
:1033100008BD000000F5805393F8702462B1C16AC3
:103320008A6922F001028A61D3F8B4240132C3F819
:10333000B424002283F87024704700002DE9F7437D
:10334000302181F3118800F58251002541F2680E89
:103350004FF00108103100F5805C00EB4514744417
:10336000267977071CD4F6061AD58E69D0F82C90EA
:1033700008FA06F6D9F8CC703E4211D04F68019792
:103380000F689742019F9F410AD2C9F8D4602679FD
:1033900046F004062671DCF8A0440134CCF8A044C1
:1033A00001352031202DD8D1002383F3118803B0BB
:1033B000BDE8F083F8B51E4600230F46054613709E
:1033C0001446FFF795FF80F0010038701EB12846C3
:1033D000FFF780FF2070F8BD2DE9F04F85B09946CA
:1033E0000D468046164691F800B0DDE90EA3029323
:1033F0001378019300F0A2F82B7804460F4613B916
:103400003378002B41D022463B464046FFF796FFDB
:10341000FFF756FFFFF77EFF4B4632462946FFF780
:10342000C9FF2B7833B1BBF1000F03D0012005B0E9
:10343000BDE8F08F337813B1019B002BF6D108F56E
:10344000805303935445029B77EB03031DD2039BE8
:10345000D3F85404C8B10368AAEB04011B68984769
:103460004B46324629464046FFF7A4FF2B7813B15E
:10347000BBF1000FDAD1337813B1019B002BD5D10A
:1034800000F05CF804460F46DCE70020CFE70000C0
:10349000002108B50846FFF7B5FEBDE8084001F079
:1034A00071B8000008B501210020FFF7ABFEBDE8B0
:1034B000084001F067B8000008B500210120FFF7BF
:1034C000A1FEBDE8084001F05DB80000012108B58B
:1034D0000846FFF797FEBDE8084001F053B800002A
:1034E00000B59BB0EFF3098168226846FEF7FAFA4F
:1034F000EFF30583014B9B6BFEE700BF00ED00E09F
:1035000008B5FFF7EDFF000000B59BB0EFF30981B0
:1035100068226846FEF7E6FAEFF30583014B5B6B22
:10352000FEE700BF00ED00E0FEE700000FB408B5C5
:10353000029801F0E9FEFEE702F0D4BA02F0B6BA52
:1035400013B56C46031D84E8060094E8030083E885
:103550000500012002B010BD73B58568019155B119
:103560001B885B0707D4D0E900361B6C9847019A8B
:10357000C1B23046A847012002B070BDF0B58668E0
:1035800089B005460C465EB1BDF838305B070AD4F9
:10359000D0E900371B6C98472246C1B23846B04785
:1035A000012009B0F0BD0022002301F10806CDE999
:1035B000002300230A46ADF8083003AB1068083238
:1035C00052F8041C1C46B24203C42346F6D11068CC
:1035D00020609288A280FFF7B1FF0423ADF8083085
:1035E0002B68CDE900015B6C694628469847D7E710
:1035F000082817D909280CD00A280CD00B280CD081
:103600000C280CD00D280CD00E2814BF40203020E0
:1036100070470C2070471020704714207047182006
:1036200070472020704700002DE9F041456A15B928
:103630004162BDE8F0814B68AC4623F06047C3F3BC
:103640008A464FEAD37EC3F3807816EA230638BF52
:103650003E462B465A68BEEBD27F22F060440AD029
:10366000002A18DAA40CB44217D19D420FD10D6084
:10367000DEE71346EEE7A74207D102F08044C2F32B
:10368000807242450BD054B1EFE708D2EDE7CCF899
:1036900000100B60CDE7B44201D0B442E5D81A68FF
:1036A0009C46002AE5D11960C3E700002DE9F047E8
:1036B000089D01F0070400EBD1004FF47F494FEA69
:1036C000D508224405F00705944201D1BDE8F087F2
:1036D00004F0070705F0070A111B08EBD50E574544
:1036E0003E4613F80EC038BF5646C6F108068E4255
:1036F00028BF0E46E108415C34443544B94029FAFC
:1037000006F721FA0AF1FFB28CEA010147FA0AF73B
:1037100039408CEA010C03F80EC0D5E780EA01209D
:10372000082341F2210201B2013B4000002980B28E
:10373000B8BF504013F0FF03F5D1704738B50C46C1
:103740008D18A54200D138BD14F8011BFFF7E6FF24
:10375000F7E7000042684AB11368818943604389F2
:1037600001339BB29942438138BF83811046704731
:1037700070B588B0044620220D4668460021FEF749
:10378000C3F920460495FFF7E5FF024660B16B469A
:10379000054608AE1C46083503CCB44245F8080C73
:1037A00045F8041C2346F5D1104608B070BD000052
:1037B000082817D909280CD00A280CD00B280CD0BF
:1037C0000C280CD00D280CD00E2814BF402030201F
:1037D00070470C2070471020704714207047182045
:1037E0007047202070470000082817D90C280CD9F2
:1037F00010280CD914280CD918280CD920280CD939
:1038000030288CBF0F200E207047092070470A20F7
:1038100070470B2070470C2070470D207047000048
:103820002DE9F843078C0446072F1ED900254FF6D3
:10383000FF73D0E90298C5F12006A5F1200029FA0E
:1038400005F1083508FA06F628FA00F0314301437D
:103850001846C9B2FFF762FF402D0346EBD13A4646
:10386000E169BDE8F843FFF769BF4FF6FF70BDE8B7
:10387000F883000010B54B6823B9CA8A63F30902C4
:10388000CA8210BD04691A681C600361C38A013BC7
:10389000C3824A60EFE700002DE9F84F1D46CB8A4E
:1038A0000F468146C3F30901924605290B4630D0E5
:1038B0000020AAB207F11A049EB21FFA80F8042E63
:1038C0000FD8904503F1010306D30A44FB8A62F343
:1038D00009030120FB821AE01AF800600130E65467
:1038E000EAE79045F1D2A1F1050B1C237C68BBFBF4
:1038F000F3F203FB12BB1FFA8BF6002C45D14846AE
:10390000FFF728FF044638B978606FF00200BDE881
:10391000F88F4FF00008E6E7002606607860ADB249
:103920004FF0000B454510D90AEB0803221D13F890
:10393000011B08F101089155B1B21FFA88F81B2943
:103940002BD0454506F10106F1D8FB8AC3F30902E5
:10395000154465F30903BCE701321C4692B22368A3
:10396000002BF9D16B1F0B441C21B3FBF1F3013386
:103970009BB29A42D3D2BBF1000FD0D14846FFF799
:10398000E9FE20B9C4F800B0BFE70122E7E7C0F8BC
:1039900000B05E4620600446C1E74545D5D948469B
:1039A000FFF7D8FE08B92060AFE7C0F800B00026E6
:1039B00020600446B6E700002DE9F04F1C4607469C
:1039C00088462DED028B83B05B690192002B00F0DD
:1039D0009A80238C2BB1E269002A00F09480072B97
:1039E00035D807F10C00FFF7B5FE054638B96FF082
:1039F0000205284603B0BDEC028BBDE8F08F14220F
:103A00000021FEF781F8228CE16905F10800FEF73C
:103A100069F8208C48F00041013080B2FFF7E4FEE5
:103A2000FFF7C6FE013880B2208401302874384682
:103A30006369228C1B782A4403F01F0363F03F0361
:103A4000137269602946FFF7EFFD0125D1E74FF0BA
:103A5000000900F10C034FF0800A4E464D4608EE77
:103A6000103A18EE100AFFF775FE83460028BED004
:103A700014220021FEF748F8002E3AD1019B0222C1
:103A8000ABF808300BF1080E1FFA82FC218C0CF108
:103A90000100BCF1060F80B201D88E422BD3FFF794
:103AA000A3FE8E4208BF4FF0400AFFF781FE626915
:103AB0000138013512781BFA80F1013002F01F0243
:103AC0002DB242EA491289F001094AEA020A48F095
:103AD000004281F808A059468BF810003846CBF810
:103AE00004204FF0000AFFF79FFD238CB342B8D1AA
:103AF0007FE70022C6E7E169895D01360EF8021012
:103B0000B6B20132C0E76FF0010572E7F8B51546AD
:103B10000E463022002104461F46FDF7F5FF069BA6
:103B2000B5F5001FA760636004F11000079B34BF68
:103B30006A094FF6FF72E661A362002397B29A42C8
:103B400006D800230360A782E3822383E360F8BDE5
:103B50000660013330462036F1E7000003781BB9D8
:103B60004BB2002BC8BF017070470000007870474F
:103B7000F8B50C46C969074611B9238C002B37D11B
:103B8000257E1F2D34D8387828BB228C072A2CD8C4
:103B9000268A36F003032BD14FF6FF70FFF7CEFDD8
:103BA00020F0010031024FF6FF72400441EA056146
:103BB000400C41EA4025234629463846FFF7FCFEE3
:103BC000002807DD626913780133DBB21F2B88BF41
:103BD00000231370F8BD218A2D0645EA012505430F
:103BE0002046FFF71DFE0246E5E76FF00300F1E710
:103BF0006FF00100EEE7000070B58AB0044616468B
:103C00000021282268461D46FDF77EFFBDF83830AA
:103C100069462046ADF810300F9B05939DF8403063
:103C20008DF81830119B0793BDF84830CDE9026537
:103C3000ADF82030FFF79CFF0AB070BD2DE9F041D0
:103C4000D36905460C4616460BB9138C5BBB377E11
:103C50001F2F28D895F80080B8F1000F26D03046E5
:103C6000FFF7DEFD337821020246284641EAC331E0
:103C7000338A41EA080141EA076141EA03413346D8
:103C800041F08001FFF798FE00280ADD3378012B10
:103C900007D1726913780133DBB21F2B88BF002371
:103CA0001370BDE8F0816FF00100FAE76FF00300D8
:103CB000F7E70000F0B58BB004460D46174600212B
:103CC000282268461E46FDF71FFF9DF84C30294606
:103CD00020465A1E534253416A468DF800309DF8E3
:103CE0004030ADF81030119B05939DF848308DF8A9
:103CF0001830149B0793BDF85430CDE90276ADF827
:103D00002030FFF79BFF0BB0F0BD0000406A00B110
:103D100004307047436A1A68426202691A6003619C
:103D2000C38A013BC38270472DE9F041D0F820805F
:103D300014461D46184E4146002709B9BDE8F081DA
:103D4000D1E90223A21A65EB0303964277EB030342
:103D50001ED2036A8B420DD1FFF78CFD036A1B68EC
:103D6000036203690B60C38A0161013B016AC3827C
:103D70008846E2E7FFF77EFD0B68C8F8003003696C
:103D80000B60C38A0161013BC382D8F80010D4E7FD
:103D900088460968D1E700BF80841E002DE9F04FF6
:103DA0008BB00D4614469B46DDF8509080460028A7
:103DB00000F01881B9F1000F00F01481531E3F2B61
:103DC00000F21081012A03D1BBF1000F40F00A81FB
:103DD0000023CDE90833B8F81430B5EBC30F4FEA30
:103DE000C30703D300200BB0BDE8F08F2B199F420F
:103DF000D8F80C3036BF7F1B2746FFB21BB9D8F866
:103E00001030002B7AD0272D4DD8C5F1280600237D
:103E10002946B742009308ABD8F808002CBFF6B289
:103E20003E46A7EB060A354432465FFA8AFAFFF7A8
:103E30003DFCB8F81430282103F10053053BDB00AA
:103E40000493D8F80C300393039B13B1BAF1000F1D
:103E50002CD1D8F8100040B1BAF1000F05D008AB52
:103E60005246691A0096FFF721FC38B2002FB9D0EC
:103E700066070AD00AAB624203EBD40102F00702E4
:103E800011F8083C134101F8083C082C3DD9102CCE
:103E900040F2B580202C40F2B780BBF1000F00F05B
:103EA0009C80082335E0BA460026C2E7049BE02B3D
:103EB00028BFE02306930B44AB42059315D95A1B48
:103EC0000398691A0096924508AB00F1040034BFCC
:103ED0005246D2B20792FFF7E9FB079A1644AAEBC3
:103EE000020A1544F6B25FFA8AFA049B069A05990B
:103EF0009B1A0493039B1B680393A5E700933A4620
:103F000008AB2946D8F80800ADE7BBF1000F13D085
:103F10000123B4EBC30F6BD0082C12D89DF82030CE
:103F2000621E23FA02F2D50706D54FF0FF3202FADD
:103F300004F423438DF820309DF8203089F80030B8
:103F400051E7102C12D8BDF82030621E23FA02F27D
:103F5000D10706D54FF0FF3202FA04F42343ADF83F
:103F60002030BDF82030A9F800303CE7202C0FD8D5
:103F70000899631E21FA03F3DA0705D54FF0FF32E3
:103F800002FA04F40C430894089BC9F800302AE7AD
:103F9000402C2AD0611EC4F12102A4F12103DDE9E5
:103FA000086526FA01F105FA02F225FA03F3114336
:103FB0001943CB0711D50122A4F12003C4F120013C
:103FC00002FA03F322FA01F1A2400B43524263EBDF
:103FD000430332432B43CDE90823DDE90823C9E934
:103FE000002300E76FF00100FDE66FF00800FAE63D
:103FF000082CA1D9102CB4D9202CEED8C4E7BBF1E1
:10400000000FAED0022384E7BBF1000FBCD0042325
:104010007FE70000012A30B5144638BF012485B07F
:104020000025402C28BF4024012ACDE9025518D88C
:104030001B788DF8083063070AD004AB624203EBAB
:10404000D40502F0070215F8083C934005F8083C37
:10405000034600912246002102A8FFF727FB05B086
:1040600030BD082AE4D9102A03D81B88ADF80830DF
:10407000E1E7202A95BF1B68D3E900230293CDE92D
:104080000223D8E710B5CB681BB98B600B618B821C
:1040900010BD04691A681C600361C38A013BC382B6
:1040A000CA60F0E703064CBFC0F3C030022070477F
:1040B00008B50246FFF7F6FF022806D15306C2F301
:1040C0000F2001D100F0030008BDC2F30740FBE759
:1040D0002DE9F04F93B004460D46CDE903230A685D
:1040E0001046FFF7DFFF0228824614BFC2F3062600
:1040F0000026002A80F2F88112F0C04940F0F481D5
:10410000097B002900F0F081022803D02378B34214
:1041100040F0ED81C2F3046310462944069302F097
:104120007F030593FFF7C4FF059B002283464FEAF8
:104130008348002348EA0A4848EA4668CE78CDE931
:104140000823F30948EA0008029368D0059B024659
:1041500008A92046009353466768B847002800F036
:10416000C981276A4FB9414604F10C00FFF700FBF3
:10417000074690B96FF0020055E03B6998450DD0B5
:104180003F68002FF9D1414604F10C00FFF7F0FA27
:1041900007460028EED0236A3B60276297F817C0D5
:1041A00006F01F08CCF3840CACEB0800A8EB0C0362
:1041B0001FFA80FE0028B8BF0EF120001FFA83FE10
:1041C000B8BF00B2002B0793B8BF0EF12003D7E9A8
:1041D0000221BCBF1BB2079352EA010338D0039BF4
:1041E0004FF0000CDFF81CE39A1A049B63EB01010B
:1041F00096457CEB01032BD36B7B97F81AE0734554
:1042000019D1029B002B78D0012821DC7868F8B9FD
:10421000DFF8ECC2944570EB010316D337E0276A50
:1042200027B96FF00C0013B0BDE8F08F3B699845DB
:10423000B4D03F68F4E7B24890427CEB010301D36D
:104240000020F0E7029B002BFAD0079B0F2B17DC16
:10425000FA7DB3003946204602F0030203F07C03E6
:104260001343FB75FFF706FB6B7BBB76029B3BB9E9
:10427000FB7DC3F38402013262F38603FB75D0E752
:104280006A7BBB7E9A42DBD1029B002B35D0B309FF
:10429000022B32D0039B142200210DA8BB60049B8B
:1042A000FB60FDF731FC039B0AA920460A93049B9F
:1042B000ADF83EB00B932B1D8DF840A00C932B7BDB
:1042C0008DF84180013BDBB2ADF83C30069B8DF8A8
:1042D0004230059B8DF8433094F82C3083F0010375
:1042E0008DF84430A3689847FB7DC3F38403013302
:1042F00003F01F039B02FB82A2E7FB7DC6F3401283
:10430000B2EBD31F40F0F980C3F38403434540F080
:10431000FB80029AB6092B7B002A52D016F00106C8
:1043200061D1032B40F2F380039B394604F10C006A
:10433000BB60049BFB60FB8A66F30903AE1DFB8236
:1043400032462B7B033BDBB2FFF7A6FA00280CDAE0
:1043500039462046FFF78EFAFB7DC3F38403013311
:1043600003F01F039B02FB8204E7AB88DDE90884AE
:104370003B834FF6FF73C9F12000A9F1200228FA10
:1043800009F109F1080904FA00F024FA02F20143E4
:1043900018461143C9B2FFF7C1F9B9F1400F0346FE
:1043A000E9D1B88231462A7B033AD2B2FFF7C6F987
:1043B000FB7DB882DA43C2F3C01262F3C713FB7508
:1043C0003EE786B92E1D013B394604F10C00DBB2F5
:1043D0003246FFF761FA0028BADB2A7B3146B88AF9
:1043E000013AD2B2E2E7F98A013BC1F30901DAB23C
:1043F00004295BD8281D002307F11B069A4208D91F
:1044000010F801CB013306F801C00131DBB20529F8
:10441000F4D1039993420A9138BF043304992CBF15
:10442000002355FA83F30B9107F11B010C91796876
:104430000E930D91291DFB8AADF83EB0C3F309031D
:104440008DF840A08DF841801A44069B8DF84230CB
:10445000059BADF83C208DF8433094F82C3083F068
:1044600001038DF844300023B88A7B602A7B013A2F
:10447000FFF764F93B8BB882834203D1A3680AA992
:104480002046984720460AA9FFF7FCFDFB7DBA8A23
:10449000C3F38403013303F01F039B02FB823B8BB6
:1044A0009A420CBF00206FF01000BCE67B68002B26
:1044B000AFD0052001E01C3033461E68002EFAD133
:1044C000091A2E1D081D184401EB090C5FFA89F327
:1044D000BCF11B0F9DD89A429BD916F8013B09F1FC
:1044E000010900F8013BEFE76FF009009BE66FF070
:1044F0000A0098E66FF00B0095E66FF00D0092E66B
:1045000040420F0080841E006FF00E008BE66FF0BB
:104510000F0088E6EFF30983054968334A6B22F000
:1045200001024A6383F30988002383F311887047EB
:1045300000EF00E0302080F3118862B60D4B0E4A88
:10454000D96821F4E0610904090C0A430B49DA60D7
:10455000D3F8FC2042F08072C3F8FC20084AC2F86D
:10456000B01F116841F0010111602022DA7783F851
:104570002200704700ED00E00003FA0555CEACC5FF
:10458000001000E0302310B583F311880E4B5B68F8
:1045900013F4006314D0F1EE103AEFF309844FF0F6
:1045A0008073683CE361094BDB6B236684F3098805
:1045B00000F070FE10B1064BA36110BD054BFBE788
:1045C00083F31188F9E700BF00ED00E000EF00E0A1
:1045D0003F0400084204000808B5074B074A196861
:1045E00001F03D01996053680BB190689847BDE8B0
:1045F0000840FFF7C7BF00BF00000240F46300207F
:1046000008B5084B1968890901F03D018A019A60D3
:10461000054AD3680BB110699847BDE80840FFF719
:10462000B1BF00BF00000240F463002008B5084B92
:104630001968090C01F03D010A049A60054A5369A2
:104640000BB190699847BDE80840FFF79BBF00BFDA
:1046500000000240F463002008B5084B1968890D7A
:1046600001F03D018A059A60054AD3690BB1106AD1
:104670009847BDE80840FFF785BF00BF0000024033
:10468000F463002008B5074B074A596801F03D0163
:10469000D960536A0BB1906A9847BDE80840FFF7AC
:1046A00071BF00BF00000240F463002008B5084B52
:1046B0005968890901F03D018A01DA60054AD36A27
:1046C0000BB1106B9847BDE80840FFF75BBF00BF18
:1046D00000000240F463002008B5084B5968090C3B
:1046E00001F03D010A04DA60054A536B0BB1906B8F
:1046F0009847BDE80840FFF745BF00BF00000240F3
:10470000F463002008B5084B5968890D01F03D019C
:104710008A05DA60054AD36B0BB1106C9847BDE887
:104720000840FFF72FBF00BF00000240F4630020E5
:1047300008B5074B074A196801F03D019960536CB1
:104740000BB1906C9847BDE80840FFF71BBF00BF56
:1047500000040240F463002008B5084B1968890979
:1047600001F03D018A019A60054AD36C0BB1106DCE
:104770009847BDE80840FFF705BF00BF00040240AE
:10478000F463002008B5084B1968090C01F03D01DD
:104790000A049A60054A536D0BB1906D9847BDE8C5
:1047A0000840FFF7EFBE00BF00040240F4630020A2
:1047B00008B5084B1968890D01F03D018A059A601A
:1047C000054AD36D0BB1106E9847BDE80840FFF75E
:1047D000D9BE00BF00040240F463002008B5074BB7
:1047E000074A596801F03D01D960536E0BB1906ED4
:1047F0009847BDE80840FFF7C5BE00BF000402406F
:10480000F463002008B5084B5968890901F03D019F
:104810008A01DA60054AD36E0BB1106F9847BDE884
:104820000840FFF7AFBE00BF00040240F463002061
:1048300008B5084B5968090C01F03D010A04DA601B
:10484000054A536F0BB1906F9847BDE80840FFF7DA
:1048500099BE00BF00040240F463002008B5084B75
:104860005968890D01F03D018A05DA60054AD36F68
:1048700013B1D2F880009847BDE80840FFF782BE28
:1048800000040240F463002000230C4910B51A46CE
:104890000B4C0B6054F82300026001EB430004331F
:1048A0004260402BF6D1074A4FF0FF339360D3604C
:1048B000C2F80834C2F80C3410BD00BFF463002005
:1048C00088690008000002400F28F8B510D91028A8
:1048D00010D0112811D0122808D10F240720DFF89A
:1048E000B4E00126DEF80050A04208D9002649E0D5
:1048F0000446F4E70F240020F1E70724FBE706FA5B
:1049000000F73D4240D1214C4FEA001C3D4304EBEF
:1049100000160EEBC000CEF80050C0E90123FBB238
:104920004BB11B48836B43F001038363036E43F079
:1049300001030366036E17F47F4F09D01448836B9D
:1049400043F002038363036E43F002030366036EC6
:1049500054F80C00036823F01F030360056815F08A
:104960000105FBD104EB0C033D2493F80CC05F68F8
:1049700004FA0CF43C6021240560446112B1987B78
:1049800000F00EFA3046F8BD0130ADE78869000846
:1049900000450258F463002010B5302484F31188D8
:1049A000FFF792FF002383F3118810BD10B5044672
:1049B000807B00F00BFA01231049627B03FA02F2BC
:1049C0000B6823EA0203DAB20B604AB90C4A916B16
:1049D00021F001019163116E21F001011166126E47
:1049E00013F47F4F09D1064B9A6B22F002029A63AF
:1049F0001A6E22F002021A661B6E10BDF4630020CC
:104A00000045025808B5302383F31188FFF7CEFF25
:104A1000002383F3118808BD0023054A194601339A
:104A2000102BC2E9001102F10802F8D1704700BF53
:104A3000786400202DE9F74F02F0030AC2F3C31394
:104A4000C2F38009C2F3C108C2F3411E57460022D7
:104A50004FF00F0B0193CB0733D502F00703019CF6
:104A6000012556009B00BAF1020F05FA02F504FA7F
:104A700003FC44680BFA03F324EA05046FEA03031A
:104A800044EA090444604FF00304856804FA06F61A
:104A900025EA06056FEA060445EA08058560C5684B
:104AA00025EA060545EA0E05C5601BD1072A13D87D
:104AB000056A2B4043EA0C03036203681C403C4335
:104AC0000460490822D04FEA490901324FEA8808B8
:104AD0004FEA8E0EBF00BEE7456A2B4043EA0C0347
:104AE0004362EAE70568072A04EA050444EA070482
:104AF000046005D8046A234043EA0C030362E0E73C
:104B0000446A234043EA0C034362DAE703B0BDE89A
:104B1000F08F0000026843681143016003B1184739
:104B200070470000024A136843F0C00313607047E7
:104B300000100140024A136843F0C003136070473D
:104B4000007C004037B51A4C1A4D204600F0E8FAB8
:104B500004F11400009400234FF40072164900F091
:104B6000A5F94FF40072154904F138000094144B74
:104B700000F01EFA134BC4E91735134C204600F021
:104B8000CFFA04F1140000234FF400720F4900948F
:104B900000F08CF90E4B4FF400720E4904F138000E
:104BA000009400F005FA0C4BC4E9173503B030BD92
:104BB000F864002000E1F505D0650020D0690020F0
:104BC000254B00080010014064650020D0670020DC
:104BD000354B0008D06B0020007C0040037C30B5D2
:104BE000284C002918BF0C46012B0CD1264B9842AB
:104BF00036D1264B1A6D42F010021A659A6F42F0B8
:104C000010029A679B6F2268036EC16D03EB52031B
:104C10008466B3FBF2F36268150442BF23F0070514
:104C200003F0070343EA4503CB60A36843F0400366
:104C30004B60E36843F001038B6042F4967343F0EA
:104C400001030B604FF0FF330B62510505D512F0E5
:104C5000102213D0B2F1805F12D080F8643030BDE2
:104C60000B4B9842CFD1094B9A6C42F000429A64A8
:104C70001A6F42F000421A671B6FC4E77F23ECE70C
:104C80003F23EAE7886A0008F864002000450258DC
:104C9000646500202DE9F047C66D05463768F46964
:104CA000210734621AD014F0080118BF4FF4807144
:104CB000E20748BF41F02001A3074FF0300348BF8F
:104CC00041F04001600748BF41F0800183F3118843
:104CD000281DFFF71FFF002383F31188E2050AD583
:104CE000302383F311884FF48061281DFFF712FFF2
:104CF000002383F311884FF030094FF0000A14F0BD
:104D0000200838D13B0616D54FF0300905F1380A96
:104D1000200610D589F31188504600F07DF900284F
:104D200036DA0821281DFFF7F5FE27F080033360EF
:104D3000002383F31188790614D5620612D5302337
:104D400083F31188D5E913239A4208D12B6C33B130
:104D500027F040071021281DFFF7DCFE37600023F5
:104D600083F31188E30618D5AA6E1369ABB15069B5
:104D7000BDE8F047184789F31188736A284695F80B
:104D80006410194000F0E6F98AF31188F469B6E777
:104D9000B06288F31188F469BAE7BDE8F0870000D3
:104DA000090100F16043012203F56143C9B283F8B0
:104DB000001300F01F039A4043099B0003F1604376
:104DC00003F56143C3F880211A60704700F01F03A8
:104DD00001229A40430900F160409B0000F56140C8
:104DE00003F1604303F56143C3F88020C3F88021D9
:104DF000002380F800337047F8B5154682680446F2
:104E00000B46AA4200D28568A1692669761AB54286
:104E10000BD218462A46FCF765FEA3692B44A36112
:104E20002846A3685B1BA360F8BD0CD9AF1B1846CE
:104E30003246FCF757FE3A46E1683044FCF752FE32
:104E4000E3683B44EBE718462A46FCF74BFEE36871
:104E5000E5E7000083689342F7B50446154600D2A3
:104E60008568D4E90460361AB5420BD22A46FCF7AD
:104E700039FE63692B4463612846A3685B1BA3600A
:104E800003B0F0BD0DD93246AF1B0191FCF72AFEED
:104E900001993A46E0683144FCF724FEE3683B445C
:104EA000E9E72A46FCF71EFEE368E4E710B50A448A
:104EB0000024C361029B8460C16002610362C0E997
:104EC0000000C0E9051110BD08B5D0E905329342D4
:104ED00001D1826882B98268013282605A1C4261C3
:104EE00019700021D0E904329A4224BFC36843619B
:104EF00000F076FA002008BD4FF0FF30FBE700001D
:104F000070B5302304460E4683F31188A568A5B119
:104F1000A368A269013BA360531CA36115782269B1
:104F2000934224BFE368A361E3690BB1204698472D
:104F3000002383F31188284607E03146204600F01D
:104F40003FFA0028E2DA85F3118870BD2DE9F74FAA
:104F500004460E4617469846D0F81C904FF0300A8B
:104F60008AF311884FF0000B154665B12A46314689
:104F70002046FFF741FF034660B94146204600F056
:104F80001FFA0028F1D0002383F31188781B03B0A7
:104F9000BDE8F08FB9F1000F03D001902046C8475B
:104FA000019B8BF31188ED1A1E448AF31188DCE70C
:104FB000C160C361009B82600362C0E905111144B6
:104FC000C0E9000001617047F8B504460D46164679
:104FD000302383F31188A768A7B1A368013BA360BE
:104FE00063695A1C62611D70D4E904329A4224BF7D
:104FF000E3686361E3690BB120469847002080F3C2
:10500000118807E03146204600F0DAF90028E2DA9C
:1050100087F31188F8BD0000D0E9052310B59A4246
:1050200001D182687AB982680021013282605A1CFB
:1050300082611C7803699A4224BFC368836100F0CF
:10504000CFF9204610BD4FF0FF30FBE72DE9F74FB9
:1050500004460E4617469846D0F81C904FF0300A8A
:105060008AF311884FF0000B154665B12A46314688
:105070002046FFF7EFFE034660B94146204600F0A8
:105080009FF90028F1D0002383F31188781B03B027
:10509000BDE8F08FB9F1000F03D001902046C8475A
:1050A000019B8BF31188ED1A1E448AF31188DCE70B
:1050B000026843681143016003B11847704700005C
:1050C0001430FFF743BF00004FF0FF331430FFF7F9
:1050D0003DBF00003830FFF7B9BF00004FF0FF338D
:1050E0003830FFF7B3BF00001430FFF709BF0000EE
:1050F0004FF0FF311430FFF703BF00003830FFF7E7
:1051000063BF00004FF0FF323830FFF75DBF000093
:10511000012914BF6FF0130000207047FFF712BD84
:10512000044B036000234360C0E90233012303748E
:10513000704700BFA06A000810B53023044683F30F
:105140001188FFF74BFD02230020237480F31188A0
:1051500010BD000038B5C36904460D461BB90421D3
:105160000844FFF7A5FF294604F11400FFF7ACFE41
:10517000002806DA201D4FF40061BDE83840FFF733
:1051800097BF38BD00238268037503691B6899685F
:105190009142FBD25A6803604260106058607047C9
:1051A00000238268037503691B6899689142FBD8E4
:1051B0005A680360426010605860704708B508463E
:1051C000302383F311880A7D0023052A06D8DFE8FF
:1051D00002F00B050503120E826913604FF0FF33D6
:1051E0008361FFF7CFFF002383F3118808BD826935
:1051F000936801339360D0E9003213605A60EDE7A1
:10520000FFF7C0BF054BD96808751868026853607E
:105210001A600122D8600275FBF7FCB8D06D00203F
:105220000C4B30B5DD684B1C87B004460FD02B46C5
:10523000094A684600F066F92046FFF7E3FF009B45
:1052400013B1684600F068F9A86907B030BDFFF7F0
:10525000D9FFF9E7D06D0020BD51000838B50C4DDD
:1052600004468161EB6881689A68914203D8BDE881
:105270003840FFF787BF1846FFF792FF012301462A
:10528000EC6020462375BDE83840FBF7C3B800BF8B
:10529000D06D0020044B1A68DB6890689B689842C8
:1052A00094BF002001207047D06D0020084B10B53E
:1052B0001C68D868226853601A600122DC6022757D
:1052C000FFF76EFF01462046BDE81040FBF7A2B88D
:1052D000D06D002038B50123084C0025237065608F
:1052E00000F084FD00F0AAFD0549064800F07EFEAE
:1052F0000223237085F3118838BD00BF3870002069
:10530000CC6A0008D06D002008B572B6044B186551
:1053100000F0BEFB00F080FC024B03221A70FEE797
:10532000D06D00203870002000F02CB98B60022373
:10533000086108468B8270478368A3F1840243F8B2
:10534000142C026943F8442C426943F8402C094A62
:1053500043F8242CC268A3F1200043F8182C022241
:1053600003F80C2C002203F80B2C034A43F8102CF2
:10537000704700BF2D040008D06D002008B5FFF76E
:10538000DBFFBDE80840FFF73BBF0000024BDB68D6
:1053900098610F20FFF736BFD06D0020302383F3D4
:1053A0001188FFF7F3BF000008B50146302383F3EF
:1053B00011880820FFF734FF002383F3118808BD0C
:1053C000064BDB6839B1426818605A60136043606D
:1053D0000420FFF725BF4FF0FF307047D06D00204D
:1053E0000368984206D01A680260506018469961B6
:1053F000FFF706BF70470000036810B59C68A24223
:105400000CD85C688A600B604C60216059609968B8
:105410008A1A9A604FF0FF33836010BD121B1B681D
:10542000ECE700000A2938BF0A2170B504460D4692
:105430000A26601900F0D4FC00F0BCFC041BA54255
:1054400003D8751C04462E46F3E70A2E04D9012022
:10545000BDE8704000F00ABE70BD0000F8B5144B06
:105460000D460A2A4FF00A07D96103F11001826044
:1054700038BF0A224160196914460160486018610A
:10548000A81800F09DFC00F095FC431B0646A342C3
:1054900006D37C1C28192746354600F0A1FCF2E70C
:1054A0000A2F04D90120BDE8F84000F0DFBDF8BDA7
:1054B000D06D0020F8B506460D4600F07BFC0F4A83
:1054C000134653F8107F9F4206D12A4601463046C4
:1054D000BDE8F840FFF7C2BFD169BB68441A2C1978
:1054E00028BF2C46A34202D92946FFF79BFF22463C
:1054F00031460348BDE8F840FFF77EBFD06D00207D
:10550000E06D0020C0E90323002310B45DF8044BD4
:105510004361FFF7CFBF000010B5194C23699842D3
:105520000DD08168D0E9003213605A609A680A444D
:105530009A60002303604FF0FF33A36110BD02683F
:10554000234643F8102F53600022026022699A42DA
:1055500003D1BDE8104000F03DBC936881680B4466
:10556000936000F027FC2269E1699268441AA24224
:10557000E4D91144BDE81040091AFFF753BF00BF3A
:10558000D06D00202DE9F047DFF8BC8008F110074E
:105590002C4ED8F8105000F00DFCD8F81C40AA682A
:1055A000031B9A423ED814444FF00009D5E900325B
:1055B000C8F81C4013605A60C5F80090D8F8103045
:1055C000B34201D100F006FC89F31188D5E903311B
:1055D00028469847302383F311886B69002BD8D075
:1055E00000F0E8FB6A69A0EB040982464A450DD247
:1055F000022000F03BFD0022D8F81030B34208D161
:1056000051462846BDE8F047FFF728BF121A22444A
:10561000F2E712EB09092946384638BF4A46FFF738
:10562000EBFEB5E7D8F81030B34208D01444C8F800
:105630001C00211AA960BDE8F047FFF7F3BEBDE8E2
:10564000F08700BFE06D0020D06D002038B500F07D
:10565000B1FB054AD2E90845031B181945F10001C1
:10566000C2E9080138BD00BFD06D0020002070479E
:10567000FEE70000704700004FF0FF307047000069
:10568000BFF34F8F044B1A695107FCD1D3F8102197
:105690005207F8D1704700BF0020005208B50D4BEB
:1056A0001B78ABB9FFF7ECFF0B4BDA68D10704D5D9
:1056B0000A4A5A6002F188325A60D3F80C21D207A4
:1056C00006D5064AC3F8042102F18832C3F8042142
:1056D00008BD00BF40700020002000522301674534
:1056E00008B5114B1B78F3B9104B1A69510703D554
:1056F000DA6842F04002DA60D3F81021520705D58B
:10570000D3F80C2142F04002C3F80C21FFF7B8FF98
:10571000064BDA6842F00102DA60D3F80C2142F05D
:105720000102C3F80C2108BD407000200020005287
:105730000F289ABF00F580604004002070470000E9
:105740004FF4003070470000102070470F2808B554
:105750000BD8FFF7EDFF00F500330268013204D1EA
:1057600004308342F9D1012008BD0020FCE700008D
:105770000F2838B505463FD8FFF782FF1F4CFFF7CB
:105780008DFF4FF0FF3307286361C4F814311DD833
:105790002361FFF775FF030243F02403E360E3682E
:1057A00043F08003E36023695A07FCD42846FFF7DF
:1057B00067FFFFF7BDFF4FF4003100F009FA2846FC
:1057C000FFF78EFFBDE83840FFF7C0BFC4F81031C7
:1057D000FFF756FFA0F108031B0243F02403C4F8AF
:1057E0000C31D4F80C3143F08003C4F80C31D4F8F8
:1057F00010315B07FBD4D9E7002038BD00200052F0
:105800002DE9F84F05460C46104645EA0203DE0630
:1058100002D00020BDE8F88F20F01F00DFF8BCB0F8
:10582000DFF8BCA0FFF73AFF04EB0008444503D1C2
:105830000120FFF755FFEDE720222946204600F022
:10584000E3FF10B920352034F0E72B4605F12002A4
:105850001F68791CDDD104339A42F9D105F17843F0
:105860001B481C4EB3F5801F1B4B38BF184603F175
:10587000F80332BFD946D1461E46FFF701FF076045
:10588000A5EB040C336804F11C0143F00203336000
:10589000231FD9F8007017F00507FAD153F8042F29
:1058A0008B424CF80320F4D1BFF34F8FFFF7E8FE93
:1058B0004FF0FF332022214603602846336823F04F
:1058C0000203336000F0A0FF0028BBD03846B0E7E9
:1058D000142100520C2000521420005210200052BB
:1058E0001021005210B5084C237828B11BB9FFF7DE
:1058F000D5FE0123237010BD002BFCD02070BDE825
:105900001040FFF7EDBE00BF407000202DE9F04FC2
:105910000D4685B0814658B111F00D0614BF202206
:10592000082211F00803019304D0431E03426AD0F9
:10593000002435E0002E37D009F11F0121F01F09A6
:105940004FF00108324F05F00403DFF8D0A005EA5C
:10595000080BBBF1000F32D07869C0072FD408F1D3
:1059600001080C37B8F1060FF3D19EB9294D49460D
:10597000A819019200F084FA044600283AD118369A
:10598000019A782EF3D1494600F07AFA04460028AD
:1059900030D1019A4946204800F072FA044668BBAB
:1059A000204605B0BDE8F08F0029C9D10146284640
:1059B000029200F065FA0446E0B9029AC0E713B11A
:1059C00078694107CBD5AC0702D578698007C6D581
:1059D000019911B178690107C1D51820494600FB2A
:1059E00008A0CDE9022300F04BFA0446DDE90223CA
:1059F0000028B4D04A460021204601E04A46002152
:105A0000FCF782F8CCE70246002E95D198E700BF5C
:105A1000D86A000874700020447000205C70002078
:105A20000121FFF773BF0000F8B5144D01241827BA
:105A3000134E40F2FF3200210120FCF765F807FB0E
:105A4000046001342A6955F80C1F00F005FA062C91
:105A5000F5D137254FF4C0542046FFF7E1FF01464A
:105A600028B122460748BDE8F84000F0F5B9C4EB7C
:105A7000C404013D4FEAD404EED1F8BDD86A000851
:105A80005C7000204470002008B100F06BBA7047D1
:105A900038B5054D00240334696855F80C0B00F047
:105AA000A9F8122CF7D138BDD86A000838B5EFF341
:105AB00011859DB9EFF30584C4F30804302334B194
:105AC00083F31188FFF7C2FD85F3118838BD83F396
:105AD0001188FFF7BBFD84F3118838BDBDE838405D
