:020000040800F2
:1000000000060020F505000835340008ED3300082F
:1000100015340008ED3300080D340008F70500081A
:10002000F7050008F7050008F7050008194400085F
:10003000F7050008F7050008F7050008F7050008B0
:10004000F7050008F7050008F7050008F7050008A0
:10005000F7050008F7050008F96E0008256F00088D
:10006000516F00087D6F0008A96F0008F7050008B0
:10007000F7050008F7050008F7050008F705000870
:10008000F7050008F7050008F7050008CD3300085C
:10009000F7050008DD330008F7050008D56F0008F4
:1000A000F7050008F7050008F7050008F705000840
:1000B000F7050008F7050008F7050008F705000830
:1000C000F7050008F7050008F7050008F705000820
:1000D000F7050008F7050008F7050008F705000810
:1000E00039700008F7050008F7050008F705000853
:1000F000F7050008F7050008F7050008F7050008F0
:10010000F7050008F7050008AD700008F7050008BE
:10011000F7050008F7050008F7050008F7050008CF
:10012000F7050008F7050008F7050008F7050008BF
:10013000F7050008F7050008F7050008F7050008AF
:10014000F7050008F7050008F7050008F70500089F
:10015000F7050008F7050008F7050008F70500088F
:10016000F7050008F7050008F7050008F70500087F
:10017000F705000865620008F7050008F7050008A4
:10018000F7050008F7050008F7050008F70500085F
:10019000F7050008F7050008F7050008F70500084F
:1001A000F7050008F7050008F7050008F70500083F
:1001B000F7050008F7050008F7050008F70500082F
:1001C000F7050008F7050008F7050008F70500081F
:1001D000F7050008F7050008F7050008F70500080F
:1001E000F7050008F7050008F7050008F7050008FF
:1001F000F7050008F7050008F7050008F7050008EF
:10020000F7050008F7050008F7050008F7050008DE
:10021000F7050008F7050008F7050008F7050008CE
:10022000F7050008F7050008F7050008F7050008BE
:10023000F7050008F7050008F7050008F7050008AE
:10024000F7050008F7050008F7050008F70500089E
:10025000F7050008F7050008F7050008F70500088E
:10026000F7050008F7050008F7050008F70500087E
:10027000F7050008F7050008F7050008F70500086E
:10028000F7050008F7050008F7050008F70500085E
:10029000F7050008F7050008F7050008F70500084E
:1002A000F7050008F7050008F7050008F70500083E
:1002B000F7050008F7050008F7050008F70500082E
:1002C000F7050008F7050008F7050008F70500081E
:1002D000F7050008F7050008F7050008F70500080E
:1002E0009519000800000000000000000000000058
:1002F00053B94AB9002908BF00281CBF4FF0FF318D
:100300004FF0FF3000F074B9ADF1080C6DE904CE88
:1003100000F006F8DDF804E0DDE9022304B07047E0
:100320002DE9F047089D04468E46002B4DD18A42A8
:10033000944669D9B2FA82F252B101FA02F3C2F1DB
:10034000200120FA01F10CFA02FC41EA030E94406C
:100350004FEA1C48210CBEFBF8F61FFA8CF708FB8D
:1003600016E341EA034306FB07F199420AD91CEB65
:10037000030306F1FF3080F01F81994240F21C8197
:10038000023E63445B1AA4B2B3FBF8F008FB1033DF
:1003900044EA034400FB07F7A7420AD91CEB040414
:1003A00000F1FF3380F00A81A74240F207816444E4
:1003B000023840EA0640E41B00261DB1D440002369
:1003C000C5E900433146BDE8F0878B4209D9002DCD
:1003D00000F0EF800026C5E9000130463146BDE857
:1003E000F087B3FA83F6002E4AD18B4202D38242C1
:1003F00000F2F980841A61EB030301209E46002D70
:10040000E0D0C5E9004EDDE702B9FFDEB2FA82F2C4
:10041000002A40F09280A1EB0C014FEA1C471FFA22
:100420008CFE0126200CB1FBF7F307FB131140EA09
:1004300001410EFB03F0884208D91CEB010103F1D6
:10044000FF3802D2884200F2CB804346091AA4B298
:10045000B1FBF7F007FB101144EA01440EFB00FE6C
:10046000A64508D91CEB040400F1FF3102D2A645D1
:1004700000F2BB800846A4EB0E0440EA03409CE770
:10048000C6F12007B34022FA07FC4CEA030C20FA1D
:1004900007F401FA06F31C43F9404FEA1C4900FA3D
:1004A00006F3B1FBF9F8200C1FFA8CFE09FB1811BA
:1004B00040EA014108FB0EF0884202FA06F20BD92D
:1004C0001CEB010108F1FF3A80F08880884240F27D
:1004D0008580A8F102086144091AA4B2B1FBF9F0C1
:1004E00009FB101144EA014100FB0EFE8E4508D9BC
:1004F0001CEB010100F1FF346CD28E456AD9023841
:10050000614440EA0840A0FB0294A1EB0E01A14225
:10051000C846A64656D353D05DB1B3EB080261EB93
:100520000E0101FA07F722FA06F3F1401F43C5E96D
:10053000007100263146BDE8F087C2F12003D840A3
:100540000CFA02FC21FA03F3914001434FEA1C47E5
:100550001FFA8CFEB3FBF7F007FB10360B0C43EAD7
:10056000064300FB0EF69E4204FA02F408D91CEB87
:10057000030300F1FF382FD29E422DD90238634485
:100580009B1B89B2B3FBF7F607FB163341EA034125
:1005900006FB0EF38B4208D91CEB010106F1FF3874
:1005A00016D28B4214D9023E6144C91A46EA00466B
:1005B00038E72E46284605E70646E3E61846F8E6FD
:1005C0004B45A9D2B9EB020864EB0C0E0138A3E746
:1005D0004646EAE7204694E74046D1E7D0467BE727
:1005E000023B614432E7304609E76444023842E79F
:1005F000704700BF02E000F000F8FEE772B637482F
:1006000080F30888364880F3098836483649086000
:1006100040F20000CCF200004EF63471CEF2000140
:100620000860BFF34F8FBFF36F8F40F20000C0F23E
:10063000F0004EF68851CEF200010860BFF34F8FF4
:10064000BFF36F8F4FF00000E1EE100A4EF63C71E1
:10065000CEF200010860062080F31488BFF36F8F8C
:1006600005F024FA06F01EFA4FF055301F491B4AD8
:1006700091423CBF41F8040BFAE71D49184A9142E8
:100680003CBF41F8040BFAE71A491B4A1B4B9A423C
:100690003EBF51F8040B42F8040BF8E7002018495C
:1006A000184A91423CBF41F8040BFAE705F03CFAC6
:1006B00006F07AFA144C154DAC4203DA54F8041BD8
:1006C0008847F9E700F042F8114C124DAC4203DACA
:1006D00054F8041B8847F9E705F024BA0006002007
:1006E000002200200000000808ED00E000000020CB
:1006F00000060020F075000800220020C022002023
:10070000C0220020806D0020E0020008E402000802
:10071000E4020008E40200082DE9F04F2DED108AF4
:10072000C1F80CD0D0F80CD0BDEC108ABDE8F08F29
:10073000002383F311882846A047002004F094FC8E
:10074000FEE704F0EDFB00DFFEE70000F8B505F082
:1007500031F9074605F0A0F90546A0BB1F4B9F42A3
:1007600031D001339F4231D027F0FF021C4B9A4217
:100770002FD12E4642F21074F8B200F03DFF00F087
:1007800041FF08B10024264601F0C8FC08B100244E
:10079000264635B1134B9F4203D0002405F074F96F
:1007A0002646002005F010F90EB100F063F801F0C4
:1007B00097FA00F079FF01F063F9204600F004F9A0
:1007C00000F058F8F9E72E460024D8E70446012641
:1007D000D5E7064641F28834D1E700BF010007B0F3
:1007E000000008B0263A09B008B501F01BF9A0F1E5
:1007F00020035842584108BD07B541F212030221B7
:1008000001A8ADF8043001F02BF903B05DF804FB4A
:10081000302310B583F31188124803680BB104F03C
:10082000F9FC0023104A4FF47A710E4804F0E8FCFA
:10083000002383F311880D4C236813B12368013B17
:100840002360636813B16368013B6360084B1B78E6
:1008500033B9636823B9022001F0C4F9322363601D
:1008600010BD00BFC022002011080008E0230020B6
:10087000D8220020F8B54C4B4C4A1C46196801316F
:1008800000F0908004339342F8D16268484B9A425A
:1008900040F28880474B9B6803F1006303F5802397
:1008A0009A427FD205F0C4F805F0D6F8002001F096
:1008B0000DF90220404B187001F092F93F4B0021D6
:1008C0009A6C99641A6F19671A6FDA6CD9645A6F47
:1008D00059675A6F1A6D19659A6F99679B6F384BF4
:1008E000D3F8802042F00062C3F88020D3F8802043
:1008F00022F00062C3F88020D3F88020D3F8802053
:1009000042F00072C3F88020D3F8802022F00072F9
:10091000C3F88020D3F8803072B64FF0E023C3F8DC
:10092000084DD4E90004BFF34F8FBFF36F8F254A02
:10093000C2F88410BFF34F8F536923F4803353619F
:10094000BFF34F8FD2F8803043F6E076C3F3C9058A
:10095000C3F34E335B0103EA060C29464CEA817768
:100960000139C2F87472F9D2203B13F1200FF2D191
:10097000BFF34F8FBFF36F8FBFF34F8FBFF36F8FF7
:10098000536923F4003353610023C2F85032BFF39C
:100990004F8FBFF36F8F302383F31188854680F329
:1009A00008882047F8BD00BF0000040820000408A4
:1009B000FFFF030800220020D82200200045025833
:1009C0000044025800ED00E02DE9F04F93B0AD4B2C
:1009D0002022FF2100900AA89D6801F02BF9AA4A65
:1009E0001378A3B90121A94811700360302383F360
:1009F000118803680BB104F00DFC0023A44A4FF4E6
:100A00007A71A24804F0FCFB002383F31188009B59
:100A1000A04A03B1136000239F49009C98469B465F
:100A20001E469A460B705360012001F0D9F824B19C
:100A3000984B1B68002B00F01E82002000F0F2FF94
:100A40000390039B002B01DA00F076FE039B002B42
:100A5000EDDB012001F0C2F8039B213B162BE3D80C
:100A600001A252F823F000BFC50A0008ED0A0008F1
:100A7000810B0008290A0008290A0008290A000831
:100A8000170C0008EB0D0008050D0008670D0008A5
:100A90008F0D0008B50D0008290A0008C70D0008D1
:100AA000290A0008390E0008650B0008290A000809
:100AB0007D0E0008D10A0008650B0008290A00080D
:100AC000670D00080220FFF78FFE002840F0FD812F
:100AD000009B022105A8B8F1000F08BF1C4641F297
:100AE0001233ADF8143000F0BBFF9DE74FF47A707D
:100AF00000F098FF071EEBDB0220FFF775FE0028D1
:100B0000E6D0013F052F00F2E281DFE807F0030A9B
:100B10000D1013360523042105A8059300F0A0FF4E
:100B200017E004215748F9E704215C48F6E704215F
:100B30005B48F3E74FF01C09484609F1040900F04F
:100B4000C7FF0421059005A800F08AFFB9F12C0F1A
:100B5000F2D101204FF0000A00FA07F747EA0B0B29
:100B60005FFA8BFB01F0B2F826B10BF00B030B2BF5
:100B700008BF0024FFF740FE56E704214948CDE7AF
:100B8000002EA5D00BF00B030B2BA1D10220FFF7F9
:100B90002BFE074600289BD001203F4E00F096FF19
:100BA0004FF000080220307001F01AF85FFA88F95F
:100BB000484600F09BFF044698B10021484608F1E2
:100BC000010800F0ABFF0028F0D1B846044641F21E
:100BD0001213022105A83E46ADF8143000F040FF84
:100BE00022E7012325460220337000F0F7FF254B52
:100BF0009B68AB4207D9284600F06AFF013040F0FD
:100C000069810435F3E70025234BB8463E461D7045
:100C1000204B5D60A6E7002E3FF45AAF0BF00B03AC
:100C20000B2B7FF455AF02201B4B187000F0D8FF40
:100C3000322000F0F7FEB0F10009FFF649AF19F0DD
:100C400003077FF445AF0F4A09EB0503926893420F
:100C50003FF63EAFB9F5807F3FF73AAF124BB9454B
:100C6000019323DD4FF47A7000F0DCFE0390039AC9
:100C7000002AFFF62DAF039A0137019B03F8012BE1
:100C8000EDE700BF00220020DC230020C02200206E
:100C900011080008E0230020D822002004220020B0
:100CA000082200200C220020DC220020C820FFF7B0
:100CB0009BFD074600283FF40BAF1F2D11D8C5F14F
:100CC00020020AAB25F0030084494A45184428BF96
:100CD0004A46019200F088FF019AFF217F4800F008
:100CE000A9FF4FEAA903C9F387027C49284601936B
:100CF00000F0A8FF064600283FF469AF019B05EB12
:100D000083052FE70220FFF76FFD00283FF4E0AED8
:100D100000F016FF00283FF4DBAE0027B946704B09
:100D20009B68BB4218D91F2F11D80A9B01330ED0E4
:100D300027F0030312AA134453F8203C05934846B6
:100D4000042205A9043701F0D3F98146E7E73846C4
:100D500000F0BEFE0590F2E7CDF81490042105A83E
:100D600000F07EFEFEE60023642104A8049300F058
:100D70006DFE00287FF4ACAE0220FFF735FD0028A1
:100D80003FF4A6AE049800F0D1FE0590E6E70023FC
:100D9000642104A8049300F059FE00287FF498AE63
:100DA0000220FFF721FD00283FF492AE049800F0E6
:100DB000BFFEEAE70220FFF717FD00283FF488AEE8
:100DC00000F0CEFEE1E70220FFF70EFD00283FF421
:100DD0007FAE05A9142000F0C9FE07460421049047
:100DE00004A800F03DFE3946B9E7322000F01AFEB3
:100DF000071EFFF66DAEBB077FF46AAE384A07EBFD
:100E00000A03926893423FF663AE0220FFF7ECFCC0
:100E100000283FF45DAE27F003075744BA453FF47E
:100E2000A1AE50460AF1040A00F052FE04210590DA
:100E300005A800F015FEF1E74FF47A70FFF7D4FC37
:100E400000283FF445AE00F07BFE002844D00A9B0A
:100E500001330BD008220AA9002000F0F3FE00287D
:100E60003AD02022FF210AA800F0E4FEFFF7C4FCDC
:100E70001C4804F0FFF813B0BDE8F08F002E3FF4DB
:100E800027AE0BF00B030B2B7FF422AE0023642163
:100E900005A8059300F0DAFD074600287FF418AE98
:100EA0000220FFF7A1FC814600283FF411AEFFF7B6
:100EB000A3FC41F2883004F0DDF8059800F03AFF19
:100EC0004E463C4600F002FFAEE506464AE64FF0CD
:100ED000000AFDE5B8467AE6374678E6DC220020CF
:100EE00000220020A0860100094A49F26900136827
:100EF00099B21B0C00FB013344F250611360054BA7
:100F0000186882B2000C01FB0200186080B27047C2
:100F100014220020102200200021102210B50446C7
:100F200000F088FE034B03CB206061601868A0606E
:100F300010BD00BF00E8F11F2DE9F041ADF54E7D79
:100F40000D46002140F275126CAC07460EA80D91BB
:100F500000F070FE4FF4C4720021204600F06AFEDB
:100F60000DF1340802F06EFA4FF47A72264BB0FBA2
:100F7000F2F0186093E80700022384E807000DF5FB
:100F8000E9702382FFF7C8FF40F604531F4907A802
:100F9000238406F029F915230DF2E3220DF12C0C20
:100FA00084F8323107AB1E46083203CE664542F85C
:100FB000080C42F8041C3346F5D1306841461060F5
:100FC000204633791371012200F0B6FE002380B26F
:100FD000E97E0393AB7E029305F11903019301238C
:100FE000009307A3D3E90023CDE90480384602F03B
:100FF000E7FD0DF54E7DBDE8F08100BFAFF3008049
:101000009E6AC421818A46EEE8230020F871000818
:101010002DE9F0412C4CDAB080460D46237A5BBBBB
:1010200027A9284600F096FF0746002842D19DF8E0
:101030009D60C82E3ED801464FF4A662204600F0BF
:10104000F9FD4FF4807332460DF19E01C4F8F8317A
:101050004FF4007304F109002644C4F80C334FF434
:101060004073C4F8203400F0BFFD9DF89C307772C7
:1010700023720BB9EB7E237206AC8122002127A8D4
:1010800000F0D8FD0122214627A800F09FFF002391
:1010900080B2E97E0393AB7E029305F119030193BD
:1010A0002823CDE904400093404605A3D3E900235B
:1010B00002F086FD5AB0BDE8F08100BFAFF30080BA
:1010C00026417272DF25D7B708490020F0B5254EBA
:1010D0004FF48A75F1B0002405FB006596F8D8300E
:1010E000D822214685F8DC303AA885F8E84006AFDA
:1010F00000F0A0FD06F1090000F094FDD5F8E43001
:10110000C2B206F109018DF8F0000DF1F100CDE950
:101110003A3400F069FD394601223AA800F082FF16
:10112000082380B2317ACDE9047001270E48CDE959
:10113000023706F1D80301933023009307A3D3E9C4
:10114000002302F03DFDA04206DD02F07BF9C5F868
:10115000E000384671B0F0BD2046FBE778F6339FDB
:1011600093CACD8D08490020003400202DE9F041BC
:101170001D4D86B01D4E1E4F284602F04DFD034604
:1011800058B30024DFF86C80ADF814400294CDE928
:101190000344027B8DF8142003AA9968406803C2B7
:1011A0001B6843F00043029302F04EF98219009449
:1011B000384641F1000302A901F0C0F9A04205DD63
:1011C000284602F02DFD88F80040D5E798F8003059
:1011D000072B05D8013388F8003006B0BDE8F08150
:1011E000014802F01DFDF8E70034002040420F00E6
:1011F000303400203D4E002070B50D4614461E468A
:1012000002F03AFC50B9022E10D1012C0ED112A3DB
:10121000D3E900230120C5E9002307E0282C10D0E2
:1012200005D8012C09D0052C0FD0002070BD302C22
:10123000FBD10BA3D3E90023ECE70BA3D3E90023F5
:10124000E8E70BA3D3E90023E4E70BA3D3E90023EA
:10125000E0E700BFAFF30080401DA12026812A0BEC
:1012600078F6339F93CACD8D9E6AC421818A46EE5B
:1012700026417272DF25D7B7F017304A39059E56DE
:1012800038B505460E4C0021013500F047FCA4F8A6
:101290002C55B4F82C0500F029FC78B1B4F82C05D5
:1012A00000F034FC014648B9B4F82C0500F036FCD7
:1012B000B4F82C350133A4F82C35EAE738BD00BF6B
:1012C000084900200A4B0B4A10B51A6003F58053F9
:1012D00093F848203AB95C6C2CB1204600F09CFF92
:1012E000204605F037FF0448BDE8104000F094BFE9
:1012F0003034002090720008604400202DE9F04F47
:101300008FB005460C4600AF02F0B6FB002849D16D
:10131000237E022B1BD1E38A012B18D102F092F815
:101320000646FFF7E1FD03464FF4C87006F5167652
:10133000DFF8C082B3FBF0F202FB103316FA83F33E
:10134000C8F80030E37E33B9A34B00221A703C3753
:10135000BD46BDE8F08F07F12401204600F0B8FD3E
:101360000028F4D107F11400FFF7D6FD97F82640C6
:1013700007F1140107F12700224605F003FF0028BA
:10138000E2D10F2C08D8944B1C70D8F80030A3F58C
:101390001673C8F80030DAE797F82410284602F0F0
:1013A00063FBD4E7E38A282B2BD010D8012B23D062
:1013B000052BCCD1BFF34F8F8849894BCA6802F403
:1013C000E0621343CB60BFF34F8F00BFFDE7302BCC
:1013D000BDD1844EE17E327A9142B8D1607E3146F1
:1013E000002291F8DC50854200F0A580013201F521
:1013F0008A71042AF5D1AAE721462846FFF79CFD09
:10140000A5E721462846FFF703FEA0E7B2F8EC5017
:101410007B6005F103094FEA99094FEA8902D11D62
:10142000C908A8EBC10300219D46EB46584600F0D1
:1014300001FC04F1EE012A465846314400F0D4FB89
:101440007B6813B9012000F041FB96F8D20000F050
:101450004DFB044630B9307200F072FB204600F0BC
:1014600035FBB1E0D6F8D4203AB996F8D200B6F8F8
:101470002C25824201D8FFF703FFD6F8D4202A4456
:10148000944208D296F8D200B6F82C250130824258
:1014900001D8FFF7F5FE5FFA89F25946706800F04F
:1014A000D1FB08B9C54679E0726896F8D2002A44A3
:1014B0007260D6F8D42005EB0209C6F8D49000F08B
:1014C00015FB814509D396F8D220D6F8D400013215
:1014D000001B86F8D220C6F8D400FF2D0FD80024B8
:1014E000347200F02DFB204600F0F0FA00F016FEFA
:1014F0003D4B188108B9FFF7BDF9C54627E7BB6822
:1015000096F8D9000AFB0362FB68D2F8E41082F86F
:10151000E83001F58061C2F8E030C2F8E410FFF76E
:10152000D5FDFFF723FE96F8D920013202F0030221
:1015300086F8D920B6E74FF48A7A20460AFB02F5EE
:1015400005F1EA01314400F099FDF86000287FF4CC
:10155000FEAE0122354485F8E82001F073FFD5F88E
:10156000E020D6ED007A801A40F6B832B8EE677AFD
:10157000DFED1E6A192838BF1920904228BF104697
:1015800007EE900AF8EEE77A67EEA67ADFED186AC2
:10159000E7EE267AFCEEE77AC6ED007A96F8D930C7
:1015A000BB60BA6873680AFB02F4321992F8E8105B
:1015B00059B1D2F8E410E8468B423FF427AF00213E
:1015C00082F8E810C2F8E010C5467368064A9B0A24
:1015D00001331381BBE600BFF933002000ED00E0CA
:1015E0000400FA0508490020E8230020CDCCCC3DBA
:1015F0006666663FFC330020014B1870704700BFE1
:10160000F423002038B5BFF34F8F214B4FF04054E7
:10161000204AC3F87042C3F870222032C3F8702207
:101620002032C3F870222032C3F870222032C3F86F
:1016300070222032C3F87022BFF34F8FBFF36F8F39
:10164000154B22689A4221D1627D0025134B144824
:101650001A70C922237D0930124900F8013C4FF469
:101660008073C0F8DB50C0F8EF314FF40073C0F85E
:1016700003334FF44073C0F8173400F0B5FAE0229A
:101680002946204600F0D6FA012038BD0020FCE7AC
:1016900000ED00E0200000309AAD44C5F4230020A6
:1016A000084900201600003037B500F037FD194D0D
:1016B00002230022184928816B710123174801F089
:1016C00097FA002316494FF480520193154B1648A0
:1016D0000093164B02F0A0F9154B197811B112487E
:1016E00002F0C2F901F0AEFE0446FFF7FDFB4FF435
:1016F000C873B0FBF3F202FB130304F5167010FA83
:1017000083F00C4B186004F0C7F908B10F232B814C
:1017100003B030BDE823002040420F0030340020E9
:10172000F8230020F911000800340020FD12000801
:10173000F4230020FC3300202DE9F04F8C4C2DEDDC
:10174000028B85A7D7E9006795B00FF21429D9E974
:1017500000899FED858BFFF709FD0DAD0023DFF8B4
:1017600024B20C93ADF83C300D936B6000234FF026
:10177000010A0DF1250209A958468DF825308DF88A
:1017800024A08DED008B01F0C5FD9DF824200023E1
:10179000002A40F0AE80204602F06EF9054600288F
:1017A00047D1DFF8E4B101F04DFEDBF8003098429C
:1017B0003FD301F047FE0790FFF796FB4FF4C87345
:1017C000079AB0FBF3F101FB130302F5167010FA50
:1017D00083F0CBF8000010A8DFF8B0B19BF8001040
:1017E000002914BF2B46534607918DF83030FFF780
:1017F00093FB079910AB0DF13100C1F110021944B0
:10180000D2B2062A28BF0622079200F0EDF9079A05
:101810000CAB2046039301321823D2B20293554BEE
:1018200004923246CDE900A33B4602F06BF98BF8F7
:10183000005001F007FE504A504D1368C31AB3F52B
:101840007A7F32D3106001F0FFFD02460B4620463E
:1018500002F0F0F9204602F00FF930B32B7A0DF1C7
:10186000400BDFF82CA1002B14BF032302238AF8BE
:10187000053001F0E7FD4FF47A7301225946B0FBC1
:10188000F3F0CAF80000504600F0FAFA182380B2CC
:10189000424602933A4B019340F25513CDE903B00F
:1018A000009320464B4602F02DF92B7AABB101F0A4
:1018B000C9FD4FF0000A83464FF48A7295F8D900AB
:1018C000504400F0030002FB005393F8E81071B39A
:1018D0000AF1010ABAF1040FF0D1C82003F0CAFBE3
:1018E0002B7A002B7FF435AF15B0BDEC028BBDE831
:1018F000F08F1946102210A800F09CF90DF1260374
:101900000AAA0CA9584601F021F811AB95E803008A
:1019100083E803009DF83C3010A920468DF84C3038
:101920000C9B1093DDE90A2302F058FB1EE7D3F865
:10193000E01049B12B68ABEB0101FA2B38BFFA2359
:101940000533B1EB430FC3D3FFF7C0FB4FF48A72EB
:101950000028BDD1C1E700BF401DA12026812A0B70
:10196000F1C6A7C1D068080F000000000000000009
:1019700000340020F8330020384E002008490020B1
:101980003C4E002030340020FC330020F93300208E
:10199000E823002008B5054801F07EF8044A05490F
:1019A0000020BDE8084005F0CFBB00BF3034002068
:1019B0007C4E0020C51200080F4B70B51B780C46FA
:1019C0000133DBB2012B11D80C4D4FF47A73296827
:1019D000A2FB033222460E6A01462846B0478442E3
:1019E00004D1074B002201201A7070BD4FF4FA7029
:1019F00003F040FB0020F8E718220020F050002000
:101A00006C4E002070B504464FF47A76412C254682
:101A100028BF412506FB05F003F02CFB641BF5D124
:101A200070BD0000002307B5024601210DF107003B
:101A30008DF80730FFF7C0FF20B19DF8070003B015
:101A40005DF804FB4FF0FF30F9E700000A4604217F
:101A500008B5FFF7B1FF80F00100C0B2404208BDF9
:101A600030B4054C0A46014623682046DD69034B25
:101A7000AC4630BC604700BFF0500020A08601009B
:101A800070B5104C0025104E03F01AFE208030680F
:101A9000238883420CD800252088013803F00CFEEF
:101AA00023880544013BB5F5802F2380F4D370BD16
:101AB00003F002FE336805440133B5F5802F33602F
:101AC000E5D3E8E76E4E0020404E002003F0C6BE8E
:101AD00000F1006000F580200068704700F10060B0
:101AE000920000F5802003F047BE0000054B1A6805
:101AF000054B1B889B1A834202D9104403F0DCBDBE
:101B000000207047404E00206E4E0020024B1B68A4
:101B1000184403F0D7BD00BF404E0020024B1B68A5
:101B2000184403F0E1BD00BF404E00200020704784
:101B300000F1FF5000F58F10D0F80008704700004A
:101B4000064991F8243033B100230822086A81F84D
:101B50002430FFF7C3BF0120704700BF444E002070
:101B6000014B1868704700BF0010005C184B01382B
:101B700070B51D680844174BC5F30B022D0C1C886B
:101B8000A24203D01C89A2420CD108335C680A46E9
:101B9000013C824213460BD214F9016F2EB102F8B8
:101BA000016BF6E781420B4602D22C2203F8012B8F
:101BB0000424094A1688AE4204D1984284BF96781C
:101BC00003F8016B013C02F10402F3D1581A70BD15
:101BD0000010005C1C2200202C72000870470000DE
:101BE0007047000070470000002310B5934203D0F7
:101BF000CC5CC4540133F9E710BD0000013810B5C6
:101C000010F9013F3BB191F900409C4203D11AB158
:101C10000131013AF4E71AB191F90020981A10BD88
:101C20001046FCE703460246D01A12F9011B0029B0
:101C3000FAD1704702440346934202D003F8011BD5
:101C4000FAE770472DE9F8431F4D144607468846CA
:101C500095F8242052BBDFF870909CB395F824309F
:101C60002BB92022FF2148462F62FFF7E3FF95F8AA
:101C700024004146C0F1080205EB8000A24228BFC3
:101C80002246D6B29200FFF7AFFF95F82430A41B8E
:101C900017441E449044E4B2F6B2082E85F824603E
:101CA000DBD1FFF74DFF0028D7D108E02B6A03EB0B
:101CB00082038342CFD0FFF743FF0028CBD100201F
:101CC000BDE8F8830120FBE7444E0020024B1A7860
:101CD000024B1A70704700BF6C4E00201822002083
:101CE00010B5114C114802F08BFC21460F4802F050
:101CF000B3FC24684FF47A70D4F89020D2F80438FA
:101D000043F00203C2F80438FFF77CFE084920467E
:101D100002F0B0FDD4F89020D2F8043823F002038A
:101D2000C2F8043810BD00BF84730008F0500020D2
:101D30008C730008704700002DE9F0470D460446FB
:101D400000219046284640F27912FFF773FF2346A0
:101D500020220021284604F1220702F0E1F8231D89
:101D6000022220212846C02602F0DAF8631D032251
:101D70002221284602F0D4F8A31D0322252128465B
:101D800002F0CEF804F1080310222821284602F0C0
:101D9000C7F804F1100308223821284602F0C0F8E1
:101DA00004F1110308224021284602F0B9F804F199
:101DB000120308224821284602F0B2F804F1140365
:101DC00020225021284602F0ABF804F118034022EB
:101DD0007021284602F0A4F804F120030822B02163
:101DE000284602F09DF804F121030822B821284674
:101DF00002F096F8314608363B460822284601375D
:101E000002F08EF8B6F5A07FF4D1002704F1330A72
:101E100004F1320308223146284602F081F894F892
:101E200032304FEAC7099F4209F5A47615D3B8F1BD
:101E3000000F08D1314609F24F1604F599730722B5
:101E4000284602F06DF827463B1B94F83221934256
:101E50000CD3F01DC008BDE8F0870AEB0703082289
:101E600031462846013702F05BF8D8E707F2331312
:101E70003146082228460836013702F051F8E3E7D8
:101E800013B5044608460021202223460190016034
:101E9000C0F8031002F044F8231D0198022220210B
:101EA00002F03EF8631D01980322222102F038F867
:101EB000A31D01980322252102F032F8019804F1B4
:101EC00008031022282102F02BF8072002B010BDD1
:101ED0000023F7B50E46047F0722009119460546F8
:101EE00001F0E2FE731C0122072100932846002323
:101EF00001F0DAFEC4B9B31C05220821284600937C
:101F000023460D2401F0D0FE3746BB1BB278934226
:101F100011D307342B7FA88AE408BBB9844294BF4D
:101F20000020012003B0F0BDAB8A0824DB00083B91
:101F3000DB08B370E8E7FB1C214608222846009323
:101F400000230834013701F0AFFEDEE7201A18BF86
:101F50000120E7E70023F7B50E46047F0822009131
:101F60001946054601F0A0FE731CC4B9082200936F
:101F7000234610241146284601F096FE01235F1CDB
:101F80007278013B934211D307342B7FA88AE4086F
:101F9000BBB9844294BF0020012003B0F0BDAB8ADE
:101FA0000824DB00083BDB087370E7E7F3192146E0
:101FB000082228460093002301F076FE08343B46B1
:101FC000DDE7201A18BF0120E7E70000F8B50E464C
:101FD00005461446002181223046FFF72BFE2B4692
:101FE00008220021304601F09BFF7CB90F246B1CB6
:101FF00007220821304601F093FF01235F1C6A7815
:10200000013B934204D3E01DC008F8BD0824F4E767
:10201000EB1921460822304601F082FF08343B4686
:10202000ECE70000F8B50E46054614460021CE2226
:102030003046FFF7FFFD2B4628220021304601F0F5
:102040006FFF7CB9302405F10803082228213046AF
:1020500001F066FF2F467B1B2A7A934204D3E01DD2
:10206000C008F8BD2824F5E707F109032146082236
:1020700030460834013701F053FFECE7F7B5047F31
:102080000E460091012310220021054601F00CFEAE
:10209000C4B9B31C092210212846009323461924F1
:1020A00001F002FE37467288BB1B9A4211D80734F2
:1020B0002B7FA88AE408BBB9844294BF002001208A
:1020C00003B0F0BDAB8A1024DB00103BDB0873804B
:1020D000E8E73B1D214608222846009300230834E8
:1020E000013701F0E1FDDEE7201A18BF0120E7E724
:1020F00030B50A44084D91420DD011F8013B5840CB
:10210000082340F30004013B2C4013F0FF0384EA52
:102110005000F6D1EFE730BD2083B8EDF7B5384A6F
:102120006B46106851686A4603C308233549364830
:1021300005F038F80446002833D10A25334A6B46A7
:10214000106851686A4603C3082331492E4805F0D8
:1021500029F80446002849D00369B3F5E01F45D8A3
:10216000B0F8661040F20D4291423FD1294A024434
:1021700002F15C018B4239D35C3B234900209E1A5B
:10218000FFF7B6FF04F16401074632460020FFF76F
:10219000AFFFA3689F4229D1E368984208BF00259A
:1021A00024E00369B3F5E01F27D8418B40F20D42CC
:1021B000914220D1174A024402F110018B4218D3F8
:1021C000103B114900209D1AFFF792FF04F11801FE
:1021D00006462A460020FFF78BFFA3689E4202D1E5
:1021E000E368984201D00D25A8E70025284603B0F2
:1021F000F0BD1025A2E70C25A0E70B259EE700BF48
:102200003C720008DCFF1B00000004084572000857
:1022100090FF1B000800FCF710B5037C044613B9BF
:10222000006804F0A7FF204610BD00000023BFF3A4
:102230005B8FC360BFF35B8FBFF35B8F8360BFF3C4
:102240005B8F7047BFF35B8F0068BFF35B8F704796
:1022500070B505460C30FFF7F5FF044605F108069A
:102260003046FFF7EFFFA04206D96D683046FFF712
:10227000E9FF2544281A70BD3046FFF7E3FF201A16
:10228000F9E7000070B505464068A0B105F10C06FD
:1022900005F10800FFF7D6FF04463046FFF7D2FFEE
:1022A000844204F1FF34304694BF6D680025FFF787
:1022B000C9FF2C44201A70BD38B50C460546FFF7FF
:1022C000C7FFA04210D305F10800FFF7BBFF04448D
:1022D0006868BFF35B8FB4FBF0F100FB1144012091
:1022E000AC60BFF35B8F38BD0020FCE72DE9F04107
:1022F000144607460D46FFF7C5FF844228BF044633
:10230000D4B1B84658F80C6B4046FFF79BFF3044F9
:10231000286040467E68FFF795FF331A9C4203D839
:1023200001206C60BDE8F081A41B6B603B68204419
:10233000AB60E8600220F5E72046F3E738B50C46CD
:102340000546FFF79FFFA04210D305F10C00FFF7F1
:1023500079FF04446868BFF35B8FB4FBF0F100FBC6
:1023600011440120EC60BFF35B8F38BD0020FCE717
:102370002DE9FF418846694607466C46FFF7B6FFE0
:10238000002506B204EBC606B4420AD0626808EB28
:10239000050120680834FFF727FC54F8043C1D446D
:1023A000F2E729463846FFF7C9FF284604B0BDE8E2
:1023B000F0810000F8B505460C300F46FFF742FFEC
:1023C00005F1080604463046FFF73CFFA0423046C0
:1023D00088BF6C68FFF736FF201A386020B12C6880
:1023E0003046FFF72FFF2044F8BD000073B51446B8
:1023F00006460D46FFF72CFF8442019028BF044695
:10240000DCB101A93046FFF7D5FF019B33B9326833
:10241000C5E90233C5E9002401200CE09C42286094
:1024200038BF0194019884426860F5D93368241A52
:102430000220AB60EC6002B070BD2046FBE70000FC
:102440002DE9FF410F4669466C46FFF7CFFF00B20A
:10245000002604EBC005AC4209D0D4F80480B819BA
:1024600054F8081B42464644FFF7BEFBF3E73046EC
:1024700004B0BDE8F081000038B50546FFF7E0FF85
:10248000044601462846FFF717FF204638BD0000E6
:10249000302383F3118862B670470000002383F372
:1024A000118862B670470000012070477047000035
:1024B00010B41346026814680022A4465DF8044B69
:1024C0006047000000F5805090F8700470470000ED
:1024D00000F5805090F852047047000000F58050DD
:1024E000C0F85C14C0F860247047000000F5A350E9
:1024F000103050E90201704700F5805090F95804FF
:10250000704700004E20704700F5805208B5FFF775
:10251000BFFFD2F8B434D2F8B0041844D2F8AC34C7
:102520001844D2F894341844D2F8A4341844D2F899
:10253000A0341844FFF7B2FF08BD00002DE9F04FAA
:102540000C4600F5805185B01F4691F8523405467F
:102550009046BDF838909BB1D1F890340133C1F862
:10256000903423689A0006D4237B082B0BD9627B16
:102570000AB10F2B07D9D1F894340133C1F8943440
:102580004FF0FF300FE0FFF783FFEB6AD3F8C42072
:1025900012F4001A0AD0D1F8983400200133C1F89F
:1025A0009834FFF77BFF05B0BDE8F08F22684FF04D
:1025B000480BD3F8C460002A6B6AC6F30446B4BF64
:1025C00042F0804292041BFB063BCBF800202368BC
:1025D0005B004FEA066344BF42F00052CBF8002094
:1025E000227B43EA02437201CBF80430607B18B3CC
:1025F00043F44013CBF80430D1F8C8340133C1F8A8
:10260000C834AB1803F58353197B41F020011973CB
:10261000207B039200F072FF0330039A80105FFA70
:102620008AF30AF1010A83420DDA04EB83010BEB12
:10263000830349689960F2E7AB1803F58353197B6C
:1026400060F34511E3E70121EB6A04F10C00B140AE
:10265000C3F8D010AB18214603F58253C3E90487B1
:1026600005EB461303F58253183351F804CB81422E
:1026700043F804CBF9D109882A442846198041F24D
:102680006803D65002F5805209F0030392F86C10EB
:1026900043F0100321F01F010B43214682F86C30F8
:1026A0004246FFF7FBFE3B46CDF8009000F0ECFE03
:1026B000012078E72DE9F04700F58056044696F8AA
:1026C0005254002D40F00181037C032B40F0928096
:1026D0002B4628462F465FFA83FC944510DA01EB1F
:1026E000CC0E51F83CC0BCF1000F04DBDEF804C096
:1026F000BCF1000F02DB01370133ECE70130FBE7EF
:10270000FFF7C6FEE36AF0B9D3F8800040F002009C
:10271000C3F880004E23E06A002F6ED1D0F88030DD
:1027200043F00103C0F88030694B6A4A1B6803F12B
:10273000805303F52C539B009342A36240F2AF8079
:10274000654800F079FE4D2842D8DFF884814FEAD1
:10275000004EDFF88891D8F800C04EEA8C0EC3F81E
:1027600084E00CF1805303F52C539B00636100EB74
:102770000C03D4F82CC0C8F80030C0F14E03DCF8CC
:10278000800040F03000CCF880004FF0000CD4F80E
:102790001480E6465FFA8CF08242BCDD01EBC00A91
:1027A00051F83000002810DBDAF804A0BAF1000F6D
:1027B0000BDA09EA00400AF07F0A40EA0A0040F01A
:1027C000084048F82E000EF1010E0CF1010CE1E773
:1027D0009A6922F001029A6100F034FE0646E36A2B
:1027E0009B69D90704D500F02DFE831BFA2BF6D97F
:1027F000FFF754FE2846BDE8F087B7EB530F3DD2F4
:10280000DFF8CCE04FEA074CDEF800304CEA830CEE
:10281000C0F888C003F1805003EB4703002700F5A0
:102820002C50CEF80030BC468000A061E06AD0F8A1
:10283000803043F00C03C0F88030D4F818E0FBB2CD
:102840009A427FF771AF51F8330001EBC3080028BB
:10285000D8F8043001DB002B0EDB20F0604023F0C1
:10286000604340F0005043F000434EF83C000EEB54
:10287000CC000CF1010C43600137E0E7836923F0E1
:102880000103836100F0DEFD0646E36A9B69DA0717
:10289000AED500F0D7FD831BFA2BF6D9A8E7E26A84
:1028A000936923F00103936100F0CCFD0746E36ACE
:1028B0009B69DB0705D500F0C5FDC31BFA2BF6D9D4
:1028C00096E7012586F8525492E7002592E700BF6B
:1028D000784E0020FCB50040507200080000FF0751
:1028E00013B500F580540191606CFFF7CBFC1F28F5
:1028F0000AD920220199606CFFF73AFDA0F120036C
:102900005842584102B010BD0020FBE700F580504E
:1029100008B5FFF7BDFD406CFFF788FCBDE8084037
:10292000FFF7BCBD00220260828142608260704776
:102930000022002310B5C0E90023002304460C3018
:1029400020F8043CFFF7EEFF204610BD2DE9F047CC
:10295000074688B09A46884607F5805468469146EF
:10296000FFF796FDFFF7E4FF606CFFF771FC1F288F
:102970002DD920226946606CFFF77EFD202826D1E4
:1029800094F852341BB303AD444605AB2E460834CD
:1029900003CE9E4244F8080C44F8041C3546F5D199
:1029A0003068414620603846B388A380DDE90023C3
:1029B000C9E90023BDF808304A46AAF80030FFF7FD
:1029C0006DFD534608B0BDE8F04700F04BBD002058
:1029D000FFF764FD08B0BDE8F08700002DE9F84F6F
:1029E0000023064600F58154054688461034C0E9A8
:1029F0000133264B46F8303B374638462037FFF741
:102A000097FFA742F9D105F580544FF4805305F59F
:102A1000A3594FF0000A26630026676405F5835723
:102A200009F110094FF0000B1037E663C4E90D36C9
:102A3000012384F8403084F84830A7F1180020378B
:102A400047E910ABFFF76EFF47F8286C4F45F4D10C
:102A500084F85884A4F87264A4F87464A4F87664C2
:102A600084F87864A4F87A64A4F87C64A4F87E649A
:102A700084F88064B8F1000F02D0054800F0DCFC57
:102A8000044B2846EB62BDE8F88F00BF9072000847
:102A90007472000800A00040044B10B51978044679
:102AA0004A1C1A70FFF79AFF204610BD754E002091
:102AB0002DE9F04700295FD0304F3148B7FBF1F5E1
:102AC00081428CBF0A201120431EB5FBF0FC00FBA5
:102AD0001C50DCB220B1022B1846F5D8002037E09C
:102AE0000CF1FF35B5F5806F32D2C4EBC4094FF459
:102AF0007A7009F103034FEAE308C3F3C70308F14F
:102B0000010AA4EB030E08FB00085FFA8EF65AFADE
:102B10008EFEB8FBFEFEBEF5617F1BDC1FFA8EF455
:102B2000581C56FA80F00CFB00FCB7FBFCFC61451E
:102B3000D4D1013BDBB20F2BD0D8711E0020C9B21B
:102B4000072905D8107101201480558053719171A7
:102B5000BDE8F08709F1FF334FEAE30EC3F3C70383
:102B60000EF10108E41A0EFB0000E6B258FA84F4F4
:102B7000B0FBF4F4A4B2D3E70846E9E700B4C40418
:102B80003F420F0038B540F27772C36A154CC3F864
:102B9000BC200722C36AC3F8C8202268C16A930018
:102BA00043F4C023C1F8A03002F1805302F16C015C
:102BB000C56A03F52C53EA3289009B00226041F07C
:102BC000E061094AC361C5F8C01003F5D87103F587
:102BD0006A7341629342836202D9044800F02CFC7C
:102BE00038BD00BF784E0020FCB500405072000890
:102BF0002DE9F04F00F58055994689B0044695F8C7
:102C000058348A469046012B04D90027384609B02B
:102C1000BDE8F08F934A52F8231009B942F8230017
:102C20009149C4F80CA00B7884F81090C3B9FFF751
:102C30002FFC8E4BD3F8EC2042F48072C3F8EC20CA
:102C4000D3F8942042F48072C3F89420D3F89420EF
:102C500022F48072C3F8942001230B70FFF71EFC4E
:102C600095F8513473B903211320FFF711FC01F0DB
:102C700035FC0321152001F031FC012385F8513486
:102C8000FFF70CFCFFF704FCE26A936923F01003E2
:102C9000936100F0D7FB0746E36A9E6916F00806C9
:102CA00007D000F0CFFBC31BFA2BF5D9FFF7F6FBDB
:102CB000ABE79A6942F001029A6100F0C3FB074654
:102CC000E36A9A69D00705D400F0BCFBC31BFA2B5A
:102CD000F6D9EBE79A69002704F5825B42F002021D
:102CE0000BF1100B9A61E36A5F65FFF7D7FB686C25
:102CF000FFF79CFA202200216846FEF79BFF02A8FE
:102D0000FFF710FE6A460BEB06030DF1180E06974F
:102D100094460833BCE80300F44543F8080C43F834
:102D2000041C6246F4D1DCF8000020361860B6F5C9
:102D3000806F9CF804201A71DCD1002304F5A352A3
:102D400051462046123285F8503485F85334FFF747
:102D5000AFFE074690B9E26A936923F001039361DD
:102D600000F070FB0546E36A9B69D9077FF54DAF1C
:102D700000F068FB431BFA2BF5D946E795F877641A
:102D800095F876243602C5F884A4E36A46EA4266DA
:102D900095F878241643B5F8742446EA0246DE61B5
:102DA000B8F1000F29D004F5A352414620461A324B
:102DB000FFF77EFE90B9E26A936923F00103936105
:102DC00000F040FB0546E36A9B69DA077FF51DAF1B
:102DD00000F038FB431BFA2BF5D916E795F8803441
:102DE00095F87F141B01C5F88884E26A43EA012341
:102DF000B5F87C1443EA0143D360E36A0026204619
:102E0000C3F8BC60FFF7BEFE85F870646FF0404207
:102E1000E36A1A65164AE36A5A654FF00222E36ACA
:102E20009A654FF0FF32E36AC3F8E0200322E36AB9
:102E30009145DA653FF4EAAEE26A936923F0010353
:102E4000936100F0FFFA0646E36A9B69DB0705D54C
:102E500000F0F8FA831BFA2BF6D9D6E6012385F8A1
:102E60005234D3E6704E0020744E002000440258C5
:102E7000550200022DE9F04F00F5825689B0044654
:102E800091469A4618364FF0000841F2680B00F55B
:102E90008055E36AD3F8D83023FA08F3DF0758D512
:102EA00004EB48124FEA48115A441379180750D4DA
:102EB000D5F89C340133C5F89C3404F5A65343E996
:102EC000029A13799A0642BFD5F8CC340133C5F87B
:102ED000CC34631821445B4459441A7942F0080207
:102EE0001A713368D5F85C24D5F860041340834226
:102EF00004BF04F5A353C3E9029A0B79DB0720D57D
:102F000095F85334EBB168463746FFF711FD03AB34
:102F100006F1080C3868083757F8041C1A4667454C
:102F200003C21346F6D13868694610602046BA8855
:102F30009A800123ADF808302368CDE9009A5B6CD4
:102F40009847D5F8543423B1D5F8C0340133C5F8C7
:102F5000C03408F101082036B8F1200F99D109B02A
:102F6000BDE8F08F2DE9F04F0F468DB0044600F01C
:102F70006BFA82468946002F5BD1E36AD3F8A02022
:102F800012F4FE0F03D100200DB0BDE8F08FD3F88E
:102F9000A420920141BF04F58051D1F8B024013240
:102FA000C1F8B024D3F8A4205606ECD0D3F8A4502E
:102FB000E669C5F305254823E8464FF0000B03FBFF
:102FC00005664046FFF7AEFC326851004ABF22F06A
:102FD0006043C2F38A4343F00043920048BF43F08A
:102FE00080430093736813F400131BBF012304F59F
:102FF00080528DF80D308DF80D301EBFD2F8D034D0
:103000000133C2F8D034F38803F00F038DF80C308D
:103010009DF80C0000F072FA5FFA8BF3984225D904
:10302000F2180CA90BF1010B127A0B4403F82C2CAB
:10303000EEE7012FA7D1E36AD3F8B02012F4FE0F18
:10304000A1D0D3F8B420950141BF04F58051D1F847
:10305000B0240132C1F8B024D3F8B420500692D085
:10306000D3F8B450266AC5F30525A4E7EFB9E36A9F
:10307000C3F8A85004A807ADFFF75AFC98E80F0062
:1030800007C52B800023204604A9ADF8183023681B
:1030900004F580545B6CCDE904A9984758B1D4F885
:1030A000A8340133C4F8A8346EE7012FE2D1E36AF3
:1030B000C3F8B850DEE7D4F8AC3401200133C4F8CB
:1030C000AC3461E7F8B505460F4600F5805401269B
:1030D00039462846FFF746FF10B184F85364F7E7F6
:1030E000D4F8543423B1D4F8C0340133C4F8C03414
:1030F000F8BD0000C36AF0B51A6C12F47F0F2BD034
:103100001B6C00F5805441F268054FF0010CC4F8C7
:10311000C4340023471900EB43125E012A4411799D
:1031200011F0020F15D0490713D4B959C66A0CFA29
:1031300001F1D6F8CCE011EA0E0F0AD0C6F8D4108F
:10314000117941F004011171D4F8A4240132C4F8BA
:10315000A4240133202BDED1F0BD000010B5264C95
:10316000264B22680AB340B31A6D92050FD54FF46F
:1031700000721A6500F068F950EA01020B4602D0AD
:10318000013861F1000302462068FFF773FE1B4A15
:10319000136D9B012AD523684FF0007103F580530E
:1031A0001165012283F8702420E001221A651022A3
:1031B0001A654FF480521A6510BD196DC80702D404
:1031C000196D490705D50521104619650021FFF73E
:1031D00079FF0A4B1A6DD00602D41A6D510605D537
:1031E000502201211A652068FFF76CFF2068BDE8B6
:1031F0001040FFF77FBF00BF704E002000A00040CE
:1032000008B5FFF745F9FFF775FFBDE80840FFF780
:1032100045B90000C36AD3F8C00010F07C5005D057
:10322000D3F8C40080F40010C0F340507047000091
:1032300000F5805008B5FFF72BF9406CFFF708F850
:10324000FFF72CF943090CBF0120002008BD000046
:1032500000F5805393F8702462B1C16A8A6922F044
:1032600001028A61D3F8B4240132C3F8B4240022E5
:1032700083F87024704700002DE9F74300F5825170
:1032800098460025FFF704F9103141F2680E4FF01F
:10329000010900F5805C00EB4514744423795E0756
:1032A0001CD4DB061AD58E69C36A09FA06F6D3F870
:1032B000CC703E4212D04F6801970F689742019F31
:1032C00077EB08070AD2C3F8D460237943F00403EC
:1032D0002371DCF8A0340133CCF8A034013520315F
:1032E000202DD8D103B0BDE8F043FFF7D7B80000D8
:1032F000F8B51E4600230F46054613701446FFF727
:1033000097FF80F0010038701EB12846FFF782FF5A
:103310002070F8BD2DE9F04F85B099460D468046E6
:10332000164691F800B0DDE90EA3029313780193DD
:1033300000F08AF82B7804460F4613B93378002B37
:1033400042D022463B464046FFF796FFFFF758FF24
:10335000FFF77EFF4B4632462946FFF7C9FF2B7821
:1033600033B1BBF1000F03D0012005B0BDE8F08FF1
:10337000337813B1019B002BF6D108F580530393EA
:103380005445029B77EB03031ED2039BD3F85404EE
:10339000D0B10368AAEB0401DB6889B298474B46B9
:1033A000324629464046FFF7A3FF2B7813B1BBF105
:1033B000000FD9D1337813B1019B002BD4D100F089
:1033C00043F804460F46DBE70020CEE708B50020AF
:1033D000FFF7C4FEBDE8084001F056B808B501206B
:1033E000FFF7BCFEBDE8084001F04EB800B59BB049
:1033F000EFF3098168226846FEF7F6FBEFF30583D9
:10340000014B9B6BFEE700BF00ED00E008B5FFF746
:10341000EDFF000000B59BB0EFF30981682268461C
:10342000FEF7E2FBEFF30583014B5B6BFEE700BFAA
:1034300000ED00E0FEE700000FB408B5029801F0CF
:10344000A5FDFEE702F056BA02F02EBA13B56C469F
:10345000031D84E8060094E8030083E805000120CA
:1034600002B010BD73B58568019155B11B885B072B
:1034700007D4D0E900361B6C9847019AC1B2304698
:10348000A847012002B070BDF0B5866889B0054636
:103490000C465EB1BDF838305B070AD4D0E900377E
:1034A0001B6C98472246C1B23846B047012009B08C
:1034B000F0BD0022002301F10806CDE9002300231E
:1034C0000A46ADF8083003AB1068083252F8041C05
:1034D0001C46B24203C42346F6D11068206092888D
:1034E000A280FFF7B1FF0423ADF808302B68CDE9C7
:1034F00000015B6C694628469847D7E7082817D92A
:1035000009280CD00A280CD00B280CD00C280CD081
:103510000D280CD00E2814BF4020302070470C20FE
:1035200070471020704714207047182070472020E3
:10353000704700002DE9F041456A15B94162BDE8C8
:10354000F0814B68AC4623F06047C3F38A464FEAEC
:10355000D37EC3F3807816EA230638BF3E462B4657
:103560005A68BEEBD27F22F060440AD0002A18DAF3
:10357000A40CB44217D19D420FD10D60DEE7134673
:10358000EEE7A74207D102F08044C2F380724245C1
:103590000BD054B1EFE708D2EDE7CCF800100B6088
:1035A000CDE7B44201D0B442E5D81A689C46002A5F
:1035B000E5D11960C3E700002DE9F047089D01F04F
:1035C000070400EBD1004FF47F494FEAD5082244AD
:1035D00005F00705944201D1BDE8F08704F0070724
:1035E00005F0070A111B08EBD50E57453E4613F8A8
:1035F0000EC038BF5646C6F108068E4228BF0E469A
:10360000E108415C34443544B94029FA06F721FA0F
:103610000AF1FFB28CEA010147FA0AF739408CEA55
:10362000010C03F80EC0D5E780EA0120082341F21F
:10363000210201B2013B4000002980B2B8BF5040D6
:1036400013F0FF03F5D1704738B50C468D18A5422D
:1036500000D138BD14F8011BFFF7E6FFF7E70000C3
:1036600042684AB1136881894360438901339BB240
:103670009942438138BF83811046704770B588B046
:10368000044620220D4668460021FEF7D3FA204664
:103690000495FFF7E5FF024660B16B46054608AEAC
:1036A0001C46083503CCB44245F8080C45F8041C08
:1036B0002346F5D1104608B070BD0000082817D980
:1036C00009280CD00A280CD00B280CD00C280CD0C0
:1036D0000D280CD00E2814BF4020302070470C203D
:1036E0007047102070471420704718207047202022
:1036F00070470000082817D90C280CD910280CD9BD
:1037000014280CD918280CD920280CD930288CBFA3
:103710000F200E207047092070470A2070470B20A9
:1037200070470C2070470D20704700002DE9F843CA
:10373000078C0446072F1ED900254FF6FF73D0E9EA
:103740000298C5F12006A5F1200029FA05F10835F7
:1037500008FA06F628FA00F0314301431846C9B2C8
:10376000FFF762FF402D0346EBD13A46E169BDE821
:10377000F843FFF769BF4FF6FF70BDE8F88300001C
:1037800010B54B6823B9CA8A63F30902CA8210BD17
:1037900004691A681C600361C38A013BC3824A60E2
:1037A000EFE700002DE9F84F1D46CB8A0F46814612
:1037B000C3F30901924605290B4630D00020AAB276
:1037C00007F11A049EB21FFA80F8042E0FD8904514
:1037D00003F1010306D30A44FB8A62F309030120C3
:1037E000FB821AE01AF800600130E654EAE79045DF
:1037F000F1D2A1F1050B1C237C68BBFBF3F203FBA8
:1038000012BB1FFA8BF6002C45D14846FFF728FF64
:10381000044638B978606FF00200BDE8F88F4FF0C9
:103820000008E6E7002606607860ADB24FF0000BB6
:10383000454510D90AEB0803221D13F8011B08F1B6
:1038400001089155B1B21FFA88F81B292BD04545C4
:1038500006F10106F1D8FB8AC3F30902154465F3AA
:103860000903BCE701321C4692B22368002BF9D150
:103870006B1F0B441C21B3FBF1F301339BB29A4243
:10388000D3D2BBF1000FD0D14846FFF7E9FE20B9F3
:10389000C4F800B0BFE70122E7E7C0F800B05E4619
:1038A00020600446C1E74545D5D94846FFF7D8FE14
:1038B00008B92060AFE7C0F800B0002620600446D9
:1038C000B6E700002DE9F04F1C46074688462DED6F
:1038D000028B83B05B690192002B00F09A80238CED
:1038E0002BB1E269002A00F09480072B35D807F14C
:1038F0000C00FFF7B5FE054638B96FF00205284603
:1039000003B0BDEC028BBDE8F08F14220021FEF75E
:1039100091F9228CE16905F10800FEF765F9208C28
:1039200048F00041013080B2FFF7E4FEFFF7C6FE29
:10393000013880B220840130287438466369228CB3
:103940001B782A4403F01F0363F03F03137269607E
:103950002946FFF7EFFD0125D1E74FF0000900F1FF
:103960000C034FF0800A4E464D4608EE103A18EE12
:10397000100AFFF775FE83460028BED014220021EE
:10398000FEF758F9002E3AD1019B0222ABF808301D
:103990000BF1080E1FFA82FC218C0CF10100BCF126
:1039A000060F80B201D88E422BD3FFF7A3FE8E42C2
:1039B00008BF4FF0400AFFF781FE62690138013508
:1039C00012781BFA80F1013002F01F022DB242EA98
:1039D000491289F001094AEA020A48F0004281F8D6
:1039E00008A059468BF810003846CBF804204FF059
:1039F000000AFFF79FFD238CB342B8D17FE7002276
:103A0000C6E7E169895D01360EF80210B6B20132EF
:103A1000C0E76FF0010572E7F8B515460E46302293
:103A2000002104461F46FEF705F9069BB5F5001F69
:103A3000A760636004F11000079B34BF6A094FF66A
:103A4000FF72E661A362002397B29A4206D8002370
:103A50000360A782E3822383E360F8BD066001333D
:103A600030462036F1E7000003781BB94BB2002B3B
:103A7000C8BF01707047000000787047F8B50C4669
:103A8000C969074611B9238C002B37D1257E1F2D1C
:103A900034D8387828BB228C072A2CD8268A36F0CE
:103AA00003032BD14FF6FF70FFF7CEFD20F001008E
:103AB00031024FF6FF72400441EA0561400C41EAD1
:103AC0004025234629463846FFF7FCFE002807DD3F
:103AD000626913780133DBB21F2B88BF0023137098
:103AE000F8BD218A2D0645EA012505432046FFF74A
:103AF0001DFE0246E5E76FF00300F1E76FF00100FD
:103B0000EEE7000070B58AB0044616460021282270
:103B100068461D46FEF78EF8BDF8383069462046E7
:103B2000ADF810300F9B05939DF840308DF818309C
:103B3000119B0793BDF84830CDE90265ADF8203000
:103B4000FFF79CFF0AB070BD2DE9F041D36905462F
:103B50000C4616460BB9138C5BBB377E1F2F28D83B
:103B600095F80080B8F1000F26D03046FFF7DEFD53
:103B7000337821020246284641EAC331338A41EABA
:103B8000080141EA076141EA0341334641F08001FF
:103B9000FFF798FE00280ADD3378012B07D1726900
:103BA00013780133DBB21F2B88BF00231370BDE8ED
:103BB000F0816FF00100FAE76FF00300F7E7000013
:103BC000F0B58BB004460D46174600212822684602
:103BD0001E46FEF72FF89DF84C30294620465A1E07
:103BE000534253416A468DF800309DF84030ADF89D
:103BF0001030119B05939DF848308DF81830149BB8
:103C00000793BDF85430CDE90276ADF82030FFF7C8
:103C10009BFF0BB0F0BD0000406A00B1043070475C
:103C2000436A1A68426202691A600361C38A013BEF
:103C3000C38270472DE9F041D0F8208014461D461C
:103C4000184E4146002709B9BDE8F081D1E90223A9
:103C5000A21A65EB0303964277EB03031ED2036AB5
:103C60008B420DD1FFF78CFD036A1B680362036969
:103C70000B60C38A0161013B016AC3828846E2E7A7
:103C8000FFF77EFD0B68C8F8003003690B60C38A3C
:103C90000161013BC382D8F80010D4E78846096867
:103CA000D1E700BF80841E002DE9F04F8BB00D4698
:103CB00014469B46DDF850908046002800F018819D
:103CC000B9F1000F00F01481531E3F2B00F2108158
:103CD000012A03D1BBF1000F40F00A810023CDE996
:103CE0000833B8F81430B5EBC30F4FEAC30703D35A
:103CF00000200BB0BDE8F08F2B199F42D8F80C3094
:103D000036BF7F1B2746FFB21BB9D8F81030002BF7
:103D10007AD0272D4DD8C5F1280600232946B74271
:103D2000009308ABD8F808002CBFF6B23E46A7EBCC
:103D3000060A354432465FFA8AFAFFF73DFCB8F8C6
:103D40001430282103F10053053BDB000493D8F81D
:103D50000C300393039B13B1BAF1000F2CD1D8F8A8
:103D6000100040B1BAF1000F05D008AB5246691AF5
:103D70000096FFF721FC38B2002FB9D066070AD0B1
:103D80000AAB624203EBD40102F0070211F8083CCF
:103D9000134101F8083C082C3DD9102C40F2B580A5
:103DA000202C40F2B780BBF1000F00F09C8008236C
:103DB00035E0BA460026C2E7049BE02B28BFE0238B
:103DC00006930B44AB42059315D95A1B0398691A05
:103DD0000096924508AB00F1040034BF5246D2B2BF
:103DE0000792FFF7E9FB079A1644AAEB020A15446B
:103DF000F6B25FFA8AFA049B069A05999B1A049315
:103E0000039B1B680393A5E700933A4608AB29463A
:103E1000D8F80800ADE7BBF1000F13D00123B4EBD5
:103E2000C30F6BD0082C12D89DF82030621E23FAE5
:103E300002F2D50706D54FF0FF3202FA04F423430D
:103E40008DF820309DF8203089F8003051E7102C93
:103E500012D8BDF82030621E23FA02F2D10706D52F
:103E60004FF0FF3202FA04F42343ADF82030BDF8DE
:103E70002030A9F800303CE7202C0FD80899631EA9
:103E800021FA03F3DA0705D54FF0FF3202FA04F402
:103E90000C430894089BC9F800302AE7402C2AD02C
:103EA000611EC4F12102A4F12103DDE9086526FAAF
:103EB00001F105FA02F225FA03F311431943CB0786
:103EC00011D50122A4F12003C4F1200102FA03F369
:103ED00022FA01F1A2400B43524263EB4303324307
:103EE0002B43CDE90823DDE90823C9E9002300E7D6
:103EF0006FF00100FDE66FF00800FAE6082CA1D98A
:103F0000102CB4D9202CEED8C4E7BBF1000FAED0F2
:103F1000022384E7BBF1000FBCD004237FE700003D
:103F2000012A30B5144638BF012485B00025402C45
:103F300028BF4024012ACDE9025518D81B788DF8F6
:103F4000083063070AD004AB624203EBD40502F0E9
:103F5000070215F8083C934005F8083C0346009119
:103F60002246002102A8FFF727FB05B030BD082A32
:103F7000E4D9102A03D81B88ADF80830E1E7202ADD
:103F800095BF1B68D3E900230293CDE90223D8E74C
:103F900010B5CB681BB98B600B618B8210BD0469B7
:103FA0001A681C600361C38A013BC382CA60F0E7E0
:103FB00003064CBFC0F3C0300220704708B502466C
:103FC000FFF7F6FF022806D15306C2F30F2001D1F6
:103FD00000F0030008BDC2F30740FBE72DE9F04FF6
:103FE00093B004460D46CDE903230A681046FFF757
:103FF000DFFF0228824614BFC2F306260026002AED
:1040000080F2F38112F0C04940F0EF81097B002972
:1040100000F0EB81022803D02378B34240F0E8811E
:10402000C2F3046310462944069302F07F0305930C
:10403000FFF7C4FF059B002283464FEA8348002315
:1040400048EA0A4848EA4668CE78CDE90823F309E9
:1040500048EA0008029368D0059B024608A920465A
:10406000009353466768B847002800F0C481276A68
:104070004FB9414604F10C00FFF700FB074690B929
:104080006FF0020055E03B6998450DD03F68002F66
:10409000F9D1414604F10C00FFF7F0FA0746002879
:1040A000EED0236A3B60276297F817C006F01F081E
:1040B000CCF3840CACEB0800A8EB0C031FFA80FED9
:1040C0000028B8BF0EF120001FFA83FEB8BF00B26F
:1040D000002B0793B8BF0EF12003D7E90221BCBF24
:1040E0001BB2079352EA010338D0039B4FF0000C38
:1040F000DFF820E39A1A049B63EB010196457CEB01
:1041000001032BD36B7B97F81AE0734519D1029BFF
:10411000002B78D0012821DC7868F8B9DFF8F0C2EC
:10412000944570EB010316D337E0276A27B96FF087
:104130000C0013B0BDE8F08F3B699845B4D03F68E0
:10414000F4E7B34890427CEB010301D30020F0E791
:10415000029B002BFAD0079B0F2B17DCFA7DB300D4
:104160003946204602F0030203F07C031343FB753B
:10417000FFF706FB6B7BBB76029B3BB9FB7DC3F372
:104180008402013262F38603FB75D0E76A7BBB7E53
:104190009A42DBD1029B002B35D0B309022B32D0DF
:1041A000039B142200210DA8BB60049BFB60FDF75C
:1041B00041FD039B0AA920460A93049BADF83EB03B
:1041C0000B932B1D8DF840A00C932B7B8DF8418019
:1041D000013BDBB2ADF83C30069B8DF84230059BCD
:1041E0008DF8433094F82C3083F001038DF844307F
:1041F000A3689847FB7DC3F38403013303F01F03D7
:104200009B02FB82A2E7FB7DC6F34012B2EBD31FF9
:1042100040F0F480C3F38403434540F0F280029AF7
:10422000B6092B7B002A4DD0F2075DD4032B40F258
:10423000EB80039BAE1D394604F10C00BB60324697
:10424000049BFB602B7B033BDBB2FFF7ABFA002840
:104250000CDA39462046FFF793FAFB7DC3F384035B
:10426000013303F01F039B02FB8209E7AB88DDE902
:1042700008843B834FF6FF73C9F12000A9F12002A7
:1042800028FA09F109F1080904FA00F024FA02F207
:10429000014318461143C9B2FFF7C6F9B9F1400FFF
:1042A0000346E9D1B88231462A7B033AD2B2FFF7FE
:1042B000CBF9FB7DB882DA43C2F3C01262F3C713B5
:1042C000FB7543E786B92E1D013B394604F10C000E
:1042D000DBB23246FFF766FA0028BADB2A7B3146AA
:1042E000B88A013AD2B2E2E7F98A013BC1F3090187
:1042F000DAB204295BD8281D002307F11B069A4275
:1043000008D910F801CB013306F801C00131DBB246
:104310000529F4D1039993420A9138BF04330499D3
:104320002CBF002355FA83F30B9107F11B010C916D
:1043300079680E930D91291DFB8AADF83EB0C3F349
:1043400009038DF840A08DF841801A44069B8DF832
:104350004230059BADF83C208DF8433094F82C306A
:1043600083F001038DF844300023B88A7B602A7BF8
:10437000013AFFF769F93B8BB882834203D1A36806
:104380000AA92046984720460AA9FFF701FEFB7DAF
:10439000BA8AC3F38403013303F01F039B02FB8239
:1043A0003B8B9A420CBF00206FF01000C1E67B6887
:1043B000002BAFD0052001E01C3033461E68002ED4
:1043C000FAD1091A2E1D081D184401EB090C5FFAD9
:1043D00089F3BCF11B0F9DD89A429BD916F8013B7B
:1043E00009F1010900F8013BEFE76FF00900A0E6D1
:1043F0006FF00A009DE66FF00B009AE66FF00D007B
:1044000097E66FF00E0094E66FF00F0091E600BFA4
:1044100040420F0080841E00EFF309830549683392
:104420004A6B22F001024A6383F30988002383F375
:104430001188704700EF00E0302080F3118862B6E9
:104440000D4B0E4AD96821F4E0610904090C0A43B6
:104450000B49DA60D3F8FC2042F08072C3F8FC20EC
:10446000084AC2F8B01F116841F001011160202212
:10447000DA7783F82200704700ED00E00003FA05C8
:1044800055CEACC5001000E0302310B583F3118881
:104490000E4B5B6813F4006314D0F1EE103AEFF3A7
:1044A00009844FF08073683CE361094BDB6B236642
:1044B00084F3098800F028FD10B1064BA36110BDFC
:1044C000054BFBE783F31188F9E700BF00ED00E03F
:1044D00000EF00E04307000846070008090100F16B
:1044E0006043012203F56143C9B283F8001300F071
:1044F0001F039A4043099B0003F1604303F56143A6
:10450000C3F880211A607047026843681143016054
:1045100003B118477047000013B5406B00F5805495
:10452000D4F8A4381A681178042914D1017C02291E
:1045300011D11979012312898B4013420BD101A9A2
:104540004C3002F065F9D4F8A4480246019B217969
:10455000206800F0F7F902B010BD0000143002F03E
:10456000E7B800004FF0FF33143002F0E1B800006C
:104570004C3002F0B9B900004FF0FF334C3002F07C
:10458000B3B90000143002F0B5B800004FF0FF31AD
:10459000143002F0AFB800004C3002F085B90000D2
:1045A0004FF0FF324C3002F07FB90000002070471E
:1045B00010B500F58054D4F8A4381A68117804298D
:1045C00017D1017C022914D15979012352898B40DA
:1045D00013420ED1143002F047F8024648B1D4F825
:1045E000A4484FF4407361792068BDE8104000F0A2
:1045F00097B910BD406BFFF7DBBF000070470000AC
:104600007FB5124B01250426044603600023057480
:1046100000F1840243602946C0E902330C4B02904A
:10462000143001934FF44073009601F0F9FF094BE9
:1046300004F69442294604F14C000294CDE900634B
:104640004FF4407302F0C0F804B070BDD872000897
:10465000F5450008194500080A68302383F31188DE
:104660000B790B3342F823004B79133342F82300C4
:104670008B7913B10B3342F8230000F58053C3F854
:10468000A41802230374002080F3118870470000EF
:1046900038B5037F044613B190F85430ABB9012507
:1046A000201D0221FFF730FF04F114006FF001011B
:1046B000257700F011FD04F14C0084F854506FF0A0
:1046C0000101BDE8384000F007BD38BD10B501213B
:1046D00004460430FFF718FF0023237784F8543092
:1046E00010BD000038B504460025143001F0B0FFBD
:1046F00004F14C00257702F07FF8201D84F8545017
:104700000121FFF701FF2046BDE83840FFF750BF09
:1047100090F8803003F06003202B06D190F88120C0
:104720000023212A03D81F2A06D800207047222AF6
:10473000FBD1C0E91D3303E0034A426707228267C9
:10474000C3670120704700BF2C22002037B500F559
:104750008055D5F8A4381A68117804291AD1017C3B
:10476000022917D11979012312898B40134211D1E3
:1047700000F14C04204602F0FFF858B101A9204690
:1047800002F046F8D5F8A4480246019B217920683A
:1047900000F0D8F803B030BD01F10B03F0B550F8CC
:1047A000236085B004460D46FEB1302383F31188A3
:1047B00004EB8507301D0821FFF7A6FEFB6806F114
:1047C0004C005B691B681BB1019002F02FF8019847
:1047D00003A902F01DF8024648B1039B2946204672
:1047E00000F0B0F8002383F3118805B0F0BDFB683A
:1047F0005A691268002AF5D01B8A013B1340F1D197
:1048000004F18002EAE70000133138B550F8214086
:10481000ECB1302383F3118804F58053D3F8A42836
:104820001368527903EB8203DB689B695D6845B1CD
:1048300004216018FFF768FE294604F1140001F016
:104840001DFF2046FFF7B4FE002383F3118838BD17
:104850007047000001F0ECB901234022002110B59F
:10486000044600F8303BFDF7E5F90023C4E90133C5
:1048700010BD000010B53023044683F311882422B4
:10488000416000210C30FDF7D5F9204601F0E2F936
:1048900002230020237080F3118810BD70B500EB57
:1048A0008103054650690E461446DA6018B1142299
:1048B0000021FDF7BFF9A06918B114220021FDF70E
:1048C000B9F931462846BDE8704001F0A7BA0000AA
:1048D000F8B58368044600F1100500F1300603F0D6
:1048E00001130027836055F8043B7BB1586920B160
:1048F0006FF001010C3000F0C9FB55F8043C9869D9
:1049000020B16FF001010C3000F0C0FBB54245F85A
:10491000047CE8D12046BDE8F84001F00BBB000064
:10492000F0B4012500EB81044789E4688D40A46957
:104930003D43458123600023A2606360E360F0BCD7
:1049400001F026BBF0B4012500EB81040789E4687F
:104950008D4064693D43058123600023A26063604C
:10496000E360F0BC01F0ACBB2DE9F041022300266E
:10497000044600F10C0500F130074FF030080370D9
:10498000C0F88860866055F8043BABB188F31188A5
:1049900055F8043C586920B16FF001010C3000F06B
:1049A00075FB55F8043C986920B16FF001010C309B
:1049B00000F06CFB86F31188BD4245F8046CE2D12F
:1049C000204684F8706001F0BDF963681B6823B16C
:1049D00020460021BDE8F0411847BDE8F081000005
:1049E000F8B503780446052B2AD080F88C300523CF
:1049F000037043681B680BB104219847002604F13B
:104A00000C053027303444F8286C55F8043BABB122
:104A100087F3118855F8043C586920B16FF0010103
:104A20000C3000F033FB55F8043C986920B16FF06E
:104A300001010C3000F02AFB86F31188A542E4D175
:104A4000F8BD00000178052906D190F88C20436854
:104A500002701B6803B118477047000070B590F8EA
:104A60007030044613B1002380F8703004F18002E6
:104A7000204601F083FA63689B68B3B994F88030EC
:104A800013F0600535D00021204601F0A5FD00217E
:104A9000204601F095FD63681B6813B1062120468E
:104AA0009847062384F8703070BD20469847002848
:104AB000E4D0B4F88630A26F9A4288BFA36794F915
:104AC0008030A56F002B4FF0300380F20381002D62
:104AD00000F0F280092284F8702083F3118800210D
:104AE0002046D4E91D23FFF72DFF002383F311880F
:104AF000DAE794F8812003F07F0343EA022340F2CF
:104B00000232934200F0C58021D8B3F5807F48D0AF
:104B10000DD8012B3FD0022B00F09380002BB2D197
:104B200004F1880262670222A267E367C1E7B3F576
:104B3000817F00F09B80B3F5407FA4D194F8823050
:104B4000012BA0D1B4F8883043F0020332E0B3F572
:104B5000006F4DD017D8B3F5A06F31D0A3F5C06367
:104B6000012B90D86368204694F882205E6894F800
:104B70008310B4F88430B047002884D0436863675A
:104B80000368A3671AE0B3F5106F36D040F602420F
:104B900093427FF478AF5C4B63670223A3670023E3
:104BA000C3E794F88230012B7FF46DAFB4F88830FE
:104BB00023F00203A4F88830C4E91D55E56778E7BF
:104BC000B4F88030B3F5A06F0ED194F8823020464F
:104BD00084F88A3001F014F963681B6813B101216D
:104BE00020469847032323700023C4E91D339CE724
:104BF00004F18B0363670123C3E72378042B10D1EF
:104C0000302383F311882046FFF762FE85F3118875
:104C10000321636884F88B5021701B680BB1204618
:104C2000984794F88230002BDED084F88B30042330
:104C3000237063681B68002BD6D00221204698475A
:104C4000D2E794F8843020461D0603F00F010AD500
:104C500001F086F9012804D002287FF414AF2B4B11
:104C60009AE72B4B98E701F06DF9F3E794F882305F
:104C7000002B7FF408AF94F8843013F00F01B3D009
:104C80001A06204602D501F0BFFCADE701F0B0FCEA
:104C9000AAE794F88230002B7FF4F5AE94F88430C4
:104CA00013F00F01A0D01B06204602D501F094FCA2
:104CB0009AE701F085FC97E7142284F8702083F3CB
:104CC00011882B462A4629462046FFF729FE85F300
:104CD0001188E9E65DB1152284F8702083F311880C
:104CE00000212046D4E91D23FFF71AFEFDE60B2222
:104CF00084F8702083F311882B462A4629462046E3
:104D0000FFF720FEE3E700BF087300080073000808
:104D10000473000838B590F870300446002B3ED07C
:104D2000063BDAB20F2A34D80F2B32D8DFE803F073
:104D30003731310822323131313131313131373788
:104D4000856FB0F886309D4214D2C3681B8AB5FBCC
:104D5000F3F203FB12556DB9302383F311882B4610
:104D60002A462946FFF7EEFD85F311880A2384F8C9
:104D700070300EE0142384F87030302383F31188F0
:104D8000002320461A461946FFF7CAFD002383F385
:104D9000118838BDC36F03B198470023E7E70021AE
:104DA000204601F019FC0021204601F009FC63684F
:104DB0001B6813B10621204698470623D7E7000059
:104DC00010B590F870300446142B29D017D8062B54
:104DD00005D001D81BB110BD093B022BFBD8002127
:104DE000204601F0F9FB0021204601F0E9FB636851
:104DF0001B6813B1062120469847062319E0152B9E
:104E0000E9D10B2380F87030302383F3118800231D
:104E10001A461946FFF796FD002383F31188DAE757
:104E2000C3689B695B68002BD5D1C36F03B19847FA
:104E3000002384F87030CEE700238268037503698D
:104E40001B6899689142FBD25A6803604260106007
:104E50005860704700238268037503691B6899686E
:104E60009142FBD85A6803604260106058607047F6
:104E700008B50846302383F311880B7D032B05D03A
:104E8000042B0DD02BB983F3118808BD8B69002248
:104E90001A604FF0FF338361FFF7CEFF0023F2E784
:104EA000D1E9003213605A60F3E70000FFF7C4BF96
:104EB000054BD96808751868026853601A600122AA
:104EC000D8600275FBF728BC804E00200C4B30B533
:104ED000DD684B1C87B004460FD02B46094A684654
:104EE00000F08EF92046FFF7E3FF009B13B1684600
:104EF00000F090F9A86907B030BDFFF7D9FFF9E7D6
:104F0000804E0020714E0008044B1A68DB689068E0
:104F10009B68984294BF002001207047804E00207B
:104F2000084B10B51C68D868226853601A600122CB
:104F3000DC602275FFF78EFF01462046BDE8104079
:104F4000FBF7EABB804E0020044B1A68DB689268CE
:104F50009B689A4201D9FFF7E3BF7047804E00205B
:104F600038B5074C012300250649074823706560C2
:104F700001F040FD0223237085F3118838BD00BF86
:104F8000E850002010730008804E002008B572B66B
:104F9000044B186500F076FC00F048FD024B03223C
:104FA0001A70FEE7804E0020E850002000F068B93B
:104FB000EFF3118020B9EFF30583302282F31188DB
:104FC0007047000010B530B9EFF30584C4F308044E
:104FD00014B180F3118810BDFFF7B6FF84F3118878
:104FE000F9E70000034A516853685B1A9842FBD8FE
:104FF000704700BF001000E08B6002230861084684
:105000008B8270478368A3F1840243F8142C0269F1
:1050100043F8442C426943F8402C094A43F8242CB5
:10502000C268A3F1200043F8182C022203F80C2CCC
:10503000002203F80B2C034A43F8102C704700BFE2
:1050400031070008804E002008B5FFF7DBFFBDE800
:105050000840FFF72BBF0000024BDB6898610F2070
:10506000FFF726BF804E0020302383F31188FFF71F
:10507000F3BF000008B50146302383F311880820F0
:10508000FFF724FF002383F3118808BD03682BB1C9
:105090000022026018469961FFF708BF70470000C0
:1050A000064BDB6839B1426818605A601360436090
:1050B0000420FFF70BBF4FF0FF307047804E0020F9
:1050C0000368984206D01A680260506018469961D9
:1050D000FFF7ECBE7047000038B504460D46206867
:1050E000844200D138BD036823605C608561FFF7AE
:1050F000DDFEF4E7036810B59C68A2420CD85C683A
:105100008A600B604C602160596099688A1A9A60C5
:105110004FF0FF33836010BD121B1B68ECE70000EB
:105120000A2938BF0A2170B504460D460A266019BF
:1051300001F058FC01F040FC041BA54203D8751C8B
:1051400004462E46F3E70A2E04D90120BDE870403C
:1051500001F090BC70BD0000F8B5144B0D460A2A52
:105160004FF00A07D96103F11001826038BF0A22AB
:10517000416019691446016048601861A81801F07F
:1051800021FC01F019FC431B0646A34206D37C1CFC
:1051900028192746354601F025FCF2E70A2F04D9E5
:1051A0000120BDE8F84001F065BCF8BD804E00204C
:1051B000F8B506460D4601F0FFFB0F4A134653F8BB
:1051C000107F9F4206D12A4601463046BDE8F8408E
:1051D000FFF7C2BFD169BB68441A2C1928BF2C46FF
:1051E000A34202D92946FFF79BFF224631460348D6
:1051F000BDE8F840FFF77EBF804E0020904E0020B3
:10520000C0E90323002310B45DF8044B4361FFF7AA
:10521000CFBF000010B5194C236998420DD08168AA
:10522000D0E9003213605A609A680A449A600023F9
:1052300003604FF0FF33A36110BD0268234643F8BB
:10524000102F53600022026022699A4203D1BDE808
:10525000104001F0C1BB936881680B44936001F07A
:10526000ABFB2269E1699268441AA242E4D9114475
:10527000BDE81040091AFFF753BF00BF804E002061
:105280002DE9F047DFF8BC8008F110072C4ED8F864
:10529000105001F091FBD8F81C40AA68031B9A42F9
:1052A0003ED814444FF00009D5E90032C8F81C403C
:1052B00013605A60C5F80090D8F81030B34201D19D
:1052C00001F08AFB89F31188D5E903312846984714
:1052D000302383F311886B69002BD8D001F06CFB6D
:1052E0006A69A0EB040982464A450DD2022001F00A
:1052F000C1FB0022D8F81030B34208D151462846ED
:10530000BDE8F047FFF728BF121A2244F2E712EB7C
:1053100009092946384638BF4A46FFF7EBFEB5E78C
:10532000D8F81030B34208D01444C8F81C00211A31
:10533000A960BDE8F047FFF7F3BEBDE8F08700BF06
:10534000904E0020804E002000207047FEE70000B5
:10535000704700004FF0FF307047000002290CD06A
:10536000032904D00129074818BF00207047032AE9
:1053700005D8054800EBC20070470448704700207C
:10538000704700BFE87300083C2200209C730008AF
:1053900070B59AB005460846144601A900F0C2F857
:1053A00001A8FCF73FFC431C0022C6B25B0010467C
:1053B000C5E9003423700323023404F8013C01AB37
:1053C000D1B202348E4201D81AB070BD13F8011B5D
:1053D000013204F8010C04F8021CF1E708B530238F
:1053E00083F311880348FFF7B1F9002383F3118891
:1053F00008BD00BFF050002090F8803003F01F027D
:10540000012A07D190F881200B2A03D10023C0E99B
:105410001D3315E003F06003202B08D1B0F8843071
:105420002BB990F88120212A03D81F2A04D8FFF72E
:105430006FB9222AEBD0FAE7034A42670722826754
:10544000C3670120704700BF3322002007B505293C
:1054500017D8DFE801F0191603191920302383F358
:105460001188104A01210190FFF718FA01980221D2
:105470000D4AFFF713FA0D48FFF734F9002383F3C1
:10548000118803B05DF804FB302383F311880748CB
:10549000FFF7FEF8F2E7302383F311880348FFF7A4
:1054A00015F9EBE73C73000860730008F05000202A
:1054B00038B50C4D0C4C2A460C4904F10800FFF796
:1054C00067FF05F1CA0204F110000949FFF760FF08
:1054D00005F5CA7204F118000649BDE83840FFF727
:1054E00057BF00BFD46900203C2200201C73000875
:1054F000267300083173000870B5044608460D464F
:10550000FCF790FBC6B22046013403780BB918466D
:1055100070BD32462946FCF771FB0028F3D101200B
:10552000F6E700002DE9F84F05460C46FCF77AFB3C
:105530002B49C6B22846FFF7DFFF2A492846FFF766
:10554000DBFF08B11036F6B2632E0DD8DFF890807D
:10555000DFF89090244FDFF898A0DFF898B02E780D
:1055600046B92670BDE8F88F29462046BDE8F84FB9
:1055700001F03ABE252E2ED1072241462846FCF7DF
:105580003DFB70B9DBF800300735073444F8073CC1
:10559000BBF8043024F8033C9BF8063004F8013CC7
:1055A000DDE7082249462846FCF728FB98B9A21CEB
:1055B0000E4B197802320909C95D02F8041C13F870
:1055C000011B01F00F015345C95D02F8031CF0D126
:1055D00018340835C3E7013504F8016BBFE700BF95
:1055E00008740008317300081874000800E8F11FFF
:1055F0000CE8F11F10740008BFF34F8F044B1A69B9
:105600005107FCD1D3F810215207F8D1704700BFE1
:105610000020005208B50D4B1B78ABB9FFF7ECFF2B
:105620000B4BDA68D10704D50A4A5A6002F1883276
:105630005A60D3F80C21D20706D5064AC3F80421D4
:1056400002F18832C3F8042108BD00BF326C00208B
:10565000002000522301674508B5114B1B78F3B9B0
:10566000104B1A69510703D5DA6842F04002DA603C
:10567000D3F81021520705D5D3F80C2142F040028F
:10568000C3F80C21FFF7B8FF064BDA6842F00102BD
:10569000DA60D3F80C2142F00102C3F80C2108BDF6
:1056A000326C0020002000520F289ABF00F5806065
:1056B00040040020704700004FF4003070470000A5
:1056C000102070470F2808B50BD8FFF7EDFF00F545
:1056D00000330268013204D104308342F9D1012041
:1056E00008BD0020FCE700000F2838B505463FD86C
:1056F000FFF782FF1F4CFFF78DFF4FF0FF330728A6
:105700006361C4F814311DD82361FFF775FF0302EC
:1057100043F02403E360E36843F08003E36023691C
:105720005A07FCD42846FFF767FFFFF7BDFF4FF489
:10573000003100F057F92846FFF78EFFBDE83840EA
:10574000FFF7C0BFC4F81031FFF756FFA0F1080300
:105750001B0243F02403C4F80C31D4F80C3143F09D
:105760008003C4F80C31D4F810315B07FBD4D9E7BF
:10577000002038BD002000522DE9F84F05460C46A8
:10578000104645EA0203DE0602D00020BDE8F88F8D
:1057900020F01F00DFF8BCB0DFF8BCA0FFF73AFF35
:1057A00004EB0008444503D10120FFF755FFEDE766
:1057B00020222946204601F0E5FC10B9203520348E
:1057C000F0E72B4605F120021F68791CDDD1043378
:1057D0009A42F9D105F178431B481C4EB3F5801F5E
:1057E0001B4B38BF184603F1F80332BFD946D146E8
:1057F0001E46FFF701FF0760A5EB040C336804F1B8
:105800001C0143F002033360231FD9F8007017F026
:105810000507FAD153F8042F8B424CF80320F4D13A
:10582000BFF34F8FFFF7E8FE4FF0FF3320222146F2
:1058300003602846336823F00203336001F0A2FCC2
:105840000028BBD03846B0E7142100520C2000528B
:1058500014200052102000521021005210B5084CA4
:10586000237828B11BB9FFF7D5FE0123237010BDA3
:10587000002BFCD02070BDE81040FFF7EDBE00BF4C
:10588000326C002038B5054D00240334696855F8A2
:105890000C0B00F0B9F8122CF7D138BD2C740008AD
:1058A000084601F067BC000070B5104E82B0FFF7EB
:1058B0007FFB054601F080F8326803469042336072
:1058C00037BF0B4A0A495168146836BF0131D1E924
:1058D000004151600419284641F100010191FFF790
:1058E00071FB2046019902B070BD00BF346C0020EE
:1058F000386C002070B5124E82B0FFF759FB054698
:1059000001F05AF8326803469042336037BF0D4ABF
:105910000C495168146836BF0131D1E9004151602A
:105920000419284641F100010191FFF74BFB4FF4A8
:105930007A72002320460199FAF7DAFC02B070BDB2
:10594000346C0020386C00200244074BD2B210B5F2
:10595000904200D110BD441C00B253F8200041F821
:10596000040BE0B2F4E700BF504000580E4B30B5D6
:105970001C6F240405D41C6F1C671C6F44F4004486
:105980001C670A4C02442368D2B243F4807323603C
:10599000074B904200D130BD441C51F8045B00B26B
:1059A00043F82050E0B2F4E700440258004802589F
:1059B0005040005807B5012201A90020FFF7C4FF9D
:1059C000019803B05DF804FB13B50446FFF7F2FF3E
:1059D000A04205D0012201A900200194FFF7C6FFD3
:1059E00002B010BD0144BFF34F8F064B884204D371
:1059F000BFF34F8FBFF36F8F7047C3F85C02203047
:105A0000F4E700BF00ED00E00144BFF34F8F064B09
:105A1000884204D3BFF34F8FBFF36F8F7047C3F833
:105A200070022030F4E700BF00ED00E07047000096
:105A3000074B45F255521A6002225A6040F6FF7237
:105A40009A604CF6CC421A600122024B1A707047E1
:105A500000480058446C0020034B1B781BB1034BDB
:105A60004AF6AA221A607047446C00200048005889
:105A7000034B1A681AB9034AD2F8D0241A60704747
:105A8000406C002000400258024B4FF48032C3F8B3
:105A9000D02470470040025808B5FFF7E9FF024BD9
:105AA0001868C0F3806008BD406C002070B5BFF37B
:105AB0004F8FBFF36F8F1A4A0021C2F85012BFF305
:105AC0004F8FBFF36F8F536943F400335361BFF3BC
:105AD0004F8FBFF36F8FC2F88410BFF34F8FD2F890
