:020000040800F2
:1000000000070020F10200081D360008D535000861
:10001000FD350008D5350008F5350008F302000865
:10002000F3020008F3020008F3020008D9450008B3
:10003000F3020008F3020008F3020008F3020008CC
:10004000F3020008F3020008F3020008F3020008BC
:10005000F3020008F302000839660008656600082C
:1000600091660008BD660008E96600089D46000824
:10007000C5460008F14600081D470008494700082A
:10008000714700089D470008F30200088535000805
:10009000AD35000899350008C1350008156700081E
:1000A000F3020008F3020008F3020008F30200085C
:1000B000F3020008F3020008F3020008F30200084C
:1000C000F3020008F3020008F3020008F30200083C
:1000D000F3020008ED670008F3020008F3020008CD
:1000E00079670008F3020008F3020008F302000831
:1000F000F3020008F3020008F3020008C9470008F1
:10010000F3020008F302000815680008F302000873
:10011000F3020008F3020008F3020008F3020008EB
:10012000F54700081D4800084948000875480008C0
:10013000A1480008F3020008F3020008F3020008D7
:10014000F3020008F3020008F3020008F3020008BB
:10015000C9480008F548000821490008F3020008D2
:10016000F3020008F3020008F3020008F30200089B
:10017000F3020008F3020008F3020008F30200088B
:10018000F3020008F3020008F30200080168000807
:10019000F3020008F3020008F3020008F30200086B
:1001A000F3020008F3020008F3020008F30200085B
:1001B000F3020008F3020008F3020008F30200084B
:1001C000F3020008F3020008F3020008F30200083B
:1001D000F3020008F3020008F3020008F30200082B
:1001E000F3020008F3020008F3020008F30200081B
:1001F000F3020008F3020008F3020008F30200080B
:10020000F3020008F3020008F3020008F3020008FA
:10021000F3020008F3020008F3020008F3020008EA
:10022000F3020008F3020008F3020008F3020008DA
:10023000F3020008F3020008F3020008F3020008CA
:10024000F3020008F3020008F3020008F3020008BA
:10025000F3020008F3020008F3020008F3020008AA
:10026000F3020008F3020008F3020008F30200089A
:10027000F3020008F3020008F3020008F30200088A
:10028000F3020008F3020008F3020008F30200087A
:10029000F3020008F3020008F3020008F30200086A
:1002A000F3020008F3020008F3020008F30200085A
:1002B000F3020008F3020008F3020008F30200084A
:1002C000F3020008F3020008F3020008F30200083A
:1002D000F3020008F3020008F3020008F30200082A
:1002E000A11800080000000000000000000000004D
:1002F00002E000F000F8FEE772B6374880F30888A5
:10030000364880F3098836483649086040F20000D4
:10031000CCF200004EF63471CEF200010860BFF35B
:100320004F8FBFF36F8F40F20000C0F2F0004EF627
:100330008851CEF200010860BFF34F8FBFF36F8F7B
:100340004FF00000E1EE100A4EF63C71CEF20001D3
:100350000860062080F31488BFF36F8F05F0FEFC61
:1003600005F03AFF4FF055301F491B4A91423CBF00
:1003700041F8040BFAE71D49184A91423CBF41F885
:10038000040BFAE71A491B4A1B4B9A423EBF51F82D
:10039000040B42F8040BF8E700201849184A914270
:1003A0003CBF41F8040BFAE705F016FD05F096FF97
:1003B000144C154DAC4203DA54F8041B8847F9E796
:1003C00000F042F8114C124DAC4203DA54F8041B11
:1003D0008847F9E705F0FEBC000700200023002055
:1003E0000000000808ED00E00001002000070020E8
:1003F000286D000800230020382300203823002027
:1004000014E70020E0020008E4020008E40200080B
:10041000E40200082DE9F04F2DED108AC1F80CD050
:10042000D0F80CD0BDEC108ABDE8F08F002383F328
:1004300011882846A047002005F012F8FEE704F0D6
:1004400097FF00DFFEE70000F8B50B25013D07D060
:10045000042001F04BF842F2107005F007F8F5E7C0
:1004600001F09EFA01F0E6FB05F0FCFB064605F004
:100470006BFC074690BB1E4B9E4231D001339E421F
:1004800030D026F0FF021B4B9A422DD12C4642F26F
:100490001075F0B200F07CFF00F080FF08B100257D
:1004A0002C4601F04FFE08B100252C4637B1124B07
:1004B0009E4203D0002505F03FFC2C46002005F0AD
:1004C000DBFB0CB100F060F801F086FB00F0B8FF38
:1004D000284600F0E5F800F057F8F9E70446DBE7B6
:1004E0002C46D9E70124D7E72C4641F28835D3E7DB
:1004F000010007B0000008B0263A09B008B501F0C5
:100500001BFAA0F120035842584108BD07B541F23B
:100510001203022101A8ADF8043001F02BFA03B058
:100520005DF804FB302310B583F31188124803688B
:100530000BB105F053F80023104A4FF47A710E48BE
:1005400005F042F8002383F311880D4C236813B1A2
:100550002368013B2360636813B16368013B6360F8
:10056000084B1B7833B9636823B9022001F0CAFA3B
:100570003223636010BD00BF38230020250500082A
:100580005824002050230020F8B5042000F0AEFFCE
:100590003C4B3D4A1C461968013171D004339342EB
:1005A000F9D16268394B9A426AD9394B9B6803F199
:1005B000006303F580239A4262D205F091FB05F0B7
:1005C000A3FB002001F012FA0220324B187001F058
:1005D00097FA314B00219A6C99641A6F19671A6F58
:1005E000DA6CD9645A6F59675A6F1A6D19659A6F28
:1005F00099679B6F72B64FF0E023C3F8084DD4E9BA
:100600000004BFF34F8FBFF36F8F244AC2F88410EA
:10061000BFF34F8F536923F480335361BFF34F8F80
:10062000D2F8803043F6E076C3F3C905C3F34E3306
:100630005B0103EA060C29464CEA81770139C2F8CE
:100640007472F9D2203B13F1200FF2D1BFF34F8F18
:10065000BFF36F8FBFF34F8FBFF36F8F536923F4D7
:10066000003353610023C2F85032BFF34F8FBFF302
:100670006F8F302383F31188854680F308882047E5
:10068000F8BD00BF0000040820000408FFFF0308B5
:1006900000230020502300200045025800ED00E018
:1006A0002DE9F04F93B0AD4B2022FF2100900AA816
:1006B0009D6801F03BFAAA4A1378A3B90121A94821
:1006C00011700360302383F3118803680BB104F0C9
:1006D00085FF0023A44A4FF47A71A24804F074FF06
:1006E000002383F31188009BA04A03B11360002309
:1006F0009F49009C98469B461E469A460B70536045
:10070000012001F0FDF924B1984B1B68002B00F08B
:100710001E82002001F010F90390039B002B01DAE8
:1007200000F02EFF039B002BEDDB012001F0E6F92A
:10073000039B213B162BE3D801A252F823F000BF04
:100740009D070008C50700085908000801070008B0
:100750000107000801070008EF080008C30A0008A5
:10076000DD0900083F0A0008670A00088D0A000832
:10077000010700089F0A000801070008110B000884
:100780003D08000801070008550B0008A9070008EC
:100790003D080008010700083F0A00080220FFF793
:1007A000ADFE002840F0FD81009B022105A8B8F1B4
:1007B000000F08BF1C4641F21233ADF8143001F0AF
:1007C000D9F89DE74FF47A7001F0B6F8071EEBDB1D
:1007D0000220FFF793FE0028E6D0013F052F00F22C
:1007E000E281DFE807F0030A0D1013360523042128
:1007F00005A8059301F0BEF817E004215748F9E772
:1008000004215C48F6E704215B48F3E74FF01C093C
:10081000484609F1040901F0EBF80421059005A808
:1008200001F0A8F8B9F12C0FF2D101204FF0000A25
:1008300000FA07F747EA0B0B5FFA8BFB01F0C2F9EE
:1008400026B10BF00B030B2B08BF0024FFF75EFE55
:1008500056E704214948CDE7002EA5D00BF00B0345
:100860000B2BA1D10220FFF749FE074600289BD0A1
:1008700001203F4E01F0BAF84FF00008022030701E
:1008800001F03EF95FFA88F9484601F0BFF80446E6
:1008900098B10021484608F1010801F0CFF800287E
:1008A000F0D1B846044641F21213022105A83E4693
:1008B000ADF8143001F05EF822E70123254602204E
:1008C000337001F01BF9254B9B68AB4207D92846D2
:1008D00001F08EF8013040F069810435F3E700251E
:1008E000234BB8463E461D70204B5D60A6E7002EA8
:1008F0003FF45AAF0BF00B030B2B7FF455AF0220E4
:100900001B4B187001F0FCF8322001F015F8B0F123
:100910000009FFF649AF19F003077FF445AF0F4A0E
:1009200009EB0503926893423FF63EAFB9F5807F2D
:100930003FF73AAF124BB945019323DD4FF47A707C
:1009400000F0FAFF0390039A002AFFF62DAF039AF6
:100950000137019B03F8012BEDE700BF00230020C6
:1009600054240020382300202505000858240020A6
:100970005023002004230020082300200C23002003
:1009800054230020C820FFF7B9FD074600283FF494
:100990000BAF1F2D11D8C5F120020AAB25F00300C3
:1009A00084494A45184428BF4A46019201F0ACF8F0
:1009B000019AFF217F4801F0B9F84FEAA903C9F372
:1009C00087027C492846019301F0B8F806460028C2
:1009D0003FF469AF019B05EB83052FE70220FFF78A
:1009E0008DFD00283FF4E0AE01F03AF800283FF416
:1009F000DBAE0027B946704B9B68BB4218D91F2F4E
:100A000011D80A9B01330ED027F0030312AA134416
:100A100053F8203C05934846042205A9043701F009
:100A20007BFB8146E7E7384600F0E2FF0590F2E7FE
:100A3000CDF81490042105A800F09CFFFEE60023E9
:100A4000642104A8049300F08BFF00287FF4ACAE6F
:100A50000220FFF753FD00283FF4A6AE049800F0F3
:100A6000F5FF0590E6E70023642104A8049300F055
:100A700077FF00287FF498AE0220FFF73FFD0028A3
:100A80003FF492AE049800F0E3FFEAE70220FFF79C
:100A900035FD00283FF488AE00F0F2FFE1E70220C8
:100AA000FFF72CFD00283FF47FAE05A9142000F0CD
:100AB000EDFF07460421049004A800F05BFF3946CF
:100AC000B9E7322000F038FF071EFFF66DAEBB0716
:100AD0007FF46AAE384A07EB0A03926893423FF606
:100AE00063AE0220FFF70AFD00283FF45DAE27F059
:100AF00003075744BA453FF4A1AE50460AF1040A31
:100B000000F076FF0421059005A800F033FFF1E71F
:100B10004FF47A70FFF7F2FC00283FF445AE00F086
:100B20009FFF002844D00A9B01330BD008220AA95A
:100B3000002001F003F800283AD02022FF210AA863
:100B400000F0F4FFFFF7E2FC1C4804F08FFC13B048
:100B5000BDE8F08F002E3FF427AE0BF00B030B2BFC
:100B60007FF422AE0023642105A8059300F0F8FE6F
:100B7000074600287FF418AE0220FFF7BFFC81462D
:100B800000283FF411AEFFF7C1FC41F2883004F0B9
:100B90006DFC059801F034F84E463C4601F012F821
:100BA000AEE506464AE64FF0000AFDE5B8467AE6AD
:100BB000374678E65423002000230020A086010059
:100BC000094A49F26900136899B21B0C00FB013312
:100BD00044F250611360054B186882B2000C01FBAF
:100BE0000200186080B270471823002014230020F0
:100BF0000021102210B5044600F098FF034B03CBF0
:100C0000206061601868A06010BD00BF00E8F11F9F
:100C10002DE9F041ADF54E7D0D46002140F27512F3
:100C20006CAC07460EA80D9100F080FF4FF4C47223
:100C30000021204600F07AFF0DF1340802F0F6FCA6
:100C40004FF47A72264BB0FBF2F0186093E807007D
:100C5000022384E807000DF5E9702382FFF7C8FF3F
:100C600041F204331F4908A8238405F061FE1323D1
:100C70000DF2E3220DF1300C84F8323108AB1E4640
:100C8000083203CE664542F8080C42F8041C33468D
:100C9000F5D131882046B378118041469370012206
:100CA00001F024F8002380B2E97E06930393AB7E23
:100CB000029305F1190301930123009306A3D3E9DD
:100CC0000023CDE90480384603F02AF80DF54E7D67
:100CD000BDE8F081AFF300809E6AC421818A46EEB0
:100CE00060240020406900082DE9F0412C4CDCB064
:100CF00080460D46237A5BBB29A9284601F018F9E6
:100D00000746002843D19DF8A560C82E3FD801466C
:100D10004FF4A662204600F009FF4FF4807332467C
:100D20000DF1A601C4F8F8314FF4007304F1090085
:100D30002644C4F80C334FF44073C4F8203400F058
:100D4000E3FE9DF8A430777223720BB9EB7E237219
:100D500008AC8122002129A800F0E8FE01222146EA
:100D600029A801F02BF9002380B2E97E06930393B2
:100D7000AB7E029305F1190301932823CDE90440CA
:100D80000093404604A3D3E9002302F0C9FF5CB0FE
:100D9000BDE8F081AFF3008026417272DF25D7B73E
:100DA00058D40020F0B5274E4FF48A75F3B00024D4
:100DB00005FB006596F8D830D822214685F8DC304E
:100DC0003CA885F8E84008AF00F0B0FE06F1090045
:100DD00000F0A4FED5F8E430C2B206F109018DF8A6
:100DE000F8000DF1F900CDE93C3400F08DFE3946F4
:100DF00001223CA801F018F9082380B2317A069448
:100E0000CDE9047001271048CDE9023706F1D80377
:100E100001933023009309A3D3E9002302F080FF5C
:100E2000A04206DD02F002FCC5F8E000384673B0CF
:100E3000F0BD2046FBE700BFAFF3008078F6339F9C
:100E400093CACD8D58D40020786400202DE9F04F4E
:100E5000294F95B0DFF8AC80284E384602F090FF5D
:100E60000546002840D00024402203A821460294D1
:100E7000ADF84C4000F05AFE95F84430A146A24629
:100E80008DF84C3003AB6868A96803C32B681C4D10
:100E900043F0004302932B6804F6F654D3F810B0E5
:100EA00002F0C6FB10EB0802CDF800A0284605F5BD
:100EB0005F5541F1000302A9D84741F6EC33002801
:100EC000C8BF49F0010918359C42E4D1B9F1000FBF
:100ED00005D0384602F058FF86F800A0BDE7337809
:100EE000072B04D80133337015B0BDE8F08F0248EA
:100EF00002F04AFFF8E700BF7864002097D900208D
:100F0000A864002040420F0070B50D4614461E46EE
:100F100002F05EFE50B9022E10D1012C0ED112A3A8
:100F2000D3E900230120C5E9002307E0282C10D0D5
:100F300005D8012C09D0052C0FD0002070BD302C15
:100F4000FBD10BA3D3E90023ECE70BA3D3E90023E8
:100F5000E8E70BA3D3E90023E4E70BA3D3E90023DD
:100F6000E0E700BFAFF30080401DA12026812A0BDF
:100F700078F6339F93CACD8D9E6AC421818A46EE4E
:100F800026417272DF25D7B7F017304A39059E56D1
:100F900038B505460E4C0021013500F04FFDA4F890
:100FA0002C55B4F82C0500F031FD78B1B4F82C05BF
:100FB00000F03CFD014648B9B4F82C0500F03EFDB8
:100FC000B4F82C350133A4F82C35EAE738BD00BF5E
:100FD00058D4002013B502F029FB19490B68C31A35
:100FE000642B184B08D9184A1C8892F90020086015
:100FF000C2EB021222441A80B3F90020002A1BDA45
:1010000000221A8011490A68821AB2F57A7F04D93F
:101010000D4C0860227852422270B3F9003003224E
:10102000002093FBF2F3DBB263F3070063F30F20BE
:1010300063F3174002B010BD962AE3DD9622E0E785
:101040008CD9002094D900201023002090D90020B2
:10105000F8B50E4C02260E4FA4F5305343F8307C01
:10106000237E3BB965692DB1284601F053F9284626
:1010700005F01CFC2046A4F55F5401F04BF9012E4D
:10108000A4F1180400D1F8BD0126E5E7B0C800209E
:10109000E46900082DE9F04F8FB005460C4600AF1B
:1010A00002F096FD002849D1237E022B1BD1E38A52
:1010B000012B18D102F0BAFA0646FFF781FD03466C
:1010C0004FF4C87006F51676DFF8C082B3FBF0F275
:1010D00002FB103316FA83F3C8F80030E37E33B90D
:1010E000A34B00221A703C37BD46BDE8F08F07F1D4
:1010F0002401204600F0D0FE0028F4D107F11400AE
:10110000FFF776FD97F8264007F1140107F1270055
:10111000224605F0DBFB0028E2D10F2C08D8944BC7
:101120001C70D8F80030A3F51673C8F80030DAE761
:1011300097F82410284602F043FDD4E7E38A282BD1
:101140002BD010D8012B23D0052BCCD1BFF34F8F40
:101150008849894BCA6802F4E0621343CB60BFF34D
:101160004F8F00BFFDE7302BBDD1844EE17E327A38
:101170009142B8D1607E3146002291F8DC50854220
:1011800000F0A580013201F58A71042AF5D1AAE7A1
:1011900021462846FFF73CFDA5E721462846FFF7F4
:1011A000A3FDA0E7B2F8EC507B6005F103094FEA1C
:1011B00099094FEA8902D11DC908A8EBC103002192
:1011C0009D46EB46584600F0B1FC04F1EE012A467C
:1011D0005846314400F098FC7B6813B9012000F0B8
:1011E00005FC96F8D20000F011FC044630B93072CC
:1011F00000F036FC204600F0F9FBB1E0D6F8D42030
:101200003AB996F8D200B6F82C25824201D8FFF7F9
:10121000BFFED6F8D4202A44944208D296F8D200D1
:10122000B6F82C250130824201D8FFF7B1FE5FFAF3
:1012300089F25946706800F081FC08B9C54679E02A
:10124000726896F8D2002A447260D6F8D42005EB72
:101250000209C6F8D49000F0D9FB814509D396F86D
:10126000D220D6F8D4000132001B86F8D220C6F86E
:10127000D400FF2D0FD80024347200F0F1FB20467B
:1012800000F0B4FB00F05EFF3D4B188108B9FFF79A
:101290007BF9C54627E7BB6896F8D9000AFB0362CD
:1012A000FB68D2F8E41082F8E83001F58061C2F8FA
:1012B000E030C2F8E410FFF775FDFFF7C7FD96F8C0
:1012C000D920013202F0030286F8D920B6E74FF4A4
:1012D0008A7A20460AFB02F505F1EA01314400F062
:1012E000D5FEF86000287FF4FEAE0122354485F873
:1012F000E82002F09BF9D5F8E020D6ED007A801ABC
:1013000040F6B832B8EE677ADFED1E6A192838BFAA
:101310001920904228BF104607EE900AF8EEE77AAF
:1013200067EEA67ADFED186AE7EE267AFCEEE77A3A
:10133000C6ED007A96F8D930BB60BA6873680AFBCC
:1013400002F4321992F8E81059B1D2F8E410E846E4
:101350008B423FF427AF002182F8E810C2F8E0107A
:10136000C5467368064A9B0A01331381BBE600BF7A
:101370007164002000ED00E00400FA0558D400205C
:1013800060240020CDCCCC3D6666663F74640020AE
:10139000014B1870704700BF6C24002038B5BFF3B4
:1013A0004F8F214B4FF00054204AC3F87042C3F8CE
:1013B00070222032C3F870222032C3F8702220320B
:1013C000C3F870222032C3F870222032C3F8702292
:1013D000BFF34F8FBFF36F8F154B22689A4221D115
:1013E000627D0025134B14481A70C922237D0930F1
:1013F000124900F8013C4FF48073C0F8DB50C0F88C
:10140000EF314FF40073C0F803334FF44073C0F86A
:10141000173400F079FBE0222946204600F086FBD5
:10142000012038BD0020FCE700ED00E02000002096
:101430009AAD44C56C24002058D40020160000202A
:1014400037B500F07FFE1E4D02231E4A1E4928813B
:101450006B7101231D4801F06BFC1D48194AD0F83F
:10146000D83700F5FB6018491C680123A04700230A
:1014700018494FF480420193174B18480093184BBA
:1014800002F076FB174B197811B1144802F098FB63
:1014900002F0CCF80446FFF793FB4FF4C873B0FB9F
:1014A000F3F202FB130304F5167010FA83F00E4BEF
:1014B000186004F049FC08B10F232B8103B030BD44
:1014C0006024002000127A0040420F00A86400202F
:1014D000A894002070240020090F000878640020E0
:1014E000951000086C240020746400202DE9F04160
:1014F000192501224FF400714FF4807645431F48AF
:1015000003F0FAFA4FF4807105F1320439351B48C3
:10151000012204F0070403F0EFFA25F00705652027
:10152000C4F13A041549E4B2013824D00023192744
:10153000AB42F9D0B04603F1080E9C4205D94FF0FA
:10154000000C4E834FF000720CE01A1B4E83B2FB6E
:10155000F7FC07FB1C22002A0CBF4FF0010C4FF0D8
:10156000000CEFD1013342EA4C2273458A61A1F8A5
:101570001880E2D1DCE7BDE8F08100BF000402582A
:101580002DE9F04700252DED028BAEB04FF001099B
:10159000DFF8E8A2FFF75AFC402200210BA80A95C9
:1015A000ADF86C5000F0C2FA9FEDAD8B0026B24C46
:1015B000374623680DF11D0207A920468DF81C90BF
:1015C0008DF81D508DED008BD3F808800023C047A7
:1015D0009DF81C80B8F1000F24D0482200211CA8DF
:1015E00000F0A4FA236808AA0AA95F6920460DF151
:1015F0001E03B8479DF86C0000F070FE0BA9024670
:101600008DF8B4001DA8474600F07EFA0A9B1CA97D
:1016100050461C939DF86D308DF8B630DDE90823F7
:1016200002F098FD06F6F65641F6EC3304F55F54E9
:101630009E4204F11804BCD1002FB7D18F4802F0AC
:10164000C7FA002840D18E4E01F0F0FF336898426F
:101650003AD301F0EBFF0446FFF7B2FA4FF4C87338
:101660008DF82870B0FBF3F202FB130304F516703B
:1016700010FA83F03060834E377817B901238DF864
:101680002830C7F110041CA8FFF7B2FA1CABE4B273
:101690000DF12900D919062C28BF06242246013451
:1016A00000F032FA0AABE4B27448039318230595AC
:1016B0000293754B04940193012300936AA3D3E929
:1016C000002302F0CBFA357001F0B0FF6F4A1368C7
:1016D000C31AB3F57A7F31D3106001F0A9FF024637
:1016E0000B46664802F05AFB644802F071FA28B3D0
:1016F000674B1CAE674C1B7A002B14BF03230223DD
:10170000637101F093FF4FF47A7301223146B0FB0D
:10171000F3F02060204600F097FB182380B2059577
:1017200002935D4B019340F25513CDE903600093A2
:1017300052484FA3D3E9002302F090FAFFF74AFC86
:101740000826C0F307238DF870000022C0F307407D
:10175000DFF848914FF4807A8DF871308DF872007F
:10176000A6F10807332F51D9A7F134041923B4FB8C
:10177000F3F103FB1143002B4AD0641A4FF0180811
:10178000B4FBF8F890450BD0FFF724FCC0F3072317
:101790008DF87000C0F307408DF871308DF872003D
:1017A0001822B4FBF2F302FB13432EAA04F0070441
:1017B00002EBD3034246C4F1080413F8483C43FA51
:1017C00004F404F00104002C07F10107A9F81AA0A1
:1017D0000CBF4FF000730023BE4243EA4424C9F813
:1017E0001840A9F818A0BDD10836A02EB8D1284CB1
:1017F000237A7BB9C82003F039FE237A002B7FF4CB
:10180000C5AE2EB0BDEC028BBDE8F0870024DAE750
:101810000124D8E701F00AFF002607464FF48A7832
:1018200094F8D900304400F0030008FB004393F81B
:10183000E8201AB10136042EF2D1DBE7D3F8E0201C
:1018400042B12368BA1AFA2B38BFFA230533B2EB38
:10185000430FEFD3FFF7A6FA0028EBD1CAE700BF8A
:101860000000000000000000401DA12026812A0B7E
:10187000F1C6A7C1D068080FA864002078640020D2
:1018800074640020716400207064002088D90020F6
:1018900058D400206024002096D90020000402586B
:1018A00008B5064801F07CF9054801F079F9054AC8
:1018B00005490020BDE8084004F0F2BFA8640020FC
:1018C000809C0020F0D90020511000082DE9F84F2D
:1018D0004FF47A7306460D46002402FB03F7DFF847
:1018E0005080DFF8509098F900305FFA84FA5A1C63
:1018F00001D0A34212D159F824002A463146036888
:10190000D3F820B03B46D847854207D1074B01208A
:1019100083F800A0BDE8F88F0124E4E7002CFBD099
:101920004FF4FA7003F0A2FD0020F3E7DCD90020A9
:101930001C23002020230020002307B5024601219C
:101940000DF107008DF80730FFF7C0FF20B19DF8BB
:10195000070003B05DF804FB4FF0FF30F9E700002B
:101960000A46042108B5FFF7B1FF80F00100C0B2BC
:10197000404208BD074B0A4630B41978064B53F86D
:101980002140014623682046DD69044BAC4630BC4B
:10199000604700BFDCD9002020230020A086010082
:1019A00070B5104C0025104E03F030FF20803068D9
:1019B000238883420CD800252088013803F022FFB9
:1019C00023880544013BB5F5802F2380F4D370BDF7
:1019D00003F018FF336805440133B5F5802F3360F9
:1019E000E5D3E8E7DED9002098D9002003F0DCBF7A
:1019F00000F1006000F580200068704700F1006091
:101A0000920000F5802003F05DBF0000054B1A68CE
:101A1000054B1B889B1A834202D9104403F0F2BE87
:101A20000020704798D90020DED90020024B1B68A7
:101A3000184403F0EDBE00BF98D90020024B1B688C
:101A4000184403F0F7BE00BF98D90020002070476B
:101A500000F1FF5000F58F10D0F80008704700002B
:101A6000064991F8243033B100230822086A81F82E
:101A70002430FFF7C3BF0120704700BF9CD900206E
:101A8000014B1868704700BF0010005C184B01380C
:101A900070B51D680844174BC5F30B022D0C1C884C
:101AA000A24203D01C89A2420CD108335C680A46CA
:101AB000013C824213460BD214F9016F2EB102F899
:101AC000016BF6E781420B4602D22C2203F8012B70
:101AD0000424094A1688AE4204D1984284BF9678FD
:101AE00003F8016B013C02F10402F3D1581A70BDF6
:101AF0000010005C28230020706900087047000077
:101B00007047000070470000002310B5934203D0D7
:101B1000CC5CC4540133F9E710BD00000346024613
:101B2000D01A12F9011B0029FAD17047024403466A
:101B3000934202D003F8011BFAE770472DE9F843FE
:101B40001F4D14460746884695F8242052BBDFF8FF
:101B500070909CB395F824302BB92022FF21484681
:101B60002F62FFF7E3FF95F824004146C0F1080219
:101B700005EB8000A24228BF2246D6B29200FFF7B2
:101B8000C3FF95F82430A41B17441E449044E4B2CC
:101B9000F6B2082E85F82460DBD1FFF761FF00283C
:101BA000D7D108E02B6A03EB82038342CFD0FFF743
:101BB00057FF0028CBD10020BDE8F8830120FBE7C8
:101BC0009CD90020024B1A78024B1A70704700BF54
:101BD000DCD900201C23002010B5074C4FF4E13362
:101BE000064920680B6003F009FB60680349BDE803
:101BF000104003F003BB00BF20230020C4D9002005
:101C0000094B1822002110B504461846FFF78EFF35
:101C1000064A074B01461278046053F82200BDE8DB
:101C2000104003F0EBBA00BFC4D90020DCD900207B
:101C300020230020F8B571B6002301201A4619466A
:101C400002F00CFF0446202003F04CFF002845D092
:101C50000025234A04274FF4D06C3D26136923BB8B
:101C6000D2F810310BBB236805F10061996023683D
:101C7000D86023685F602368C3F800C021680B68E0
:101C800043F001030B6021680B6823F01E030B6017
:101C900021680B68DB07FCD4237B0435616806FAF6
:101CA00003F3B5F5001F0B60D8D1204602F00CFFFE
:101CB000B5F5001F11D000240A4E0B4D012003F092
:101CC00073FE3388A34205D928682044013403F009
:101CD000B1FDF6E7002003F067FE61B6F8BD00BF76
:101CE00000200052DED9002098D900202DE9F843C9
:101CF0000D46044600219046284640F27912FFF72F
:101D000015FF234620220021284604F1220702F075
:101D1000C3F9231D022220212846C02602F0BCF967
:101D2000631D03222221284602F0B6F9A31D0322D7
:101D30002521284602F0B0F904F1080310222821D9
:101D4000284602F0A9F904F1100308223821284698
:101D500002F0A2F904F1110308224021284602F002
:101D60009BF904F1120308224821284602F094F955
:101D700004F1140320225021284602F08DF904F1C9
:101D8000180340227021284602F086F904F120034E
:101D90000822B021284602F07FF904F1210308222D
:101DA000B821284602F078F9314608363B46082229
:101DB0002846013702F070F9B6F5A07FF4D131461C
:101DC00004F132030822284602F066F9002794F84D
:101DD000326004F13309F900BE4201F5A4711FD845
:101DE000F70007F5A476B8F1000F08D1314607F2E5
:101DF0004F1604F599730722284602F04DF994F81E
:101E00003201B046502828BF5020074604EB000995
:101E1000A1450DD106EBC7000730C008BDE8F88327
:101E200009EB070308222846013702F035F9D2E70B
:101E300004F2331341460822284608F10808013409
:101E400002F02AF9E4E7000013B504460846002131
:101E50002022234601900160C0F8031002F01CF913
:101E6000231D01980222202102F016F9631D01981A
:101E70000322222102F010F9A31D0198032225213B
:101E800002F00AF9019804F108031022282102F057
:101E900003F9072002B010BDF7B5047F05460E46D2
:101EA0002CB1838A122B02D9012003B0F0BD00238C
:101EB000072228460096194601F0AAFF731C01224A
:101EC000072100932846002301F0A2FFD4B9B31CD8
:101ED000052208212846009323460D2401F098FF8F
:101EE000B378102BE0D83746BB1BB278934210D39F
:101EF00007342B7FA88AE408B3B9844294BF00203A
:101F00000120D2E7AB8A0824DB00083BDB08B37072
:101F1000E6E7FB1C214608222846009300230834EC
:101F2000013701F075FFDFE7201A18BF0120BCE779
:101F3000F7B5047F05460E462CB1838ACA2B02D919
:101F4000012003B0F0BD0023082228460096194660
:101F500001F05EFF731CD4B90822009323461024BD
:101F60001146284601F054FF7378C82BE8D80123A6
:101F70005F1C7278013B934210D307342B7FA88AF1
:101F8000E408B3B9844294BF00200120D9E7AB8AAA
:101F90000824DB00083BDB087370E5E7F3192146F2
:101FA000082228460093002301F032FF08343B4604
:101FB000DEE7201A18BF0120C3E700002DE9F8432F
:101FC0000D4604461646002181222846FFF7AEFD45
:101FD000234608220021284602F05EF8C6B90F26E3
:101FE000631C07220821284602F056F894F90130B4
:101FF000B0466778002BB8BF7F2704EB07094C4534
:1020000008D10736082010FB0760C008BDE8F88338
:102010000826EBE7A31C41460822284608F10808D9
:10202000013402F039F8EAE72DE9F0410D460446A3
:1020300016460021CE222846FFF778FD23462822A7
:102040000021284602F028F8BEB9302604F1080322
:1020500008222821284602F01FF814F8080F00274C
:10206000C82828BFC8208046B84506EBC70106D857
:1020700006EBC800C008BDE8F0812826EDE701376F
:1020800008222846E31902F007F8EDE7F7B5047FC8
:1020900005460E4634B1838AB3F5827F02D901200A
:1020A00003B0F0BD0123102200212846009601F064
:1020B000AFFEDCB9B31C0922102128460093234649
:1020C000192401F0A5FE7388B3F5807FE7D8374661
:1020D000BB1B7288934210D307342B7FA88AE40875
:1020E000B3B9844294BF00200120D9E7AB8A102401
:1020F000DB00103BDB087380E5E73B1D214608222F
:102100002846009300230834013701F081FEDFE701
:10211000201A18BF0120C3E730B50A44084D914288
:102120000DD011F8013B5840082340F30004013B57
:102130002C4013F0FF0384EA5000F6D1EFE730BDE6
:102140002083B8EDF7B5384A6B46106851686A4687
:1021500003C308233549364804F0C8FB0446002869
:1021600033D10A25334A6B46106851686A4603C367
:10217000082331492E4804F0B9FB0446002849D011
:102180000369B3F5E01F45D8B0F8661040F213427A
:1021900091423FD1294A024402F15C018B4239D37A
:1021A0005C3B234900209E1AFFF7B6FF04F164014F
:1021B000074632460020FFF7AFFFA3689F4229D1B0
:1021C000E368984208BF002524E00369B3F5E01FE7
:1021D00027D8418B40F21342914220D1174A024442
:1021E00002F110018B4218D3103B114900209D1AB7
:1021F000FFF792FF04F1180106462A460020FFF778
:102200008BFFA3689E4202D1E368984201D00D255E
:10221000A8E70025284603B0F0BD1025A2E70C254D
:10222000A0E70B259EE700BF80690008DCFF1B00CC
:10223000000004088969000890FF1B000800FCF7F3
:102240007047000013B56C46031D84E8060094E84F
:10225000030083E80500012002B010BD73B5856856
:10226000019155B11B885B0707D4D0E900361B6C80
:102270009847019AC1B23046A847012002B070BD0C
:1022800070B598B08568044601915DB1BDF87030B5
:102290005B070AD4D0E900361B6C9847019AC1B29B
:1022A0003046A847012018B070BD0022002305A8C1
:1022B000CDE9022300234622ADF81030FFF724FCBD
:1022C00001F0B6F90423ADF810302368CDE902011E
:1022D0005B6C02A920469847E4E70000082817D95C
:1022E00009280CD00A280CD00B280CD00C280CD0B4
:1022F0000D280CD00E2814BF4020302070470C2031
:102300007047102070471420704718207047202015
:102310007047000010B5037C044613B9006803F051
:1023200015FC204610BD00000023BFF35B8FC36087
:10233000BFF35B8FBFF35B8F8360BFF35B8F70472F
:10234000BFF35B8F0068BFF35B8F704770B50546C6
:102350000C30FFF7F5FF044605F108063046FFF79D
:10236000EFFFA04206D96D683046FFF7E9FF25442C
:10237000281A70BD3046FFF7E3FF201AF9E7000086
:1023800070B505464068A0B105F10C0605F10800DE
:10239000FFF7D6FF04463046FFF7D2FF844204F130
:1023A000FF34304694BF6D680025FFF7C9FF2C4409
:1023B000201A70BD38B50C460546FFF7C7FFA0428E
:1023C00010D305F10800FFF7BBFF04446868BFF3B2
:1023D0005B8FB4FBF0F100FB11440120AC60BFF354
:1023E0005B8F38BD0020FCE72DE9F041144607461D
:1023F0000D46FFF7C5FF844228BF0446D4B1B84656
:1024000058F80C6B4046FFF79BFF3044286040466D
:102410007E68FFF795FF331A9C4203D801206C6059
:10242000BDE8F081A41B6B603B682044AB60E860B2
:102430000220F5E72046F3E738B50C460546FFF7DE
:102440009FFFA04210D305F10C00FFF779FF044471
:102450006868BFF35B8FB4FBF0F100FB114401200F
:10246000EC60BFF35B8F38BD0020FCE72DE9FF4136
:102470008846694607466C46FFF7B6FF002506B258
:1024800004EBC606B4420AD0626808EB0501206876
:102490000834FFF739FB54F8043C1D44F2E72946A1
:1024A0003846FFF7C9FF284604B0BDE8F0810000B8
:1024B000F8B505460C300F46FFF742FF05F1080658
:1024C00004463046FFF73CFFA042304688BF6C68A8
:1024D000FFF736FF201A386020B12C683046FFF72E
:1024E0002FFF2044F8BD000073B5144606460D4684
:1024F000FFF72CFF8442019028BF0446DCB101A9FC
:102500003046FFF7D5FF019B33B93268C5E9023386
:10251000C5E9002401200CE09C42286038BF0194EA
:10252000019884426860F5D93368241A0220AB60B0
:10253000EC6002B070BD2046FBE700002DE9FF41D2
:102540000F4669466C46FFF7CFFF00B2002604EB4A
:10255000C005AC4209D0D4F80480B81954F8081B5F
:1025600042464644FFF7D0FAF3E7304604B0BDE8F0
:10257000F081000038B50546FFF7E0FF044601464C
:102580002846FFF717FF204638BD000010B4134659
:10259000026814680022A4465DF8044B60470000FE
:1025A00000F5405090F870077047000000F540506B
:1025B00090F852077047000000F54050C0F85C17D3
:1025C000C0F860277047000000F55D50303050E9DA
:1025D0000201704700F5405090F95807704700001D
:1025E0004E207047302383F3118800F54052D2F813
:1025F000B437D2F8B0071844D2F8AC371844D2F840
:1026000094371844D2F8A4371844D2F8A0371844A5
:10261000002383F31188704700F54050C0F8541729
:10262000012070472DE9F74F0C4600F540519846C0
:10263000054691F852379146BDF830A0ABB1D1F8BC
:1026400090370133C1F8903723689A0008D494F882
:102650004430082B0CD994F845200AB10F2B07D928
:10266000D1F894370133C1F894374FF0FF3010E0C0
:10267000302383F31188EB6AD3F8C46016F4001694
:102680000AD0D1F8983700200133C1F8983780F389
:10269000118803B0BDE8F08F22684FF0480BD3F8E3
:1026A000C470002A6B6AC7F30447B4BF42F080428B
:1026B00092041BFB073BCBF8002023685B004FEA2A
:1026C000076344BF42F00052CBF8002094F8442046
:1026D00043EA0243CBF8043094F8452022B343F494
:1026E0004013CBF80430D1F8C8370133C1F8C837EC
:1026F000582303FB075303F5325393F8242042F089
:10270000200283F8242094F84400FFF7E7FD03300B
:102710008010F3B20136834212DA04EB83020BEB32
:10272000830352689A60F4E7582303FB075303F5C9
:10273000325393F8241062F3451183F82410E2E732
:1027400001265820EB6A214600FB075B06FA07F2D8
:102750000BF53150C3F8D0200BF531534622183019
:10276000C3E90498FFF7D0F942F6A0434BF8037091
:102770000BF5005B0AF003039BF8A42C43F0100355
:1027800022F01F0213438BF8A43C002383F311882B
:102790004A46434621462846CDF800A0FFF770FD83
:1027A000304676E72DE9F04700F54056044696F8A6
:1027B0005257002D40F00381037C032B40F094809E
:1027C00028462B462F465FFA80FC944510DA01EB31
:1027D000CC0E51F83CC0BCF1000F04DBDEF804C0A5
:1027E000BCF1000F02DB01370130ECE70133FBE7FE
:1027F000302080F31188E06AF3B9D0F8803043F0DC
:102800000203C0F880304E23E06A002F6FD1D0F869
:10281000803043F00103C0F880306A4B6A4A1B687D
:1028200003F1805303F52C539B009342A36240F2C3
:10283000B080664800F0F4FE4D2B42D8DFF884816A
:102840004FEA034EDFF88891D8F800C04EEA8C0EAC
:10285000C0F884E00CF1805000F52C5080006061DD
:1028600003EB0C00D4F82CC0C3F14E03C8F80000F1
:10287000DCF8800040F03000CCF880004FF0000C15
:10288000D4F81480E6465FFA8CF08242BCDD01EB9E
:10289000C00A51F83000002810DBDAF804A0BAF1C1
:1028A000000F0BDA09EA00400AF07F0A40EA0A004A
:1028B00040F0084048F82E000EF1010E0CF1010C1A
:1028C000E1E7836923F00103836100F0AFFE064670
:1028D000E36A9B69D90704D500F0A8FE831BFA2B95
:1028E000F6D9002383F311882846BDE8F087B7EBBB
:1028F000530F3DD2DFF8CCE04FEA074CDEF8003052
:102900004CEA830CC0F888C003F1805003EB470306
:10291000002700F52C50CEF80030BC468000A061A6
:10292000E06AD0F8803043F00C03C0F88030D4F86F
:1029300018E0FBB29A427FF770AF51F8330001EB19
:10294000C3080028D8F8043001DB002B0EDB20F090
:10295000604023F0604340F0005043F000434EF8E5
:102960003C000EEBCC000CF1010C43600137E0E7BA
:10297000836923F00103836100F058FE0646E36A91
:102980009B69DA07ADD500F051FE831BFA2BF6D90F
:10299000A7E7E26A936923F00103936100F046FE22
:1029A0000746E36A9B69DB0705D500F03FFEC31BC2
:1029B000FA2BF6D995E7012586F8525791E70025BD
:1029C00092E700BFECD90020FCB5004094690008F4
:1029D0000000FF0713B500F500540191D4F8440C32
:1029E000FFF7CEFC57280BD958220199D4F8440C94
:1029F000FFF73CFDA0F158035842584102B010BD0A
:102A00000020FBE708B5302383F3118800F5005060
:102A1000D0F8440CFFF788FC002383F3118808BD2D
:102A20000021402210B504460160A0F84410043093
:102A3000FFF77CF8204610BD0022002310B5C0E946
:102A40000023002304460C3020F8043CFFF7E8FF85
:102A5000204610BD2DE9F0411F4696B004460D46B4
:102A60001646302383F3118804F500586846FFF7B3
:102A7000E3FFD8F8440CFFF769FC572824D9582203
:102A80006946D8F8440CFFF775FD58281CD104F5A9
:102A9000405393F85237BBB1462203A92846FFF7AB
:102AA00033F8DDE90023C6E90023BDF808303B8098
:102AB000002383F311883B4632462946204616B050
:102AC000BDE8F041FFF7CABB002080F3118816B0C3
:102AD000BDE8F08100232DE9F04D054600F53058A2
:102AE00004460F4608F13008C0E90133294B45F888
:102AF000303B2E4630465836FFF79EFF4645F9D10B
:102B000004F500534FF4305204F55E584FF0000ABC
:102B1000C3F8446C04F53256C3F8305C08F1280859
:102B20000025C3F8342C283601224FF0000BC3F8DF
:102B3000385CC3F83C5C83F8402C83F8482CA6F141
:102B40005000583646E92CABFFF76AFF46F8605C48
:102B50004645F4D104F54053012F83F85877A3F884
:102B60007257A3F87457A3F8765783F87857A3F8E9
:102B70007A57A3F87C57A3F87E5783F8805702D979
:102B8000054800F04DFD054B204653F82730E36221
:102B9000BDE8F08DE4690008B8690008D469000850
:102BA000044B10B5197804464A1C1A70FFF792FFBF
:102BB000204610BDE9D900202DE9F04300295AD064
:102BC0002E4E2F48B6FBF1F481428CBF0A20112013
:102BD000431EB4FBF0F700FB1740DDB220B1022B1F
:102BE0001846F5D8002032E07B1EB3F5806F2ED258
:102BF000C5EBC5084FF47A7308F103044FEAE40EFD
:102C0000C4F3C7040EF10109281B0EFB033E5FFA53
:102C100080FC59FA80F0BEFBF0F0B0F5617F18DC63
:102C200083B2601C5CFA80F07843B6FBF0F081421E
:102C3000D8D1611E0F29D5D80CF1FF310729D1D881
:102C40000120138057801071547182F806C0BDE8CE
:102C5000F08308F1FF34E010C4F3C70400F1010E63
:102C60002D1B00FB03335FFA85FC5EFA85F5B3FB91
:102C7000F5F39BB2D5E70846E9E700BF00B4C4040A
:102C80003F420F0030B50D4B05200D4D1C786C43B5
:102C90008C420ED159780120518099785171D978A0
:102CA0009171197911715B7903EB83035B001380D8
:102CB00030BD013803F10603E8D1F9E72C6A0008BA
:102CC00040420F0038B540F27772C36A154CC3F822
:102CD000BC200722C36AC3F8C8202268C16A9300D7
:102CE00043F4C023C1F8A03002F1805302F16C011B
:102CF000C56A03F52C53EA3289009B00226041F03B
:102D0000E061094AC361C5F8C01003F5D87103F545
:102D10006A7341629342836202D9044800F080FCE6
:102D200038BD00BFECD90020FCB500409469000814
:102D30002DE9F04F00F540551F4697B0044695F831
:102D4000583789469046022B04D90026304617B0E2
:102D5000BDE8F08FA44A52F8231009B942F82300C5
:102D6000A248C4F80C9001782774C9B9302383F3C2
:102D700011889F4BD3F8EC2042F48072C3F8EC200A
:102D8000D3F8942042F48072C3F89420D3F89420AE
:102D900022F48072C3F894200123037081F3118818
:102DA00095F851377BB9302383F31188914A95F810
:102DB0005837D35C0BB3012B28D0012385F851374A
:102DC000002383F31188302383F31188E26A936927
:102DD00023F01003936100F029FC8246E36A9E69A8
:102DE00016F0080619D000F021FCA0EB0A03FA2B1C
:102DF000F4D9002686F31188A8E70321132002F0F6
:102E000031F80321152002F02DF8D6E70321142014
:102E100002F028F803211620F5E79A6942F0010232
:102E20009A6100F003FC8246E36A9A69D00706D4EF
:102E300000F0FCFBA0EB0A03FA2BF5D9D9E79A695D
:102E40004FF0000A42F002029A61E36AC3F854A00C
:102E50008AF3118804F5315B04F500530BF1100B74
:102E6000D3F8440CFFF760FA582200216846FEF7B9
:102E70005DFE02A8FFF7D4FD0BEB06005836552285
:102E80006946CDF850A0FEF73FFEB6F5306FEBD1A6
:102E900004F55D524946204685F850A7323285F840
:102EA00053A7FFF789FE064690B9E26A936923F0BB
:102EB0000103936100F0BAFB0546E36A9B69D907F9
:102EC0007FF543AF00F0B2FB431BFA2BF5D93CE78B
:102ED00095F87637C5F88497591E95F87737E26AE2
:102EE000013B1B0243EA416395F8781701390B4314
:102EF000B5F87417013943EA0143D361B8F1000F03
:102F000036D004F55D52414620463A32FFF7BAFE0C
:102F100090B9E26A936923F00103936100F086FBA4
:102F20000546E36A9B69DA077FF50FAF00F07EFB89
:102F3000431BFA2BF5D908E795F87F27C5F8888752
:102F4000511E95F88027E36A013A120142EA0122F4
:102F500095F87E1701390A43B5F87C17013942EA22
:102F6000014242F40002DA604FF42062E36A9A649C
:102F7000E36A4FF000082046C3F8BC80FFF7A2FECA
:102F800085F870876FF04042E36A032F1A651A4A8A
:102F9000E36A5A654FF00222E36A9A654FF0FF3206
:102FA000E36AC3F8E0204FF00302E36ADA65E26AFD
:102FB000936943F4407393613FF4C8AEE26A936946
:102FC00023F00103936100F031FB0746E36A9B693C
:102FD000DB0705D500F02AFBC31BFA2BF6D9B4E6B4
:102FE000012385F85237B1E6E0D90020E8D9002066
:102FF00000440258CC690008550200022DE9F04750
:1030000000F5315796B00446904699461837002689
:103010004FF0580A00F54055E36AD3F8D830F34032
:10302000D80757D50AFB064303F5325393F82420FB
:10303000203311074ED4D5F89C270AFB06410132F4
:1030400001F53251C5F89C2704F55F5242E9028927
:103050001B799A0642BFD5F8CC370133C5F8CC3777
:1030600091F8243043F0080381F824303B68D5F808
:103070005C271340D5F86027934204BF04F55D53E5
:10308000C3E90A890AFB064303F5325320331B794F
:10309000DB0714D595F853378BB16846FFF7CCFCA6
:1030A0003946462203A8FEF72FFD01236946204634
:1030B000ADF808302368CDE900895B6C9847D5F8F6
:1030C000C037D5F854070133C5F8C03710B10368CD
:1030D0001B69984701365837202E9DD116B0BDE8A0
:1030E000F08700002DE9F0470F46A8B0044600F035
:1030F0009FFA81468846002F5AD1E36AD3F8A02070
:1031000012F4FE0F03D1002028B0BDE8F087D3F8F9
:10311000A420920141BF04F54051D1F8B0270132FB
:10312000C1F8B027D3F8A4205606ECD0D3F8A450A9
:10313000E669C5F30525482368464FF0000A03FBFE
:103140000566FFF76DFC326851004ABF22F060430C
:10315000C2F38A4343F00043920048BF43F08043E8
:103160000093736813F400131BBF012304F540524E
:103170008DF845308DF845301EBFD2F8D037013379
:10318000C2F8D037F38803F00F038DF844309DF870
:103190004400FFF7A3F85FFA8AF3984225D9F218A2
:1031A00028A90AF1010A127A0B4403F89C2CEEE7D5
:1031B000012FA8D1E36AD3F8B02012F4FE0FA2D0F9
:1031C000D3F8B420950141BF04F54051D1F8B027A0
:1031D0000132C1F8B027D3F8B420500693D0D3F809
:1031E000B450266AC5F30525A5E7EFB9E36AC3F82D
:1031F000A85012A8FFF720FC4622694615A8FEF742
:1032000083FC0023204612A9ADF85030236804F552
:1032100040545B6CCDE91298984758B1D4F8A83760
:103220000133C4F8A8376FE7012FE2D1E36AC3F88E
:10323000B850DEE7D4F8AC3701200133C4F8AC371E
:1032400062E700002DE9F04105460F4600F54054C5
:10325000012639462846FFF745FF10B184F8536729
:10326000F7E7D4F8C037D4F854070133C4F8C037AF
:1032700020B10368BDE8F0411B691847BDE8F08143
:10328000C36A2DE9F0411A6C12F47F0F2FD042F679
:10329000A0451B6C00F540540022582647194FF0FA
:1032A000010CC4F8C43706FB02F143182B4493F811
:1032B00004E01EF0020F17D01EF0040F14D179584D
:1032C000D0F82CE00CFA01F1DEF8CC8011EA080FFE
:1032D0000AD0CEF8D410197941F004011971D4F84C
:1032E000A4370133C4F8A4370132202ADBD1BDE86A
:1032F000F08100002B4B70B51E561B5C012B30D8A3
:10330000294D2A4A55F8233052F8264013B349B3C1
:10331000236D9A0510D54FF40073236500F088F9EA
:1033200050EA01020B4602D0013861F10003024667
:1033300055F82600FFF762FE236D9B012CD54FF058
:10334000007255F82630226503F54053012283F8B8
:10335000702721E001232365102323654FF4805358
:10336000236570BD236DDA0702D4236D5B0706D594
:103370000523002155F826002365FFF763FF236D21
:10338000D80602D4236D590606D55023012155F8DD
:1033900026002365FFF756FF55F82600BDE870406C
:1033A000FFF76EBFD0690008E0D90020D46900089B
:1033B00008B5302383F31188FFF762FF002383F3FE
:1033C000118808BDC36AD3F8C00010F07C5005D046
:1033D000D3F8C40080F40010C0F3405070470000E0
:1033E00008B5302383F3118800F50050D0F8440C61
:1033F000FEF7ACFF002383F3118857288CBF002011
:10340000012008BD00F5405393F8702762B1C16AEE
:103410008A6922F001028A61D3F8B4270132C3F825
:10342000B427002283F87027704700002DE9F34786
:10343000302181F3118800F5315100254FF0580EED
:1034400042F6A04810314FF0010900F5405C0EFB38
:1034500005044444267977071CD4F6061AD50E6D68
:1034600009FA06FAC66AD6F8CC701AEA070F11D024
:103470004F6801970F689742019F9F410AD2C6F893
:10348000D4A0267946F004062671DCF8A047013462
:10349000CCF8A04701355831202DD8D1002383F333
:1034A000118802B0BDE8F087F8B51E4600230F462C
:1034B000054613701446FFF793FF80F00100387043
:1034C0001EB12846FFF77EFF2070F8BD2DE9F04FB2
:1034D00085B099460D468046164691F800B0DDE964
:1034E0000EA302931378019300F0A2F82B78044600
:1034F0000F4613B93378002B41D022463B46404655
:10350000FFF794FFFFF754FFFFF77CFF4B4632466F
:103510002946FFF7C9FF2B7833B1BBF1000F03D069
:10352000012005B0BDE8F08F337813B1019B002B6B
:10353000F6D108F5405303935445029B77EB030300
:103540001DD2039BD3F85407C8B10368AAEB04014A
:103550001B6898474B46324629464046FFF7A4FF72
:103560002B7813B1BBF1000FDAD1337813B1019B83
:10357000002BD5D100F05CF804460F46DCE70020B4
:10358000CFE70000002108B50846FFF7B3FEBDE80D
:10359000084001F059B8000008B501210020FFF7EC
:1035A000A9FEBDE8084001F04FB8000008B50021B1
:1035B0000120FFF79FFEBDE8084001F045B800007C
:1035C000012108B50846FFF795FEBDE8084001F067
:1035D0003BB8000000B59BB0EFF309816822684654
:1035E000FEF792FAEFF30583014B9B6BFEE700BFFA
:1035F00000ED00E008B5FFF7EDFF000000B59BB05F
:10360000EFF3098168226846FEF77EFAEFF305833F
:10361000014B5B6BFEE700BF00ED00E0FEE7000042
:103620000FB408B5029801F0D1FEFEE702F0BCBA73
:1036300002F09EBA2DE9F041456A15B94162BDE834
:10364000F0814B68AC4623F06047C3F38A464FEAEB
:10365000D37EC3F3807816EA230638BF3E462B4656
:103660005A68BEEBD27F22F060440AD0002A18DAF2
:10367000A40CB44217D19D420FD10D60DEE7134672
:10368000EEE7A74207D102F08044C2F380724245C0
:103690000BD054B1EFE708D2EDE7CCF800100B6087
:1036A000CDE7B44201D0B442E5D81A689C46002A5E
:1036B000E5D11960C3E700002DE9F047089D01F04E
:1036C000070400EBD1004FF47F494FEAD5082244AC
:1036D00005F00705944201D1BDE8F08704F0070723
:1036E00005F0070A111B08EBD50E57453E4613F8A7
:1036F0000EC038BF5646C6F108068E4228BF0E4699
:10370000E108415C34443544B94029FA06F721FA0E
:103710000AF1FFB28CEA010147FA0AF739408CEA54
:10372000010C03F80EC0D5E780EA0120082341F21E
:10373000210201B2013B4000002980B2B8BF5040D5
:1037400013F0FF03F5D1704738B50C468D18A5422C
:1037500000D138BD14F8011BFFF7E6FFF7E70000C2
:1037600042684AB1136881894360438901339BB23F
:103770009942438138BF83811046704770B588B045
:10378000044620220D4668460021FEF7CFF9204668
:103790000495FFF7E5FF024660B16B46054608AEAB
:1037A0001C46083503CCB44245F8080C45F8041C07
:1037B0002346F5D1104608B070BD0000082817D97F
:1037C00009280CD00A280CD00B280CD00C280CD0BF
:1037D0000D280CD00E2814BF4020302070470C203C
:1037E0007047102070471420704718207047202021
:1037F00070470000082817D90C280CD910280CD9BC
:1038000014280CD918280CD920280CD930288CBFA2
:103810000F200E207047092070470A2070470B20A8
:1038200070470C2070470D20704700002DE9F843C9
:10383000048C0546072C43D990F822700FB13F2C19
:103840003ED900264FF6FF73D5E90298C6F1200055
:10385000A6F1200229FA06F1083608FA00F028FA43
:1038600002F2014318461143C9B2FFF75DFF402E33
:103870000346EBD12246E969FFF766FF3F2C03467A
:1038800014D99FB102343F220025B4FBF2F2C2EBFF
:103890008212A41A601CE44380B2FFF7ABFFFFF76B
:1038A0008DFF0444E4B2EAB2944202D81846BDE85F
:1038B000F88318460021FFF737FF01350346F2E78A
:1038C0004FF6FF73F2E7000010B54B6823B9CA8AC0
:1038D00063F30902CA8210BD04691A681C6003619F
:1038E000C38A013BC3824A60EFE700002DE9F84F2D
:1038F0001D46CB8A0F468146C3F3090192466529CE
:103900000B4630D00020AAB207F11A049EB21FFA6B
:1039100080F8642E0FD8904503F1010306D30A44C2
:10392000FB8A62F309030120FB821AE01AF80060A7
:103930000130E654EAE79045F1D2A1F1650B7C2312
:103940007C68BBFBF3F203FB12BB1FFA8BF6002C67
:1039500046D14846FFF704FF044638B978606FF057
:103960000200BDE8F88F4FF00008E6E70026066089
:103970007860ADB24FF0000B454510D90AEB080353
:10398000221D13F8011B08F101089155B1B21FFA6D
:1039900088F87B292CD0454506F10106F1D8FB8A31
:1039A000C3F30902154465F30903BCE701321C4661
:1039B00092B22368002BF9D1A5F165030B447C2159
:1039C000B3FBF1F301339BB29A42D2D2BBF1000FA9
:1039D000CFD14846FFF7C4FE20B9C4F800B0BEE717
:1039E0000122E6E7C0F800B05E4620600446C0E76A
:1039F0004545D4D94846FFF7B3FE08B92060AEE785
:103A0000C0F800B0002620600446B5E72DE9F04F6D
:103A10001C4685B05B698046CDE90212002B00F0A0
:103A2000A480238C1BB1E269002A00F09E8094F8E8
:103A3000222008F10C0B002A14BF402208229342D6
:103A4000019238D25846FFF78BFE054628B96FF031
:103A50000206304605B0BDE8F08F4C220021FEF78B
:103A600065F8228CE16905F10800FEF74DF8208C1D
:103A70000126013080B2FFF7BDFEFFF79FFE01383F
:103A800080B22084013085F8480040466369228C6A
:103A90001B782A4403F01F0363F03F031372029B59
:103AA00043F000416960294694F8223085F84A3095
:103AB000FFF7C0FDCDE700274FF08009BA463E462C
:103AC0005846FFF74DFE05460028C0D04C22002185
:103AD000FEF72CF8BAF1000F3BD1039B02202B819B
:103AE000019B03F1FF3C02460130218C624580B20C
:103AF00001DA8A452FD3FFF77DFE8A4508BF4FF0D4
:103B00004009FFF75BFE62690138029B12780136BB
:103B100015FA80F1013002F01F0236B242EA471274
:103B200087F0010749EA020943F0004281F8089052
:103B3000294685F8480040466A604FF0000994F82D
:103B4000222085F84A20FFF775FD228C5245B7D117
:103B50007FE70020C4E7E1692A440AF1010311F874
:103B60000A101FFA83FA1172BDE76FF0010670E7C1
:103B7000F8B515460E463022002104461F46FDF7D3
:103B8000D5FF069BB5F5000FA760636004F1100038
:103B9000079B34BFEA094FF6FF72E661A362002378
:103BA00097B29A4206D800230360A782E382238358
:103BB000E360F8BD0660013330468036F1E700006F
:103BC00003781BB94BB2002BC8BF017070470000CF
:103BD00000787047F8B50C46C969074611B9238CBF
:103BE000002B37D1257E1F2D34D8387828BB228C66
:103BF000072A2CD8268A36F003032BD14FF6FF7004
:103C0000FFF7A2FD20F0010031024FF6FF724004E1
:103C100041EA0561400C41EA4025234629463846E1
:103C2000FFF7F4FE002807DD626913780133DBB289
:103C30001F2B88BF00231370F8BD218A2D0645EA8B
:103C4000012505432046FFF7F1FD0246E5E76FF049
:103C50000300F1E76FF00100EEE7000070B58AB0F5
:103C6000044616460021282268461D46FDF75EFFE1
:103C7000BDF8383069462046ADF810300F9B0593EB
:103C80009DF840308DF81830119B0793BDF84830EF
:103C9000ADF820309DF84C30CDE902658DF822302A
:103CA000FFF798FF0AB070BD2DE9F041D3690546D2
:103CB0000C4616460BB9138C5BBB377E1F2F28D8DA
:103CC00095F80080B8F1000F26D03046FFF7AEFD22
:103CD000337821020246284641EAC331338A41EA59
:103CE000080141EA076141EA0341334641F080019E
:103CF000FFF78CFE00280ADD3378012B07D17269AB
:103D000013780133DBB21F2B88BF00231370BDE88B
:103D1000F0816FF00100FAE76FF00300F7E70000B1
:103D2000F0B58BB004460D461746002128226846A0
:103D30001E46FDF7FBFE9DF84C30294620465A1ED4
:103D4000534253416A468DF800309DF84030ADF83B
:103D50001030119B05939DF848308DF81830149B56
:103D60000793BDF85430ADF820309DF85830CDE9B8
:103D700002768DF82230FFF797FF0BB0F0BD000000
:103D8000406A00B104307047436A1A6842620269AF
:103D90001A600361C38A013BC38270472DE9F04179
:103DA000D0F8208014461D46184E4146002709B918
:103DB000BDE8F081D1E90223A21A65EB0303964224
:103DC00077EB03031ED2036A8B420DD1FFF77CFD14
:103DD000036A1B68036203690B60C38A0161013BCC
:103DE000016AC3828846E2E7FFF76EFD0B68C8F8F8
:103DF000003003690B60C38A0161013BC382D8F8BC
:103E00000010D4E788460968D1E700BF80841E000F
:103E10002DE9F04F8BB00D4614469B46DDF85090CF
:103E20008046002800F02181B9F1000F00F01D81CB
:103E3000531E3F2B00F21981012A03D1BBF1000F61
:103E400040F013810023CDE90833B8F81430B5EB06
:103E5000C30F4FEAC30603D300200BB0BDE8F08FB9
:103E60002B199E42D8F80C3036BF761B2646F6B288
:103E700023B9D8F81030002B00F08380B5F54A7FC5
:103E800052D2C5F54A7329469E424FF000032CBF1B
:103E9000C5F128073746009308AB28BFFFB2D8F812
:103EA0000800A6EB070A3D443A465FFA8AFAFFF794
:103EB00003FCB8F814304FF44A7103F10053653B2A
:103EC000DB000493D8F80C300393039B13B1BAF1D1
:103ED000000F2CD1D8F8100040B1BAF1000F05D076
:103EE00008AB5246691A0097FFF7E6FB30B2002E86
:103EF000B2D066070AD00AAB624203EBD40102F0EB
:103F0000070211F8083C134101F8083C082C3FD97E
:103F1000102C40F2B780202C40F2B980BBF1000F8A
:103F200000F09E80082337E0B2460027C1E7049BDB
:103F3000B3F5787F28BF4FF4787306930B44AB42F8
:103F4000059315D95A1B0398691A0097924508AB37
:103F500000F1040034BF5246D2B20792FFF7ACFB27
:103F6000079A1744AAEB020A1544FFB25FFA8AFACD
:103F7000049B069A05999B1A0493039B1B68039361
:103F8000A3E70093324608AB2946D8F80800ABE710
:103F9000BBF1000F13D00123B4EBC30F6BD0082C7F
:103FA00012D89DF82030621E23FA02F2D50706D5FA
:103FB0004FF0FF3202FA04F423438DF820309DF8CD
:103FC000203089F8003048E7102C12D8BDF8203096
:103FD000621E23FA02F2D10706D54FF0FF3202FA31
:103FE00004F42343ADF82030BDF82030A9F80030A8
:103FF00033E7202C0FD80899631E21FA03F3DA0760
:1040000005D54FF0FF3202FA04F40C430894089BE4
:10401000C9F8003021E7402C2AD0611EC4F12102EA
:10402000A4F12103DDE9086526FA01F105FA02F29F
:1040300025FA03F311431943CB0711D50122A4F14B
:104040002003C4F1200102FA03F322FA01F1A24095
:104050000B43524263EB430332432B43CDE9082326
:10406000DDE90823C9E90023F7E66FF00100F4E673
:104070006FF00800F1E6082CA1D9102CB4D9202C3F
:10408000EED8C4E7BBF1000FAED0022384E7BBF14A
:10409000000FBCD004237FE7012A30B5144638BF97
:1040A000012485B00025402C28BF4024012ACDE9F9
:1040B000025518D81B788DF8083063070AD004AB76
:1040C000624203EBD40502F0070215F8083C934066
:1040D00005F8083C034600912246002102A8FFF79C
:1040E000EBFA05B030BD082AE4D9102A03D81B88A2
:1040F000ADF80830E1E7202A95BF1B68D3E900231B
:104100000293CDE90223D8E710B5CB681BB98B60C9
:104110000B618B8210BD04691A681C600361C38A3D
:10412000013BC382CA60F0E703064CBFC0F3C03056
:104130000220704708B50246FFF7F6FF022806D1B5
:104140005306C2F30F2001D100F0030008BDC2F3F3
:104150000740FBE72DE9F04F93B004460D46CDE94B
:1041600003230A681046FFF7DFFF0228824614BFC8
:10417000C2F306260026002A80F21B8212F0C049F4
:1041800040F0178291F84410002900F012820228B2
:1041900003D02378B34240F00F82C2F30463104689
:1041A0002944069302F07F030593FFF7C3FF059BA5
:1041B000002283464FEA8348002348EA0A4848EA37
:1041C0004668CE78CDE90823F30948EA000802934F
:1041D0006AD0059B024608A92046009353466768AB
:1041E000B847002800F0EB81276A4FB9414604F137
:1041F0000C00FFF7C3FA074690B96FF0020057E0D2
:104200003B6998450DD03F68002FF9D1414604F134
:104210000C00FFF7B3FA07460028EED0236A3B6094
:10422000276297F817C006F01F08CCF3840CACEB9C
:104230000800A8EB0C031FFA80FE0028B8BF0EF19F
:1042400020001FFA83FEB8BF00B2002B0793B8BF4F
:104250000EF12003D7E90221BCBF1BB2079352EA3B
:1042600001033AD0039B4FF0000CDFF80CE39A1ADD
:10427000049B63EB010196457CEB01032DD395F87C
:10428000453097F81AE073451AD1029B002B00F0D5
:104290008580012821DC7868F8B9DFF8D8C2944518
:1042A00070EB010316D339E0276A27B96FF00C00D1
:1042B00013B0BDE8F08F3B699845B2D03F68F4E792
:1042C000AC4890427CEB010301D30020F0E7029B55
:1042D000002BFAD0079B0F2B18DCFA7DB300394670
:1042E000204602F0030203F07C031343FB75FFF743
:1042F000EBFA95F84530BB76029B3BB9FB7DC3F3E7
:104300008402013262F38603FB75CFE795F84520FE
:10431000BB7E9A42D9D1029B002B3FD0B309022B1E
:104320003CD0039B142200210DA8BB60049BFB60C2
:10433000FDF7FCFB039B95F846200A93049BADF820
:104340003EB00B932B1D8DF840A00C9395F8443094
:104350008DF84180013BDBB2ADF83C30069B8DF817
:104360004230059B8DF84330B2B994F82C3083F07D
:10437000010303F001030AA920468DF845208DF8BA
:104380004430A3689847FB7DC3F38403013303F0F3
:104390001F039B02FB8298E70023EAE7FB7DC6F33D
:1043A0004012B2EBD31F40F00D81C3F384034345A9
:1043B00040F00B81029AB60995F84430002A54D097
:1043C00016F0010664D1032B40F20281039B3946AB
:1043D00004F10C00BB60049BFB60FB8A66F30903DD
:1043E000AE1DFB82324695F84430033BDBB2FFF74B
:1043F0007DFA00280CDA39462046FFF765FAFB7D86
:10440000C3F38403013303F01F039B02FB82F4E632
:10441000AB88DDE908843B834FF6FF73C9F12000C8
:10442000A9F1200228FA09F109F1080904FA00F0BB
:1044300024FA02F2014318461143C9B2FFF774F996
:10444000B9F1400F0346E9D1B882314695F84420CE
:10445000033AD2B2FFF778F9FB7DB882DA43C2F3B0
:10446000C01262F3C713FB752FE78EB92E1D013BF7
:10447000394604F10C00DBB23246FFF737FA002868
:10448000B9DB95F844203146B88A013AD2B2E1E767
:10449000F98A013BC1F30901DAB2642964D8281D05
:1044A000002307F11B069A4208D910F801CB01330B
:1044B00006F801C00131DBB26529F4D103999342BA
:1044C0000A9138BF043304992CBF002355FA83F3B3
:1044D0000B9107F11B010C9179680E930D91FB8AEA
:1044E000ADF83EB0C3F309038DF840A08DF84180CC
:1044F0001A44069BADF83C208DF8423095F84620D2
:10450000059B8DF84330002A51D194F82C3083F06C
:10451000010303F001038DF84520291D8DF8443077
:104520000023B88A7B6095F84420013AFFF70CF924
:104530003B8BB882834203D1A3680AA920469847DF
:1045400020460AA9FFF7E0FDFB7DBA8AC3F3840386
:10455000013303F01F039B02FB823B8B9A420CBF8B
:1045600000206FF01000A3E67B68002BA6D065202A
:1045700006E000BF40420F0080841E007C303346BE
:104580001E68002EFAD1091A2E1D081D184401EBD1
:10459000090C5FFA89F3BCF17B0F8FD89A428DD951
:1045A00016F8013B09F1010900F8013BEFE7002390
:1045B000AFE76FF009007BE66FF00A0078E66FF076
:1045C0000B0075E66FF00D0072E66FF00E006FE6FF
:1045D0006FF00F006CE600BFEFF309830549683305
:1045E0004A6B22F001024A6383F30988002383F3B4
:1045F0001188704700EF00E0302080F3118862B628
:104600000D4B0E4AD96821F4E0610904090C0A43F4
:104610000B49DA60D3F8FC2042F08072C3F8FC202A
:10462000084AC2F8B01F116841F001011160202250
:10463000DA7783F82200704700ED00E00003FA0506
:1046400055CEACC5001000E0302310B583F31188BF
:104650000E4B5B6813F4006314D0F1EE103AEFF3E5
:1046600009844FF08073683CE361094BDB6B236680
:1046700084F3098800F070FE10B1064BA36110BDF1
:10468000054BFBE783F31188F9E700BF00ED00E07D
:1046900000EF00E03F0400084204000808B5074BA3
:1046A000074A196801F03D01996053680BB19068A1
:1046B0009847BDE80840FFF7C7BF00BF00000240B1
:1046C000F4D9002008B5084B1968890901F03D01AB
:1046D0008A019A60054AD3680BB110699847BDE812
:1046E0000840FFF7B1BF00BF00000240F4D900202E
:1046F00008B5084B1968090C01F03D010A049A60DD
:10470000054A53690BB190699847BDE80840FFF727
:104710009BBF00BF00000240F4D9002008B5084B41
:104720001968890D01F03D018A059A60054AD3692F
:104730000BB1106A9847BDE80840FFF785BF00BF7E
:1047400000000240F4D9002008B5074B074A596819
:1047500001F03D01D960536A0BB1906A9847BDE8FA
:104760000840FFF771BF00BF00000240F4D90020ED
:1047700008B5084B5968890901F03D018A01DA60E2
:10478000054AD36A0BB1106B9847BDE80840FFF7A4
:104790005BBF00BF00000240F4D9002008B5084B01
:1047A0005968090C01F03D010A04DA60054A536BAF
:1047B0000BB1906B9847BDE80840FFF745BF00BFBD
:1047C00000000240F4D9002008B5084B5968890D53
:1047D00001F03D018A05DA60054AD36B0BB1106C1C
:1047E0009847BDE80840FFF72FBF00BF0000024018
:1047F000F4D9002008B5074B074A196801F03D01BC
:104800009960536C0BB1906C9847BDE80840FFF776
:104810001BBF00BF00040240F4D9002008B5084BBC
:104820001968890901F03D018A019A60054AD36C33
:104830000BB1106D9847BDE80840FFF705BF00BFFA
:1048400000040240F4D9002008B5084B1968090C8F
:1048500001F03D010A049A60054A536D0BB1906D59
:104860009847BDE80840FFF7EFBE00BF00040240D4
:10487000F4D9002008B5084B1968890D01F03D01F5
:104880008A059A60054AD36D0BB1106E9847BDE852
:104890000840FFF7D9BE00BF00040240F4D9002051
:1048A00008B5074B074A596801F03D01D960536EBE
:1048B0000BB1906E9847BDE80840FFF7C5BE00BF3A
:1048C00000040240F4D9002008B5084B5968890952
:1048D00001F03D018A01DA60054AD36E0BB1106F19
:1048E0009847BDE80840FFF7AFBE00BF0004024094
:1048F000F4D9002008B5084B5968090C01F03D01B6
:104900000A04DA60054A536F0BB1906F9847BDE80F
:104910000840FFF799BE00BF00040240F4D9002010
:1049200008B5084B5968890D01F03D018A05DA6028
:10493000054AD36F13B1D2F880009847BDE808400C
:10494000FFF782BE00040240F4D9002000230C4986
:1049500010B51A460B4C0B6054F82300026001EBB3
:10496000430004334260402BF6D1074A4FF0FF3337
:104970009360D360C2F80834C2F80C3410BD00BF95
:10498000F4D900204C6A0008000002400F28F8B556
:1049900010D9102810D0112811D0122808D10F24B6
:1049A0000720DFF8B4E00126DEF80050A04208D965
:1049B000002649E00446F4E70F240020F1E707242D
:1049C000FBE706FA00F73D4240D1214C4FEA001CBC
:1049D0003D4304EB00160EEBC000CEF80050C0E9DA
:1049E0000123FBB24BB11B48836B43F0010383638C
:1049F000036E43F001030366036E17F47F4F09D083
:104A00001448836B43F002038363036E43F0020395
:104A10000366036E54F80C00036823F01F03036061
:104A2000056815F00105FBD104EB0C033D2493F858
:104A30000CC05F6804FA0CF43C60212405604461FA
:104A400012B1987B00F00EFA3046F8BD0130ADE7A8
:104A50004C6A000800450258F4D9002010B53024F3
:104A600084F31188FFF792FF002383F3118810BDB0
:104A700010B50446807B00F00BFA01231049627BDD
:104A800003FA02F20B6823EA0203DAB20B604AB9B6
:104A90000C4A916B21F001019163116E21F001012B
:104AA0001166126E13F47F4F09D1064B9A6B22F0F8
:104AB00002029A631A6E22F002021A661B6E10BD81
:104AC000F4D900200045025808B5302383F311883B
:104AD000FFF7CEFF002383F3118808BD0023054AAA
:104AE00019460133102BC2E9001102F10802F8D176
:104AF000704700BF78DA00202DE9F74F02F0030A73
:104B0000C2F3C313C2F38009C2F3C108C2F3411E4A
:104B1000574600224FF00F0B0193CB0733D502F01D
:104B20000703019C012556009B00BAF1020F05FA0C
:104B300002F504FA03FC44680BFA03F324EA0504C3
:104B40006FEA030344EA090444604FF003048568F4
:104B500004FA06F625EA06056FEA060445EA0805A2
:104B60008560C56825EA060545EA0E05C5601BD1C6
:104B7000072A13D8056A2B4043EA0C030362036833
:104B80001C403C430460490822D04FEA49090132E5
:104B90004FEA88084FEA8E0EBF00BEE7456A2B40F9
:104BA00043EA0C034362EAE70568072A04EA0504BE
:104BB00044EA0704046005D8046A234043EA0C036E
:104BC0000362E0E7446A234043EA0C034362DAE706
:104BD00003B0BDE8F08F0000026843681143016034
:104BE00003B1184770470000024A136843F0C0033E
:104BF0001360704700100140024A136843F0C0037D
:104C000013607047007C004037B51A4C1A4D20469F
:104C100000F0E8FA04F11400009400234FF400724D
:104C2000164900F0A5F94FF40072154904F1380057
:104C30000094144B00F01EFA134BC4E91735134CC3
:104C4000204600F0CFFA04F1140000234FF4007264
:104C50000F49009400F08CF90E4B4FF400720E498E
:104C600004F13800009400F005FA0C4BC4E9173544
:104C700003B030BDF8DA002000E1F505D0DB0020FC
:104C8000D0DF0020E94B00080010014064DB002069
:104C9000D0DD0020F94B0008D0E10020007C00406E
:104CA000037C30B5284C002918BF0C46012B0CD1D1
:104CB000264B984236D1264B1A6D42F010021A65E7
:104CC0009A6F42F010029A679B6F2268036EC16D63
:104CD00003EB52038466B3FBF2F36268150442BF30
:104CE00023F0070503F0070343EA4503CB60A368FD
:104CF00043F040034B60E36843F001038B6042F4F0
:104D0000967343F001030B604FF0FF330B625105C4
:104D100005D512F0102213D0B2F1805F12D080F8C6
:104D2000643030BD0B4B9842CFD1094B9A6C42F0A6
:104D300000429A641A6F42F000421A671B6FC4E780
:104D40007F23ECE73F23EAE74C6B0008F8DA00200A
:104D50000045025864DB00202DE9F047C66D05468A
:104D60003768F469210734621AD014F0080118BFBB
:104D70004FF48071E20748BF41F02001A3074FF0D4
:104D8000300348BF41F04001600748BF41F0800157
:104D900083F31188281DFFF71FFF002383F3118879
:104DA000E2050AD5302383F311884FF48061281D72
:104DB000FFF712FF002383F311884FF030094FF003
:104DC000000A14F0200838D13B0616D54FF0300900
:104DD00005F1380A200610D589F31188504600F0F5
:104DE0007DF9002836DA0821281DFFF7F5FE27F0A7
:104DF00080033360002383F31188790614D562069B
:104E000012D5302383F31188D5E913239A4208D1B0
:104E10002B6C33B127F040071021281DFFF7DCFE73
:104E20003760002383F31188E30618D5AA6E13694F
:104E3000ABB15069BDE8F047184789F31188736A30
:104E4000284695F86410194000F0E6F98AF31188B5
:104E5000F469B6E7B06288F31188F469BAE7BDE88F
:104E6000F0870000090100F16043012203F561436E
:104E7000C9B283F8001300F01F039A4043099B0056
:104E800003F1604303F56143C3F880211A60704762
:104E900000F01F0301229A40430900F160409B008B
:104EA00000F5614003F1604303F56143C3F88020DE
:104EB000C3F88021002380F800337047F8B5154609
:104EC000826804460B46AA4200D28568A169266919
:104ED000761AB5420BD218462A46FCF715FEA3698E
:104EE0002B44A3612846A3685B1BA360F8BD0CD9C3
:104EF000AF1B18463246FCF707FE3A46E1683044DD
:104F0000FCF702FEE3683B44EBE718462A46FCF751
:104F1000FBFDE368E5E7000083689342F7B50446CC
:104F2000154600D28568D4E90460361AB5420BD222
:104F30002A46FCF7E9FD63692B4463612846A368B0
:104F40005B1BA36003B0F0BD0DD93246AF1B0191CE
:104F5000FCF7DAFD01993A46E0683144FCF7D4FDEC
:104F6000E3683B44E9E72A46FCF7CEFDE368E4E763
:104F700010B50A440024C361029B8460C1600261D1
:104F80000362C0E90000C0E9051110BD08B5D0E911
:104F90000532934201D1826882B98268013282600F
:104FA0005A1C426119700021D0E904329A4224BF90
:104FB000C368436100F076FA002008BD4FF0FF306F
:104FC000FBE7000070B5302304460E4683F31188DA
:104FD000A568A5B1A368A269013BA360531CA361A6
:104FE00015782269934224BFE368A361E3690BB19A
:104FF00020469847002383F31188284607E031466E
:10500000204600F03FFA0028E2DA85F3118870BDEF
:105010002DE9F74F04460E4617469846D0F81C90E7
:105020004FF0300A8AF311884FF0000B154665B136
:105030002A4631462046FFF741FF034660B9414604
:10504000204600F01FFA0028F1D0002383F31188D6
:10505000781B03B0BDE8F08FB9F1000F03D00190C9
:105060002046C847019B8BF31188ED1A1E448AF332
:105070001188DCE7C160C361009B82600362C0E904
:1050800005111144C0E9000001617047F8B50446FC
:105090000D461646302383F31188A768A7B1A3688D
:1050A000013BA36063695A1C62611D70D4E904323C
:1050B0009A4224BFE3686361E3690BB120469847D5
:1050C000002080F3118807E03146204600F0DAF92D
:1050D0000028E2DA87F31188F8BD0000D0E9052343
:1050E00010B59A4201D182687AB9826800210132F2
:1050F00082605A1C82611C7803699A4224BFC3688B
:10510000836100F0CFF9204610BD4FF0FF30FBE780
:105110002DE9F74F04460E4617469846D0F81C90E6
:105120004FF0300A8AF311884FF0000B154665B135
:105130002A4631462046FFF7EFFE034660B9414656
:10514000204600F09FF90028F1D0002383F3118856
:10515000781B03B0BDE8F08FB9F1000F03D00190C8
:105160002046C847019B8BF31188ED1A1E448AF331
:105170001188DCE7026843681143016003B11847F6
:10518000704700001430FFF743BF00004FF0FF33BB
:105190001430FFF73DBF00003830FFF7B9BF000003
:1051A0004FF0FF333830FFF7B3BF00001430FFF784
:1051B00009BF00004FF0FF311430FFF703BF0000BC
:1051C0003830FFF763BF00004FF0FF323830FFF791
:1051D0005DBF0000012914BF6FF01300002070476D
:1051E000FFF712BD044B036000234360C0E90233A4
:1051F00001230374704700BF646B000810B53023AF
:10520000044683F31188FFF74BFD0223002023742B
:1052100080F3118810BD000038B5C36904460D46FF
:105220001BB904210844FFF7A5FF294604F1140027
:10523000FFF7ACFE002806DA201D4FF40061BDE840
:105240003840FFF797BF38BD0023826803750369B4
:105250001B6899689142FBD25A68036042601060F3
:105260005860704700238268037503691B6899685A
:105270009142FBD85A6803604260106058607047E2
:1052800008B50846302383F311880A7D0023052AD8
:1052900006D8DFE802F00B050503120E82691360E1
:1052A0004FF0FF338361FFF7CFFF002383F31188B3
:1052B00008BD8269936801339360D0E900321360BE
:1052C0005A60EDE7FFF7C0BF054BD968087518684D
:1052D000026853601A600122D8600275FBF79AB821
:1052E000D0E300200C4B30B5DD684B1C87B0044682
:1052F0000FD02B46094A684600F066F92046FFF7B2
:10530000E3FF009B13B1684600F068F9A86907B095
:1053100030BDFFF7D9FFF9E7D0E300208152000844
:1053200038B50C4D04468161EB6881689A689142FA
:1053300003D8BDE83840FFF787BF1846FFF792FF54
:1053400001230146EC6020462375BDE83840FBF799
:1053500061B800BFD0E30020044B1A68DB68906896
:105360009B68984294BF002001207047D0E3002042
:10537000084B10B51C68D868226853601A60012277
:10538000DC602275FFF76EFF01462046BDE8104045
:10539000FBF740B8D0E3002038B50123084C0025C6
:1053A0002370656000F084FD00F0AAFD0549064801
:1053B00000F07EFE0223237085F3118838BD00BF04
:1053C00038E60020906B0008D0E3002008B572B6E4
:1053D000044B186500F0BEFB00F080FC024B03227A
:1053E0001A70FEE7D0E3002038E6002000F02CB968
:1053F0008B600223086108468B8270478368A3F1A3
:10540000840243F8142C026943F8442C426943F89F
:10541000402C094A43F8242CC268A3F1200043F829
:10542000182C022203F80C2C002203F80B2C034A40
:1054300043F8102C704700BF2D040008D0E3002073
:1054400008B5FFF7DBFFBDE80840FFF73BBF0000F2
:10545000024BDB6898610F20FFF736BFD0E30020D6
:10546000302383F31188FFF7F3BF000008B501462E
:10547000302383F311880820FFF734FF002383F3E0
:10548000118808BD064BDB6839B1426818605A6064
:10549000136043600420FFF725BF4FF0FF307047D3
:1054A000D0E300200368984206D01A68026050607A
:1054B00018469961FFF706BF70470000036810B5F2
:1054C0009C68A2420CD85C688A600B604C602160CA
:1054D000596099688A1A9A604FF0FF33836010BD53
:1054E000121B1B68ECE700000A2938BF0A2170B5BF
:1054F00004460D460A26601900F0D4FC00F0BCFCFE
:10550000041BA54203D8751C04462E46F3E70A2E59
:1055100004D90120BDE8704000F00ABE70BD000053
:10552000F8B5144B0D460A2A4FF00A07D96103F16A
:105530001001826038BF0A22416019691446016077
:1055400048601861A81800F09DFC00F095FC431B12
:105550000646A34206D37C1C28192746354600F090
:10556000A1FCF2E70A2F04D90120BDE8F84000F0C1
:10557000DFBDF8BDD0E30020F8B506460D4600F0CB
:105580007BFC0F4A134653F8107F9F4206D12A46F0
:1055900001463046BDE8F840FFF7C2BFD169BB689D
:1055A000441A2C1928BF2C46A34202D92946FFF7DA
:1055B0009BFF224631460348BDE8F840FFF77EBF17
:1055C000D0E30020E0E30020C0E90323002310B46F
:1055D0005DF8044B4361FFF7CFBF000010B5194CD5
:1055E000236998420DD08168D0E9003213605A6077
:1055F0009A680A449A60002303604FF0FF33A36166
:1056000010BD0268234643F8102F53600022026049
:1056100022699A4203D1BDE8104000F03DBC936876
:1056200081680B44936000F027FC2269E16992686D
:10563000441AA242E4D91144BDE81040091AFFF708
:1056400053BF00BFD0E300202DE9F047DFF8BC8056
:1056500008F110072C4ED8F8105000F00DFCD8F8C7
:105660001C40AA68031B9A423ED814444FF000091C
:10567000D5E90032C8F81C4013605A60C5F80090A4
:10568000D8F81030B34201D100F006FC89F311883C
:10569000D5E9033128469847302383F311886B6995
:1056A000002BD8D000F0E8FB6A69A0EB0409824621
:1056B0004A450DD2022000F03BFD0022D8F8103000
:1056C000B34208D151462846BDE8F047FFF728BF4E
:1056D000121A2244F2E712EB09092946384638BF6C
:1056E0004A46FFF7EBFEB5E7D8F81030B34208D0D2
:1056F0001444C8F81C00211AA960BDE8F047FFF760
:10570000F3BEBDE8F08700BFE0E30020D0E3002057
:1057100038B500F0B1FB054AD2E90845031B18195A
:1057200045F10001C2E9080138BD00BFD0E3002007
:1057300000207047FEE70000704700004FF0FF3088
:1057400070470000BFF34F8F044B1A695107FCD11B
:10575000D3F810215207F8D1704700BF0020005243
:1057600008B50D4B1B78ABB9FFF7ECFF0B4BDA68B4
:10577000D10704D50A4A5A6002F188325A60D3F838
:105780000C21D20706D5064AC3F8042102F188325B
:10579000C3F8042108BD00BF40E6002000200052ED
:1057A0002301674508B5114B1B78F3B9104B1A69F3
:1057B000510703D5DA6842F04002DA60D3F81021CD
:1057C000520705D5D3F80C2142F04002C3F80C2152
:1057D000FFF7B8FF064BDA6842F00102DA60D3F84F
:1057E0000C2142F00102C3F80C2108BD40E6002064
:1057F000002000520F289ABF00F58060400400206E
:10580000704700004FF400307047000010207047D0
:105810000F2808B50BD8FFF7EDFF00F5003302683D
:10582000013204D104308342F9D1012008BD0020A7
:10583000FCE700000F2838B505463FD8FFF782FF88
:105840001F4CFFF78DFF4FF0FF3307286361C4F84B
:1058500014311DD82361FFF775FF030243F02403C1
:10586000E360E36843F08003E36023695A07FCD4F4
:105870002846FFF767FFFFF7BDFF4FF4003100F048
:1058800009FA2846FFF78EFFBDE83840FFF7C0BF92
:10589000C4F81031FFF756FFA0F108031B0243F0D4
:1058A0002403C4F80C31D4F80C3143F08003C4F85D
:1058B0000C31D4F810315B07FBD4D9E7002038BD98
:1058C000002000522DE9F84F05460C46104645EAE7
:1058D0000203DE0602D00020BDE8F88F20F01F0092
:1058E000DFF8BCB0DFF8BCA0FFF73AFF04EB00081C
:1058F000444503D10120FFF755FFEDE7202229465B
:10590000204600F0E3FF10B920352034F0E72B46A5
:1059100005F120021F68791CDDD104339A42F9D1C8
:1059200005F178431B481C4EB3F5801F1B4B38BF55
:10593000184603F1F80332BFD946D1461E46FFF799
:1059400001FF0760A5EB040C336804F11C0143F070
:1059500002033360231FD9F8007017F00507FAD14E
:1059600053F8042F8B424CF80320F4D1BFF34F8F30
:10597000FFF7E8FE4FF0FF33202221460360284660
:10598000336823F00203336000F0A0FF0028BBD08F
:105990003846B0E7142100520C2000521420005267
:1059A000102000521021005210B5084C237828B165
:1059B0001BB9FFF7D5FE0123237010BD002BFCD0CF
:1059C0002070BDE81040FFF7EDBE00BF40E60020AC
:1059D0002DE9F04F0D4685B0814658B111F00D0606
:1059E00014BF2022082211F00803019304D0431EA3
:1059F00003426AD0002435E0002E37D009F11F01A0
:105A000021F01F094FF00108324F05F00403DFF8C1
:105A1000D0A005EA080BBBF1000F32D07869C007AF
:105A20002FD408F101080C37B8F1060FF3D19EB955
:105A3000294D4946A819019200F084FA044600282D
:105A40003AD11836019A782EF3D1494600F07AFA05
:105A50000446002830D1019A4946204800F072FAE5
:105A6000044668BB204605B0BDE8F08F0029C9D1C7
:105A700001462846029200F065FA0446E0B9029A0F
:105A8000C0E713B178694107CBD5AC0702D5786977
:105A90008007C6D5019911B178690107C1D51820D1
:105AA000494600FB08A0CDE9022300F04BFA04466A
:105AB000DDE902230028B4D04A460021204601E057
:105AC0004A460021FCF732F8CCE70246002E95D179
:105AD00098E700BF9C6B000874E6002044E60020B5
