:020000040800F2
:1000000000070020F1020008C9330008813300080E
:10001000A933000881330008A1330008F302000867
:10002000F3020008F3020008F30200088543000809
:10003000F3020008F3020008F3020008F3020008CC
:10004000F3020008F3020008F3020008F3020008BC
:10005000F3020008F3020008115F00083D5F00088A
:10006000695F0008955F0008C15F00084944000807
:10007000714400089D440008C9440008F544000884
:100080001D45000849450008F3020008C531000875
:10009000ED310008D931000801320008ED5F000899
:1000A000F3020008F3020008F3020008F30200085C
:1000B000F3020008F3020008F3020008F30200084C
:1000C000F3020008F3020008F3020008F30200083C
:1000D000F3020008C5600008F3020008F3020008FC
:1000E00051600008F3020008F3020008F302000860
:1000F000F3020008F3020008F30200087545000847
:10010000F3020008F3020008ED600008F3020008A3
:10011000F3020008F3020008F3020008F3020008EB
:10012000A1450008C9450008F5450008214600081A
:100130004D460008F3020008F30200087932000877
:10014000F3020008F3020008F3020008F3020008BB
:1001500075460008A1460008CD460008F3020008D5
:10016000F3020008F3020008F3020008F30200089B
:10017000F3020008F3020008F3020008F30200088B
:10018000F3020008F3020008F3020008D960000837
:10019000F3020008F3020008F3020008F30200086B
:1001A000F3020008F3020008F3020008F30200085B
:1001B000F3020008F3020008F3020008F30200084B
:1001C000F3020008F3020008F3020008F30200083B
:1001D000F3020008F3020008F3020008F30200082B
:1001E000F3020008F3020008F3020008F30200081B
:1001F000F3020008F3020008F3020008F30200080B
:10020000F3020008F3020008F3020008F3020008FA
:10021000F3020008F3020008F3020008F3020008EA
:10022000F3020008F3020008F3020008F3020008DA
:10023000F3020008F3020008F3020008F3020008CA
:10024000F3020008F3020008F3020008F3020008BA
:10025000F3020008F3020008F3020008F3020008AA
:10026000F3020008F3020008F3020008F30200089A
:10027000F3020008F3020008F3020008F30200088A
:10028000F3020008F3020008F3020008F30200087A
:10029000F3020008F3020008F3020008F30200086A
:1002A000F3020008F3020008F3020008F30200085A
:1002B000F3020008F3020008F3020008F30200084A
:1002C000F3020008F3020008F3020008F30200083A
:1002D000F3020008F3020008F3020008F30200082A
:1002E0009113000800000000000000000000000062
:1002F00002E000F000F8FEE772B6374880F30888A5
:10030000364880F3098836483649086040F20000D4
:10031000CCF200004EF63471CEF200010860BFF35B
:100320004F8FBFF36F8F40F20000C0F2F0004EF627
:100330008851CEF200010860BFF34F8FBFF36F8F7B
:100340004FF00000E1EE100A4EF63C71CEF20001D3
:100350000860062080F31488BFF36F8F05F0ACF9B6
:1003600005F0AEFB4FF055301F491B4A91423CBF90
:1003700041F8040BFAE71D49184A91423CBF41F885
:10038000040BFAE71A491B4A1B4B9A423EBF51F82D
:10039000040B42F8040BF8E700201849184A914270
:1003A0003CBF41F8040BFAE705F0C4F905F00AFC7C
:1003B000144C154DAC4203DA54F8041B8847F9E796
:1003C00000F042F8114C124DAC4203DA54F8041B11
:1003D0008847F9E705F0ACB90007002000230020AA
:1003E0000000000808ED00E00001002000070020E8
:1003F000206B0008002300201C2300202023002065
:1004000054E60020E0020008E4020008E4020008CC
:10041000E40200082DE9F04F2DED108AC1F80CD050
:10042000D0F80CD0BDEC108ABDE8F08F002383F328
:1004300011882846A047002004F0C2FCFEE704F023
:10044000D7FB00DFFEE70000F8B50B25013D07D024
:10045000042000F01DFE42F2107004F0B7FCF5E736
:1004600000F0ACFF01F06AF805F0AAF8064605F0C6
:1004700019F90746A0BB274B9E4233D001339E4259
:1004800032D026F0FF02244B9A422FD12C4642F262
:100490001075F0B200F02EFD00F032FD08B100251D
:1004A0002C4601F0D3FA28BB3DBB37B11B4B9E4213
:1004B00003D0002505F0EEF82C46002005F08AF860
:1004C0000CB100F0BBF800F06DFD02F085FF0446B2
:1004D000BDB900F027FE4FF47A7004F077FCF7E71F
:1004E0000446D9E72C46D7E70124D5E72C4641F24C
:1004F0008835D1E700252C46D7E74FF47A750124DB
:10050000D3E702F069FF031BAB42E2D900F096F893
:10051000DBE700BF010007B0000008B0263A09B0D1
:10052000F8B51646044604200D4600F0B1FD2EB184
:100530004FF040533C4A1A6001221A7404F1200221
:100540002346196801316ED004339A42F9D16268AA
:10055000A24268D3354B9B6823449A4263D21DB1B3
:1005600005F06CF805F07EF8002000F04DFF022049
:100570002F4B187000F082FF2E4B00219A6C99646B
:100580001A6F19671A6FDA6CD9645A6F59675A6F04
:100590001A6D19659A6F99679B6F72B64FF0E023D9
:1005A000C3F8084DD4E90004BFF34F8FBFF36F8F3A
:1005B000214AC2F88410BFF34F8F536923F480336C
:1005C0005361BFF34F8FD2F8803043F6E076C3F328
:1005D000C905C3F34E335B0103EA060C29464CEA16
:1005E00081770139C2F87472F9D2203B13F1200FE0
:1005F000F2D1BFF34F8FBFF36F8FBFF34F8FBFF3B6
:100600006F8F536923F4003353610023C2F85032D3
:10061000BFF34F8FBFF36F8F302383F3118885466D
:1006200080F308882047F8BD9AAD44C50023002018
:10063000202300200045025800ED00E0012202487E
:100640001146FFF76DBF00BF00000408094A49F2D8
:100650006900136899B21B0C00FB013344F250612E
:100660001360054B186882B2000C01FB0200186091
:1006700080B270471823002014230020002110228C
:1006800010B5044600F00EFF034B03CB2060616001
:100690001868A06010BD00BF00E8F11F2DE9F0410F
:1006A000ADF54E7D0D46002140F275126CAC07464B
:1006B0000EA80D9100F0F6FE4FF4C4720021204602
:1006C00000F0F0FE0DF1340802F086FE4FF47A726D
:1006D000264BB0FBF2F0186093E80700022384E891
:1006E00007000DF5E9702382FFF7C8FF41F20433DC
:1006F0001F4908A8238406F029F813230DF2E322EA
:100700000DF1300C84F8323108AB1E46083203CEAE
:10071000664542F8080C42F8041C3346F5D131888E
:100720002046B378118041469370012200F062FFA9
:10073000002380B2E97E06930393AB7E029305F11A
:10074000190301930123009306A3D3E90023CDE904
:100750000480384603F0BAF90DF54E7DBDE8F0810E
:10076000AFF300809E6AC421818A46EE24230020D4
:100770005C6700082DE9F0412C4CDCB080460D464A
:10078000237A5BBB29A9284601F056F807460028C2
:1007900043D19DF8A560C82E3FD801464FF4A6620C
:1007A000204600F07FFE4FF4807332460DF1A60123
:1007B000C4F8F8314FF4007304F109002644C4F87A
:1007C0000C334FF44073C4F8203400F059FE9DF808
:1007D000A430777223720BB9EB7E237208AC8122AE
:1007E000002129A800F05EFE0122214629A801F07F
:1007F00069F8002380B2E97E06930393AB7E0293EF
:1008000005F1190301932823CDE9044000934046E4
:1008100004A3D3E9002303F059F95CB0BDE8F081EB
:10082000AFF3008026417272DF25D7B760D3002076
:10083000F0B5274E4FF48A75F3B0002405FB006530
:1008400096F8D830D822214685F8DC303CA885F8C7
:10085000E84008AF00F026FE06F1090000F01AFE9D
:10086000D5F8E430C2B206F109018DF8F8000DF1B7
:10087000F900CDE93C3400F003FE394601223CA8E2
:1008800001F056F8082380B2317A0694CDE904705D
:1008900001271048CDE9023706F1D8030193302330
:1008A000009309A3D3E9002303F010F9A04206DD69
:1008B00002F092FDC5F8E000384673B0F0BD204666
:1008C000FBE700BFAFF3008078F6339F93CACD8D6E
:1008D00060D300203C6300202DE9F04F294F95B0F4
:1008E000DFF8AC80284E384603F020F90546002892
:1008F00040D00024402203A821460294ADF84C4089
:1009000000F0D0FD95F84430A146A2468DF84C3059
:1009100003AB6868A96803C32B681C4D43F0004310
:1009200002932B6804F6FE54D3F810B002F056FD83
:1009300010EB0802CDF800A0284605F55F5541F1FF
:10094000000302A9D84741F6FC330028C8BF49F08C
:10095000010938359C42E4D1B9F1000F05D0384681
:1009600003F0E8F886F800A0BDE73378072B04D839
:100970000133337015B0BDE8F08F024803F0DAF8A8
:10098000F8E700BF3C6300209FD800207063002080
:1009900040420F0070B50D4614461E4602F0EEFFB1
:1009A00050B9022E10D1012C0ED112A3D3E900238D
:1009B0000120C5E9002307E0282C10D005D8012C20
:1009C00009D0052C0FD0002070BD302CFBD10BA31B
:1009D000D3E90023ECE70BA3D3E90023E8E70BA35B
:1009E000D3E90023E4E70BA3D3E90023E0E700BF4A
:1009F000AFF30080401DA12026812A0B78F6339F9B
:100A000093CACD8D9E6AC421818A46EE26417272B8
:100A1000DF25D7B7F017304A39059E5638B5054659
:100A20000E4C0021013500F011FDA4F82C55B4F84E
:100A30002C0500F0F3FC78B1B4F82C0500F0FEFCB6
:100A4000014648B9B4F82C0500F000FDB4F82C3587
:100A50000133A4F82C35EAE738BD00BF60D300208D
:100A600013B502F0B9FC1C490B68C31A642B1B4B6D
:100A700008D91B4A1C8892F900200860C2EB0212B8
:100A800022441A80B3F90020002A20DA00221A80BA
:100A900014490A68821AB2F57A7F04D9104C0860AA
:100AA000227852422270B3F900300322002093FBD7
:100AB000F2F30D4ADBB2127863F30700002A08BF95
:100AC000002363F30F2020F47F0002B010BD962AAC
:100AD000DEDD9622DBE700BF94D800209CD8002002
:100AE0001123002098D80020102300202DE9F7437F
:100AF000FFF7B6FF0825C0F307238DF80400002296
:100B0000C0F30740DFF8A8804FF480798DF80530F6
:100B10008DF80600A5F10806332E44D9A6F1340459
:100B20001923B4FBF3F103FB1143002B3DD0641AEE
:100B30001827B4FBF7F797420BD0FFF791FFC0F3EC
:100B400007238DF80400C0F307408DF805308DF8B9
:100B500006001822B4FBF2F302FB134302AA04F0CE
:100B6000070402EBD3033A46C4F1080413F8043C2B
:100B700043FA04F404F00104002C06F10106A8F87D
:100B80001A900CBF4FF000730023B54243EA44248F
:100B9000C8F81840A8F81890BED10835A02DB9D1D2
:100BA00003B0BDE8F0830024E6E70124E4E700BFDA
:100BB00000040258F8B50E4C02260E4FA4F530532F
:100BC00043F8387C237E3BB965692DB1284601F096
:100BD00025F8284605F078FD2046A4F55F5401F07D
:100BE0001DF8012EA4F1380400D1F8BD0126E5E777
:100BF000A0C70020D46700082DE9F04F8FB005464C
:100C00000C4600AF02F0BAFE002849D1237E022B29
:100C10001BD1E38A012B18D102F0DEFB0646FFF759
:100C200015FD03464FF4C87006F51676DFF8C0824E
:100C3000B3FBF0F202FB103316FA83F3C8F800306E
:100C4000E37E33B9A34B00221A703C37BD46BDE8A2
:100C5000F08F07F12401204600F0A2FD0028F4D116
:100C600007F11400FFF70AFD97F8264007F1140179
:100C700007F12700224605F037FD0028E2D10F2CAE
:100C800008D8944B1C70D8F80030A3F51673C8F838
:100C90000030DAE797F82410284602F067FED4E720
:100CA000E38A282B2BD010D8012B23D0052BCCD1B5
:100CB000BFF34F8F8849894BCA6802F4E06213433F
:100CC000CB60BFF34F8F00BFFDE7302BBDD1844E0B
:100CD000E17E327A9142B8D1607E3146002291F8AD
:100CE000DC50854200F0A580013201F58A71042AAA
:100CF000F5D1AAE721462846FFF7D0FCA5E7214613
:100D00002846FFF737FDA0E7B2F8EC507B6005F10D
:100D100003094FEA99094FEA8902D11DC908A8EBD6
:100D2000C10300219D46EB46584600F0BBFB04F191
:100D3000EE012A465846314400F0A2FB7B6813B905
:100D4000012000F061FB96F8D20000F067FB04463A
:100D500030B9307200F082FB204600F055FBB1E064
:100D6000D6F8D4203AB996F8D200B6F82C258242AB
:100D700001D8FFF753FED6F8D4202A44944208D273
:100D800096F8D200B6F82C250130824201D8FFF740
:100D900045FE5FFA89F25946706800F08BFB08B98E
:100DA000C54679E0726896F8D2002A447260D6F897
:100DB000D42005EB0209C6F8D49000F02FFB814542
:100DC00009D396F8D220D6F8D4000132001B86F859
:100DD000D220C6F8D400FF2D0FD80024347200F0C2
:100DE0003DFB204600F010FB00F030FE3D4B18812B
:100DF00008B9FFF723FCC54627E7BB6896F8D9007A
:100E00000AFB0362FB68D2F8E41082F8E83001F5CF
:100E10008061C2F8E030C2F8E410FFF709FDFFF787
:100E20005BFD96F8D920013202F0030286F8D92042
:100E3000B6E74FF48A7A20460AFB02F505F1EA018B
:100E4000314400F0A7FDF86000287FF4FEAE0122D7
:100E5000354485F8E82002F0BFFAD5F8E020D6ED59
:100E6000007A801A40F6B832B8EE677ADFED1E6A73
:100E7000192838BF1920904228BF104607EE900A63
:100E8000F8EEE77A67EEA67ADFED186AE7EE267AE3
:100E9000FCEEE77AC6ED007A96F8D930BB60BA6806
:100EA00073680AFB02F4321992F8E81059B1D2F8CB
:100EB000E410E8468B423FF427AF002182F8E810A7
:100EC000C2F8E010C5467368064A9B0A01331381D5
:100ED000BBE600BF3563002000ED00E00400FA052A
:100EE00060D3002024230020CDCCCC3D6666663F35
:100EF00038630020014B1870704700BF302300207A
:100F000038B5BFF34F8F214B4FF04054204AC3F800
:100F10007042C3F870222032C3F870222032C3F826
:100F200070222032C3F870222032C3F8702220329F
:100F3000C3F87022BFF34F8FBFF36F8F154B22683A
:100F40009A4221D1A27C0025134B14481A70C92261
:100F5000637C0930124900F8013C4FF48073C0F8FB
:100F6000DB50C0F8EF314FF40073C0F803334FF497
:100F70004073C0F8173400F083FADC22294620467B
:100F800000F090FA012038BD0020FCE700ED00E001
:100F9000200000309AAD44C53023002060D30020EB
:100FA00013000030F7B500F051FD2B4D02232B4C00
:100FB0002B4A2C4928816B7104232B4801F010FC2B
:100FC000D4F8F83704F5FF60254A1E680423254944
:100FD000A4F54054B04700266421204602F058F999
:100FE000074640B9FFF782FD312E02D93E46FFF792
:100FF00025FB0136F0E71D4A1D491B4801F086FA22
:1010000000231C4A1C4913704FF4804201931B4B70
:101010001B4800931B4B02F081FC1B4B197811B14C
:10102000174802F0A3FC02F0D7F90446FFF70EFBC5
:101030004FF4C873B0FBF3F202FB130304F5167010
:1010400010FA83F0114B186004F02CFB08B10F2349
:101050002B8103B0F0BD00BF24230020709300203B
:1010600000127A0040420F007063002000FF0F0062
:10107000005501801023002034230020950900082A
:101080003C630020F90B0008302300203863002067
:101090002DE9F041192501224FF400714FF48076BB
:1010A00045431F4803F0FEFB4FF4807105F1320405
:1010B00039351B48012204F0070403F0F3FB25F047
:1010C00007056520C4F13A041549E4B2013824D07B
:1010D00000231927AB42F9D0B04603F1080E9C4219
:1010E00005D94FF0000C4E834FF000720CE01A1B34
:1010F0004E83B2FBF7FC07FB1C22002A0CBF4FF00B
:10110000010C4FF0000CEFD1013342EA4C22734541
:101110008A61A1F81880E2D1DCE7BDE8F08100BF68
:10112000000402582DE9F04F00252DED028B0FF23F
:10113000582BDBE900ABAFB0DFF82C92FFF7CCFB0C
:10114000402200210BA80A95ADF86C5000F0AAF9D6
:101150009FED808B0026834C37464FF001030DF145
:101160001D0207A920468DF81C3023688DF81D50FC
:101170008DED008BD3F808800023C0479DF81C80BC
:10118000B8F1000F24D0482200211CA800F08AF9F1
:10119000236808AA0AA95F6920460DF11E03B84713
:1011A0009DF86C0000F01EFD0BA902468DF8B400FE
:1011B0001DA8474600F064F90A9B1CA948461C93E9
:1011C0009DF86D308DF8B630DDE9082302F098FE09
:1011D00006F6FE5641F6FC3304F55F549E4204F1D8
:1011E0003804BAD1002FB5D15F4802F0C7FB002800
:1011F0003FD15E4E02F0F0F83368984239D302F0E6
:10120000EBF80446FFF722FA4FF4C8738DF8287004
:10121000B0FBF3F202FB130304F5167010FA83F02F
:101220003060534E377817B901238DF82830C7F155
:1012300010041CA8FFF722FA1CABE4B20DF1290040
:10124000D919062C28BF06242246013400F018F9CB
:101250000AABE4B252460393182343480293454B2A
:10126000059501930123049400935B4602F0CCFBA7
:10127000357002F0B1F8404A404C1368C31AB3F518
:101280007A7F30D3106002F0A9F802460B46364848
:1012900002F05AFC344802F071FB20B3237A1CAFF1
:1012A000374E002B14BF03230223737102F094F80E
:1012B0004FF47A7301223946B0FBF3F030603046C8
:1012C00000F046FA182380B2059502932D4B019346
:1012D00040F25513CDE90370009323481FA3D3E9CF
:1012E000002302F091FBFFF701FC237A93B102F097
:1012F00073F8002607464FF48A7894F8D9003044F2
:1013000000F0030008FB004393F8E82072B10136B7
:10131000042EF2D1C82003F059FD237A002B7FF46C
:101320000BAF2FB0BDEC028BBDE8F08FD3F8E020FF
:1013300042B12368BA1AFA2B38BFFA230533B2EB4D
:10134000430FE4D3FFF774FA0028E0D1E2E700BFCF
:10135000AFF300800000000000000000F1C6A7C14C
:10136000D068080F706300203C63002038630020C1
:10137000356300203463002090D8002060D3002023
:10138000242300209ED80020401DA12026812A0B66
:1013900008B5064801F08EF8054801F08BF8054ABB
:1013A00005490020BDE8084005F088B970630020B9
:1013B000689B0020E0D80020B50B000870B5104CE9
:1013C0000025104E03F0D2FE20803068238883422F
:1013D0000CD800252088013803F0C4FE238805447A
:1013E000013BB5F5802F2380F4D370BD03F0BAFE26
:1013F000336805440133B5F5802F3360E5D3E8E762
:10140000CCD80020A0D8002003F07EBF00F10060FF
:10141000920000F5802003F005BF0000054B1A681C
:10142000054B1B889B1A834202D9104403F09ABED5
:1014300000207047A0D80020CCD80020024B1B68A9
:10144000184403F095BE00BFA0D80020024B1B68D3
:10145000184403F09FBE00BFA0D80020064991F8B1
:10146000243033B100230822086A81F82430FFF7C2
:10147000CDBF0120704700BFA4D8002070470000F6
:10148000002310B5934203D0CC5CC4540133F9E778
:1014900010BD000003460246D01A12F9011B0029B4
:1014A000FAD1704702440346934202D003F8011B6D
:1014B000FAE770472DE9F8431F4D14460746884662
:1014C00095F8242052BBDFF870909CB395F8243037
:1014D0002BB92022FF2148462F62FFF7E3FF95F842
:1014E00024004146C0F1080205EB8000A24228BF5B
:1014F0002246D6B29200FFF7C3FF95F82430A41B12
:1015000017441E449044E4B2F6B2082E85F82460D5
:10151000DBD1FFF7A3FF0028D7D108E02B6A03EB4C
:1015200082038342CFD0FFF799FF0028CBD1002060
:10153000BDE8F8830120FBE7A4D80020F8B571B618
:10154000002301201A46194603F05EF904462020C4
:1015500003F076FF002845D00025234A04274FF4E6
:10156000D06C3D26136923BBD2F810310BBB236826
:1015700005F1006199602368D86023685F60236883
:10158000C3F800C021680B6843F001030B602168B9
:101590000B6823F01E030B6021680B68DB07FCD48B
:1015A000237B0435616806FA03F3B5F5001F0B6071
:1015B000D8D1204603F05EF9B5F5001F11D0002404
:1015C0000A4E0B4D012003F09FFE3388A34205D93C
:1015D00028682044013403F0DDFDF6E7002003F025
:1015E00093FE61B6F8BD00BF00200052CCD80020A9
:1015F000A0D800202DE9F8430D460446002190466E
:10160000284640F27912FFF74DFF234620220021A1
:10161000284604F1220702F015FC231D0222202196
:101620002846C02602F00EFC631D03222221284614
:1016300002F008FCA31D03222521284602F002FC2B
:1016400004F1080310222821284602F0FBFB04F1D4
:10165000100308223821284602F0F4FB04F111039C
:1016600008224021284602F0EDFB04F11203082273
:101670004821284602F0E6FB04F114032022502101
:10168000284602F0DFFB04F11803402270212846AF
:1016900002F0D8FB04F120030822B021284602F012
:1016A000D1FB04F121030822B821284602F0CAFB2D
:1016B000314608363B4608222846013702F0C2FB75
:1016C000B6F5A07FF4D1314604F132030822284652
:1016D00002F0B8FB002794F8326004F13309F900F6
:1016E000BE4201F5A4711FD8F70007F5A476B8F142
:1016F000000F08D1314607F24F1604F599730722FF
:10170000284602F09FFB94F83201B046502828BFCB
:101710005020074604EB0009A1450DD106EBC70098
:101720000730C008BDE8F88309EB07030822284604
:10173000013702F087FBD2E704F233134146082257
:10174000284608F10808013402F07CFBE4E70000B9
:1017500013B504460846002120222346019001606B
:10176000C0F8031002F06EFB231D01980222202115
:1017700002F068FB631D01980322222102F062FB44
:10178000A31D01980322252102F05CFB019804F1BE
:1017900008031022282102F055FB072002B010BDDB
:1017A000F7B5047F05460E462CB1838A122B02D969
:1017B000012003B0F0BD00230722284600961946F9
:1017C00002F0FCF9731C0122072100932846002334
:1017D00002F0F4F9D4B9B31C05220821284600937D
:1017E00023460D2402F0EAF9B378102BE0D83746EF
:1017F000BB1BB278934210D307342B7FA88AE4082E
:10180000B3B9844294BF00200120D2E7AB8A0824F8
:10181000DB00083BDB08B370E6E7FB1C214608222F
:101820002846009300230834013702F0C7F9DFE7A8
:10183000201A18BF0120BCE7F7B5047F05460E4605
:101840002CB1838ACA2B02D9012003B0F0BD00233A
:10185000082228460096194602F0B0F9731CD4B944
:1018600008220093234610241146284602F0A6F9C8
:101870007378C82BE8D801235F1C7278013B934230
:1018800010D307342B7FA88AE408B3B9844294BFED
:1018900000200120D9E7AB8A0824DB00083BDB08E5
:1018A0007370E5E7F31921460822284600930023C8
:1018B00002F084F908343B46DEE7201A18BF012005
:1018C000C3E700002DE9F8430D4604461646002103
:1018D00081222846FFF7E6FD2346082200212846FC
:1018E00002F0B0FAC6B90F26631C07220821284669
:1018F00002F0A8FA94F90130B0466778002BB8BF1F
:101900007F2704EB07094C4508D10736082010FB58
:101910000760C008BDE8F8830826EBE7A31C414632
:101920000822284608F10808013402F08BFAEAE799
:101930002DE9F0410D46044616460021CE222846E8
:10194000FFF7B0FD234628220021284602F07AFA4C
:10195000BEB9302604F1080308222821284602F0E7
:1019600071FA14F8080F0027C82828BFC82080463D
:10197000B84506EBC70106D806EBC800C008BDE8AD
:10198000F0812826EDE7013708222846E31902F006
:1019900059FAEDE7F7B5047F05460E4634B1838A60
:1019A000B3F5827F02D9012003B0F0BD01231022DC
:1019B00000212846009602F001F9DCB9B31C092287
:1019C0001021284600932346192402F0F7F8738863
:1019D000B3F5807FE7D83746BB1B7288934210D39C
:1019E00007342B7FA88AE408B3B9844294BF00204F
:1019F0000120D9E7AB8A1024DB00103BDB087380A1
:101A0000E5E73B1D214608222846009300230834C1
:101A1000013702F0D3F8DFE7201A18BF0120C3E72F
:101A200030B50A44084D91420DD011F8013B5840A1
:101A3000082340F30004013B2C4013F0FF0384EA29
:101A40005000F6D1EFE730BD2083B8EDF7B5384A46
:101A50006B46106851686A4603C308233549364807
:101A600004F052FE0446002833D10A25334A6B465F
:101A7000106851686A4603C3082331492E4804F0B0
:101A800043FE0446002849D00369B3F5E01F45D85A
:101A9000B0F8661040F2134291423FD1294A024405
:101AA00002F15C018B4239D35C3B234900209E1A32
:101AB000FFF7B6FF04F16401074632460020FFF746
:101AC000AFFFA3689F4229D1E368984208BF002571
:101AD00024E00369B3F5E01F27D8418B40F213429D
:101AE000914220D1174A024402F110018B4218D3CF
:101AF000103B114900209D1AFFF792FF04F11801D5
:101B000006462A460020FFF78BFFA3689E4202D1BB
:101B1000E368984201D00D25A8E70025284603B0C8
:101B2000F0BD1025A2E70C25A0E70B259EE700BF1E
:101B300070670008DCFF1B000000040879670008DC
:101B400090FF1B000800FCF77047000013B56C46BF
:101B5000031D84E8060094E8030083E805000120E3
:101B600002B010BD73B58568019155B11B885B0744
:101B700007D4D0E900361B6C9847019AC1B23046B1
:101B8000A847012002B070BD70B598B085680446C2
:101B900001915DB1BDF870305B070AD4D0E9003621
:101BA0001B6C9847019AC1B23046A847012018B073
:101BB00070BD0022002305A8CDE9022300234622A0
:101BC000ADF81030FFF75CFC01F008FC0423ADF821
:101BD00010302368CDE902015B6C02A920469847CA
:101BE000E4E70000082817D909280CD00A280CD0EF
:101BF0000B280CD00C280CD00D280CD00E2814BFAC
:101C00004020302070470C2070471020704714206F
:101C100070471820704720207047000010B5037CE3
:101C2000044613B9006803F03FFC204610BD0000D5
:101C30000023BFF35B8FC360BFF35B8FBFF35B8F8A
:101C40008360BFF35B8F7047BFF35B8F0068BFF3A8
:101C50005B8F704770B505460C30FFF7F5FF044603
:101C600005F108063046FFF7EFFFA04206D96D6880
:101C70003046FFF7E9FF2544281A70BD3046FFF7CC
:101C8000E3FF201AF9E7000070B505464068A0B1EF
:101C900005F10C0605F10800FFF7D6FF04463046B3
:101CA000FFF7D2FF844204F1FF34304694BF6D68E1
:101CB0000025FFF7C9FF2C44201A70BD38B50C462B
:101CC0000546FFF7C7FFA04210D305F10800FFF754
:101CD000BBFF04446868BFF35B8FB4FBF0F100FB0B
:101CE00011440120AC60BFF35B8F38BD0020FCE7DE
:101CF0002DE9F041144607460D46FFF7C5FF844223
:101D000028BF0446D4B1B84658F80C6B4046FFF7DC
:101D10009BFF3044286040467E68FFF795FF331AEA
:101D20009C4203D801206C60BDE8F081A41B6B606D
:101D30003B682044AB60E8600220F5E72046F3E70B
:101D400038B50C460546FFF79FFFA04210D305F1BA
:101D50000C00FFF779FF04446868BFF35B8FB4FBA6
:101D6000F0F100FB11440120EC60BFF35B8F38BD44
:101D70000020FCE72DE9FF418846694607466C468E
:101D8000FFF7B6FF002506B204EBC606B4420AD040
:101D9000626808EB050120680834FFF771FB54F80E
:101DA000043C1D44F2E729463846FFF7C9FF2846A0
:101DB00004B0BDE8F0810000F8B505460C300F46D0
:101DC000FFF742FF05F1080604463046FFF73CFFE7
:101DD000A042304688BF6C68FFF736FF201A386093
:101DE00020B12C683046FFF72FFF2044F8BD0000DB
:101DF00073B5144606460D46FFF72CFF844201904A
:101E000028BF0446DCB101A93046FFF7D5FF019B8E
:101E100033B93268C5E90233C5E9002401200CE07A
:101E20009C42286038BF0194019884426860F5D9CB
:101E30003368241A0220AB60EC6002B070BD20460B
:101E4000FBE700002DE9FF410F4669466C46FFF7AE
:101E5000CFFF00B2002604EBC005AC4209D0D4F895
:101E60000480B81954F8081B42464644FFF708FBA3
:101E7000F3E7304604B0BDE8F081000038B5054610
:101E8000FFF7E0FF044601462846FFF717FF20460C
:101E900038BD000010B41346026814680022A4463E
:101EA0005DF8044B6047000000F5405090F878075B
:101EB0007047000000F5405090F85A077047000046
:101EC00000F54050C0F86417C0F86827704700005C
:101ED00000F55D503030D0E90001704700F540500A
:101EE00090F96007704700004E207047302383F35D
:101EF000118800F54052D2F8D437D2F8D0071844F0
:101F0000D2F8CC371844D2F8B4371844D2F8C437D2
:101F10001844D2F8C0371844002383F3118870475F
:101F200000F54050C0F85C17012070472DE9F74FCD
:101F30000C4600F540519846054691F85A379146AF
:101F4000BDF830A0ABB1D1F8B0370133C1F8B0372C
:101F500023689A0008D494F84430082B0CD994F8DC
:101F600045200AB10F2B07D9D1F8B4370133C1F896
:101F7000B4374FF0FF3010E0302383F311882B6B20
:101F8000D3F8C46016F400160AD0D1F8B837002090
:101F90000133C1F8B83780F3118803B0BDE8F08F82
:101FA00022684FF0480BD3F8C470002AAB6AC7F31D
:101FB0000447B4BF42F0804292041BFB073BCBF8BE
:101FC000002023685B004FEA076344BF42F00052E1
:101FD000CBF8002094F8442043EA0243CBF80430C5
:101FE00094F8452022B343F44013CBF80430D1F8E1
:101FF000E8370133C1F8E837582303FB075303F5EB
:10200000325393F82C2042F0200283F82C2094F8CD
:102010004400FFF7E7FD03308010F3B2013683423E
:1020200012DA04EB83020BEB830352689A60F4E745
:10203000582303FB075303F5325393F82C1062F334
:10204000451183F82C10E2E7012658202B6B21461E
:1020500000FB075B06FA07F20BF53150C3F8D020FE
:102060000BF5315346222030C3E90698FFF708FAF2
:1020700042F6A8434BF803700BF5005B0AF003032C
:102080009BF8AC2C43F0100322F01F0213438BF893
:10209000AC3C002383F311884A4643462146284638
:1020A000CDF800A0FFF770FD304676E72DE9F04748
:1020B00000F54056044696F85A57002D40F003812B
:1020C000037C032B40F0948028462B462F465FFA72
:1020D00080FC944510DA01EBCC0E51F83CC0BCF109
:1020E000000F04DBDEF804C0BCF1000F02DB013797
:1020F0000130ECE70133FBE7302080F31188206BDF
:10210000F3B9D0F8803043F00203C0F880304E239A
:10211000206B002F6FD1D0F8803043F00103C0F85E
:1021200080306A4B6A4A1B6803F1805303F52C53D5
:102130009B009342E36240F2B080664801F046F9AA
:102140004D2B42D8DFF884814FEA034EDFF88891A7
:10215000D8F800C04EEA8C0EC0F884E00CF1805034
:1021600000F52C508000606103EB0C00D4F830C007
:10217000C3F14E03C8F80000DCF8800040F03000E6
:10218000CCF880004FF0000CD4F81480E6465FFADB
:102190008CF08242BCDD01EBC00A51F8300000280F
:1021A00010DBDAF804A0BAF1000F0BDA09EA0040FC
:1021B0000AF07F0A40EA0A0040F0084048F82E0082
:1021C0000EF1010E0CF1010CE1E7836923F001032C
:1021D000836101F001F90646236B9B69D90704D599
:1021E00001F0FAF8831BFA2BF6D9002383F3118848
:1021F0002846BDE8F087B7EB530F3DD2DFF8CCE0BF
:102200004FEA074CDEF800304CEA830CC0F888C077
:1022100003F1805003EB4703002700F52C50CEF864
:102220000030BC468000A061206BD0F8803043F0C5
:102230000C03C0F88030D4F818E0FBB29A427FF764
:1022400070AF51F8330001EBC3080028D8F8043010
:1022500001DB002B0EDB20F0604023F0604340F0F8
:10226000005043F000434EF83C000EEBCC000CF164
:10227000010C43600137E0E7836923F001038361C8
:1022800001F0AAF80646236B9B69DA07ADD501F089
:10229000A3F8831BFA2BF6D9A7E7226B936923F0E7
:1022A0000103936101F098F80746236B9B69DB07F4
:1022B00005D501F091F8C31BFA2BF6D995E7012556
:1022C00086F85A5791E7002592E700BFDCD8002036
:1022D000FCB50040846700080000FF0713B500F557
:1022E00000540191D4F84C0CFFF7CEFC57280BD9C1
:1022F00058220199D4F84C0CFFF73CFDA0F158038B
:102300005842584102B010BD0020FBE708B5302309
:1023100083F3118800F50050D0F84C0CFFF788FCCF
:10232000002383F3118808BD0021402210B5044624
:102330000160A0F844100430FFF7B4F8204610BD47
:102340000022002310B5C0E90023002304460C300E
:1023500020F8043CFFF7E8FF204610BD2DE9F041CE
:102360001F4696B004460D461646302383F3118867
:1023700004F500586846FFF7E3FFD8F84C0CFFF768
:1023800069FC572824D958226946D8F84C0CFFF725
:1023900075FD58281CD104F5405393F85A37BBB14A
:1023A000462203A92846FFF76BF8DDE90023C6E9BA
:1023B0000023BDF808303B80002383F311883B469F
:1023C00032462946204616B0BDE8F041FFF7CABBA9
:1023D000002080F3118816B0BDE8F08100232DE9BC
:1023E000F04D054600F5305804460F4608F1380810
:1023F000C0E901332C4B45F8383B2E463046583661
:10240000FFF79EFF4645F9D104F500534FF43052D3
:1024100004F55E584FF0000AC3F84C6C04F53256D0
:10242000C3F8385C08F130080025C3F83C2C30367E
:1024300001224FF0000BC3F8405CC3F8445C83F802
:10244000482C83F8502CA6F15000583646E92CABA6
:10245000FFF76AFF46F8605C4645F4D104F5405347
:1024600004F55E500021183083F86077A3F87A579E
:10247000A3F87C57A3F87E5783F88057A3F88257B8
:10248000A3F88457A3F8865783F8885700F06CFFA9
:10249000012F02D9054800F099FF054B204653F85B
:1024A00027302363BDE8F08DD4670008A8670008D3
:1024B000C4670008044B10B5197804464A1C1A700A
:1024C000FFF78CFF204610BDD9D8002038B500F5A5
:1024D000405595F89537B3B90B4C41F080013F203A
:1024E000636823F040036360636823F47F4323F051
:1024F0009F030B430A2163600223636102F042FAE7
:10250000012385F8953738BD00A80040F8B500F5DF
:1025100040531546434A044693F860370E46D35C51
:10252000002B7DD1302383F31188026B936943F034
:102530000103936100F050FF0746236B9A69D207AD
:1025400009D400F049FFC31BFA2BF6D90020002361
:1025500083F31188F8BD9A69002E40F2FF7142F0B2
:102560000202B8BF6FF060419A6101EA06012FDAFA
:10257000A3697BB92C48266B03689A0042F4803229
:10258000C6F8882003F18052023302F52C52036012
:102590009200A261A36941F060414FF4807225F07E
:1025A000604519605A60236BC3F89050226B9369A1
:1025B00023F00103936100F00FFF0546236B9B6935
:1025C000DB072BD500F008FF431BFA2BF6D9BDE73C
:1025D00063697BB91448256B03689A0042F4803222
:1025E000C5F8842003F18052013302F52C520360B8
:1025F000920062610D4B626943EA01411160226BF6
:10260000D2F8803023F03003C2F88030226BD2F849
:10261000803043F01003C2F88030C7E7012096E70E
:10262000002097E7BC670008DCD8002000010038D4
:102630002DE9F04300295AD02E4E2F48B6FBF1F475
:1026400081428CBF0A201120431EB4FBF0F700FB2F
:102650001740DDB220B1022B1846F5D8002032E039
:102660007B1EB3F5806F2ED2C5EBC5084FF47A738D
:1026700008F103044FEAE40EC4F3C7040EF10109A4
:10268000281B0EFB033E5FFA80FC59FA80F0BEFB6C
:10269000F0F0B0F5617F18DC83B2601C5CFA80F06A
:1026A0007843B6FBF0F08142D8D1611E0F29D5D80E
:1026B0000CF1FF310729D1D8012013805780107108
:1026C000547182F806C0BDE8F08308F1FF34E010D1
:1026D000C4F3C70400F1010E2D1B00FB03335FFAA6
:1026E00085FC5EFA85F5B3FBF5F39BB2D5E70846AA
:1026F000E9E700BF00B4C4043F420F0030B50D4B02
:1027000005200D4D1C786C438C420ED15978012068
:10271000518099785171D9789171197911715B79DA
:1027200003EB83035B00138030BD013803F1060324
:10273000E8D1F9E71C68000840420F0038B540F2C4
:102740007772036BC3F8BC200722036BC3F8C82061
:10275000037C204A043B056B012B136894BF0524BE
:102760000624210441EA8301C5F8A01003F1805139
:1027700001F52C518900C161122101FB043300F5E0
:10278000405191F89417136059B1016B9C00C1F846
:10279000AC4003F18051123301F52C5113608900D4
:1027A00041621168046B8B0043F0E063C4F8C030F1
:1027B00001F180537E3103F52C5311609B00064AD2
:1027C000836203F5FC739342C36202D9034800F0AD
:1027D000FDFD38BDDCD80020FCB500408467000852
:1027E0002DE9F04F00F540551F4697B0044695F887
:1027F000603788469146022B04D90026304617B030
:10280000BDE8F08FB24A52F8231009B942F823000C
:102810003B1FB048C4F80C80012B017827748CBF93
:102820000023012385F89437C9B9302383F3118835
:10283000A94BD3F8EC2042F48072C3F8EC20D3F813
:10284000942042F48072C3F89420D3F8942022F4A8
:102850008072C3F894200123037081F3118895F8E6
:1028600059377BB9302383F311889C4A95F8603738
:10287000D35C0BB3012B28D0012385F859370023F3
:1028800083F31188302383F31188226B936923F03B
:102890001003936100F0A0FD8246236B9E6916F041
:1028A000080619D000F098FDA0EB0A03FA2BF4D922
:1028B000002686F31188A1E70321132002F062F8B5
:1028C0000321152002F05EF8D6E70321142002F060
:1028D00059F803211620F5E79A6942F001029A613E
:1028E00000F07AFD8246236B9A69D00706D400F087
:1028F00073FDA0EB0A03FA2BF5D9D9E79A694FF0DB
:10290000000A42F002029A61236BC3F854A08AF3D2
:10291000118804F5315B04F500530BF1180BD3F863
:102920004C0CFFF785F9582200216846FEF7BAFDE6
:1029300002A8FFF7F9FC0BEB060058365522694652
:10294000CDF850A0FEF79CFDB6F5306FEBD104F545
:102950005D524146204685F858A73A3285F85BA774
:10296000FFF766FE064690B9226B936923F00103D8
:10297000936100F031FD0546236B9B69D9077FF514
:102980003CAF00F029FD431BFA2BF5D935E795F84C
:102990009437C5F88C8713B10123A5F87C3795F8D7
:1029A0007E37226B591E95F87F37013B1B0243EAA5
:1029B000416395F8801701390B43B5F87C1701394D
:1029C00043EA0143D36195F8943753B195F87F17E3
:1029D000424695F88037204619440131C9B2FFF7C5
:1029E00075FDB9F1000F36D004F55E524946204618
:1029F0000232FFF783FE90B9226B936923F0010343
:102A0000936100F0E9FC0546236B9B69DA077FF5CB
:102A1000F4AE00F0E1FC431BFA2BF5D9EDE695F896
:102A20008727C5F89097511E95F88827236B013AA0
:102A3000120142EA012295F8861701390A43B5F8D6
:102A40008417013942EA014242F40002DA604FF48D
:102A50002062236B9A64236B4FF000082046C3F872
:102A6000BC80FFF76BFE85F878876FF04042236BE0
:102A7000032F1A651A4A236B5A654FF00222236B03
:102A80009A654FF0FF32236BC3F8E0204FF003024A
:102A9000236BDA65226B936943F4407393613FF4CF
:102AA000ADAE226B936923F00103936100F094FCB7
:102AB0000746236B9B69DB0705D500F08DFCC31B24
:102AC000FA2BF6D999E6012385F85A3796E600BF26
:102AD000D0D80020D8D8002000440258BC67000895
:102AE000550208022DE9F04F00F5315700F55F5A05
:102AF00097B0044690469946203700264FF0580B71
:102B00000AF1200A236BD3F8D830F340D80757D501
:102B10000BFB064303F5325393F82C20283311079F
:102B20004ED404F540550BFB0641D5F8BC2701F502
:102B300032510132C5F8BC274AE902891B799A064D
:102B400042BFD5F8EC370133C5F8EC3791F82C309B
:102B500043F0080381F82C303B68D5F86427134014
:102B6000D5F86827934204BF04F55D53C3E90C8987
:102B70000BFB064303F5325328331B79DB0714D5CF
:102B800095F85B378BB16846FFF7DAFB394646228A
:102B900003A8FEF775FC012369462046ADF808300E
:102BA0002368CDE900895B6C9847D5F8E037D5F804
:102BB0005C070133C5F8E03710B103681B6998471B
:102BC00001365837202E9DD117B0BDE8F08F000098
:102BD0002DE9F0470F46A8B0044600F0FFFB814600
:102BE0008846002F5AD1236BD3F8A02012F4FE0F91
:102BF00003D1002028B0BDE8F087D3F8A4209201CB
:102C000041BF04F54051D1F8D0270132C1F8D02797
:102C1000D3F8A4205606ECD0D3F8A450E669C5F347
:102C20000525482368464FF0000A03FB0566FFF7B9
:102C30007BFB326851004ABF22F06043C2F38A43F3
:102C400043F00043920048BF43F080430093736811
:102C500013F400131BBF012304F540528DF84530D7
:102C60008DF845301EBFD2F8F0370133C2F8F03787
:102C7000F38803F00F038DF844309DF84400FEF70D
:102C8000B1FF5FFA8AF3984225D9F21828A90AF110
:102C9000010A127A0B4403F89C2CEEE7012FA8D10D
:102CA000236BD3F8B02012F4FE0FA2D0D3F8B420D7
:102CB000950141BF04F54051D1F8D0270132C1F848
:102CC000D027D3F8B420500693D0D3F8B450266A56
:102CD000C5F30525A5E7EFB9236BC3F8A85012A8E3
:102CE000FFF72EFB4622694615A8FEF7C9FB002315
:102CF000204612A9ADF85030236804F540545B6CAF
:102D0000CDE91298984758B1D4F8C8370133C4F8C0
:102D1000C8376FE7012FE2D1236BC3F8B850DEE765
:102D2000D4F8CC3701200133C4F8CC3762E7000077
:102D30001F292DE9F0470446A8B00E46036B4ED874
:102D4000D3F8980006F01F0301259D40284068D065
:102D500000F044FB4FF04809636A804668460F461E
:102D600019FB0639FFF7E0FA4FF0000AD9F8002006
:102D700051004ABF22F06043C2F38A4343F000434C
:102D8000920048BF43F080430093D9F8043013F415
:102D900000131BBF012304F540528DF845308DF818
:102DA00045301EBFD2F8F0370133C2F8F037B9F81A
:102DB000063003F00F038DF844309DF84400FEF711
:102DC00011FF5FFA8AF398420CD909EB030228A994
:102DD0000AF1010A127A0B4403F89C2CEDE7D3F8B0
:102DE0009C00AFE71F2E236B1ED8C3F8985012A883
:102DF000FFF7A6FA4622694615A8FEF741FB002315
:102E0000204612A9ADF85030236804F540545B6C9D
:102E1000CDE91287984750B1D4F8C8370133C4F8C8
:102E2000C83728B0BDE8F087C3F89C50DFE7D4F876
:102E3000CC370133C4F8CC37F3E7000010B50446B3
:102E40000021FFF775FF04F5405310B1012283F80C
:102E50005B27D3F8E027D3F85C070132C3F8E027FB
:102E600020B10368BDE810401B69184710BD000081
:102E70002DE9F04105460F4600F54054012639463C
:102E80002846FFF7A5FE10B184F85B67F7E7D4F892
:102E9000E037D4F85C070133C4F8E03720B10368A9
:102EA000BDE8F0411B691847BDE8F081036B2DE9CF
:102EB000F0411A6C12F47F0F2FD042F6A8451B6C1C
:102EC00000F540540022582647194FF0010CC4F871
:102ED000E43706FB02F143182B4493F804E01EF09C
:102EE000020F17D01EF0040F14D17958D0F830E03B
:102EF0000CFA01F1DEF8CC8011EA080F0AD0CEF806
:102F0000D410197941F004011971D4F8C437013390
:102F1000C4F8C4370132202ADBD1BDE8F0810000BB
:102F2000304B70B51E561B5C012B30D82E4D2F4AEE
:102F300055F8233052F8264013B349B3236D9A0550
:102F400010D54FF40073236500F048FA50EA0102EF
:102F50000B4602D0013861F10003024655F8260005
:102F6000FFF7C0FD236D9B0136D54FF0007255F879
:102F70002630226503F54053012283F878272BE0A1
:102F800001232365102323654FF48053236570BD0F
:102F9000236DD90702D4236D5A0706D505230021D6
:102FA00055F826002365FFF763FF236DDB0602D487
:102FB000236D580606D55023012155F826002365B8
:102FC000FFF756FF236D190306D54FF4002355F87C
:102FD00026002365FFF732FF55F82600BDE8704054
:102FE000FFF764BFC0670008D0D80020C46700089E
:102FF00008B5302383F31188FFF758FF002383F3CC
:10300000118808BD036BD3F8C00010F07C5005D0C8
:10301000D3F8C40080F40010C0F3405070470000A3
:1030200008B5302383F3118800F50050D0F84C0C1C
:10303000FEF710FE002383F3118857288CBF002071
:10304000012008BD00F5405393F8782762B1016B69
:103050008A6922F001028A61D3F8D4270132C3F8C9
:10306000D427002283F87827704700002DE9F34722
:10307000302181F3118800F5315100254FF0580EB1
:1030800042F6A84818314FF0010900F5405C0EFBEC
:1030900005044444267977071CD4F6061AD50E6D2C
:1030A00009FA06FA066BD6F8CC701AEA070F11D0A7
:1030B0004F6801970F689742019F9F410AD2C6F857
:1030C000D4A0267946F004062671DCF8C047013406
:1030D000CCF8C04701355831202DD8D1002383F3D7
:1030E000118802B0BDE8F087F8B51E4600230F46F0
:1030F000054613701446FFF793FF80F00100387007
:103100001EB12846FFF77EFF2070F8BD2DE9F04F75
:1031100085B099460D468046164691F800B0DDE927
:103120000EA302931378019300F058F92B7804460C
:103130000F4613B93378002B41D022463B46404618
:10314000FFF794FFFFF754FFFFF77CFF4B46324633
:103150002946FFF7C9FF2B7833B1BBF1000F03D02D
:10316000012005B0BDE8F08F337813B1019B002B2F
:10317000F6D108F5405303935445029B77EB0303C4
:103180001DD2039BD3F85C07C8B10368AAEB040106
:103190001B6898474B46324629464046FFF7A4FF36
:1031A0002B7813B1BBF1000FDAD1337813B1019B47
:1031B000002BD5D100F012F904460F46DCE70020C1
:1031C000CFE70000002108B50846FFF7A9FEBDE8DB
:1031D000084001F00FB9000008B501210020FFF7F9
:1031E0009FFEBDE8084001F005B9000008B50021C8
:1031F0000120FFF795FEBDE8084001F0FBB8000094
:10320000012108B50846FFF78BFEBDE8084001F034
:10321000F1B80000164B1A69920727D502221A61ED
:103220009B689B0F012B07D0934211D0F3B900F597
:10323000405080F89637704700F5405292F8961744
:10324000A1B982F8963700F55E50183000F07EB8CC
:1032500000F5405393F8972742B9012283F8972746
:10326000044A936923F004039361ECE7704700BFBD
:1032700000A8004000A0004008B5044B186808B141
:10328000FFF7C8FFBDE8084001F0B4B8D0D800206F
:1032900010B500F540540C4A94F86037D35C8BB9F4
:1032A00094F896370BB1012010BD4FF47A7300F5F6
:1032B0005E505943183000F02DF818B194F8963745
:1032C000002BF0D10020EFE7BC6700080368002165
:1032D0001B6818477047000008B5043001F0C4FCB3
:1032E000B0FA80F0400908BD08B5302383F3118897
:1032F000C368002B02DC043001F0E8FC01F08CFC18
:10330000002383F3118808BD10B5044603F0DCF9EF
:10331000204610BDF8B5051D0C4671B14EF660276C
:10332000BC422646284628BF3E46314601F0C4FC32
:1033300050B1A41BF4D1204605E0284601F0BCFCA6
:10334000B0FA80F04009F8BD0120FCE708B5302351
:1033500083F31188C368002B02DC043001F0B6FC53
:10336000002383F3118808BD044B10B5044640F8D0
:10337000043B01F05DFC204610BD00BF446800081E
:1033800000B59BB0EFF3098168226846FEF778F834
:10339000EFF30583014B9B6BFEE700BF00ED00E000
:1033A00008B5FFF7EDFF000000B59BB0EFF3098112
:1033B00068226846FEF764F8EFF30583014B5B6B08
:1033C000FEE700BF00ED00E0FEE700000FB408B527
:1033D000029801F0A5FCFEE702F094B802F076B87E
:1033E0002DE9F041456A15B94162BDE8F0814B68AD
:1033F000AC4623F06047C3F38A464FEAD37EC3F35B
:10340000807816EA230638BF3E462B465A68BEEB44
:10341000D27F22F060440AD0002A18DAA40CB44209
:1034200017D19D420FD10D60DEE71346EEE7A742AC
:1034300007D102F08044C2F3807242450BD054B1F0
:10344000EFE708D2EDE7CCF800100B60CDE7B4420F
:1034500001D0B442E5D81A689C46002AE5D119602B
:10346000C3E700002DE9F047089D01F0070400EBD9
:10347000D1004FF47F494FEAD508224405F00705F3
:10348000944201D1BDE8F08704F0070705F0070A70
:10349000111B08EBD50E57453E4613F80EC038BF3A
:1034A0005646C6F108068E4228BF0E46E108415C2A
:1034B00034443544B94029FA06F721FA0AF1FFB23B
:1034C0008CEA010147FA0AF739408CEA010C03F84B
:1034D0000EC0D5E780EA0120082341F2210201B2A3
:1034E000013B4000002980B2B8BF504013F0FF03F9
:1034F000F5D1704738B50C468D18A54200D138BDBE
:1035000014F8011BFFF7E6FFF7E7000042684AB135
:10351000136881894360438901339BB29942438197
:1035200038BF83811046704770B588B004462022AA
:103530000D4668460021FDF7B5FF20460495FFF7CC
:10354000E5FF024660B16B46054608AE1C460835ED
:1035500003CCB44245F8080C45F8041C2346F5D1C9
:10356000104608B070BD0000082817D909280CD0F3
:103570000A280CD00B280CD00C280CD00D280CD00D
:103580000E2814BF4020302070470C2070471020B8
:1035900070471420704718207047202070470000A3
:1035A000082817D90C280CD910280CD914280CD9A4
:1035B00018280CD920280CD930288CBF0F200E20B9
:1035C0007047092070470A2070470B2070470C2075
:1035D00070470D20704700002DE9F843048C054624
:1035E000072C43D990F822700FB13F2C3ED900260A
:1035F0004FF6FF73D5E90298C6F12000A6F120022C
:1036000029FA06F1083608FA00F028FA02F2014316
:1036100018461143C9B2FFF75DFF402E0346EBD1B8
:103620002246E969FFF766FF3F2C034614D99FB194
:1036300002343F220025B4FBF2F2C2EB8212A41A3C
:10364000601CE44380B2FFF7ABFFFFF78DFF04443B
:10365000E4B2EAB2944202D81846BDE8F8831846AC
:103660000021FFF737FF01350346F2E74FF6FF73FE
:10367000F2E7000010B54B6823B9CA8A63F3090268
:10368000CA8210BD04691A681C600361C38A013BC9
:10369000C3824A60EFE700002DE9F84F1D46CB8A50
:1036A0000F468146C3F30901924665290B4630D087
:1036B0000020AAB207F11A049EB21FFA80F8642E05
:1036C0000FD8904503F1010306D30A44FB8A62F345
:1036D00009030120FB821AE01AF800600130E65469
:1036E000EAE79045F1D2A1F1650B7C237C68BBFB36
:1036F000F3F203FB12BB1FFA8BF6002C46D14846AF
:10370000FFF704FF044638B978606FF00200BDE8A7
:10371000F88F4FF00008E6E7002606607860ADB24B
:103720004FF0000B454510D90AEB0803221D13F892
:10373000011B08F101089155B1B21FFA88F87B29E5
:103740002CD0454506F10106F1D8FB8AC3F30902E6
:10375000154465F30903BCE701321C4692B22368A5
:10376000002BF9D1A5F165030B447C21B3FBF1F3E8
:1037700001339BB29A42D2D2BBF1000FCFD148465F
:10378000FFF7C4FE20B9C4F800B0BEE70122E6E7A7
:10379000C0F800B05E4620600446C0E74545D4D975
:1037A0004846FFF7B3FE08B92060AEE7C0F800B0A6
:1037B000002620600446B5E72DE9F04F1C4685B091
:1037C0005B698046CDE90212002B00F0A480238CB7
:1037D0001BB1E269002A00F09E8094F8222008F1D3
:1037E0000C0B002A14BF402208229342019238D2C7
:1037F0005846FFF78BFE054628B96FF002063046A3
:1038000005B0BDE8F08F4C220021FDF74BFE228C65
:10381000E16905F10800FDF733FE208C0126013037
:1038200080B2FFF7BDFEFFF79FFE013880B2208413
:10383000013085F8480040466369228C1B782A4491
:1038400003F01F0363F03F031372029B43F0004138
:103850006960294694F8223085F84A30FFF7C0FDA8
:10386000CDE700274FF08009BA463E465846FFF79D
:103870004DFE05460028C0D04C220021FDF712FE67
:10388000BAF1000F3BD1039B02202B81019B03F176
:10389000FF3C02460130218C624580B201DA8A4544
:1038A0002FD3FFF77DFE8A4508BF4FF04009FFF791
:1038B0005BFE62690138029B1278013615FA80F1CD
:1038C000013002F01F0236B242EA471287F00107C8
:1038D00049EA020943F0004281F80890294685F838
:1038E000480040466A604FF0000994F8222085F8AD
:1038F0004A20FFF775FD228C5245B7D17FE70020A3
:10390000C4E7E1692A440AF1010311F80A101FFA19
:1039100083FA1172BDE76FF0010670E7F8B515463E
:103920000E463022002104461F46FDF7BBFD069BD4
:10393000B5F5000FA760636004F11000079B34BF6A
:10394000EA094FF6FF72E661A362002397B29A423A
:1039500006D800230360A782E3822383E360F8BDD7
:103960000660013330468036F1E7000003781BB96A
:103970004BB2002BC8BF0170704700000078704741
:10398000F8B50C46C969074611B9238C002B37D10D
:10399000257E1F2D34D8387828BB228C072A2CD8B6
:1039A000268A36F003032BD14FF6FF70FFF7A2FDF6
:1039B00020F0010031024FF6FF72400441EA056138
:1039C000400C41EA4025234629463846FFF7F4FEDD
:1039D000002807DD626913780133DBB21F2B88BF33
:1039E00000231370F8BD218A2D0645EA0125054301
:1039F0002046FFF7F1FD0246E5E76FF00300F1E72F
:103A00006FF00100EEE7000070B58AB0044616467C
:103A10000021282268461D46FDF744FDBDF83830D8
:103A200069462046ADF810300F9B05939DF8403055
:103A30008DF81830119B0793BDF84830ADF8203051
:103A40009DF84C30CDE902658DF82230FFF798FFE4
:103A50000AB070BD2DE9F041D36905460C46164603
:103A60000BB9138C5BBB377E1F2F28D895F80080CD
:103A7000B8F1000F26D03046FFF7AEFD33782102B3
:103A80000246284641EAC331338A41EA080141EA45
:103A9000076141EA0341334641F08001FFF78CFEA4
:103AA00000280ADD3378012B07D1726913780133BE
:103AB000DBB21F2B88BF00231370BDE8F0816FF0CD
:103AC0000100FAE76FF00300F7E70000F0B58BB0F4
:103AD00004460D4617460021282268461E46FDF77B
:103AE000E1FC9DF84C30294620465A1E5342534172
:103AF0006A468DF800309DF84030ADF81030119BCB
:103B000005939DF848308DF81830149B0793BDF845
:103B10005430ADF820309DF85830CDE902768DF85C
:103B20002230FFF797FF0BB0F0BD0000406A00B1F4
:103B300004307047436A1A68426202691A6003617E
:103B4000C38A013BC38270472DE9F041D0F8208041
:103B500014461D46184E4146002709B9BDE8F081BC
:103B6000D1E90223A21A65EB0303964277EB030324
:103B70001ED2036A8B420DD1FFF77CFD036A1B68DE
:103B8000036203690B60C38A0161013B016AC3825E
:103B90008846E2E7FFF76EFD0B68C8F8003003695E
:103BA0000B60C38A0161013BC382D8F80010D4E7DF
:103BB00088460968D1E700BF80841E002DE9F04FD8
:103BC0008BB00D4614469B46DDF850908046002889
:103BD00000F02181B9F1000F00F01D81531E3F2B31
:103BE00000F21981012A03D1BBF1000F40F01381CB
:103BF0000023CDE90833B8F81430B5EBC30F4FEA12
:103C0000C30603D300200BB0BDE8F08F2B199E42F2
:103C1000D8F80C3036BF761B2646F6B223B9D8F852
:103C20001030002B00F08380B5F54A7F52D2C5F5E5
:103C30004A7329469E424FF000032CBFC5F1280766
:103C40003746009308AB28BFFFB2D8F80800A6EBB0
:103C5000070A3D443A465FFA8AFAFFF703FCB8F8D0
:103C600014304FF44A7103F10053653BDB000493B9
:103C7000D8F80C300393039B13B1BAF1000F2CD189
:103C8000D8F8100040B1BAF1000F05D008AB524689
:103C9000691A0097FFF7E6FB30B2002EB2D0660734
:103CA0000AD00AAB624203EBD40102F0070211F81A
:103CB000083C134101F8083C082C3FD9102C40F275
:103CC000B780202C40F2B980BBF1000F00F09E803D
:103CD000082337E0B2460027C1E7049BB3F5787F9D
:103CE00028BF4FF4787306930B44AB42059315D964
:103CF0005A1B0398691A0097924508AB00F104001B
:103D000034BF5246D2B20792FFF7ACFB079A174472
:103D1000AAEB020A1544FFB25FFA8AFA049B069ADC
:103D200005999B1A0493039B1B680393A3E70093D5
:103D3000324608AB2946D8F80800ABE7BBF1000FC4
:103D400013D00123B4EBC30F6BD0082C12D89DF80D
:103D50002030621E23FA02F2D50706D54FF0FF325B
:103D600002FA04F423438DF820309DF8203089F8BE
:103D7000003048E7102C12D8BDF82030621E23FA1C
:103D800002F2D10706D54FF0FF3202FA04F42343C2
:103D9000ADF82030BDF82030A9F8003033E7202CF2
:103DA0000FD80899631E21FA03F3DA0705D54FF0FF
:103DB000FF3202FA04F40C430894089BC9F800305F
:103DC00021E7402C2AD0611EC4F12102A4F1210375
:103DD000DDE9086526FA01F105FA02F225FA03F396
:103DE00011431943CB0711D50122A4F12003C4F1DB
:103DF000200102FA03F322FA01F1A2400B435242DE
:103E000063EB430332432B43CDE90823DDE9082369
:103E1000C9E90023F7E66FF00100F4E66FF008004F
:103E2000F1E6082CA1D9102CB4D9202CEED8C4E787
:103E3000BBF1000FAED0022384E7BBF1000FBCD072
:103E400004237FE7012A30B5144638BF012485B02A
:103E50000025402C28BF4024012ACDE9025518D85E
:103E60001B788DF8083063070AD004AB624203EB7D
:103E7000D40502F0070215F8083C934005F8083C09
:103E8000034600912246002102A8FFF7EBFA05B095
:103E900030BD082AE4D9102A03D81B88ADF80830B1
:103EA000E1E7202A95BF1B68D3E900230293CDE9FF
:103EB0000223D8E710B5CB681BB98B600B618B82EE
:103EC00010BD04691A681C600361C38A013BC38288
:103ED000CA60F0E703064CBFC0F3C0300220704751
:103EE00008B50246FFF7F6FF022806D15306C2F3D3
:103EF0000F2001D100F0030008BDC2F30740FBE72B
:103F00002DE9F04F93B004460D46CDE903230A682E
:103F10001046FFF7DFFF0228824614BFC2F30626D1
:103F20000026002A80F21B8212F0C04940F017825E
:103F300091F84410002900F01282022803D023785F
:103F4000B34240F00F82C2F3046310462944069343
:103F500002F07F030593FFF7C3FF059B0022834612
:103F60004FEA8348002348EA0A4848EA4668CE7880
:103F7000CDE90823F30948EA000802936AD0059BBB
:103F8000024608A92046009353466768B8470028B0
:103F900000F0EB81276A4FB9414604F10C00FFF7AE
:103FA000C3FA074690B96FF0020057E03B699845A5
:103FB0000DD03F68002FF9D1414604F10C00FFF706
:103FC000B3FA07460028EED0236A3B60276297F8D1
:103FD00017C006F01F08CCF3840CACEB0800A8EB6C
:103FE0000C031FFA80FE0028B8BF0EF120001FFA54
:103FF00083FEB8BF00B2002B0793B8BF0EF12003B9
:10400000D7E90221BCBF1BB2079352EA01033AD0A1
:10401000039B4FF0000CDFF80CE39A1A049B63EB50
:10402000010196457CEB01032DD395F8453097F8B7
:104030001AE073451AD1029B002B00F085800128FD
:1040400021DC7868F8B9DFF8D8C2944570EB010339
:1040500016D339E0276A27B96FF00C0013B0BDE81A
:10406000F08F3B699845B2D03F68F4E7AC48904286
:104070007CEB010301D30020F0E7029B002BFAD078
:10408000079B0F2B18DCFA7DB3003946204602F05F
:10409000030203F07C031343FB75FFF7EBFA95F87B
:1040A0004530BB76029B3BB9FB7DC3F384020132F2
:1040B00062F38603FB75CFE795F84520BB7E9A42F5
:1040C000D9D1029B002B3FD0B309022B3CD0039BDC
:1040D000142200210DA8BB60049BFB60FDF7E2F9F0
:1040E000039B95F846200A93049BADF83EB00B93D2
:1040F0002B1D8DF840A00C9395F844308DF841802D
:10410000013BDBB2ADF83C30069B8DF84230059B9D
:104110008DF84330B2B994F82C3083F0010303F0EA
:1041200001030AA920468DF845208DF84430A36884
:104130009847FB7DC3F38403013303F01F039B0205
:10414000FB8298E70023EAE7FB7DC6F34012B2EB5F
:10415000D31F40F00D81C3F38403434540F00B812E
:10416000029AB60995F84430002A54D016F0010698
:1041700064D1032B40F20281039B394604F10C0009
:10418000BB60049BFB60FB8A66F30903AE1DFB82E8
:10419000324695F84430033BDBB2FFF77DFA002846
:1041A0000CDA39462046FFF765FAFB7DC3F384033A
:1041B000013303F01F039B02FB82F4E6AB88DDE9C9
:1041C00008843B834FF6FF73C9F12000A9F1200258
:1041D00028FA09F109F1080904FA00F024FA02F2B8
:1041E000014318461143C9B2FFF774F9B9F1400F02
:1041F0000346E9D1B882314695F84420033AD2B259
:10420000FFF778F9FB7DB882DA43C2F3C01262F39C
:10421000C713FB752FE78EB92E1D013B394604F1FC
:104220000C00DBB23246FFF737FA0028B9DB95F80D
:1042300044203146B88A013AD2B2E1E7F98A013B1B
:10424000C1F30901DAB2642964D8281D002307F1FB
:104250001B069A4208D910F801CB013306F801C0B9
:104260000131DBB26529F4D1039993420A9138BF39
:10427000043304992CBF002355FA83F30B9107F103
:104280001B010C9179680E930D91FB8AADF83EB03D
:10429000C3F309038DF840A08DF841801A44069BB2
:1042A000ADF83C208DF8423095F84620059B8DF8FE
:1042B0004330002A51D194F82C3083F0010303F0ED
:1042C00001038DF84520291D8DF844300023B88A5C
:1042D0007B6095F84420013AFFF70CF93B8BB882DC
:1042E000834203D1A3680AA92046984720460AA919
:1042F000FFF7E0FDFB7DBA8AC3F38403013303F0CB
:104300001F039B02FB823B8B9A420CBF00206FF085
:104310001000A3E67B68002BA6D0652006E000BF56
:1043200040420F0080841E007C3033461E68002E01
:10433000FAD1091A2E1D081D184401EB090C5FFA69
:1043400089F3BCF17B0F8FD89A428DD916F8013BC7
:1043500009F1010900F8013BEFE70023AFE76FF037
:1043600009007BE66FF00A0078E66FF00B0075E657
:104370006FF00D0072E66FF00E006FE66FF00F0049
:104380006CE600BFEFF30983054968334A6B22F0FE
:1043900001024A6383F30988002383F3118870477D
:1043A00000EF00E0302080F3118862B60D4B0E4A1A
:1043B000D96821F4E0610904090C0A430B49DA6069
:1043C000D3F8FC2042F08072C3F8FC20084AC2F8FF
:1043D000B01F116841F0010111602022DA7783F8E3
:1043E0002200704700ED00E00003FA0555CEACC591
:1043F000001000E0302310B583F311880E4B5B688A
:1044000013F4006314D0F1EE103AEFF309844FF087
:104410008073683CE361094BDB6B236684F3098896
:1044200000F0DAFB10B1064BA36110BD054BFBE7B2
:1044300083F31188F9E700BF00ED00E000EF00E032
:104440003F0400084204000808B5074B074A1968F2
:1044500001F03D01996053680BB190689847BDE841
:104460000840FFF7C7BF00BF00000240E4D80020AB
:1044700008B5084B1968890901F03D018A019A6065
:10448000054AD3680BB110699847BDE80840FFF7AB
:10449000B1BF00BF00000240E4D8002008B5084BBF
:1044A0001968090C01F03D010A049A60054A536934
:1044B0000BB190699847BDE80840FFF79BBF00BF6C
:1044C00000000240E4D8002008B5084B1968890DA7
:1044D00001F03D018A059A60054AD3690BB1106A63
:1044E0009847BDE80840FFF785BF00BF00000240C5
:1044F000E4D8002008B5074B074A596801F03D0190
:10450000D960536A0BB1906A9847BDE80840FFF73D
:1045100071BF00BF00000240E4D8002008B5084B7E
:104520005968890901F03D018A01DA60054AD36AB8
:104530000BB1106B9847BDE80840FFF75BBF00BFA9
:1045400000000240E4D8002008B5084B5968090C67
:1045500001F03D010A04DA60054A536B0BB1906B20
:104560009847BDE80840FFF745BF00BF0000024084
:10457000E4D8002008B5084B5968890D01F03D01C9
:104580008A05DA60054AD36B0BB1106C9847BDE819
:104590000840FFF72FBF00BF00000240E4D8002012
:1045A00008B5074B074A196801F03D019960536C43
:1045B0000BB1906C9847BDE80840FFF71BBF00BFE8
:1045C00000040240E4D8002008B5084B19688909A6
:1045D00001F03D018A019A60054AD36C0BB1106D60
:1045E0009847BDE80840FFF705BF00BF0004024040
:1045F000E4D8002008B5084B1968090C01F03D010A
:104600000A049A60054A536D0BB1906D9847BDE856
:104610000840FFF7EFBE00BF00040240E4D80020CE
:1046200008B5084B1968890D01F03D018A059A60AB
:10463000054AD36D0BB1106E9847BDE80840FFF7EF
:10464000D9BE00BF00040240E4D8002008B5074BE3
:10465000074A596801F03D01D960536E0BB1906E65
:104660009847BDE80840FFF7C5BE00BF0004024000
:10467000E4D8002008B5084B5968890901F03D01CC
:104680008A01DA60054AD36E0BB1106F9847BDE816
:104690000840FFF7AFBE00BF00040240E4D800208E
:1046A00008B5084B5968090C01F03D010A04DA60AD
:1046B000054A536F0BB1906F9847BDE80840FFF76C
:1046C00099BE00BF00040240E4D8002008B5084BA2
:1046D0005968890D01F03D018A05DA60054AD36FFA
:1046E00013B1D2F880009847BDE80840FFF782BEBA
:1046F00000040240E4D8002000230C4910B51A46FB
:104700000B4C0B6054F82300026001EB43000433B0
:104710004260402BF6D1074A4FF0FF339360D360DD
:10472000C2F80834C2F80C3410BD00BFE4D8002031
:1047300060680008000002400F28F8B510D9102862
:1047400010D0112811D0122808D10F240720DFF82B
:10475000B4E00126DEF80050A04208D9002649E066
:104760000446F4E70F240020F1E70724FBE706FAEC
:1047700000F73D4240D1214C4FEA001C3D4304EB81
:1047800000160EEBC000CEF80050C0E90123FBB2CA
:104790004BB11B48836B43F001038363036E43F00B
:1047A00001030366036E17F47F4F09D01448836B2F
:1047B00043F002038363036E43F002030366036E58
:1047C00054F80C00036823F01F030360056815F01C
:1047D0000105FBD104EB0C033D2493F80CC05F688A
:1047E00004FA0CF43C6021240560446112B1987B0A
:1047F00000F0C8F83046F8BD0130ADE76068000849
:1048000000450258E4D8002010B5302484F3118804
:10481000FFF792FF002383F3118810BD10B5044603
:10482000807B00F0C5F801231049627B03FA02F295
:104830000B6823EA0203DAB20B604AB90C4A916BA7
:1048400021F001019163116E21F001011166126ED8
:1048500013F47F4F09D1064B9A6B22F002029A6340
:104860001A6E22F002021A661B6E10BDE4D80020F8
:104870000045025808B5302383F31188FFF7CEFFB7
:10488000002383F3118808BD0023054A194601332C
:10489000102BC2E9001102F10802F8D1704700BFE5
:1048A00068D900202DE9F74F02F0030AC2F3C313C1
:1048B000C2F38009C2F3C108C2F3411E5746002269
:1048C0004FF00F0B0193CB0733D502F00703019C88
:1048D000012556009B00BAF1020F05FA02F504FA11
:1048E00003FC44680BFA03F324EA05046FEA0303AC
:1048F00044EA090444604FF00304856804FA06F6AC
:1049000025EA06056FEA060445EA08058560C568DC
:1049100025EA060545EA0E05C5601BD1072A13D80E
:10492000056A2B4043EA0C03036203681C403C43C6
:104930000460490822D04FEA490901324FEA880849
:104940004FEA8E0EBF00BEE7456A2B4043EA0C03D8
:104950004362EAE70568072A04EA050444EA070413
:10496000046005D8046A234043EA0C030362E0E7CD
:10497000446A234043EA0C034362DAE703B0BDE82C
:10498000F08F0000090100F16043012203F561434B
:10499000C9B283F8001300F01F039A4043099B003B
:1049A00003F1604303F56143C3F880211A60704747
:1049B00000F01F0301229A40430900F160409B0070
:1049C00000F5614003F1604303F56143C3F88020C3
:1049D000C3F88021002380F8003370470023C0E92A
:1049E000000083600361704770B51C4B0546846806
:1049F000DE6854B3B44212D103690133036170BD60
:104A0000A360237D83B1062B15D1A0692146D4E98B
:104A1000003213605A6000F0A1F8A3699C68B36883
:104A2000A2689A42ECD306E0D4E900322046136033
:104A30005A6000F0A3F82846314600F08FF8B561BF
:104A40000620BDE8704000F09BB803698660013322
:104A50000361F369C360F061D1E700BFE8D90020CA
:104A600008B5302383F31188FFF7BEFF002383F3DB
:104A7000118808BD194BD96883688B4210B520D1C5
:104A8000302383F311880269013A0261B2B90468E4
:104A9000C368A042CB611ED00A6A9BB901238A6019
:104AA000036103681A6802605060DA698360C2605B
:104AB000D861184600F062F800F0AEF8002383F3E6
:104AC000118810BD1C68A34203D0A468A24238BF5D
:104AD0002246DB68E1E78260F0E700BFE8D900200A
:104AE00000238268037503691B6899689142FBD2B1
:104AF0005A68036042601060586070470023826803
:104B0000037503691B6899689142FBD85A68036072
:104B1000426010605860704708B50846302383F340
:104B200011880A7D0023052A06D8DFE802F00B056C
:104B30000503120E826913604FF0FF338361FFF7A4
:104B4000CFFF002383F3118808BD82699368013386
:104B50009360D0E9003213605A60EDE7034610B568
:104B60001B68984203D09C688A689442F8D25A68BD
:104B70000B604A601160596010BD0000FFF7B0BFC4
:104B8000054BD96808751868026853601A600122DD
:104B9000D8600275FBF73EBCE8D900200C4B30B55D
:104BA000DD684B1C87B004460FD02B46094A684687
:104BB00000F0BAF92046FFF7E3FF009B13B1684607
:104BC00000F0BCF9A86907B030BDFFF7D9FFF9E7DD
:104BD000E8D90020194B0008044B1A68DB6890687C
:104BE0009B68984294BF002001207047E8D90020BC
:104BF000084B10B51C68D868226853601A600122FF
:104C0000DC602275FFF77AFF01462046BDE81040C0
:104C1000FBF700BCE8D90020044B1A68DB689268F7
:104C20009B689A4201D9FFF7E3BF7047E8D900209B
:104C3000C0E90000816070478368013B002B10B51C
:104C400083600CDA074BDC684368A0612060636016
:104C50001C6044600520FFF793FFA06910BD002091
:104C6000FCE700BFE8D9002008B5302383F31188A2
:104C7000FFF7E2FF002383F3118808BD826810B4B8
:104C8000541E002C846013DA29B982604FF0FF3083
:104C90005DF8044B7047074B4268DB685DF8044BD6
:104CA000986118605A60136043600520FFF776BF73
:104CB0000020EDE7E8D9002008B5302383F3118800
:104CC000FFF7DCFF002383F3118808BD83680133FD
:104CD000002B836008DC03681A68026050600022C1
:104CE00018469A61FFF74ABF7047000038B50123A4
:104CF000084C00252370656000F088FD00F0AEFDD3
:104D00000549064800F084FE0223237085F31188CC
:104D100038BD00BF60DC002064690008E8D90020CD
:104D200008B572B6044B986500F0C2FB00F084FC35
:104D3000024B03221A70FEE7E8D9002060DC002055
:104D400000F032B902228B600B6200230861084632
:104D50008A82CB61704700008368C168A3F18C022E
:104D600043F81C2C026943F84C2C42690A4843F86A
:104D7000482C0A4A43F8180CA3F1280043F82C2CBD
:104D8000022243F8201C03F8142C002203F8132CF1
:104D900043E90321704700BFE8D900202D04000833
:104DA00008B5FFF7D9FFBDE80840FFF7E7BE0000F0
:104DB000024BDB6898610F20FFF7E2BEE8D90020C4
:104DC000302383F31188FFF7F3BF000008B50146D5
:104DD000302383F311880820FFF7E0FE002383F3DC
:104DE000118808BD064BDB6839B1426818605A600B
:104DF000136043600420FFF7D1BE4FF0FF307047CF
:104E0000E8D900200368984206D01A680260506012
:104E100018469961FFF7B2BE70470000036810B5ED
:104E20009C68A2420CD85C688A600B604C60216070
:104E3000596099688A1A9A604FF0FF33836010BDF9
:104E4000121B1B68ECE700000A2938BF0A2170B565
:104E500004460D460A26601900F0D2FC00F0BAFCA8
:104E6000041BA54203D8751C04462E46F3E70A2E00
:104E700004D90120BDE8704000F00ABE70BD0000FA
:104E8000F8B5144B0D460A2A4FF00A07D96103F111
:104E90001001826038BF0A2241601969144601601E
:104EA00048601861A81800F09BFC00F093FC431BBD
:104EB0000646A34206D37C1C28192746354600F037
:104EC0009FFCF2E70A2F04D90120BDE8F84000F06A
:104ED000DFBDF8BDE8D90020F8B506460D4600F064
:104EE00079FC0F4A134653F8107F9F4206D12A4699
:104EF00001463046BDE8F840FFF7C2BFD169BB6844
:104F0000441A2C1928BF2C46A34202D92946FFF780
:104F10009BFF224631460348BDE8F840FFF77EBFBD
:104F2000E8D90020F8D90020C0E90323002310B4F9
:104F30005DF8044B4361FFF7CFBF000010B5194C7B
:104F4000236998420DD08168D0E9003213605A601D
:104F50009A680A449A60002303604FF0FF33A3610C
:104F600010BD0268234643F8102F536000220260F0
:104F700022699A4203D1BDE8104000F03BBC93681F
:104F800081680B44936000F025FC2269E169926816
:104F9000441AA242E4D91144BDE81040091AFFF7AF
:104FA00053BF00BFE8D900202DE9F047DFF8BC80EF
:104FB00008F110072C4ED8F8105000F00BFCD8F870
:104FC0001C40AA68031B9A423ED814444FF00009C3
:104FD000D5E90032C8F81C4013605A60C5F800904B
:104FE000D8F81030B34201D100F004FC89F31188E5
:104FF000D5E9033128469847302383F311886B693C
:10500000002BD8D000F0E6FB6A69A0EB04098246C9
:105010004A450DD2022000F03BFD0022D8F81030A6
:10502000B34208D151462846BDE8F047FFF728BFF4
:10503000121A2244F2E712EB09092946384638BF12
:105040004A46FFF7EBFEB5E7D8F81030B34208D078
:105050001444C8F81C00211AA960BDE8F047FFF706
:10506000F3BEBDE8F08700BFF8D90020E8D90020E2
:1050700038B500F0AFFB054AD2E90845031B181903
:1050800045F10001C2E9080138BD00BFE8D90020A0
:1050900000207047FEE70000704700004FF0FF302F
:1050A00070470000BFF34F8F044B1A695107FCD1C2
:1050B000D3F810215207F8D1704700BF00200052EA
:1050C00008B50D4B1B78ABB9FFF7ECFF0B4BDA685B
:1050D000D10704D50A4A5A6002F188325A60D3F8DF
:1050E0000C21D20706D5064AC3F8042102F1883202
:1050F000C3F8042108BD00BF68DC00200020005276
:105100002301674508B5114B1B78F3B9104B1A6999
:10511000510703D5DA6842F04002DA60D3F8102173
:10512000520705D5D3F80C2142F04002C3F80C21F8
:10513000FFF7B8FF064BDA6842F00102DA60D3F8F5
:105140000C2142F00102C3F80C2108BD68DC0020EC
:10515000002000520F289ABF00F580604004002014
:10516000704700004FF40030704700001020704777
:105170000F2808B50BD8FFF7EDFF00F500330268E4
:10518000013204D104308342F9D1012008BD00204E
:10519000FCE700000F2838B505463FD8FFF782FF2F
:1051A0001F4CFFF78DFF4FF0FF3307286361C4F8F2
:1051B00014311DD82361FFF775FF030243F0240368
:1051C000E360E36843F08003E36023695A07FCD49B
:1051D0002846FFF767FFFFF7BDFF4FF4003100F0EF
:1051E00007FA2846FFF78EFFBDE83840FFF7C0BF3B
:1051F000C4F81031FFF756FFA0F108031B0243F07B
:105200002403C4F80C31D4F80C3143F08003C4F803
:105210000C31D4F810315B07FBD4D9E7002038BD3E
:10522000002000522DE9F84F05460C46104645EA8D
:105230000203DE0602D00020BDE8F88F20F01F0038
:10524000DFF8BCB0DFF8BCA0FFF73AFF04EB0008C2
:10525000444503D10120FFF755FFEDE72022294601
:10526000204601F041FA10B920352034F0E72B46F2
:1052700005F120021F68791CDDD104339A42F9D16F
:1052800005F178431B481C4EB3F5801F1B4B38BFFC
:10529000184603F1F80332BFD946D1461E46FFF740
:1052A00001FF0760A5EB040C336804F11C0143F017
:1052B00002033360231FD9F8007017F00507FAD1F5
:1052C00053F8042F8B424CF80320F4D1BFF34F8FD7
:1052D000FFF7E8FE4FF0FF33202221460360284607
:1052E000336823F00203336001F0FEF90028BBD0DD
:1052F0003846B0E7142100520C200052142000520E
:10530000102000521021005210B5084C237828B10B
:105310001BB9FFF7D5FE0123237010BD002BFCD075
:105320002070BDE81040FFF7EDBE00BF68DC002034
:105330002DE9F04F0D4685B0814658B111F00D06AC
:1053400014BF2022082211F00803019304D0431E49
:10535000034269D0002435E0002E37D009F11F0147
:1053600021F01F094FF00108314F05F00403DFF869
:10537000CCA005EA080BBBF1000F32D07869C0075A
:105380002FD408F101080C37B8F1060FF3D19EB9FC
:10539000284D4946A819019200F082FA04460028D7
:1053A00039D12036019AA02EF3D1494600F078FA7F
:1053B000044600282FD1019A49461F4800F070FA90
:1053C000044660BB204605B0BDE8F08F0029C9D176
:1053D00001462846029200F063FA0446D8B9029AC0
:1053E000C0E713B178694107CBD5AC0702D578691E
:1053F0008007C6D5019911B178690107C1D5494621
:105400000AEB4810CDE9022300F04AFA0446DDE930
:1054100002230028B5D04A460021204601E04A4632
:105420000021FCF73FF8CDE70246002E96D199E720
:1054300070690008ACDC00206CDC00208CDC0020F3
:105440000121FFF775BF000070B5144D0124144E03
:1054500040F2FF3200210120FCF724F806EB441053
:1054600001342A6955F80C1F00F006FA062CF5D114
:1054700037254FF4C0542046FFF7E2FF014628B11C
:1054800022460848BDE8704000F0F6B9C4EBC404F9
:10549000013D4FEAD404EED170BD00BF7069000831
:1054A0008CDC00206CDC002008B100F06BBA704787
:1054B00038B5054D00240334696855F80C0B00F02D
:1054C000A9F8122CF7D138BD7069000838B5EFF390
:1054D00011859DB9EFF30584C4F30804302334B17A
:1054E00083F31188FFF7C4FD85F3118838BD83F37A
:1054F0001188FFF7BDFD84F3118838BDBDE8384041
:10550000FFF7B6BD10B5FFF7E1FF104CC008104A19
:10551000002340EA4170C908A0FB04ECA0FB020E86
:105520001CEB0000A1FB044CA1FB02125B41001923
:1055300043EB0C0011EB0E0142F10002411842F165
:105540000000090941EA007010BD00BFCFF753E326
:10555000A59BC4200244074BD2B210B5904200D1A3
:1055600010BD441C00B253F8200041F8040BE0B217
:10557000F4E700BF504000580E4B30B51C6F2404B8
:1055800005D41C6F1C671C6F44F400441C670A4C54
:1055900002442368D2B243F480732360074B9042E5
:1055A00000D130BD441C51F8045B00B243F82050D8
:1055B000E0B2F4E700440258004802585040005856
:1055C00007B5012201A90020FFF7C4FF019803B02D
:1055D0005DF804FB13B50446FFF7F2FFA04205D0C7
:1055E000012201A900200194FFF7C6FF02B010BDFF
:1055F0000144BFF34F8F064B884204D3BFF34F8F54
:10560000BFF36F8F7047C3F85C022030F4E700BF30
:1056100000ED00E00144BFF34F8F064B884204D3F6
:10562000BFF34F8FBFF36F8F7047C3F87002203006
:10563000F4E700BF00ED00E070470000074B45F2C3
:1056400055521A6002225A6040F6FF729A604CF678
:10565000CC421A600122024B1A7070470048005871
:1056600050DD0020034B1B781BB1034B4AF6AA22E6
:105670001A60704750DD002000480058034B1A683C
:105680001AB9034AD2F8D0241A6070474CDD0020C2
:1056900000400258024B4FF48032C3F8D0247047C8
:1056A0000040025808B5FFF7E9FF024B1868C0F345
:1056B000806008BD4CDD002070B5BFF34F8FBFF395
:1056C0006F8F1A4A0021C2F85012BFF34F8FBFF3F9
:1056D0006F8F536943F400335361BFF34F8FBFF3B0
:1056E0006F8FC2F88410BFF34F8FD2F8803043F62B
:1056F000E074C3F3C900C3F34E335B0103EA04064D
:10570000014646EA81750139C2F86052F9D2203B60
:1057100013F1200FF2D1BFF34F8F536943F480335D
:105720005361BFF34F8FBFF36F8F70BD00ED00E08B
:10573000FEE70000214B2248224A70B5904237D341
:10574000214BC11EDA1C121A22F003028B4238BF11
:1057500000220021FBF7A6FE1C4A0023C2F8843079
:10576000BFF34F8FD2F8803043F6E074C3F3C90023
:10577000C3F34E335B0103EA0406014646EA817532
:105780000139C2F86C52F9D2203B13F1200FF2D14B
:10579000BFF34F8FBFF36F8FBFF34F8FBFF36F8F89
:1057A0000023C2F85032BFF34F8FBFF36F8F70BD2D
:1057B00053F8041B40F8041BC0E700BF3C6B000813
:1057C00054E6002054E6002054E6002000ED00E0FE
:1057D00000F01EBA014B586A704700BF000C004031
:1057E000034B002258631A610222DA60704700BF3F
:1057F000000C0040014B0022DA607047000C0040B2
:10580000014B5863704700BF000C0040024B034A35
:105810001A60034A5A60704754DD002058E60020A1
:1058200000000220074B494210B55C68201A08406E
:105830001968821A8A4203D3A24201D85A6010BD65
:105840000020FCE754DD002008B5302383F31188E5
:10585000FFF7E8FF002383F3118808BD0448054BD8
:1058600003600023C0E901330C30FFF7B7B800BF75
:105870005CDD002049580008CB1D083A23F00703DF
:10588000591A521A10B4D2080024C0E900438460A7
:105890000C301C605A605DF8044BFFF79FB80000A5
:1058A0002DE9F74F364FCD1D8846002818BF074613
:1058B000082A4FEAD50538BF082207F10C003C1D25
:1058C00091460190FFF7CCF8019809F10701C9F161
:1058D000000E2246246864B9FFF7CCF83B68CBB3CE
:1058E00008224946E8009847044698B340E9027800
:1058F00030E004EB010CD4F804A00CEA0E0C0AF121
:105900000106ACF1080304EBC6069E42E1D9A6EB02
:105910000C0CB5EBEC0F4FEAEC0BDAD89C421DD225
:1059200004F10802AB45A3EB02024FEAE202626017
:1059300009D9691CED4303EBC1025D44556025683C
:1059400043F8315022601C46C3F8048044F8087BB9
:10595000FFF790F8204603B0BDE8F08FAA45216814
:1059600002D111602346EEE7013504EBC50344F88C
:10597000351003F10801761AF6105E601360F1E746
:105980005CDD002073B50446A0F1080550F8080C52
:1059900054F8043C061D0C3007330190DB0844F832
:1059A000043CFFF75DF8334601989E421A6801D027
:1059B000AB4228D20AB1954225D244F8082C54F8BB
:1059C000042C1D60013254F8081C05EBC206B142DC
:1059D00006D14E68324444F8042C0A6844F8082C76
:1059E0005E68711C03EBC1018D4207D154F8042C91
:1059F000013232445A6054F8082C1A6002B0BDE8F3
:105A00007040FFF737B81346CFE70000FEE700000D
:105A100070B51B4B0025044686B058600E46856263
:105A20000163FEF7BFFC04F11003A560E562C4E961
:105A300004334FF0FF33C4E90044C4E90635FFF7EF
:105A4000C9FE2B46024604F134012046C4E908236E
:105A500080230C4AA565FFF775F901230A4AE06027
:105A600000920375684672680192B268CDE902231C
:105A7000064BCDE90435FFF793F906B070BD00BFC2
:105A800060DC0020B8690008BD6900080D5A0008F4
:105A9000024AD36A1843D062704700BFE8D9002099
:105AA0004B6843608B688360CB68C3600B6943615C
:105AB0004B6903628B6943620B68036070470000A7
:105AC00008B53A4B40F2FF713948D3F888200A43B1
:105AD000C3F88820D3F8882022F4FF6222F007025E
